20170908-10:02:07.648: 8=FIX.4.4|9=80|35=A|56=ORDERROUTER|49=TOMADOR_DE_ORDENES|52=20170908-10:02:10|34=1|108=60|98=0|10=252|
20170908-10:02:07.662: 8=FIX.4.4|9=84|35=A|34=1|49=ORDERROUTER|52=20170908-10:02:07.662|56=TOMADOR_DE_ORDENES|98=0|108=60|10=210|
20170908-10:03:07.650: 8=FIX.4.4|9=68|35=0|56=ORDERROUTER|49=TOMADOR_DE_ORDENES|52=20170908-10:03:10|34=2|10=215|
20170908-10:03:08.189: 8=FIX.4.4|9=72|35=0|34=2|49=ORDERROUTER|52=20170908-10:03:08.189|56=TOMADOR_DE_ORDENES|10=169|
20170908-10:04:07.651: 8=FIX.4.4|9=68|35=0|56=ORDERROUTER|49=TOMADOR_DE_ORDENES|52=20170908-10:04:10|34=3|10=217|
20170908-10:04:09.189: 8=FIX.4.4|9=72|35=0|34=3|49=ORDERROUTER|52=20170908-10:04:09.189|56=TOMADOR_DE_ORDENES|10=172|
20170908-10:05:07.652: 8=FIX.4.4|9=68|35=0|56=ORDERROUTER|49=TOMADOR_DE_ORDENES|52=20170908-10:05:10|34=4|10=219|
20170908-10:05:09.189: 8=FIX.4.4|9=72|35=0|34=4|49=ORDERROUTER|52=20170908-10:05:09.189|56=TOMADOR_DE_ORDENES|10=174|
20170908-10:06:07.652: 8=FIX.4.4|9=68|35=0|56=ORDERROUTER|49=TOMADOR_DE_ORDENES|52=20170908-10:06:10|34=5|10=221|
20170908-10:06:09.190: 8=FIX.4.4|9=72|35=0|34=5|49=ORDERROUTER|52=20170908-10:06:09.190|56=TOMADOR_DE_ORDENES|10=168|
20170908-10:07:07.652: 8=FIX.4.4|9=68|35=0|56=ORDERROUTER|49=TOMADOR_DE_ORDENES|52=20170908-10:07:10|34=6|10=223|
20170908-10:07:10.189: 8=FIX.4.4|9=72|35=0|34=6|49=ORDERROUTER|52=20170908-10:07:10.189|56=TOMADOR_DE_ORDENES|10=170|
20170908-10:08:07.653: 8=FIX.4.4|9=68|35=0|56=ORDERROUTER|49=TOMADOR_DE_ORDENES|52=20170908-10:08:10|34=7|10=225|
20170908-10:08:10.189: 8=FIX.4.4|9=72|35=0|34=7|49=ORDERROUTER|52=20170908-10:08:10.189|56=TOMADOR_DE_ORDENES|10=172|
20170908-10:09:07.653: 8=FIX.4.4|9=68|35=0|56=ORDERROUTER|49=TOMADOR_DE_ORDENES|52=20170908-10:09:10|34=8|10=227|
20170908-10:09:10.189: 8=FIX.4.4|9=72|35=0|34=8|49=ORDERROUTER|52=20170908-10:09:10.189|56=TOMADOR_DE_ORDENES|10=174|
20170908-10:10:07.654: 8=FIX.4.4|9=68|35=0|56=ORDERROUTER|49=TOMADOR_DE_ORDENES|52=20170908-10:10:10|34=9|10=220|
20170908-10:10:10.189: 8=FIX.4.4|9=72|35=0|34=9|49=ORDERROUTER|52=20170908-10:10:10.189|56=TOMADOR_DE_ORDENES|10=167|
20170908-10:11:07.654: 8=FIX.4.4|9=69|35=0|56=ORDERROUTER|49=TOMADOR_DE_ORDENES|52=20170908-10:11:10|34=10|10=006|
20170908-10:11:10.189: 8=FIX.4.4|9=73|35=0|34=10|49=ORDERROUTER|52=20170908-10:11:10.189|56=TOMADOR_DE_ORDENES|10=209|
20170908-10:12:07.654: 8=FIX.4.4|9=69|35=0|56=ORDERROUTER|49=TOMADOR_DE_ORDENES|52=20170908-10:12:10|34=11|10=008|
20170908-10:12:10.190: 8=FIX.4.4|9=73|35=0|34=11|49=ORDERROUTER|52=20170908-10:12:10.190|56=TOMADOR_DE_ORDENES|10=203|
20170908-10:13:07.656: 8=FIX.4.4|9=69|35=0|56=ORDERROUTER|49=TOMADOR_DE_ORDENES|52=20170908-10:13:10|34=12|10=010|
20170908-10:13:10.190: 8=FIX.4.4|9=73|35=0|34=12|49=ORDERROUTER|52=20170908-10:13:10.190|56=TOMADOR_DE_ORDENES|10=205|
20170908-10:14:07.657: 8=FIX.4.4|9=69|35=0|56=ORDERROUTER|49=TOMADOR_DE_ORDENES|52=20170908-10:14:10|34=13|10=012|
20170908-10:14:11.189: 8=FIX.4.4|9=73|35=0|34=13|49=ORDERROUTER|52=20170908-10:14:11.189|56=TOMADOR_DE_ORDENES|10=216|
20170908-10:15:07.657: 8=FIX.4.4|9=69|35=0|56=ORDERROUTER|49=TOMADOR_DE_ORDENES|52=20170908-10:15:10|34=14|10=014|
20170908-10:15:11.189: 8=FIX.4.4|9=73|35=0|34=14|49=ORDERROUTER|52=20170908-10:15:11.189|56=TOMADOR_DE_ORDENES|10=218|
20170908-10:16:07.658: 8=FIX.4.4|9=69|35=0|56=ORDERROUTER|49=TOMADOR_DE_ORDENES|52=20170908-10:16:10|34=15|10=016|
20170908-10:16:11.189: 8=FIX.4.4|9=73|35=0|34=15|49=ORDERROUTER|52=20170908-10:16:11.189|56=TOMADOR_DE_ORDENES|10=220|
20170908-10:17:07.658: 8=FIX.4.4|9=69|35=0|56=ORDERROUTER|49=TOMADOR_DE_ORDENES|52=20170908-10:17:10|34=16|10=018|
20170908-10:17:11.189: 8=FIX.4.4|9=73|35=0|34=16|49=ORDERROUTER|52=20170908-10:17:11.189|56=TOMADOR_DE_ORDENES|10=222|
20170908-10:18:07.659: 8=FIX.4.4|9=69|35=0|56=ORDERROUTER|49=TOMADOR_DE_ORDENES|52=20170908-10:18:10|34=17|10=020|
20170908-10:18:11.189: 8=FIX.4.4|9=73|35=0|34=17|49=ORDERROUTER|52=20170908-10:18:11.189|56=TOMADOR_DE_ORDENES|10=224|
20170908-10:19:07.659: 8=FIX.4.4|9=69|35=0|56=ORDERROUTER|49=TOMADOR_DE_ORDENES|52=20170908-10:19:10|34=18|10=022|
20170908-10:19:11.190: 8=FIX.4.4|9=73|35=0|34=18|49=ORDERROUTER|52=20170908-10:19:11.190|56=TOMADOR_DE_ORDENES|10=218|
20170908-10:20:07.660: 8=FIX.4.4|9=69|35=0|56=ORDERROUTER|49=TOMADOR_DE_ORDENES|52=20170908-10:20:10|34=19|10=015|
20170908-10:20:11.190: 8=FIX.4.4|9=73|35=0|34=19|49=ORDERROUTER|52=20170908-10:20:11.190|56=TOMADOR_DE_ORDENES|10=211|
20170908-10:21:07.660: 8=FIX.4.4|9=69|35=0|56=ORDERROUTER|49=TOMADOR_DE_ORDENES|52=20170908-10:21:10|34=20|10=008|
20170908-10:21:12.189: 8=FIX.4.4|9=73|35=0|34=20|49=ORDERROUTER|52=20170908-10:21:12.188|56=TOMADOR_DE_ORDENES|10=212|
20170908-10:22:07.661: 8=FIX.4.4|9=69|35=0|56=ORDERROUTER|49=TOMADOR_DE_ORDENES|52=20170908-10:22:10|34=21|10=010|
20170908-10:22:12.189: 8=FIX.4.4|9=73|35=0|34=21|49=ORDERROUTER|52=20170908-10:22:12.189|56=TOMADOR_DE_ORDENES|10=215|
20170908-10:23:07.661: 8=FIX.4.4|9=69|35=0|56=ORDERROUTER|49=TOMADOR_DE_ORDENES|52=20170908-10:23:10|34=22|10=012|
20170908-10:23:12.190: 8=FIX.4.4|9=73|35=0|34=22|49=ORDERROUTER|52=20170908-10:23:12.189|56=TOMADOR_DE_ORDENES|10=217|
20170908-10:24:07.662: 8=FIX.4.4|9=69|35=0|56=ORDERROUTER|49=TOMADOR_DE_ORDENES|52=20170908-10:24:10|34=23|10=014|
20170908-10:24:12.190: 8=FIX.4.4|9=73|35=0|34=23|49=ORDERROUTER|52=20170908-10:24:12.190|56=TOMADOR_DE_ORDENES|10=211|
20170908-10:25:07.662: 8=FIX.4.4|9=69|35=0|56=ORDERROUTER|49=TOMADOR_DE_ORDENES|52=20170908-10:25:10|34=24|10=016|
20170908-10:25:13.189: 8=FIX.4.4|9=73|35=0|34=24|49=ORDERROUTER|52=20170908-10:25:13.189|56=TOMADOR_DE_ORDENES|10=222|
20170908-10:26:07.662: 8=FIX.4.4|9=69|35=0|56=ORDERROUTER|49=TOMADOR_DE_ORDENES|52=20170908-10:26:10|34=25|10=018|
20170908-10:26:13.189: 8=FIX.4.4|9=73|35=0|34=25|49=ORDERROUTER|52=20170908-10:26:13.189|56=TOMADOR_DE_ORDENES|10=224|
20170908-10:27:07.663: 8=FIX.4.4|9=69|35=0|56=ORDERROUTER|49=TOMADOR_DE_ORDENES|52=20170908-10:27:10|34=26|10=020|
20170908-10:27:13.189: 8=FIX.4.4|9=73|35=0|34=26|49=ORDERROUTER|52=20170908-10:27:13.189|56=TOMADOR_DE_ORDENES|10=226|
20170908-10:28:07.663: 8=FIX.4.4|9=69|35=0|56=ORDERROUTER|49=TOMADOR_DE_ORDENES|52=20170908-10:28:10|34=27|10=022|
20170908-10:28:14.190: 8=FIX.4.4|9=73|35=0|34=27|49=ORDERROUTER|52=20170908-10:28:14.189|56=TOMADOR_DE_ORDENES|10=229|
20170908-10:29:07.664: 8=FIX.4.4|9=69|35=0|56=ORDERROUTER|49=TOMADOR_DE_ORDENES|52=20170908-10:29:10|34=28|10=024|
20170908-10:29:14.189: 8=FIX.4.4|9=73|35=0|34=28|49=ORDERROUTER|52=20170908-10:29:14.189|56=TOMADOR_DE_ORDENES|10=231|
20170908-10:30:07.666: 8=FIX.4.4|9=69|35=0|56=ORDERROUTER|49=TOMADOR_DE_ORDENES|52=20170908-10:30:10|34=29|10=017|
20170908-10:30:14.189: 8=FIX.4.4|9=73|35=0|34=29|49=ORDERROUTER|52=20170908-10:30:14.189|56=TOMADOR_DE_ORDENES|10=224|
20170908-10:31:07.666: 8=FIX.4.4|9=69|35=0|56=ORDERROUTER|49=TOMADOR_DE_ORDENES|52=20170908-10:31:10|34=30|10=010|
20170908-10:31:14.189: 8=FIX.4.4|9=73|35=0|34=30|49=ORDERROUTER|52=20170908-10:31:14.189|56=TOMADOR_DE_ORDENES|10=217|
20170908-10:32:07.666: 8=FIX.4.4|9=69|35=0|56=ORDERROUTER|49=TOMADOR_DE_ORDENES|52=20170908-10:32:10|34=31|10=012|
20170908-10:32:14.190: 8=FIX.4.4|9=73|35=0|34=31|49=ORDERROUTER|52=20170908-10:32:14.190|56=TOMADOR_DE_ORDENES|10=211|
20170908-10:33:07.667: 8=FIX.4.4|9=69|35=0|56=ORDERROUTER|49=TOMADOR_DE_ORDENES|52=20170908-10:33:10|34=32|10=014|
20170908-10:33:15.189: 8=FIX.4.4|9=73|35=0|34=32|49=ORDERROUTER|52=20170908-10:33:15.189|56=TOMADOR_DE_ORDENES|10=222|
20170908-10:34:07.667: 8=FIX.4.4|9=69|35=0|56=ORDERROUTER|49=TOMADOR_DE_ORDENES|52=20170908-10:34:10|34=33|10=016|
20170908-10:34:15.189: 8=FIX.4.4|9=73|35=0|34=33|49=ORDERROUTER|52=20170908-10:34:15.189|56=TOMADOR_DE_ORDENES|10=224|
20170908-10:35:07.668: 8=FIX.4.4|9=69|35=0|56=ORDERROUTER|49=TOMADOR_DE_ORDENES|52=20170908-10:35:10|34=34|10=018|
20170908-10:35:15.189: 8=FIX.4.4|9=73|35=0|34=34|49=ORDERROUTER|52=20170908-10:35:15.189|56=TOMADOR_DE_ORDENES|10=226|
20170908-10:36:07.668: 8=FIX.4.4|9=69|35=0|56=ORDERROUTER|49=TOMADOR_DE_ORDENES|52=20170908-10:36:10|34=35|10=020|
20170908-10:36:15.190: 8=FIX.4.4|9=73|35=0|34=35|49=ORDERROUTER|52=20170908-10:36:15.190|56=TOMADOR_DE_ORDENES|10=220|
20170908-10:37:07.669: 8=FIX.4.4|9=69|35=0|56=ORDERROUTER|49=TOMADOR_DE_ORDENES|52=20170908-10:37:10|34=36|10=022|
20170908-10:37:16.189: 8=FIX.4.4|9=73|35=0|34=36|49=ORDERROUTER|52=20170908-10:37:16.189|56=TOMADOR_DE_ORDENES|10=231|
20170908-10:38:07.669: 8=FIX.4.4|9=69|35=0|56=ORDERROUTER|49=TOMADOR_DE_ORDENES|52=20170908-10:38:10|34=37|10=024|
20170908-10:38:16.189: 8=FIX.4.4|9=73|35=0|34=37|49=ORDERROUTER|52=20170908-10:38:16.189|56=TOMADOR_DE_ORDENES|10=233|
20170908-10:39:07.670: 8=FIX.4.4|9=69|35=0|56=ORDERROUTER|49=TOMADOR_DE_ORDENES|52=20170908-10:39:10|34=38|10=026|
20170908-10:39:16.189: 8=FIX.4.4|9=73|35=0|34=38|49=ORDERROUTER|52=20170908-10:39:16.189|56=TOMADOR_DE_ORDENES|10=235|
20170908-10:40:07.670: 8=FIX.4.4|9=69|35=0|56=ORDERROUTER|49=TOMADOR_DE_ORDENES|52=20170908-10:40:10|34=39|10=019|
20170908-10:40:16.189: 8=FIX.4.4|9=73|35=0|34=39|49=ORDERROUTER|52=20170908-10:40:16.189|56=TOMADOR_DE_ORDENES|10=228|
20170908-10:41:07.671: 8=FIX.4.4|9=69|35=0|56=ORDERROUTER|49=TOMADOR_DE_ORDENES|52=20170908-10:41:10|34=40|10=012|
20170908-10:41:16.189: 8=FIX.4.4|9=73|35=0|34=40|49=ORDERROUTER|52=20170908-10:41:16.189|56=TOMADOR_DE_ORDENES|10=221|
20170908-10:42:07.672: 8=FIX.4.4|9=69|35=0|56=ORDERROUTER|49=TOMADOR_DE_ORDENES|52=20170908-10:42:10|34=41|10=014|
20170908-10:42:16.190: 8=FIX.4.4|9=73|35=0|34=41|49=ORDERROUTER|52=20170908-10:42:16.190|56=TOMADOR_DE_ORDENES|10=215|
20170908-10:43:07.672: 8=FIX.4.4|9=69|35=0|56=ORDERROUTER|49=TOMADOR_DE_ORDENES|52=20170908-10:43:10|34=42|10=016|
20170908-10:43:17.190: 8=FIX.4.4|9=73|35=0|34=42|49=ORDERROUTER|52=20170908-10:43:17.190|56=TOMADOR_DE_ORDENES|10=218|
20170908-10:44:07.673: 8=FIX.4.4|9=69|35=0|56=ORDERROUTER|49=TOMADOR_DE_ORDENES|52=20170908-10:44:10|34=43|10=018|
20170908-10:44:18.190: 8=FIX.4.4|9=73|35=0|34=43|49=ORDERROUTER|52=20170908-10:44:18.190|56=TOMADOR_DE_ORDENES|10=221|
20170908-10:45:07.673: 8=FIX.4.4|9=69|35=0|56=ORDERROUTER|49=TOMADOR_DE_ORDENES|52=20170908-10:45:10|34=44|10=020|
20170908-10:45:18.189: 8=FIX.4.4|9=73|35=0|34=44|49=ORDERROUTER|52=20170908-10:45:18.189|56=TOMADOR_DE_ORDENES|10=231|
20170908-10:46:07.673: 8=FIX.4.4|9=69|35=0|56=ORDERROUTER|49=TOMADOR_DE_ORDENES|52=20170908-10:46:10|34=45|10=022|
20170908-10:46:18.190: 8=FIX.4.4|9=73|35=0|34=45|49=ORDERROUTER|52=20170908-10:46:18.190|56=TOMADOR_DE_ORDENES|10=225|
20170908-10:47:07.674: 8=FIX.4.4|9=69|35=0|56=ORDERROUTER|49=TOMADOR_DE_ORDENES|52=20170908-10:47:10|34=46|10=024|
20170908-10:47:19.190: 8=FIX.4.4|9=73|35=0|34=46|49=ORDERROUTER|52=20170908-10:47:19.189|56=TOMADOR_DE_ORDENES|10=236|
20170908-10:48:07.674: 8=FIX.4.4|9=69|35=0|56=ORDERROUTER|49=TOMADOR_DE_ORDENES|52=20170908-10:48:10|34=47|10=026|
20170908-10:48:19.190: 8=FIX.4.4|9=73|35=0|34=47|49=ORDERROUTER|52=20170908-10:48:19.190|56=TOMADOR_DE_ORDENES|10=230|
20170908-10:49:07.675: 8=FIX.4.4|9=69|35=0|56=ORDERROUTER|49=TOMADOR_DE_ORDENES|52=20170908-10:49:10|34=48|10=028|
20170908-10:49:19.190: 8=FIX.4.4|9=73|35=0|34=48|49=ORDERROUTER|52=20170908-10:49:19.190|56=TOMADOR_DE_ORDENES|10=232|
20170908-10:50:07.675: 8=FIX.4.4|9=69|35=0|56=ORDERROUTER|49=TOMADOR_DE_ORDENES|52=20170908-10:50:10|34=49|10=021|
20170908-10:50:19.190: 8=FIX.4.4|9=73|35=0|34=49|49=ORDERROUTER|52=20170908-10:50:19.190|56=TOMADOR_DE_ORDENES|10=225|
20170908-10:51:07.675: 8=FIX.4.4|9=69|35=0|56=ORDERROUTER|49=TOMADOR_DE_ORDENES|52=20170908-10:51:10|34=50|10=014|
20170908-10:51:20.189: 8=FIX.4.4|9=73|35=0|34=50|49=ORDERROUTER|52=20170908-10:51:20.189|56=TOMADOR_DE_ORDENES|10=218|
20170908-10:52:07.676: 8=FIX.4.4|9=69|35=0|56=ORDERROUTER|49=TOMADOR_DE_ORDENES|52=20170908-10:52:10|34=51|10=016|
20170908-10:52:20.190: 8=FIX.4.4|9=73|35=0|34=51|49=ORDERROUTER|52=20170908-10:52:20.190|56=TOMADOR_DE_ORDENES|10=212|
20170908-10:53:07.676: 8=FIX.4.4|9=69|35=0|56=ORDERROUTER|49=TOMADOR_DE_ORDENES|52=20170908-10:53:10|34=52|10=018|
20170908-10:53:20.190: 8=FIX.4.4|9=73|35=0|34=52|49=ORDERROUTER|52=20170908-10:53:20.190|56=TOMADOR_DE_ORDENES|10=214|
20170908-10:54:07.677: 8=FIX.4.4|9=69|35=0|56=ORDERROUTER|49=TOMADOR_DE_ORDENES|52=20170908-10:54:10|34=53|10=020|
20170908-10:54:21.190: 8=FIX.4.4|9=73|35=0|34=53|49=ORDERROUTER|52=20170908-10:54:21.190|56=TOMADOR_DE_ORDENES|10=217|
20170908-10:55:07.677: 8=FIX.4.4|9=69|35=0|56=ORDERROUTER|49=TOMADOR_DE_ORDENES|52=20170908-10:55:10|34=54|10=022|
20170908-10:55:22.190: 8=FIX.4.4|9=73|35=0|34=54|49=ORDERROUTER|52=20170908-10:55:22.190|56=TOMADOR_DE_ORDENES|10=220|
20170908-10:56:07.678: 8=FIX.4.4|9=69|35=0|56=ORDERROUTER|49=TOMADOR_DE_ORDENES|52=20170908-10:56:10|34=55|10=024|
20170908-10:56:23.190: 8=FIX.4.4|9=73|35=0|34=55|49=ORDERROUTER|52=20170908-10:56:23.189|56=TOMADOR_DE_ORDENES|10=231|
20170908-10:57:07.678: 8=FIX.4.4|9=69|35=0|56=ORDERROUTER|49=TOMADOR_DE_ORDENES|52=20170908-10:57:10|34=56|10=026|
20170908-10:57:23.189: 8=FIX.4.4|9=73|35=0|34=56|49=ORDERROUTER|52=20170908-10:57:23.189|56=TOMADOR_DE_ORDENES|10=233|
20170908-10:58:07.679: 8=FIX.4.4|9=69|35=0|56=ORDERROUTER|49=TOMADOR_DE_ORDENES|52=20170908-10:58:10|34=57|10=028|
20170908-10:58:23.190: 8=FIX.4.4|9=73|35=0|34=57|49=ORDERROUTER|52=20170908-10:58:23.190|56=TOMADOR_DE_ORDENES|10=227|
20170908-10:59:07.679: 8=FIX.4.4|9=69|35=0|56=ORDERROUTER|49=TOMADOR_DE_ORDENES|52=20170908-10:59:10|34=58|10=030|
20170908-10:59:24.190: 8=FIX.4.4|9=73|35=0|34=58|49=ORDERROUTER|52=20170908-10:59:24.190|56=TOMADOR_DE_ORDENES|10=230|
20170908-11:00:07.681: 8=FIX.4.4|9=69|35=0|56=ORDERROUTER|49=TOMADOR_DE_ORDENES|52=20170908-11:00:10|34=59|10=018|
20170908-11:00:25.190: 8=FIX.4.4|9=73|35=0|34=59|49=ORDERROUTER|52=20170908-11:00:25.190|56=TOMADOR_DE_ORDENES|10=219|
20170908-11:01:07.681: 8=FIX.4.4|9=69|35=0|56=ORDERROUTER|49=TOMADOR_DE_ORDENES|52=20170908-11:01:10|34=60|10=011|
20170908-11:01:26.189: 8=FIX.4.4|9=73|35=0|34=60|49=ORDERROUTER|52=20170908-11:01:26.189|56=TOMADOR_DE_ORDENES|10=221|
20170908-11:02:07.682: 8=FIX.4.4|9=69|35=0|56=ORDERROUTER|49=TOMADOR_DE_ORDENES|52=20170908-11:02:10|34=61|10=013|
20170908-11:02:26.189: 8=FIX.4.4|9=73|35=0|34=61|49=ORDERROUTER|52=20170908-11:02:26.189|56=TOMADOR_DE_ORDENES|10=223|
20170908-11:03:07.682: 8=FIX.4.4|9=69|35=0|56=ORDERROUTER|49=TOMADOR_DE_ORDENES|52=20170908-11:03:10|34=62|10=015|
20170908-11:03:26.189: 8=FIX.4.4|9=73|35=0|34=62|49=ORDERROUTER|52=20170908-11:03:26.189|56=TOMADOR_DE_ORDENES|10=225|
20170908-11:04:07.683: 8=FIX.4.4|9=69|35=0|56=ORDERROUTER|49=TOMADOR_DE_ORDENES|52=20170908-11:04:10|34=63|10=017|
20170908-11:04:26.189: 8=FIX.4.4|9=73|35=0|34=63|49=ORDERROUTER|52=20170908-11:04:26.189|56=TOMADOR_DE_ORDENES|10=227|
20170908-11:05:07.683: 8=FIX.4.4|9=69|35=0|56=ORDERROUTER|49=TOMADOR_DE_ORDENES|52=20170908-11:05:10|34=64|10=019|
20170908-11:05:26.190: 8=FIX.4.4|9=73|35=0|34=64|49=ORDERROUTER|52=20170908-11:05:26.190|56=TOMADOR_DE_ORDENES|10=221|
20170908-11:06:07.684: 8=FIX.4.4|9=69|35=0|56=ORDERROUTER|49=TOMADOR_DE_ORDENES|52=20170908-11:06:10|34=65|10=021|
20170908-11:06:27.189: 8=FIX.4.4|9=73|35=0|34=65|49=ORDERROUTER|52=20170908-11:06:27.189|56=TOMADOR_DE_ORDENES|10=232|
20170908-11:07:07.684: 8=FIX.4.4|9=69|35=0|56=ORDERROUTER|49=TOMADOR_DE_ORDENES|52=20170908-11:07:10|34=66|10=023|
20170908-11:07:27.190: 8=FIX.4.4|9=73|35=0|34=66|49=ORDERROUTER|52=20170908-11:07:27.189|56=TOMADOR_DE_ORDENES|10=234|
20170908-11:08:07.684: 8=FIX.4.4|9=69|35=0|56=ORDERROUTER|49=TOMADOR_DE_ORDENES|52=20170908-11:08:10|34=67|10=025|
20170908-11:08:27.189: 8=FIX.4.4|9=73|35=0|34=67|49=ORDERROUTER|52=20170908-11:08:27.189|56=TOMADOR_DE_ORDENES|10=236|
20170908-11:09:07.685: 8=FIX.4.4|9=69|35=0|56=ORDERROUTER|49=TOMADOR_DE_ORDENES|52=20170908-11:09:10|34=68|10=027|
20170908-11:09:27.189: 8=FIX.4.4|9=73|35=0|34=68|49=ORDERROUTER|52=20170908-11:09:27.189|56=TOMADOR_DE_ORDENES|10=238|
20170908-11:10:07.686: 8=FIX.4.4|9=69|35=0|56=ORDERROUTER|49=TOMADOR_DE_ORDENES|52=20170908-11:10:10|34=69|10=020|
20170908-11:10:27.189: 8=FIX.4.4|9=73|35=0|34=69|49=ORDERROUTER|52=20170908-11:10:27.189|56=TOMADOR_DE_ORDENES|10=231|
20170908-11:11:07.687: 8=FIX.4.4|9=69|35=0|56=ORDERROUTER|49=TOMADOR_DE_ORDENES|52=20170908-11:11:10|34=70|10=013|
20170908-11:11:27.189: 8=FIX.4.4|9=73|35=0|34=70|49=ORDERROUTER|52=20170908-11:11:27.189|56=TOMADOR_DE_ORDENES|10=224|
20170908-11:12:07.688: 8=FIX.4.4|9=69|35=0|56=ORDERROUTER|49=TOMADOR_DE_ORDENES|52=20170908-11:12:10|34=71|10=015|
20170908-11:12:27.190: 8=FIX.4.4|9=73|35=0|34=71|49=ORDERROUTER|52=20170908-11:12:27.190|56=TOMADOR_DE_ORDENES|10=218|
20170908-11:13:07.688: 8=FIX.4.4|9=69|35=0|56=ORDERROUTER|49=TOMADOR_DE_ORDENES|52=20170908-11:13:10|34=72|10=017|
20170908-11:13:28.190: 8=FIX.4.4|9=73|35=0|34=72|49=ORDERROUTER|52=20170908-11:13:28.190|56=TOMADOR_DE_ORDENES|10=221|
20170908-11:14:07.689: 8=FIX.4.4|9=69|35=0|56=ORDERROUTER|49=TOMADOR_DE_ORDENES|52=20170908-11:14:10|34=73|10=019|
20170908-11:14:29.189: 8=FIX.4.4|9=73|35=0|34=73|49=ORDERROUTER|52=20170908-11:14:29.189|56=TOMADOR_DE_ORDENES|10=232|
20170908-11:15:07.689: 8=FIX.4.4|9=69|35=0|56=ORDERROUTER|49=TOMADOR_DE_ORDENES|52=20170908-11:15:10|34=74|10=021|
20170908-11:15:29.190: 8=FIX.4.4|9=73|35=0|34=74|49=ORDERROUTER|52=20170908-11:15:29.190|56=TOMADOR_DE_ORDENES|10=226|
20170908-11:16:07.690: 8=FIX.4.4|9=69|35=0|56=ORDERROUTER|49=TOMADOR_DE_ORDENES|52=20170908-11:16:10|34=75|10=023|
20170908-11:16:30.189: 8=FIX.4.4|9=73|35=0|34=75|49=ORDERROUTER|52=20170908-11:16:30.189|56=TOMADOR_DE_ORDENES|10=228|
20170908-11:17:07.690: 8=FIX.4.4|9=69|35=0|56=ORDERROUTER|49=TOMADOR_DE_ORDENES|52=20170908-11:17:10|34=76|10=025|
20170908-11:17:30.190: 8=FIX.4.4|9=73|35=0|34=76|49=ORDERROUTER|52=20170908-11:17:30.190|56=TOMADOR_DE_ORDENES|10=222|
20170908-11:18:07.691: 8=FIX.4.4|9=69|35=0|56=ORDERROUTER|49=TOMADOR_DE_ORDENES|52=20170908-11:18:10|34=77|10=027|
20170908-11:18:30.189: 8=FIX.4.4|9=73|35=0|34=77|49=ORDERROUTER|52=20170908-11:18:30.189|56=TOMADOR_DE_ORDENES|10=232|
20170908-11:19:07.691: 8=FIX.4.4|9=69|35=0|56=ORDERROUTER|49=TOMADOR_DE_ORDENES|52=20170908-11:19:10|34=78|10=029|
20170908-11:19:30.189: 8=FIX.4.4|9=73|35=0|34=78|49=ORDERROUTER|52=20170908-11:19:30.189|56=TOMADOR_DE_ORDENES|10=234|
20170908-11:20:07.692: 8=FIX.4.4|9=69|35=0|56=ORDERROUTER|49=TOMADOR_DE_ORDENES|52=20170908-11:20:10|34=79|10=022|
20170908-11:20:30.190: 8=FIX.4.4|9=73|35=0|34=79|49=ORDERROUTER|52=20170908-11:20:30.190|56=TOMADOR_DE_ORDENES|10=219|
20170908-11:21:07.692: 8=FIX.4.4|9=69|35=0|56=ORDERROUTER|49=TOMADOR_DE_ORDENES|52=20170908-11:21:10|34=80|10=015|
20170908-11:21:30.190: 8=FIX.4.4|9=73|35=0|34=80|49=ORDERROUTER|52=20170908-11:21:30.190|56=TOMADOR_DE_ORDENES|10=212|
20170908-11:22:07.693: 8=FIX.4.4|9=69|35=0|56=ORDERROUTER|49=TOMADOR_DE_ORDENES|52=20170908-11:22:10|34=81|10=017|
20170908-11:22:30.190: 8=FIX.4.4|9=73|35=0|34=81|49=ORDERROUTER|52=20170908-11:22:30.190|56=TOMADOR_DE_ORDENES|10=214|
20170908-11:23:07.693: 8=FIX.4.4|9=69|35=0|56=ORDERROUTER|49=TOMADOR_DE_ORDENES|52=20170908-11:23:10|34=82|10=019|
20170908-11:23:31.190: 8=FIX.4.4|9=73|35=0|34=82|49=ORDERROUTER|52=20170908-11:23:31.189|56=TOMADOR_DE_ORDENES|10=225|
20170908-11:24:07.693: 8=FIX.4.4|9=69|35=0|56=ORDERROUTER|49=TOMADOR_DE_ORDENES|52=20170908-11:24:10|34=83|10=021|
20170908-11:24:31.190: 8=FIX.4.4|9=73|35=0|34=83|49=ORDERROUTER|52=20170908-11:24:31.189|56=TOMADOR_DE_ORDENES|10=227|
20170908-11:25:07.694: 8=FIX.4.4|9=69|35=0|56=ORDERROUTER|49=TOMADOR_DE_ORDENES|52=20170908-11:25:10|34=84|10=023|
20170908-11:25:09.440: 8=FIX.4.4|9=272|35=D|34=85|49=TOMADOR_DE_ORDENES|52=20170908-11:25:12|56=ORDERROUTER|50=surarte@1237@0965|1=13478740-00|11=1f7756e0cd50b99f|21=3|38=272210|40=2|44=285|54=2|55=SM-CHILE B|59=0|60=20170908-11:25:12.026|63=3|100=XSGO|207=XSGO|453=2|448=LVPOOL|447=D|452=1|448=666|447=D|452=7|10=248|
20170908-11:25:11.912: 8=FIX.4.4|9=397|35=8|34=84|49=ORDERROUTER|52=20170908-11:25:11.912|56=TOMADOR_DE_ORDENES|57=surarte@1237@0965|1=13478740-00|6=0|11=1f7756e0cd50b99f|14=0|17=6765e5d8313541a3|21=3|31=0|32=0|37=-699783a1b6cb6a4|38=272210|39=A|40=2|44=285|54=2|55=SM-CHILE B|58=New Sell SM-CHILE B 272210.0 @ 285.0|59=0|60=20170908-11:25:11.889|63=3|100=XSGO|150=A|151=272210|207=XSGO|453=2|448=LVPOOL|447=D|452=1|448=666|447=D|452=7|10=166|
20170908-11:26:09.441: 8=FIX.4.4|9=69|35=0|56=ORDERROUTER|49=TOMADOR_DE_ORDENES|52=20170908-11:26:12|34=86|10=028|
20170908-11:26:12.189: 8=FIX.4.4|9=73|35=0|34=85|49=ORDERROUTER|52=20170908-11:26:12.189|56=TOMADOR_DE_ORDENES|10=230|
20170908-11:26:52.693: 8=FIX.4.4|9=269|35=D|34=87|49=TOMADOR_DE_ORDENES|52=20170908-11:26:55|56=ORDERROUTER|50=surarte@1237@0965|1=761078917-00|11=1da55a22e20f4608|21=3|38=165463|40=2|44=805|54=2|55=ENLASA|59=0|60=20170908-11:26:55.284|63=3|100=XSGO|207=XSGO|453=2|448=LVPOOL|447=D|452=1|448=666|447=D|452=7|10=052|
20170908-11:26:52.696: 8=FIX.4.4|9=390|35=8|34=86|49=ORDERROUTER|52=20170908-11:26:52.696|56=TOMADOR_DE_ORDENES|57=surarte@1237@0965|1=761078917-00|6=0|11=1da55a22e20f4608|14=0|17=5987d84519de407c|21=3|31=0|32=0|37=57c4961f8b8f4de3|38=165463|39=A|40=2|44=805|54=2|55=ENLASA|58=New Sell ENLASA 165463.0 @ 805.0|59=0|60=20170908-11:26:52.695|63=3|100=XSGO|150=A|151=165463|207=XSGO|453=2|448=LVPOOL|447=D|452=1|448=666|447=D|452=7|10=131|
20170908-11:27:52.694: 8=FIX.4.4|9=69|35=0|56=ORDERROUTER|49=TOMADOR_DE_ORDENES|52=20170908-11:27:55|34=88|10=038|
20170908-11:27:53.189: 8=FIX.4.4|9=73|35=0|34=87|49=ORDERROUTER|52=20170908-11:27:53.189|56=TOMADOR_DE_ORDENES|10=238|
20170908-11:28:52.694: 8=FIX.4.4|9=69|35=0|56=ORDERROUTER|49=TOMADOR_DE_ORDENES|52=20170908-11:28:55|34=89|10=040|
20170908-11:28:53.189: 8=FIX.4.4|9=73|35=0|34=88|49=ORDERROUTER|52=20170908-11:28:53.189|56=TOMADOR_DE_ORDENES|10=240|
20170908-11:29:52.695: 8=FIX.4.4|9=69|35=0|56=ORDERROUTER|49=TOMADOR_DE_ORDENES|52=20170908-11:29:55|34=90|10=033|
20170908-11:29:53.189: 8=FIX.4.4|9=73|35=0|34=89|49=ORDERROUTER|52=20170908-11:29:53.189|56=TOMADOR_DE_ORDENES|10=242|
20170908-11:30:52.697: 8=FIX.4.4|9=69|35=0|56=ORDERROUTER|49=TOMADOR_DE_ORDENES|52=20170908-11:30:55|34=91|10=026|
20170908-11:30:53.190: 8=FIX.4.4|9=73|35=0|34=90|49=ORDERROUTER|52=20170908-11:30:53.190|56=TOMADOR_DE_ORDENES|10=218|
20170908-11:31:52.697: 8=FIX.4.4|9=69|35=0|56=ORDERROUTER|49=TOMADOR_DE_ORDENES|52=20170908-11:31:55|34=92|10=028|
20170908-11:31:54.189: 8=FIX.4.4|9=73|35=0|34=91|49=ORDERROUTER|52=20170908-11:31:54.189|56=TOMADOR_DE_ORDENES|10=229|
20170908-11:32:52.698: 8=FIX.4.4|9=69|35=0|56=ORDERROUTER|49=TOMADOR_DE_ORDENES|52=20170908-11:32:55|34=93|10=030|
20170908-11:32:54.189: 8=FIX.4.4|9=73|35=0|34=92|49=ORDERROUTER|52=20170908-11:32:54.189|56=TOMADOR_DE_ORDENES|10=231|
20170908-11:33:52.698: 8=FIX.4.4|9=69|35=0|56=ORDERROUTER|49=TOMADOR_DE_ORDENES|52=20170908-11:33:55|34=94|10=032|
20170908-11:33:54.189: 8=FIX.4.4|9=73|35=0|34=93|49=ORDERROUTER|52=20170908-11:33:54.189|56=TOMADOR_DE_ORDENES|10=233|
20170908-11:34:52.699: 8=FIX.4.4|9=69|35=0|56=ORDERROUTER|49=TOMADOR_DE_ORDENES|52=20170908-11:34:55|34=95|10=034|
20170908-11:34:54.189: 8=FIX.4.4|9=73|35=0|34=94|49=ORDERROUTER|52=20170908-11:34:54.189|56=TOMADOR_DE_ORDENES|10=235|
20170908-11:35:52.699: 8=FIX.4.4|9=69|35=0|56=ORDERROUTER|49=TOMADOR_DE_ORDENES|52=20170908-11:35:55|34=96|10=036|
20170908-11:35:54.189: 8=FIX.4.4|9=73|35=0|34=95|49=ORDERROUTER|52=20170908-11:35:54.189|56=TOMADOR_DE_ORDENES|10=237|
20170908-11:36:52.700: 8=FIX.4.4|9=69|35=0|56=ORDERROUTER|49=TOMADOR_DE_ORDENES|52=20170908-11:36:55|34=97|10=038|
20170908-11:36:54.189: 8=FIX.4.4|9=73|35=0|34=96|49=ORDERROUTER|52=20170908-11:36:54.189|56=TOMADOR_DE_ORDENES|10=239|
20170908-11:37:52.700: 8=FIX.4.4|9=69|35=0|56=ORDERROUTER|49=TOMADOR_DE_ORDENES|52=20170908-11:37:55|34=98|10=040|
20170908-11:37:54.189: 8=FIX.4.4|9=73|35=0|34=97|49=ORDERROUTER|52=20170908-11:37:54.189|56=TOMADOR_DE_ORDENES|10=241|
20170908-11:38:52.700: 8=FIX.4.4|9=69|35=0|56=ORDERROUTER|49=TOMADOR_DE_ORDENES|52=20170908-11:38:55|34=99|10=042|
20170908-11:38:54.189: 8=FIX.4.4|9=73|35=0|34=98|49=ORDERROUTER|52=20170908-11:38:54.189|56=TOMADOR_DE_ORDENES|10=243|
20170908-11:39:52.701: 8=FIX.4.4|9=70|35=0|56=ORDERROUTER|49=TOMADOR_DE_ORDENES|52=20170908-11:39:55|34=100|10=066|
20170908-11:39:54.189: 8=FIX.4.4|9=73|35=0|34=99|49=ORDERROUTER|52=20170908-11:39:54.189|56=TOMADOR_DE_ORDENES|10=245|
20170908-11:40:52.701: 8=FIX.4.4|9=70|35=0|56=ORDERROUTER|49=TOMADOR_DE_ORDENES|52=20170908-11:40:55|34=101|10=059|
20170908-11:40:54.190: 8=FIX.4.4|9=74|35=0|34=100|49=ORDERROUTER|52=20170908-11:40:54.189|56=TOMADOR_DE_ORDENES|10=013|
20170908-11:41:52.702: 8=FIX.4.4|9=70|35=0|56=ORDERROUTER|49=TOMADOR_DE_ORDENES|52=20170908-11:41:55|34=102|10=061|
20170908-11:41:54.189: 8=FIX.4.4|9=74|35=0|34=101|49=ORDERROUTER|52=20170908-11:41:54.189|56=TOMADOR_DE_ORDENES|10=015|
20170908-11:42:52.702: 8=FIX.4.4|9=70|35=0|56=ORDERROUTER|49=TOMADOR_DE_ORDENES|52=20170908-11:42:55|34=103|10=063|
20170908-11:42:54.189: 8=FIX.4.4|9=74|35=0|34=102|49=ORDERROUTER|52=20170908-11:42:54.189|56=TOMADOR_DE_ORDENES|10=017|
20170908-11:43:52.702: 8=FIX.4.4|9=70|35=0|56=ORDERROUTER|49=TOMADOR_DE_ORDENES|52=20170908-11:43:55|34=104|10=065|
20170908-11:43:54.189: 8=FIX.4.4|9=74|35=0|34=103|49=ORDERROUTER|52=20170908-11:43:54.189|56=TOMADOR_DE_ORDENES|10=019|
20170908-11:44:52.703: 8=FIX.4.4|9=70|35=0|56=ORDERROUTER|49=TOMADOR_DE_ORDENES|52=20170908-11:44:55|34=105|10=067|
20170908-11:44:54.189: 8=FIX.4.4|9=74|35=0|34=104|49=ORDERROUTER|52=20170908-11:44:54.189|56=TOMADOR_DE_ORDENES|10=021|
20170908-11:45:52.704: 8=FIX.4.4|9=70|35=0|56=ORDERROUTER|49=TOMADOR_DE_ORDENES|52=20170908-11:45:55|34=106|10=069|
20170908-11:45:54.190: 8=FIX.4.4|9=74|35=0|34=105|49=ORDERROUTER|52=20170908-11:45:54.189|56=TOMADOR_DE_ORDENES|10=023|
20170908-11:46:52.705: 8=FIX.4.4|9=70|35=0|56=ORDERROUTER|49=TOMADOR_DE_ORDENES|52=20170908-11:46:55|34=107|10=071|
20170908-11:46:54.189: 8=FIX.4.4|9=74|35=0|34=106|49=ORDERROUTER|52=20170908-11:46:54.189|56=TOMADOR_DE_ORDENES|10=025|
20170908-11:47:52.705: 8=FIX.4.4|9=70|35=0|56=ORDERROUTER|49=TOMADOR_DE_ORDENES|52=20170908-11:47:55|34=108|10=073|
20170908-11:47:54.190: 8=FIX.4.4|9=74|35=0|34=107|49=ORDERROUTER|52=20170908-11:47:54.190|56=TOMADOR_DE_ORDENES|10=019|
20170908-11:48:52.706: 8=FIX.4.4|9=70|35=0|56=ORDERROUTER|49=TOMADOR_DE_ORDENES|52=20170908-11:48:55|34=109|10=075|
20170908-11:48:55.189: 8=FIX.4.4|9=74|35=0|34=108|49=ORDERROUTER|52=20170908-11:48:55.189|56=TOMADOR_DE_ORDENES|10=030|
20170908-11:49:52.706: 8=FIX.4.4|9=70|35=0|56=ORDERROUTER|49=TOMADOR_DE_ORDENES|52=20170908-11:49:55|34=110|10=068|
20170908-11:49:55.190: 8=FIX.4.4|9=74|35=0|34=109|49=ORDERROUTER|52=20170908-11:49:55.190|56=TOMADOR_DE_ORDENES|10=024|
20170908-11:50:52.707: 8=FIX.4.4|9=70|35=0|56=ORDERROUTER|49=TOMADOR_DE_ORDENES|52=20170908-11:50:55|34=111|10=061|
20170908-11:50:56.189: 8=FIX.4.4|9=74|35=0|34=110|49=ORDERROUTER|52=20170908-11:50:56.189|56=TOMADOR_DE_ORDENES|10=017|
20170908-11:51:52.707: 8=FIX.4.4|9=70|35=0|56=ORDERROUTER|49=TOMADOR_DE_ORDENES|52=20170908-11:51:55|34=112|10=063|
20170908-11:51:56.189: 8=FIX.4.4|9=74|35=0|34=111|49=ORDERROUTER|52=20170908-11:51:56.189|56=TOMADOR_DE_ORDENES|10=019|
20170908-11:52:52.707: 8=FIX.4.4|9=70|35=0|56=ORDERROUTER|49=TOMADOR_DE_ORDENES|52=20170908-11:52:55|34=113|10=065|
20170908-11:52:56.189: 8=FIX.4.4|9=74|35=0|34=112|49=ORDERROUTER|52=20170908-11:52:56.189|56=TOMADOR_DE_ORDENES|10=021|
20170908-11:53:52.708: 8=FIX.4.4|9=70|35=0|56=ORDERROUTER|49=TOMADOR_DE_ORDENES|52=20170908-11:53:55|34=114|10=067|
20170908-11:53:56.189: 8=FIX.4.4|9=74|35=0|34=113|49=ORDERROUTER|52=20170908-11:53:56.189|56=TOMADOR_DE_ORDENES|10=023|
20170908-11:54:52.710: 8=FIX.4.4|9=70|35=0|56=ORDERROUTER|49=TOMADOR_DE_ORDENES|52=20170908-11:54:55|34=115|10=069|
20170908-11:54:56.189: 8=FIX.4.4|9=74|35=0|34=114|49=ORDERROUTER|52=20170908-11:54:56.189|56=TOMADOR_DE_ORDENES|10=025|
20170908-11:55:16.339: 8=FIX.4.4|9=391|35=8|34=115|49=ORDERROUTER|52=20170908-11:55:16.338|56=TOMADOR_DE_ORDENES|57=surarte@1237@0965|1=761078917-00|6=0|11=1da55a22e20f4608|14=0|17=708124cb348b489c|21=3|31=0|32=0|37=57c4961f8b8f4de3|38=165463|39=0|40=2|44=805|54=2|55=ENLASA|58=New Sell ENLASA 165463.0 @ 805.0|59=0|60=20170908-11:55:16.337|63=3|100=XSGO|150=0|151=165463|207=XSGO|453=2|448=LVPOOL|447=D|452=1|448=666|447=D|452=7|10=114|
20170908-11:55:19.930: 8=FIX.4.4|9=399|35=8|34=116|49=ORDERROUTER|52=20170908-11:55:19.930|56=TOMADOR_DE_ORDENES|57=surarte@1237@0965|1=13478740-00|6=0|11=1f7756e0cd50b99f|14=0|17=-1fe1754a7210b8ae|21=3|31=0|32=0|37=-699783a1b6cb6a4|38=272210|39=0|40=2|44=285|54=2|55=SM-CHILE B|58=New Sell SM-CHILE B 272210.0 @ 285.0|59=0|60=20170908-11:55:19.929|63=3|100=XSGO|150=0|151=272210|207=XSGO|453=2|448=LVPOOL|447=D|452=1|448=666|447=D|452=7|10=117|
20170908-11:55:52.710: 8=FIX.4.4|9=70|35=0|56=ORDERROUTER|49=TOMADOR_DE_ORDENES|52=20170908-11:55:55|34=116|10=071|
20170908-11:56:20.190: 8=FIX.4.4|9=74|35=0|34=117|49=ORDERROUTER|52=20170908-11:56:20.190|56=TOMADOR_DE_ORDENES|10=013|
20170908-11:56:52.710: 8=FIX.4.4|9=70|35=0|56=ORDERROUTER|49=TOMADOR_DE_ORDENES|52=20170908-11:56:55|34=117|10=073|
20170908-11:57:20.190: 8=FIX.4.4|9=74|35=0|34=118|49=ORDERROUTER|52=20170908-11:57:20.190|56=TOMADOR_DE_ORDENES|10=015|
20170908-11:57:52.711: 8=FIX.4.4|9=70|35=0|56=ORDERROUTER|49=TOMADOR_DE_ORDENES|52=20170908-11:57:55|34=118|10=075|
20170908-11:58:07.826: 8=FIX.4.4|9=267|35=D|34=119|49=TOMADOR_DE_ORDENES|52=20170908-11:58:10|56=ORDERROUTER|50=jpott@0397@0276|1=6370945K-00|11=79c883ae5c4eb6d9|21=3|38=4508|40=2|44=651|54=1|55=NAVARINO|59=0|60=20170908-11:58:10.384|63=3|100=XSGO|207=XSGO|453=2|448=LVPOOL|447=D|452=1|448=666|447=D|452=7|10=032|
20170908-11:58:07.829: 8=FIX.4.4|9=386|35=8|34=119|49=ORDERROUTER|52=20170908-11:58:07.829|56=TOMADOR_DE_ORDENES|57=jpott@0397@0276|1=6370945K-00|6=0|11=79c883ae5c4eb6d9|14=0|17=-65f477108afcb7c7|21=3|31=0|32=0|37=758808a252bc4b33|38=4508|39=A|40=2|44=651|54=1|55=NAVARINO|58=New Buy NAVARINO 4508.0 @ 651.0|59=0|60=20170908-11:58:07.828|63=3|100=XSGO|150=A|151=4508|207=XSGO|453=2|448=LVPOOL|447=D|452=1|448=666|447=D|452=7|10=014|
20170908-11:58:35.772: 8=FIX.4.4|9=385|35=8|34=120|49=ORDERROUTER|52=20170908-11:58:35.772|56=TOMADOR_DE_ORDENES|57=jpott@0397@0276|1=6370945K-00|6=0|11=79c883ae5c4eb6d9|14=0|17=32ba31fd3b134474|21=3|31=0|32=0|37=758808a252bc4b33|38=4508|39=0|40=2|44=651|54=1|55=NAVARINO|58=New Buy NAVARINO 4508.0 @ 651.0|59=0|60=20170908-11:58:35.771|63=3|100=XSGO|150=0|151=4508|207=XSGO|453=2|448=LVPOOL|447=D|452=1|448=666|447=D|452=7|10=107|
20170908-11:59:07.827: 8=FIX.4.4|9=70|35=0|56=ORDERROUTER|49=TOMADOR_DE_ORDENES|52=20170908-11:59:10|34=120|10=061|
20170908-11:59:17.903: 8=FIX.4.4|9=264|35=D|34=121|49=TOMADOR_DE_ORDENES|52=20170908-11:59:20|56=ORDERROUTER|50=jpott@0397@0276|1=60643326-00|11=5c8943a056a9ba72|21=3|38=4426|40=2|44=790|54=2|55=HITES|59=0|60=20170908-11:59:20.460|63=3|100=XSGO|207=XSGO|453=2|448=LVPOOL|447=D|452=1|448=666|447=D|452=7|10=169|
20170908-11:59:17.905: 8=FIX.4.4|9=380|35=8|34=121|49=ORDERROUTER|52=20170908-11:59:17.905|56=TOMADOR_DE_ORDENES|57=jpott@0397@0276|1=60643326-00|6=0|11=5c8943a056a9ba72|14=0|17=-c4effb14af5b593|21=3|31=0|32=0|37=517343f70ab44135|38=4426|39=A|40=2|44=790|54=2|55=HITES|58=New Sell HITES 4426.0 @ 790.0|59=0|60=20170908-11:59:17.904|63=3|100=XSGO|150=A|151=4426|207=XSGO|453=2|448=LVPOOL|447=D|452=1|448=666|447=D|452=7|10=254|
20170908-11:59:39.214: 8=FIX.4.4|9=270|35=D|34=122|49=TOMADOR_DE_ORDENES|52=20170908-11:59:41|56=ORDERROUTER|50=vavasquez@0397@0410|1=784899004-04|11=30a6fd0a73a8b0ea|21=3|38=1|40=2|44=20000000|54=1|55=GOLF|59=0|60=20170908-11:59:41.786|63=3|100=XSGO|207=XSGO|453=2|448=LVPOOL|447=D|452=1|448=666|447=D|452=7|10=021|
20170908-11:59:39.218: 8=FIX.4.4|9=379|35=8|34=122|49=ORDERROUTER|52=20170908-11:59:39.218|56=TOMADOR_DE_ORDENES|57=vavasquez@0397@0410|1=784899004-04|6=0|11=30a6fd0a73a8b0ea|14=0|17=-237d30250f70b543|21=3|31=0|32=0|37=4ec9712e29e146cb|38=1|39=A|40=2|44=20000000|54=1|55=GOLF|58=New Buy GOLF 1.0 @ 2.0E7|59=0|60=20170908-11:59:39.216|63=3|100=XSGO|150=A|151=1|207=XSGO|453=2|448=LVPOOL|447=D|452=1|448=666|447=D|452=7|10=083|
20170908-12:00:08.816: 8=FIX.4.4|9=272|35=D|34=123|49=TOMADOR_DE_ORDENES|52=20170908-12:00:11|56=ORDERROUTER|50=vavasquez@0397@0109|1=796570504-01|11=35cc28df369bb642|21=3|38=173913|40=2|44=1150|54=1|55=SONDA|59=0|60=20170908-12:00:11.379|63=3|100=XSGO|207=XSGO|453=2|448=LVPOOL|447=D|452=1|448=666|447=D|452=7|10=063|
20170908-12:00:08.818: 8=FIX.4.4|9=393|35=8|34=123|49=ORDERROUTER|52=20170908-12:00:08.818|56=TOMADOR_DE_ORDENES|57=vavasquez@0397@0109|1=796570504-01|6=0|11=35cc28df369bb642|14=0|17=4d997270a1c74801|21=3|31=0|32=0|37=-1525401a362eb9d6|38=173913|39=A|40=2|44=1150|54=1|55=SONDA|58=New Buy SONDA 173913.0 @ 1150.0|59=0|60=20170908-12:00:08.817|63=3|100=XSGO|150=A|151=173913|207=XSGO|453=2|448=LVPOOL|447=D|452=1|448=666|447=D|452=7|10=154|
20170908-12:00:19.814: 8=FIX.4.4|9=381|35=8|34=124|49=ORDERROUTER|52=20170908-12:00:19.814|56=TOMADOR_DE_ORDENES|57=jpott@0397@0276|1=60643326-00|6=0|11=5c8943a056a9ba72|14=0|17=-2288822944d9bee9|21=3|31=0|32=0|37=517343f70ab44135|38=4426|39=0|40=2|44=790|54=2|55=HITES|58=New Sell HITES 4426.0 @ 790.0|59=0|60=20170908-12:00:19.813|63=3|100=XSGO|150=0|151=4426|207=XSGO|453=2|448=LVPOOL|447=D|452=1|448=666|447=D|452=7|10=077|
20170908-12:00:23.930: 8=FIX.4.4|9=379|35=8|34=125|49=ORDERROUTER|52=20170908-12:00:23.930|56=TOMADOR_DE_ORDENES|57=vavasquez@0397@0410|1=784899004-04|6=0|11=30a6fd0a73a8b0ea|14=0|17=-69a6428cca30b07e|21=3|31=0|32=0|37=4ec9712e29e146cb|38=1|39=0|40=2|44=20000000|54=1|55=GOLF|58=New Buy GOLF 1.0 @ 2.0E7|59=0|60=20170908-12:00:23.930|63=3|100=XSGO|150=0|151=1|207=XSGO|453=2|448=LVPOOL|447=D|452=1|448=666|447=D|452=7|10=167|
20170908-12:00:25.420: 8=FIX.4.4|9=276|35=D|34=124|49=TOMADOR_DE_ORDENES|52=20170908-12:00:28|56=ORDERROUTER|50=vavasquez@0397@0109|1=796570504-01|11=5d5ee1b7e5d4bfb4|21=3|38=300164|40=2|44=1600|54=2|55=EMBONOR-B|59=0|60=20170908-12:00:27.978|63=3|100=XSGO|207=XSGO|453=2|448=LVPOOL|447=D|452=1|448=666|447=D|452=7|10=233|
20170908-12:00:25.423: 8=FIX.4.4|9=401|35=8|34=126|49=ORDERROUTER|52=20170908-12:00:25.422|56=TOMADOR_DE_ORDENES|57=vavasquez@0397@0109|1=796570504-01|6=0|11=5d5ee1b7e5d4bfb4|14=0|17=6bbd301cd87047e5|21=3|31=0|32=0|37=165c5af818fe474a|38=300164|39=A|40=2|44=1600|54=2|55=EMBONOR-B|58=New Sell EMBONOR-B 300164.0 @ 1600.0|59=0|60=20170908-12:00:25.421|63=3|100=XSGO|150=A|151=300164|207=XSGO|453=2|448=LVPOOL|447=D|452=1|448=666|447=D|452=7|10=052|
20170908-12:00:28.181: 8=FIX.4.4|9=393|35=8|34=127|49=ORDERROUTER|52=20170908-12:00:28.181|56=TOMADOR_DE_ORDENES|57=vavasquez@0397@0109|1=796570504-01|6=0|11=35cc28df369bb642|14=0|17=40a25d3188dd4733|21=3|31=0|32=0|37=-1525401a362eb9d6|38=173913|39=0|40=2|44=1150|54=1|55=SONDA|58=New Buy SONDA 173913.0 @ 1150.0|59=0|60=20170908-12:00:28.180|63=3|100=XSGO|150=0|151=173913|207=XSGO|453=2|448=LVPOOL|447=D|452=1|448=666|447=D|452=7|10=156|
20170908-12:00:39.990: 8=FIX.4.4|9=272|35=D|34=125|49=TOMADOR_DE_ORDENES|52=20170908-12:00:42|56=ORDERROUTER|50=vavasquez@0397@0109|1=968247301-00|11=6a4c676f63574c85|21=3|38=5000|40=2|44=1200|54=2|55=COPEVAL|59=0|60=20170908-12:00:42.564|63=3|100=XSGO|207=XSGO|453=2|448=LVPOOL|447=D|452=1|448=666|447=D|452=7|10=012|
20170908-12:00:39.993: 8=FIX.4.4|9=391|35=8|34=128|49=ORDERROUTER|52=20170908-12:00:39.993|56=TOMADOR_DE_ORDENES|57=vavasquez@0397@0109|1=968247301-00|6=0|11=6a4c676f63574c85|14=0|17=7f3810bc70de4c9e|21=3|31=0|32=0|37=199f2a617f724eaa|38=5000|39=A|40=2|44=1200|54=2|55=COPEVAL|58=New Sell COPEVAL 5000.0 @ 1200.0|59=0|60=20170908-12:00:39.992|63=3|100=XSGO|150=A|151=5000|207=XSGO|453=2|448=LVPOOL|447=D|452=1|448=666|447=D|452=7|10=126|
20170908-12:00:56.059: 8=FIX.4.4|9=283|35=D|34=126|49=TOMADOR_DE_ORDENES|52=20170908-12:00:58|56=ORDERROUTER|50=vavasquez@0397@0109|1=761285734-00|11=7a461483420a4b3a|21=3|38=416|40=2|44=21000|54=2|55=CFIDESIN06|59=0|60=20170908-12:00:58.632|63=3|100=XSGO|167=CFI|207=XSGO|453=2|448=LVPOOL|447=D|452=1|448=666|447=D|452=7|10=084|
20170908-12:00:56.062: 8=FIX.4.4|9=404|35=8|34=129|49=ORDERROUTER|52=20170908-12:00:56.062|56=TOMADOR_DE_ORDENES|57=vavasquez@0397@0109|1=761285734-00|6=0|11=7a461483420a4b3a|14=0|17=39beadfe37354388|21=3|31=0|32=0|37=1f3591897cc4430c|38=416|39=A|40=2|44=21000|54=2|55=CFIDESIN06|58=New Sell CFIDESIN06 416.0 @ 21000.0|59=0|60=20170908-12:00:56.060|63=3|100=XSGO|150=A|151=416|167=CFI|207=XSGO|453=2|448=LVPOOL|447=D|452=1|448=666|447=D|452=7|10=143|
20170908-12:00:59.830: 8=FIX.4.4|9=402|35=8|34=130|49=ORDERROUTER|52=20170908-12:00:59.830|56=TOMADOR_DE_ORDENES|57=vavasquez@0397@0109|1=796570504-01|6=0|11=5d5ee1b7e5d4bfb4|14=0|17=-1f8b97ada037b941|21=3|31=0|32=0|37=165c5af818fe474a|38=300164|39=0|40=2|44=1600|54=2|55=EMBONOR-B|58=New Sell EMBONOR-B 300164.0 @ 1600.0|59=0|60=20170908-12:00:59.830|63=3|100=XSGO|150=0|151=300164|207=XSGO|453=2|448=LVPOOL|447=D|452=1|448=666|447=D|452=7|10=084|
20170908-12:01:22.976: 8=FIX.4.4|9=404|35=8|34=131|49=ORDERROUTER|52=20170908-12:01:22.976|56=TOMADOR_DE_ORDENES|57=vavasquez@0397@0109|1=761285734-00|6=0|11=7a461483420a4b3a|14=0|17=349b82ed5cef4d3a|21=3|31=0|32=0|37=1f3591897cc4430c|38=416|39=0|40=2|44=21000|54=2|55=CFIDESIN06|58=New Sell CFIDESIN06 416.0 @ 21000.0|59=0|60=20170908-12:01:22.975|63=3|100=XSGO|150=0|151=416|167=CFI|207=XSGO|453=2|448=LVPOOL|447=D|452=1|448=666|447=D|452=7|10=207|
20170908-12:01:33.515: 8=FIX.4.4|9=391|35=8|34=132|49=ORDERROUTER|52=20170908-12:01:33.515|56=TOMADOR_DE_ORDENES|57=vavasquez@0397@0109|1=968247301-00|6=0|11=6a4c676f63574c85|14=0|17=2fe1753111de4d82|21=3|31=0|32=0|37=199f2a617f724eaa|38=5000|39=0|40=2|44=1200|54=2|55=COPEVAL|58=New Sell COPEVAL 5000.0 @ 1200.0|59=0|60=20170908-12:01:33.514|63=3|100=XSGO|150=0|151=5000|207=XSGO|453=2|448=LVPOOL|447=D|452=1|448=666|447=D|452=7|10=209|
20170908-12:01:56.059: 8=FIX.4.4|9=70|35=0|56=ORDERROUTER|49=TOMADOR_DE_ORDENES|52=20170908-12:01:58|34=127|10=068|
20170908-12:02:34.189: 8=FIX.4.4|9=74|35=0|34=133|49=ORDERROUTER|52=20170908-12:02:34.189|56=TOMADOR_DE_ORDENES|10=016|
20170908-12:02:56.060: 8=FIX.4.4|9=70|35=0|56=ORDERROUTER|49=TOMADOR_DE_ORDENES|52=20170908-12:02:58|34=128|10=070|
20170908-12:03:34.190: 8=FIX.4.4|9=74|35=0|34=134|49=ORDERROUTER|52=20170908-12:03:34.189|56=TOMADOR_DE_ORDENES|10=018|
20170908-12:03:56.060: 8=FIX.4.4|9=70|35=0|56=ORDERROUTER|49=TOMADOR_DE_ORDENES|52=20170908-12:03:58|34=129|10=072|
20170908-12:03:56.927: 8=FIX.4.4|9=271|35=D|34=130|49=TOMADOR_DE_ORDENES|52=20170908-12:03:59|56=ORDERROUTER|50=jesilva@1058@0107|1=65275449-00|11=6107c2f41038b830|21=3|38=660000|40=2|44=4.5|54=2|55=INFODEMA|59=0|60=20170908-12:03:59.501|63=3|100=XSGO|207=XSGO|453=2|448=LVPOOL|447=D|452=1|448=666|447=D|452=7|10=017|
20170908-12:03:56.929: 8=FIX.4.4|9=393|35=8|34=135|49=ORDERROUTER|52=20170908-12:03:56.929|56=TOMADOR_DE_ORDENES|57=jesilva@1058@0107|1=65275449-00|6=0|11=6107c2f41038b830|14=0|17=-71033b895655bce2|21=3|31=0|32=0|37=53482b25b8324433|38=660000|39=A|40=2|44=4.5|54=2|55=INFODEMA|58=New Sell INFODEMA 660000.0 @ 4.5|59=0|60=20170908-12:03:56.928|63=3|100=XSGO|150=A|151=660000|207=XSGO|453=2|448=LVPOOL|447=D|452=1|448=666|447=D|452=7|10=206|
20170908-12:04:10.069: 8=FIX.4.4|9=393|35=8|34=136|49=ORDERROUTER|52=20170908-12:04:10.069|56=TOMADOR_DE_ORDENES|57=jesilva@1058@0107|1=65275449-00|6=0|11=6107c2f41038b830|14=0|17=-5d74f36790a7b171|21=3|31=0|32=0|37=53482b25b8324433|38=660000|39=0|40=2|44=4.5|54=2|55=INFODEMA|58=New Sell INFODEMA 660000.0 @ 4.5|59=0|60=20170908-12:04:10.069|63=3|100=XSGO|150=0|151=660000|207=XSGO|453=2|448=LVPOOL|447=D|452=1|448=666|447=D|452=7|10=150|
20170908-12:04:43.412: 8=FIX.4.4|9=270|35=D|34=131|49=TOMADOR_DE_ORDENES|52=20170908-12:04:46|56=ORDERROUTER|50=aibarra@100@0075|1=73007305-00|11=44ea18570fd4b615|21=3|38=4367|40=2|44=560|54=2|55=CALICHERAA|59=0|60=20170908-12:04:45.989|63=3|100=XSGO|207=XSGO|453=2|448=LVPOOL|447=D|452=1|448=666|447=D|452=7|10=071|
20170908-12:04:43.414: 8=FIX.4.4|9=393|35=8|34=137|49=ORDERROUTER|52=20170908-12:04:43.414|56=TOMADOR_DE_ORDENES|57=aibarra@100@0075|1=73007305-00|6=0|11=44ea18570fd4b615|14=0|17=-7c9081dbeca9b48e|21=3|31=0|32=0|37=-104b0f06c2b3b552|38=4367|39=A|40=2|44=560|54=2|55=CALICHERAA|58=New Sell CALICHERAA 4367.0 @ 560.0|59=0|60=20170908-12:04:43.413|63=3|100=XSGO|150=A|151=4367|207=XSGO|453=2|448=LVPOOL|447=D|452=1|448=666|447=D|452=7|10=122|
20170908-12:05:43.412: 8=FIX.4.4|9=70|35=0|56=ORDERROUTER|49=TOMADOR_DE_ORDENES|52=20170908-12:05:46|34=132|10=065|
20170908-12:05:44.189: 8=FIX.4.4|9=74|35=0|34=138|49=ORDERROUTER|52=20170908-12:05:44.189|56=TOMADOR_DE_ORDENES|10=025|
20170908-12:06:43.413: 8=FIX.4.4|9=70|35=0|56=ORDERROUTER|49=TOMADOR_DE_ORDENES|52=20170908-12:06:46|34=133|10=067|
20170908-12:06:44.189: 8=FIX.4.4|9=74|35=0|34=139|49=ORDERROUTER|52=20170908-12:06:44.189|56=TOMADOR_DE_ORDENES|10=027|
20170908-12:07:43.413: 8=FIX.4.4|9=70|35=0|56=ORDERROUTER|49=TOMADOR_DE_ORDENES|52=20170908-12:07:46|34=134|10=069|
20170908-12:07:44.189: 8=FIX.4.4|9=74|35=0|34=140|49=ORDERROUTER|52=20170908-12:07:44.189|56=TOMADOR_DE_ORDENES|10=020|
20170908-12:08:43.414: 8=FIX.4.4|9=70|35=0|56=ORDERROUTER|49=TOMADOR_DE_ORDENES|52=20170908-12:08:46|34=135|10=071|
20170908-12:08:44.189: 8=FIX.4.4|9=74|35=0|34=141|49=ORDERROUTER|52=20170908-12:08:44.189|56=TOMADOR_DE_ORDENES|10=022|
20170908-12:08:57.496: 8=FIX.4.4|9=392|35=8|34=142|49=ORDERROUTER|52=20170908-12:08:57.496|56=TOMADOR_DE_ORDENES|57=aibarra@100@0075|1=73007305-00|6=0|11=44ea18570fd4b615|14=0|17=3c5cea19646d479f|21=3|31=0|32=0|37=-104b0f06c2b3b552|38=4367|39=0|40=2|44=560|54=2|55=CALICHERAA|58=New Sell CALICHERAA 4367.0 @ 560.0|59=0|60=20170908-12:08:57.494|63=3|100=XSGO|150=0|151=4367|207=XSGO|453=2|448=LVPOOL|447=D|452=1|448=666|447=D|452=7|10=240|
20170908-12:09:43.414: 8=FIX.4.4|9=70|35=0|56=ORDERROUTER|49=TOMADOR_DE_ORDENES|52=20170908-12:09:46|34=136|10=073|
20170908-12:09:58.189: 8=FIX.4.4|9=74|35=0|34=143|49=ORDERROUTER|52=20170908-12:09:58.189|56=TOMADOR_DE_ORDENES|10=030|
20170908-12:10:43.450: 8=FIX.4.4|9=70|35=0|56=ORDERROUTER|49=TOMADOR_DE_ORDENES|52=20170908-12:10:46|34=137|10=066|
20170908-12:10:58.189: 8=FIX.4.4|9=74|35=0|34=144|49=ORDERROUTER|52=20170908-12:10:58.189|56=TOMADOR_DE_ORDENES|10=023|
20170908-12:11:29.493: 8=FIX.4.4|9=265|35=D|34=138|49=TOMADOR_DE_ORDENES|52=20170908-12:11:32|56=ORDERROUTER|50=ryanez@1055@0107|1=66944514-00|11=432135456bb7b794|21=3|38=2|40=2|44=2850000|54=1|55=POLO|59=0|60=20170908-12:11:32.031|63=3|100=XSGO|207=XSGO|453=2|448=LVPOOL|447=D|452=1|448=666|447=D|452=7|10=123|
20170908-12:11:29.496: 8=FIX.4.4|9=379|35=8|34=145|49=ORDERROUTER|52=20170908-12:11:29.496|56=TOMADOR_DE_ORDENES|57=ryanez@1055@0107|1=66944514-00|6=0|11=432135456bb7b794|14=0|17=-4fffa8b195beb103|21=3|31=0|32=0|37=-16a6c1c30885b110|38=2|39=A|40=2|44=2850000|54=1|55=POLO|58=New Buy POLO 2.0 @ 2850000.0|59=0|60=20170908-12:11:29.495|63=3|100=XSGO|150=A|151=2|207=XSGO|453=2|448=LVPOOL|447=D|452=1|448=666|447=D|452=7|10=074|
20170908-12:11:34.110: 8=FIX.4.4|9=273|35=D|34=139|49=TOMADOR_DE_ORDENES|52=20170908-12:11:36|56=ORDERROUTER|50=igarreton@0537@0079|1=91233908-00|11=332679c1678f48e3|21=1|38=8000|40=2|44=281|54=2|55=SM-CHILE B|59=0|60=20170908-12:11:36.680|63=3|100=XSGO|207=XSGO|453=2|448=LVPOOL|447=D|452=1|448=666|447=D|452=7|10=001|
20170908-12:11:34.112: 8=FIX.4.4|9=395|35=8|34=146|49=ORDERROUTER|52=20170908-12:11:34.112|56=TOMADOR_DE_ORDENES|57=igarreton@0537@0079|1=91233908-00|6=0|11=332679c1678f48e3|14=0|17=-2b5fea9880cdb2a9|21=1|31=0|32=0|37=4dc8efd4856d4bae|38=8000|39=A|40=2|44=281|54=2|55=SM-CHILE B|58=New Sell SM-CHILE B 8000.0 @ 281.0|59=0|60=20170908-12:11:34.111|63=3|100=XSGO|150=A|151=8000|207=XSGO|453=2|448=LVPOOL|447=D|452=1|448=666|447=D|452=7|10=154|
20170908-12:11:34.190: 8=FIX.4.4|9=389|35=8|34=147|49=ORDERROUTER|52=20170908-12:11:34.190|56=TOMADOR_DE_ORDENES|57=igarreton@0537@0079|1=91233908-00|6=0|11=332679c1678f48e3|14=0|17=ex172514413|21=1|31=0|32=0|37=4dc8efd4856d4bae|38=8000|39=0|40=2|44=281|54=2|55=SM-CHILE B|58=New Sell SM-CHILE B 8000.0 @ 281.0|59=0|60=20170908-12:11:34.189|63=3|100=XSGO|150=0|151=8000|207=XSGO|453=2|448=LVPOOL|447=D|452=1|448=666|447=D|452=7|10=074|
20170908-12:12:34.110: 8=FIX.4.4|9=70|35=0|56=ORDERROUTER|49=TOMADOR_DE_ORDENES|52=20170908-12:12:36|34=140|10=061|
20170908-12:12:35.189: 8=FIX.4.4|9=74|35=0|34=148|49=ORDERROUTER|52=20170908-12:12:35.189|56=TOMADOR_DE_ORDENES|10=024|
20170908-12:13:34.111: 8=FIX.4.4|9=70|35=0|56=ORDERROUTER|49=TOMADOR_DE_ORDENES|52=20170908-12:13:36|34=141|10=063|
20170908-12:13:35.190: 8=FIX.4.4|9=74|35=0|34=149|49=ORDERROUTER|52=20170908-12:13:35.190|56=TOMADOR_DE_ORDENES|10=018|
20170908-12:13:44.411: 8=FIX.4.4|9=264|35=D|34=142|49=TOMADOR_DE_ORDENES|52=20170908-12:13:47|56=ORDERROUTER|50=ryanez@1055@0107|1=66944514-00|11=771c77fee774a9f|21=3|38=2|40=2|44=2850000|54=1|55=POLO|59=0|60=20170908-12:13:46.989|63=3|100=XSGO|207=XSGO|453=2|448=LVPOOL|447=D|452=1|448=666|447=D|452=7|10=010|
20170908-12:13:44.414: 8=FIX.4.4|9=377|35=8|34=150|49=ORDERROUTER|52=20170908-12:13:44.413|56=TOMADOR_DE_ORDENES|57=ryanez@1055@0107|1=66944514-00|6=0|11=771c77fee774a9f|14=0|17=39d56c585f894419|21=3|31=0|32=0|37=-75952a8da08ebb41|38=2|39=A|40=2|44=2850000|54=1|55=POLO|58=New Buy POLO 2.0 @ 2850000.0|59=0|60=20170908-12:13:44.413|63=3|100=XSGO|150=A|151=2|207=XSGO|453=2|448=LVPOOL|447=D|452=1|448=666|447=D|452=7|10=011|
20170908-12:14:44.412: 8=FIX.4.4|9=70|35=0|56=ORDERROUTER|49=TOMADOR_DE_ORDENES|52=20170908-12:14:47|34=143|10=068|
20170908-12:14:45.189: 8=FIX.4.4|9=74|35=0|34=151|49=ORDERROUTER|52=20170908-12:14:45.189|56=TOMADOR_DE_ORDENES|10=021|
20170908-12:15:44.412: 8=FIX.4.4|9=70|35=0|56=ORDERROUTER|49=TOMADOR_DE_ORDENES|52=20170908-12:15:47|34=144|10=070|
20170908-12:15:45.189: 8=FIX.4.4|9=74|35=0|34=152|49=ORDERROUTER|52=20170908-12:15:45.189|56=TOMADOR_DE_ORDENES|10=023|
20170908-12:16:44.412: 8=FIX.4.4|9=70|35=0|56=ORDERROUTER|49=TOMADOR_DE_ORDENES|52=20170908-12:16:47|34=145|10=072|
20170908-12:16:45.189: 8=FIX.4.4|9=74|35=0|34=153|49=ORDERROUTER|52=20170908-12:16:45.189|56=TOMADOR_DE_ORDENES|10=025|
20170908-12:16:51.911: 8=FIX.4.4|9=379|35=8|34=154|49=ORDERROUTER|52=20170908-12:16:51.911|56=TOMADOR_DE_ORDENES|57=ryanez@1055@0107|1=66944514-00|6=0|11=432135456bb7b794|14=0|17=-335511ce69d1b032|21=3|31=0|32=0|37=-16a6c1c30885b110|38=2|39=0|40=2|44=2850000|54=1|55=POLO|58=New Buy POLO 2.0 @ 2850000.0|59=0|60=20170908-12:16:51.910|63=3|100=XSGO|150=0|151=2|207=XSGO|453=2|448=LVPOOL|447=D|452=1|448=666|447=D|452=7|10=080|
20170908-12:16:55.155: 8=FIX.4.4|9=378|35=8|34=155|49=ORDERROUTER|52=20170908-12:16:55.155|56=TOMADOR_DE_ORDENES|57=ryanez@1055@0107|1=66944514-00|6=0|11=771c77fee774a9f|14=0|17=-78ec84a9b889b0bf|21=3|31=0|32=0|37=-75952a8da08ebb41|38=2|39=0|40=2|44=2850000|54=1|55=POLO|58=New Buy POLO 2.0 @ 2850000.0|59=0|60=20170908-12:16:55.154|63=3|100=XSGO|150=0|151=2|207=XSGO|453=2|448=LVPOOL|447=D|452=1|448=666|447=D|452=7|10=228|
20170908-12:17:44.413: 8=FIX.4.4|9=70|35=0|56=ORDERROUTER|49=TOMADOR_DE_ORDENES|52=20170908-12:17:47|34=146|10=074|
20170908-12:17:55.189: 8=FIX.4.4|9=74|35=0|34=156|49=ORDERROUTER|52=20170908-12:17:55.189|56=TOMADOR_DE_ORDENES|10=030|
20170908-12:18:44.413: 8=FIX.4.4|9=70|35=0|56=ORDERROUTER|49=TOMADOR_DE_ORDENES|52=20170908-12:18:47|34=147|10=076|
20170908-12:18:55.190: 8=FIX.4.4|9=74|35=0|34=157|49=ORDERROUTER|52=20170908-12:18:55.189|56=TOMADOR_DE_ORDENES|10=032|
20170908-12:19:44.413: 8=FIX.4.4|9=70|35=0|56=ORDERROUTER|49=TOMADOR_DE_ORDENES|52=20170908-12:19:47|34=148|10=078|
20170908-12:19:55.189: 8=FIX.4.4|9=74|35=0|34=158|49=ORDERROUTER|52=20170908-12:19:55.189|56=TOMADOR_DE_ORDENES|10=034|
20170908-12:20:44.414: 8=FIX.4.4|9=70|35=0|56=ORDERROUTER|49=TOMADOR_DE_ORDENES|52=20170908-12:20:47|34=149|10=071|
20170908-12:20:55.189: 8=FIX.4.4|9=74|35=0|34=159|49=ORDERROUTER|52=20170908-12:20:55.189|56=TOMADOR_DE_ORDENES|10=027|
20170908-12:21:44.414: 8=FIX.4.4|9=70|35=0|56=ORDERROUTER|49=TOMADOR_DE_ORDENES|52=20170908-12:21:47|34=150|10=064|
20170908-12:21:55.190: 8=FIX.4.4|9=74|35=0|34=160|49=ORDERROUTER|52=20170908-12:21:55.190|56=TOMADOR_DE_ORDENES|10=012|
20170908-12:22:44.414: 8=FIX.4.4|9=70|35=0|56=ORDERROUTER|49=TOMADOR_DE_ORDENES|52=20170908-12:22:47|34=151|10=066|
20170908-12:22:56.190: 8=FIX.4.4|9=74|35=0|34=161|49=ORDERROUTER|52=20170908-12:22:56.190|56=TOMADOR_DE_ORDENES|10=015|
20170908-12:23:44.415: 8=FIX.4.4|9=70|35=0|56=ORDERROUTER|49=TOMADOR_DE_ORDENES|52=20170908-12:23:47|34=152|10=068|
20170908-12:23:57.190: 8=FIX.4.4|9=74|35=0|34=162|49=ORDERROUTER|52=20170908-12:23:57.190|56=TOMADOR_DE_ORDENES|10=018|
20170908-12:24:23.727: 8=FIX.4.4|9=273|35=D|34=153|49=TOMADOR_DE_ORDENES|52=20170908-12:24:26|56=ORDERROUTER|50=jcardemil@0258@0258|1=211341505-00|11=6db5ade24f2b204|21=3|38=1204|40=2|44=1995|54=2|55=BANMEDICA|59=0|60=20170908-12:24:26.176|63=3|100=XSGO|207=XSGO|453=2|448=LVPOOL|447=D|452=1|448=666|447=D|452=7|10=147|
20170908-12:24:23.730: 8=FIX.4.4|9=395|35=8|34=163|49=ORDERROUTER|52=20170908-12:24:23.730|56=TOMADOR_DE_ORDENES|57=jcardemil@0258@0258|1=211341505-00|6=0|11=6db5ade24f2b204|14=0|17=3b4d62cdd0f04f47|21=3|31=0|32=0|37=-394de349ebcebf10|38=1204|39=A|40=2|44=1995|54=2|55=BANMEDICA|58=New Sell BANMEDICA 1204.0 @ 1995.0|59=0|60=20170908-12:24:23.729|63=3|100=XSGO|150=A|151=1204|207=XSGO|453=2|448=LVPOOL|447=D|452=1|448=666|447=D|452=7|10=237|
20170908-12:25:23.727: 8=FIX.4.4|9=70|35=0|56=ORDERROUTER|49=TOMADOR_DE_ORDENES|52=20170908-12:25:26|34=154|10=069|
20170908-12:25:24.189: 8=FIX.4.4|9=74|35=0|34=164|49=ORDERROUTER|52=20170908-12:25:24.189|56=TOMADOR_DE_ORDENES|10=024|
20170908-12:26:23.728: 8=FIX.4.4|9=70|35=0|56=ORDERROUTER|49=TOMADOR_DE_ORDENES|52=20170908-12:26:26|34=155|10=071|
20170908-12:26:24.190: 8=FIX.4.4|9=74|35=0|34=165|49=ORDERROUTER|52=20170908-12:26:24.190|56=TOMADOR_DE_ORDENES|10=018|
20170908-12:27:23.729: 8=FIX.4.4|9=70|35=0|56=ORDERROUTER|49=TOMADOR_DE_ORDENES|52=20170908-12:27:26|34=156|10=073|
20170908-12:27:25.190: 8=FIX.4.4|9=74|35=0|34=166|49=ORDERROUTER|52=20170908-12:27:25.190|56=TOMADOR_DE_ORDENES|10=021|
20170908-12:28:09.489: 8=FIX.4.4|9=401|35=8|34=167|49=ORDERROUTER|52=20170908-12:28:09.489|56=TOMADOR_DE_ORDENES|57=ryanez@1055@0107|1=66944514-00|6=0|11=1ffd318e7da249d5|14=0|17=1a86f76182924f41|21=3|31=0|32=0|37=-75952a8da08ebb41|38=2|39=6|40=2|41=3ab8922cc8224bf9|44=2850000|54=1|55=POLO|58=Cancel Buy POLO 2.0 @ 2850000.0|59=0|60=20170908-12:28:09.487|63=3|100=XSGO|150=6|151=2|207=XSGO|453=2|448=LVPOOL|447=D|452=1|448=666|447=D|452=7|10=123|
20170908-12:28:16.525: 8=FIX.4.4|9=402|35=8|34=168|49=ORDERROUTER|52=20170908-12:28:16.525|56=TOMADOR_DE_ORDENES|57=ryanez@1055@0107|1=66944514-00|6=0|11=1ffd318e7da249d5|14=0|17=-5065584abc5db647|21=3|31=0|32=0|37=-75952a8da08ebb41|38=2|39=4|40=2|41=3ab8922cc8224bf9|44=2850000|54=1|55=POLO|58=Cancel Buy POLO 2.0 @ 2850000.0|59=0|60=20170908-12:28:16.524|63=3|100=XSGO|150=4|151=0|207=XSGO|453=2|448=LVPOOL|447=D|452=1|448=666|447=D|452=7|10=234|
20170908-12:28:23.729: 8=FIX.4.4|9=70|35=0|56=ORDERROUTER|49=TOMADOR_DE_ORDENES|52=20170908-12:28:26|34=157|10=075|
20170908-12:28:59.102: 8=FIX.4.4|9=396|35=8|34=169|49=ORDERROUTER|52=20170908-12:28:59.102|56=TOMADOR_DE_ORDENES|57=jcardemil@0258@0258|1=211341505-00|6=0|11=6db5ade24f2b204|14=0|17=-3fdcdab9909db400|21=3|31=0|32=0|37=-394de349ebcebf10|38=1204|39=0|40=2|44=1995|54=2|55=BANMEDICA|58=New Sell BANMEDICA 1204.0 @ 1995.0|59=0|60=20170908-12:28:59.101|63=3|100=XSGO|150=0|151=1204|207=XSGO|453=2|448=LVPOOL|447=D|452=1|448=666|447=D|452=7|10=051|
20170908-12:29:23.730: 8=FIX.4.4|9=70|35=0|56=ORDERROUTER|49=TOMADOR_DE_ORDENES|52=20170908-12:29:26|34=158|10=077|
20170908-12:29:59.190: 8=FIX.4.4|9=74|35=0|34=170|49=ORDERROUTER|52=20170908-12:29:59.190|56=TOMADOR_DE_ORDENES|10=025|
20170908-12:30:23.730: 8=FIX.4.4|9=70|35=0|56=ORDERROUTER|49=TOMADOR_DE_ORDENES|52=20170908-12:30:26|34=159|10=070|
20170908-12:30:59.190: 8=FIX.4.4|9=74|35=0|34=171|49=ORDERROUTER|52=20170908-12:30:59.190|56=TOMADOR_DE_ORDENES|10=018|
20170908-12:31:23.730: 8=FIX.4.4|9=70|35=0|56=ORDERROUTER|49=TOMADOR_DE_ORDENES|52=20170908-12:31:26|34=160|10=063|
20170908-12:32:00.189: 8=FIX.4.4|9=74|35=0|34=172|49=ORDERROUTER|52=20170908-12:32:00.189|56=TOMADOR_DE_ORDENES|10=015|
20170908-12:32:23.731: 8=FIX.4.4|9=70|35=0|56=ORDERROUTER|49=TOMADOR_DE_ORDENES|52=20170908-12:32:26|34=161|10=065|
20170908-12:33:00.189: 8=FIX.4.4|9=74|35=0|34=173|49=ORDERROUTER|52=20170908-12:33:00.189|56=TOMADOR_DE_ORDENES|10=017|
20170908-12:33:23.731: 8=FIX.4.4|9=70|35=0|56=ORDERROUTER|49=TOMADOR_DE_ORDENES|52=20170908-12:33:26|34=162|10=067|
20170908-12:34:00.190: 8=FIX.4.4|9=74|35=0|34=174|49=ORDERROUTER|52=20170908-12:34:00.190|56=TOMADOR_DE_ORDENES|10=011|
20170908-12:34:23.732: 8=FIX.4.4|9=70|35=0|56=ORDERROUTER|49=TOMADOR_DE_ORDENES|52=20170908-12:34:26|34=163|10=069|
20170908-12:35:00.190: 8=FIX.4.4|9=74|35=0|34=175|49=ORDERROUTER|52=20170908-12:35:00.190|56=TOMADOR_DE_ORDENES|10=013|
20170908-12:35:23.732: 8=FIX.4.4|9=70|35=0|56=ORDERROUTER|49=TOMADOR_DE_ORDENES|52=20170908-12:35:26|34=164|10=071|
20170908-12:36:01.190: 8=FIX.4.4|9=74|35=0|34=176|49=ORDERROUTER|52=20170908-12:36:01.189|56=TOMADOR_DE_ORDENES|10=024|
20170908-12:36:23.733: 8=FIX.4.4|9=70|35=0|56=ORDERROUTER|49=TOMADOR_DE_ORDENES|52=20170908-12:36:26|34=165|10=073|
20170908-12:37:01.190: 8=FIX.4.4|9=74|35=0|34=177|49=ORDERROUTER|52=20170908-12:37:01.190|56=TOMADOR_DE_ORDENES|10=018|
20170908-12:37:23.733: 8=FIX.4.4|9=70|35=0|56=ORDERROUTER|49=TOMADOR_DE_ORDENES|52=20170908-12:37:26|34=166|10=075|
20170908-12:38:02.189: 8=FIX.4.4|9=74|35=0|34=178|49=ORDERROUTER|52=20170908-12:38:02.189|56=TOMADOR_DE_ORDENES|10=029|
20170908-12:38:23.734: 8=FIX.4.4|9=70|35=0|56=ORDERROUTER|49=TOMADOR_DE_ORDENES|52=20170908-12:38:26|34=167|10=077|
20170908-12:39:02.190: 8=FIX.4.4|9=74|35=0|34=179|49=ORDERROUTER|52=20170908-12:39:02.190|56=TOMADOR_DE_ORDENES|10=023|
20170908-12:39:23.734: 8=FIX.4.4|9=70|35=0|56=ORDERROUTER|49=TOMADOR_DE_ORDENES|52=20170908-12:39:26|34=168|10=079|
20170908-12:40:03.189: 8=FIX.4.4|9=74|35=0|34=180|49=ORDERROUTER|52=20170908-12:40:03.189|56=TOMADOR_DE_ORDENES|10=016|
20170908-12:40:23.735: 8=FIX.4.4|9=70|35=0|56=ORDERROUTER|49=TOMADOR_DE_ORDENES|52=20170908-12:40:26|34=169|10=072|
20170908-12:41:03.161: 8=FIX.4.4|9=266|35=D|34=170|49=TOMADOR_DE_ORDENES|52=20170908-12:41:05|56=ORDERROUTER|50=jclaude@0089@0077|1=32604374-00|11=3229780f6a4d46ca|21=3|38=662|40=2|44=32|54=2|55=VAPORES|59=0|60=20170908-12:41:05.713|63=3|100=XSGO|207=XSGO|453=2|448=LVPOOL|447=D|452=1|448=666|447=D|452=7|10=127|
20170908-12:41:03.163: 8=FIX.4.4|9=383|35=8|34=181|49=ORDERROUTER|52=20170908-12:41:03.163|56=TOMADOR_DE_ORDENES|57=jclaude@0089@0077|1=32604374-00|6=0|11=3229780f6a4d46ca|14=0|17=-5b9b4f6795d0b35f|21=3|31=0|32=0|37=-74eafbaab27dbc74|38=662|39=A|40=2|44=32|54=2|55=VAPORES|58=New Sell VAPORES 662.0 @ 32.0|59=0|60=20170908-12:41:03.162|63=3|100=XSGO|150=A|151=662|207=XSGO|453=2|448=LVPOOL|447=D|452=1|448=666|447=D|452=7|10=030|
20170908-12:41:12.382: 8=FIX.4.4|9=382|35=8|34=182|49=ORDERROUTER|52=20170908-12:41:12.382|56=TOMADOR_DE_ORDENES|57=jclaude@0089@0077|1=32604374-00|6=0|11=3229780f6a4d46ca|14=0|17=531eb181fc0f43db|21=3|31=0|32=0|37=-74eafbaab27dbc74|38=662|39=0|40=2|44=32|54=2|55=VAPORES|58=New Sell VAPORES 662.0 @ 32.0|59=0|60=20170908-12:41:12.381|63=3|100=XSGO|150=0|151=662|207=XSGO|453=2|448=LVPOOL|447=D|452=1|448=666|447=D|452=7|10=240|
20170908-12:41:38.633: 8=FIX.4.4|9=265|35=D|34=171|49=TOMADOR_DE_ORDENES|52=20170908-12:41:41|56=ORDERROUTER|50=jclaude@0089@0077|1=32604374-00|11=72158c13088cbf41|21=3|38=739|40=2|44=65|54=2|55=SMSAAM|59=0|60=20170908-12:41:41.204|63=3|100=XSGO|207=XSGO|453=2|448=LVPOOL|447=D|452=1|448=666|447=D|452=7|10=243|
20170908-12:41:38.635: 8=FIX.4.4|9=380|35=8|34=183|49=ORDERROUTER|52=20170908-12:41:38.635|56=TOMADOR_DE_ORDENES|57=jclaude@0089@0077|1=32604374-00|6=0|11=72158c13088cbf41|14=0|17=-57e3057b0d6db34a|21=3|31=0|32=0|37=1679e2d424114f05|38=739|39=A|40=2|44=65|54=2|55=SMSAAM|58=New Sell SMSAAM 739.0 @ 65.0|59=0|60=20170908-12:41:38.634|63=3|100=XSGO|150=A|151=739|207=XSGO|453=2|448=LVPOOL|447=D|452=1|448=666|447=D|452=7|10=213|
20170908-12:41:55.827: 8=FIX.4.4|9=386|35=8|34=184|49=ORDERROUTER|52=20170908-12:41:55.827|56=TOMADOR_DE_ORDENES|57=jclaude@0089@0077|1=32604374-00|6=32.4|11=3229780f6a4d46ca|14=662|17=ex1725141945|21=3|31=32.4|32=662|37=-74eafbaab27dbc74|38=662|39=2|40=2|44=32|54=2|55=VAPORES|58=New Sell VAPORES 662.0 @ 32.0|59=0|60=20170908-12:41:55.825|63=3|100=XSGO|150=F|151=0|207=XSGO|453=2|448=LVPOOL|447=D|452=1|448=666|447=D|452=7|10=029|
20170908-12:42:11.763: 8=FIX.4.4|9=379|35=8|34=185|49=ORDERROUTER|52=20170908-12:42:11.762|56=TOMADOR_DE_ORDENES|57=jclaude@0089@0077|1=32604374-00|6=0|11=72158c13088cbf41|14=0|17=50c572bb36244608|21=3|31=0|32=0|37=1679e2d424114f05|38=739|39=0|40=2|44=65|54=2|55=SMSAAM|58=New Sell SMSAAM 739.0 @ 65.0|59=0|60=20170908-12:42:11.761|63=3|100=XSGO|150=0|151=739|207=XSGO|453=2|448=LVPOOL|447=D|452=1|448=666|447=D|452=7|10=243|
20170908-12:42:22.369: 8=FIX.4.4|9=268|35=D|34=172|49=TOMADOR_DE_ORDENES|52=20170908-12:42:25|56=ORDERROUTER|50=jclaude@0089@0077|1=32604374-00|11=3bacb76026654eed|21=3|38=64|40=2|44=83|54=2|55=NUEVAPOLAR|59=0|60=20170908-12:42:24.939|63=3|100=XSGO|207=XSGO|453=2|448=LVPOOL|447=D|452=1|448=666|447=D|452=7|10=156|
20170908-12:42:22.371: 8=FIX.4.4|9=385|35=8|34=186|49=ORDERROUTER|52=20170908-12:42:22.371|56=TOMADOR_DE_ORDENES|57=jclaude@0089@0077|1=32604374-00|6=0|11=3bacb76026654eed|14=0|17=-378adc286ff3b1a6|21=3|31=0|32=0|37=-b82e7393545b13d|38=64|39=A|40=2|44=83|54=2|55=NUEVAPOLAR|58=New Sell NUEVAPOLAR 64.0 @ 83.0|59=0|60=20170908-12:42:22.370|63=3|100=XSGO|150=A|151=64|207=XSGO|453=2|448=LVPOOL|447=D|452=1|448=666|447=D|452=7|10=141|
20170908-12:42:49.666: 8=FIX.4.4|9=385|35=8|34=187|49=ORDERROUTER|52=20170908-12:42:49.666|56=TOMADOR_DE_ORDENES|57=jclaude@0089@0077|1=32604374-00|6=0|11=3bacb76026654eed|14=0|17=-537c96e02b35b086|21=3|31=0|32=0|37=-b82e7393545b13d|38=64|39=0|40=2|44=83|54=2|55=NUEVAPOLAR|58=New Sell NUEVAPOLAR 64.0 @ 83.0|59=0|60=20170908-12:42:49.665|63=3|100=XSGO|150=0|151=64|207=XSGO|453=2|448=LVPOOL|447=D|452=1|448=666|447=D|452=7|10=251|
20170908-12:43:10.677: 8=FIX.4.4|9=387|35=8|34=188|49=ORDERROUTER|52=20170908-12:43:10.677|56=TOMADOR_DE_ORDENES|57=jclaude@0089@0077|1=32604374-00|6=83.5|11=3bacb76026654eed|14=64|17=ex1725142078|21=3|31=83.5|32=64|37=-b82e7393545b13d|38=64|39=2|40=2|44=83|54=2|55=NUEVAPOLAR|58=New Sell NUEVAPOLAR 64.0 @ 83.0|59=0|60=20170908-12:43:10.675|63=3|100=XSGO|150=F|151=0|207=XSGO|453=2|448=LVPOOL|447=D|452=1|448=666|447=D|452=7|10=044|
20170908-12:43:22.369: 8=FIX.4.4|9=70|35=0|56=ORDERROUTER|49=TOMADOR_DE_ORDENES|52=20170908-12:43:25|34=173|10=069|
20170908-12:43:23.417: 8=FIX.4.4|9=271|35=D|34=174|49=TOMADOR_DE_ORDENES|52=20170908-12:43:26|56=ORDERROUTER|50=ageisse@0049@0049|1=772819404-00|11=62a4d7eeb85f49f8|21=3|38=100000|40=2|44=45.6|54=2|55=MASISA|59=0|60=20170908-12:43:25.951|63=3|100=XSGO|207=XSGO|453=2|448=LVPOOL|447=D|452=1|448=666|447=D|452=7|10=198|
20170908-12:43:23.419: 8=FIX.4.4|9=392|35=8|34=189|49=ORDERROUTER|52=20170908-12:43:23.419|56=TOMADOR_DE_ORDENES|57=ageisse@0049@0049|1=772819404-00|6=0|11=62a4d7eeb85f49f8|14=0|17=-23fc5e072a22ba1d|21=3|31=0|32=0|37=4afe4991d7f948ea|38=100000|39=A|40=2|44=45.6|54=2|55=MASISA|58=New Sell MASISA 100000.0 @ 45.6|59=0|60=20170908-12:43:23.418|63=3|100=XSGO|150=A|151=100000|207=XSGO|453=2|448=LVPOOL|447=D|452=1|448=666|447=D|452=7|10=141|
20170908-12:43:49.986: 8=FIX.4.4|9=265|35=D|34=175|49=TOMADOR_DE_ORDENES|52=20170908-12:43:52|56=ORDERROUTER|50=vsaavedram@1023@0132|1=198142409-00|11=7008fda9c4f7445e|21=1|38=336|40=1|54=2|55=CENCOSUD|59=3|60=20170908-12:43:52.549|63=3|100=XSGO|207=XSGO|453=2|448=LVPOOL|447=D|452=1|448=666|447=D|452=7|10=104|
20170908-12:43:49.989: 8=FIX.4.4|9=385|35=8|34=190|49=ORDERROUTER|52=20170908-12:43:49.989|56=TOMADOR_DE_ORDENES|57=vsaavedram@1023@0132|1=198142409-00|6=0|11=7008fda9c4f7445e|14=0|17=-23b547e70cd6b322|21=1|31=0|32=0|37=-3b931d4a523bb3eb|38=336|39=A|40=1|54=2|55=CENCOSUD|58=New Sell CENCOSUD 336.0 @ MARKET|59=3|60=20170908-12:43:49.988|63=3|100=XSGO|150=A|151=336|207=XSGO|453=2|448=LVPOOL|447=D|452=1|448=666|447=D|452=7|10=134|
20170908-12:43:50.019: 8=FIX.4.4|9=380|35=8|34=191|49=ORDERROUTER|52=20170908-12:43:50.019|56=TOMADOR_DE_ORDENES|57=vsaavedram@1023@0132|1=198142409-00|6=0|11=7008fda9c4f7445e|14=0|17=ex1725142142|21=1|31=0|32=0|37=-3b931d4a523bb3eb|38=336|39=0|40=1|54=2|55=CENCOSUD|58=New Sell CENCOSUD 336.0 @ MARKET|59=3|60=20170908-12:43:50.019|63=3|100=XSGO|150=0|151=336|207=XSGO|453=2|448=LVPOOL|447=D|452=1|448=666|447=D|452=7|10=181|
20170908-12:43:50.027: 8=FIX.4.4|9=393|35=8|34=192|49=ORDERROUTER|52=20170908-12:43:50.027|56=TOMADOR_DE_ORDENES|57=vsaavedram@1023@0132|1=198142409-00|6=1881|11=7008fda9c4f7445e|14=336|17=ex1725142144|21=1|31=1881|32=336|37=-3b931d4a523bb3eb|38=336|39=2|40=1|44=0|54=2|55=CENCOSUD|58=New Sell CENCOSUD 336.0 @ MARKET|59=3|60=20170908-12:43:50.026|63=3|100=XSGO|150=F|151=0|207=XSGO|453=2|448=LVPOOL|447=D|452=1|448=666|447=D|452=7|10=087|
20170908-12:43:52.585: 8=FIX.4.4|9=279|35=D|34=176|49=TOMADOR_DE_ORDENES|52=20170908-12:43:55|56=ORDERROUTER|50=mnieto@0555@0555|1=93134389-00|11=2aaaeebc5ff2b45c|21=3|38=110|40=2|44=29305|54=1|55=CFILVPARI1|59=0|60=20170908-12:43:55.155|63=3|100=XSGO|167=CFI|207=XSGO|453=2|448=LVPOOL|447=D|452=1|448=666|447=D|452=7|10=088|
20170908-12:43:52.586: 8=FIX.4.4|9=400|35=8|34=193|49=ORDERROUTER|52=20170908-12:43:52.586|56=TOMADOR_DE_ORDENES|57=mnieto@0555@0555|1=93134389-00|6=0|11=2aaaeebc5ff2b45c|14=0|17=533ad048cb934ed7|21=3|31=0|32=0|37=-4b9479b7c72cbc09|38=110|39=A|40=2|44=29305|54=1|55=CFILVPARI1|58=New Buy CFILVPARI1 110.0 @ 29305.0|59=0|60=20170908-12:43:52.586|63=3|100=XSGO|150=A|151=110|167=CFI|207=XSGO|453=2|448=LVPOOL|447=D|452=1|448=666|447=D|452=7|10=230|
20170908-12:43:57.032: 8=FIX.4.4|9=391|35=8|34=194|49=ORDERROUTER|52=20170908-12:43:57.032|56=TOMADOR_DE_ORDENES|57=ageisse@0049@0049|1=772819404-00|6=0|11=62a4d7eeb85f49f8|14=0|17=67b917ec25ef4785|21=3|31=0|32=0|37=4afe4991d7f948ea|38=100000|39=0|40=2|44=45.6|54=2|55=MASISA|58=New Sell MASISA 100000.0 @ 45.6|59=0|60=20170908-12:43:57.030|63=3|100=XSGO|150=0|151=100000|207=XSGO|453=2|448=LVPOOL|447=D|452=1|448=666|447=D|452=7|10=248|
20170908-12:44:06.317: 8=FIX.4.4|9=399|35=8|34=195|49=ORDERROUTER|52=20170908-12:44:06.317|56=TOMADOR_DE_ORDENES|57=mnieto@0555@0555|1=93134389-00|6=0|11=2aaaeebc5ff2b45c|14=0|17=1f9bf5c6ae54278|21=3|31=0|32=0|37=-4b9479b7c72cbc09|38=110|39=0|40=2|44=29305|54=1|55=CFILVPARI1|58=New Buy CFILVPARI1 110.0 @ 29305.0|59=0|60=20170908-12:44:06.316|63=3|100=XSGO|150=0|151=110|167=CFI|207=XSGO|453=2|448=LVPOOL|447=D|452=1|448=666|447=D|452=7|10=155|
20170908-12:44:52.585: 8=FIX.4.4|9=70|35=0|56=ORDERROUTER|49=TOMADOR_DE_ORDENES|52=20170908-12:44:55|34=177|10=077|
20170908-12:45:07.190: 8=FIX.4.4|9=74|35=0|34=196|49=ORDERROUTER|52=20170908-12:45:07.190|56=TOMADOR_DE_ORDENES|10=024|
20170908-12:45:52.586: 8=FIX.4.4|9=70|35=0|56=ORDERROUTER|49=TOMADOR_DE_ORDENES|52=20170908-12:45:55|34=178|10=079|
20170908-12:46:07.190: 8=FIX.4.4|9=74|35=0|34=197|49=ORDERROUTER|52=20170908-12:46:07.190|56=TOMADOR_DE_ORDENES|10=026|
20170908-12:46:21.383: 8=FIX.4.4|9=398|35=8|34=198|49=ORDERROUTER|52=20170908-12:46:21.383|56=TOMADOR_DE_ORDENES|57=ageisse@0049@0049|1=772819404-00|6=46.2|11=62a4d7eeb85f49f8|14=6500|17=ex1725142507|21=3|31=46.2|32=6500|37=4afe4991d7f948ea|38=100000|39=1|40=2|44=45.6|54=2|55=MASISA|58=New Sell MASISA 100000.0 @ 45.6|59=0|60=20170908-12:46:21.382|63=3|100=XSGO|150=F|151=93500|207=XSGO|453=2|448=LVPOOL|447=D|452=1|448=666|447=D|452=7|10=008|
20170908-12:46:50.122: 8=FIX.4.4|9=268|35=D|34=179|49=TOMADOR_DE_ORDENES|52=20170908-12:46:52|56=ORDERROUTER|50=marojas@0533@0549|1=763515419-00|11=392dbdfd76bcb685|21=3|38=25000|40=2|44=625|54=1|55=ZOFRI|59=0|60=20170908-12:46:52.685|63=3|100=XSGO|207=XSGO|453=2|448=LVPOOL|447=D|452=1|448=666|447=D|452=7|10=128|
20170908-12:46:50.124: 8=FIX.4.4|9=386|35=8|34=199|49=ORDERROUTER|52=20170908-12:46:50.124|56=TOMADOR_DE_ORDENES|57=marojas@0533@0549|1=763515419-00|6=0|11=392dbdfd76bcb685|14=0|17=62cb426b25564e3a|21=3|31=0|32=0|37=-29b9f85b2083bab1|38=25000|39=A|40=2|44=625|54=1|55=ZOFRI|58=New Buy ZOFRI 25000.0 @ 625.0|59=0|60=20170908-12:46:50.124|63=3|100=XSGO|150=A|151=25000|207=XSGO|453=2|448=LVPOOL|447=D|452=1|448=666|447=D|452=7|10=221|
20170908-12:46:56.230: 8=FIX.4.4|9=386|35=8|34=200|49=ORDERROUTER|52=20170908-12:46:56.230|56=TOMADOR_DE_ORDENES|57=marojas@0533@0549|1=763515419-00|6=0|11=392dbdfd76bcb685|14=0|17=562af1ae4c26474f|21=3|31=0|32=0|37=-29b9f85b2083bab1|38=25000|39=0|40=2|44=625|54=1|55=ZOFRI|58=New Buy ZOFRI 25000.0 @ 625.0|59=0|60=20170908-12:46:56.228|63=3|100=XSGO|150=0|151=25000|207=XSGO|453=2|448=LVPOOL|447=D|452=1|448=666|447=D|452=7|10=238|
20170908-12:47:50.122: 8=FIX.4.4|9=70|35=0|56=ORDERROUTER|49=TOMADOR_DE_ORDENES|52=20170908-12:47:52|34=180|10=071|
20170908-12:47:52.479: 8=FIX.4.4|9=397|35=8|34=201|49=ORDERROUTER|52=20170908-12:47:52.479|56=TOMADOR_DE_ORDENES|57=ageisse@0049@0049|1=772819404-00|6=46.2|11=62a4d7eeb85f49f8|14=100000|17=ex1725142687|21=3|31=46.2|32=93500|37=4afe4991d7f948ea|38=100000|39=2|40=2|44=45.6|54=2|55=MASISA|58=New Sell MASISA 100000.0 @ 45.6|59=0|60=20170908-12:47:52.478|63=3|100=XSGO|150=F|151=0|207=XSGO|453=2|448=LVPOOL|447=D|452=1|448=666|447=D|452=7|10=211|
20170908-12:48:37.633: 8=FIX.4.4|9=272|35=D|34=181|49=TOMADOR_DE_ORDENES|52=20170908-12:48:40|56=ORDERROUTER|50=marojas@0533@0549|1=763515419-00|11=5232f45e4aa042c5|21=3|38=90|40=2|44=30000|54=1|55=GRANADILLA|59=0|60=20170908-12:48:40.186|63=3|100=XSGO|207=XSGO|453=2|448=LVPOOL|447=D|452=1|448=666|447=D|452=7|10=214|
20170908-12:48:37.636: 8=FIX.4.4|9=392|35=8|34=202|49=ORDERROUTER|52=20170908-12:48:37.636|56=TOMADOR_DE_ORDENES|57=marojas@0533@0549|1=763515419-00|6=0|11=5232f45e4aa042c5|14=0|17=-533b02da5260b558|21=3|31=0|32=0|37=-742f5834a09cb624|38=90|39=A|40=2|44=30000|54=1|55=GRANADILLA|58=New Buy GRANADILLA 90.0 @ 30000.0|59=0|60=20170908-12:48:37.635|63=3|100=XSGO|150=A|151=90|207=XSGO|453=2|448=LVPOOL|447=D|452=1|448=666|447=D|452=7|10=107|
20170908-12:48:45.631: 8=FIX.4.4|9=392|35=8|34=203|49=ORDERROUTER|52=20170908-12:48:45.630|56=TOMADOR_DE_ORDENES|57=marojas@0533@0549|1=763515419-00|6=0|11=5232f45e4aa042c5|14=0|17=-277dea489793bf8d|21=3|31=0|32=0|37=-742f5834a09cb624|38=90|39=0|40=2|44=30000|54=1|55=GRANADILLA|58=New Buy GRANADILLA 90.0 @ 30000.0|59=0|60=20170908-12:48:45.629|63=3|100=XSGO|150=0|151=90|207=XSGO|453=2|448=LVPOOL|447=D|452=1|448=666|447=D|452=7|10=198|
20170908-12:49:37.633: 8=FIX.4.4|9=70|35=0|56=ORDERROUTER|49=TOMADOR_DE_ORDENES|52=20170908-12:49:40|34=182|10=072|
20170908-12:49:46.189: 8=FIX.4.4|9=74|35=0|34=204|49=ORDERROUTER|52=20170908-12:49:46.189|56=TOMADOR_DE_ORDENES|10=029|
20170908-12:49:54.784: 8=FIX.4.4|9=271|35=D|34=183|49=TOMADOR_DE_ORDENES|52=20170908-12:49:57|56=ORDERROUTER|50=marojas@0533@0549|1=763515419-00|11=40d7a9b209b7bb06|21=3|38=2500|40=2|44=2400|54=1|55=ESPANOLA|59=0|60=20170908-12:49:57.344|63=3|100=XSGO|207=XSGO|453=2|448=LVPOOL|447=D|452=1|448=666|447=D|452=7|10=207|
20170908-12:49:54.786: 8=FIX.4.4|9=392|35=8|34=205|49=ORDERROUTER|52=20170908-12:49:54.786|56=TOMADOR_DE_ORDENES|57=marojas@0533@0549|1=763515419-00|6=0|11=40d7a9b209b7bb06|14=0|17=-43eddcd74434b876|21=3|31=0|32=0|37=-100278e9c5b5bc3e|38=2500|39=A|40=2|44=2400|54=1|55=ESPANOLA|58=New Buy ESPANOLA 2500.0 @ 2400.0|59=0|60=20170908-12:49:54.785|63=3|100=XSGO|150=A|151=2500|207=XSGO|453=2|448=LVPOOL|447=D|452=1|448=666|447=D|452=7|10=068|
20170908-12:50:14.753: 8=FIX.4.4|9=391|35=8|34=206|49=ORDERROUTER|52=20170908-12:50:14.753|56=TOMADOR_DE_ORDENES|57=marojas@0533@0549|1=763515419-00|6=0|11=40d7a9b209b7bb06|14=0|17=403985c9899c48e9|21=3|31=0|32=0|37=-100278e9c5b5bc3e|38=2500|39=0|40=2|44=2400|54=1|55=ESPANOLA|58=New Buy ESPANOLA 2500.0 @ 2400.0|59=0|60=20170908-12:50:14.752|63=3|100=XSGO|150=0|151=2500|207=XSGO|453=2|448=LVPOOL|447=D|452=1|448=666|447=D|452=7|10=089|
20170908-12:50:47.510: 8=FIX.4.4|9=267|35=D|34=184|49=TOMADOR_DE_ORDENES|52=20170908-12:50:50|56=ORDERROUTER|50=rmella@0856@0216|1=109195006-00|11=3551a712f9c74473|21=3|38=300|40=2|44=30940|54=1|55=SQM-B|59=0|60=20170908-12:50:50.073|63=3|100=XSGO|207=XSGO|453=2|448=LVPOOL|447=D|452=1|448=666|447=D|452=7|10=201|
20170908-12:50:47.512: 8=FIX.4.4|9=382|35=8|34=207|49=ORDERROUTER|52=20170908-12:50:47.512|56=TOMADOR_DE_ORDENES|57=rmella@0856@0216|1=109195006-00|6=0|11=3551a712f9c74473|14=0|17=34472ebc6d1f428c|21=3|31=0|32=0|37=1b32058dffe34b1c|38=300|39=A|40=2|44=30940|54=1|55=SQM-B|58=New Buy SQM-B 300.0 @ 30940.0|59=0|60=20170908-12:50:47.511|63=3|100=XSGO|150=A|151=300|207=XSGO|453=2|448=LVPOOL|447=D|452=1|448=666|447=D|452=7|10=218|
20170908-12:50:51.658: 8=FIX.4.4|9=382|35=8|34=208|49=ORDERROUTER|52=20170908-12:50:51.658|56=TOMADOR_DE_ORDENES|57=rmella@0856@0216|1=109195006-00|6=0|11=3551a712f9c74473|14=0|17=2cc0fc6bcab04b93|21=3|31=0|32=0|37=1b32058dffe34b1c|38=300|39=0|40=2|44=30940|54=1|55=SQM-B|58=New Buy SQM-B 300.0 @ 30940.0|59=0|60=20170908-12:50:51.657|63=3|100=XSGO|150=0|151=300|207=XSGO|453=2|448=LVPOOL|447=D|452=1|448=666|447=D|452=7|10=070|
20170908-12:50:54.807: 8=FIX.4.4|9=388|35=8|34=209|49=ORDERROUTER|52=20170908-12:50:54.807|56=TOMADOR_DE_ORDENES|57=rmella@0856@0216|1=109195006-00|6=30925|11=3551a712f9c74473|14=25|17=ex1725143066|21=3|31=30925|32=25|37=1b32058dffe34b1c|38=300|39=1|40=2|44=30940|54=1|55=SQM-B|58=New Buy SQM-B 300.0 @ 30940.0|59=0|60=20170908-12:50:54.807|63=3|100=XSGO|150=F|151=275|207=XSGO|453=2|448=LVPOOL|447=D|452=1|448=666|447=D|452=7|10=129|
20170908-12:50:54.817: 8=FIX.4.4|9=388|35=8|34=210|49=ORDERROUTER|52=20170908-12:50:54.817|56=TOMADOR_DE_ORDENES|57=rmella@0856@0216|1=109195006-00|6=30925|11=3551a712f9c74473|14=50|17=ex1725143069|21=3|31=30925|32=25|37=1b32058dffe34b1c|38=300|39=1|40=2|44=30940|54=1|55=SQM-B|58=New Buy SQM-B 300.0 @ 30940.0|59=0|60=20170908-12:50:54.817|63=3|100=XSGO|150=F|151=250|207=XSGO|453=2|448=LVPOOL|447=D|452=1|448=666|447=D|452=7|10=117|
20170908-12:50:54.825: 8=FIX.4.4|9=388|35=8|34=211|49=ORDERROUTER|52=20170908-12:50:54.825|56=TOMADOR_DE_ORDENES|57=rmella@0856@0216|1=109195006-00|6=30925|11=3551a712f9c74473|14=75|17=ex1725143072|21=3|31=30925|32=25|37=1b32058dffe34b1c|38=300|39=1|40=2|44=30940|54=1|55=SQM-B|58=New Buy SQM-B 300.0 @ 30940.0|59=0|60=20170908-12:50:54.825|63=3|100=XSGO|150=F|151=225|207=XSGO|453=2|448=LVPOOL|447=D|452=1|448=666|447=D|452=7|10=119|
20170908-12:50:54.834: 8=FIX.4.4|9=389|35=8|34=212|49=ORDERROUTER|52=20170908-12:50:54.834|56=TOMADOR_DE_ORDENES|57=rmella@0856@0216|1=109195006-00|6=30925|11=3551a712f9c74473|14=100|17=ex1725143075|21=3|31=30925|32=25|37=1b32058dffe34b1c|38=300|39=1|40=2|44=30940|54=1|55=SQM-B|58=New Buy SQM-B 300.0 @ 30940.0|59=0|60=20170908-12:50:54.834|63=3|100=XSGO|150=F|151=200|207=XSGO|453=2|448=LVPOOL|447=D|452=1|448=666|447=D|452=7|10=154|
20170908-12:50:54.842: 8=FIX.4.4|9=388|35=8|34=213|49=ORDERROUTER|52=20170908-12:50:54.842|56=TOMADOR_DE_ORDENES|57=rmella@0856@0216|1=109195006-00|6=30925|11=3551a712f9c74473|14=105|17=ex1725143078|21=3|31=30925|32=5|37=1b32058dffe34b1c|38=300|39=1|40=2|44=30940|54=1|55=SQM-B|58=New Buy SQM-B 300.0 @ 30940.0|59=0|60=20170908-12:50:54.841|63=3|100=XSGO|150=F|151=195|207=XSGO|453=2|448=LVPOOL|447=D|452=1|448=666|447=D|452=7|10=122|
20170908-12:50:54.850: 8=FIX.4.4|9=391|35=8|34=214|49=ORDERROUTER|52=20170908-12:50:54.850|56=TOMADOR_DE_ORDENES|57=rmella@0856@0216|1=109195006-00|6=30934.75|11=3551a712f9c74473|14=300|17=ex1725143080|21=3|31=30940|32=195|37=1b32058dffe34b1c|38=300|39=2|40=2|44=30940|54=1|55=SQM-B|58=New Buy SQM-B 300.0 @ 30940.0|59=0|60=20170908-12:50:54.850|63=3|100=XSGO|150=F|151=0|207=XSGO|453=2|448=LVPOOL|447=D|452=1|448=666|447=D|452=7|10=253|
20170908-12:51:32.937: 8=FIX.4.4|9=263|35=D|34=185|49=TOMADOR_DE_ORDENES|52=20170908-12:51:35|56=ORDERROUTER|50=aibarra@100@0075|1=73007305-00|11=7435486e7440bb5e|21=3|38=814|40=2|44=7100|54=2|55=CAP|59=0|60=20170908-12:51:35.501|63=3|100=XSGO|207=XSGO|453=2|448=LVPOOL|447=D|452=1|448=666|447=D|452=7|10=036|
20170908-12:51:32.940: 8=FIX.4.4|9=377|35=8|34=215|49=ORDERROUTER|52=20170908-12:51:32.940|56=TOMADOR_DE_ORDENES|57=aibarra@100@0075|1=73007305-00|6=0|11=7435486e7440bb5e|14=0|17=-28924e3f7822bbb1|21=3|31=0|32=0|37=4db57e35a3214903|38=814|39=A|40=2|44=7100|54=2|55=CAP|58=New Sell CAP 814.0 @ 7100.0|59=0|60=20170908-12:51:32.939|63=3|100=XSGO|150=A|151=814|207=XSGO|453=2|448=LVPOOL|447=D|452=1|448=666|447=D|452=7|10=097|
20170908-12:51:33.840: 8=FIX.4.4|9=272|35=D|34=186|49=TOMADOR_DE_ORDENES|52=20170908-12:51:36|56=ORDERROUTER|50=marojas@0533@0549|1=763515419-00|11=616ec7b48be4f8c|21=3|38=1|40=2|44=6500000|54=1|55=ESTACIONAM|59=0|60=20170908-12:51:36.406|63=3|100=XSGO|207=XSGO|453=2|448=LVPOOL|447=D|452=1|448=666|447=D|452=7|10=091|
20170908-12:51:33.841: 8=FIX.4.4|9=390|35=8|34=216|49=ORDERROUTER|52=20170908-12:51:33.841|56=TOMADOR_DE_ORDENES|57=marojas@0533@0549|1=763515419-00|6=0|11=616ec7b48be4f8c|14=0|17=49c436572c0249cf|21=3|31=0|32=0|37=4302b4edda0c4bb4|38=1|39=A|40=2|44=6500000|54=1|55=ESTACIONAM|58=New Buy ESTACIONAM 1.0 @ 6500000.0|59=0|60=20170908-12:51:33.840|63=3|100=XSGO|150=A|151=1|207=XSGO|453=2|448=LVPOOL|447=D|452=1|448=666|447=D|452=7|10=075|
20170908-12:51:42.579: 8=FIX.4.4|9=390|35=8|34=217|49=ORDERROUTER|52=20170908-12:51:42.579|56=TOMADOR_DE_ORDENES|57=marojas@0533@0549|1=763515419-00|6=0|11=616ec7b48be4f8c|14=0|17=-eeae88096f2bdaf|21=3|31=0|32=0|37=4302b4edda0c4bb4|38=1|39=0|40=2|44=6500000|54=1|55=ESTACIONAM|58=New Buy ESTACIONAM 1.0 @ 6500000.0|59=0|60=20170908-12:51:42.577|63=3|100=XSGO|150=0|151=1|207=XSGO|453=2|448=LVPOOL|447=D|452=1|448=666|447=D|452=7|10=036|
20170908-12:51:47.527: 8=FIX.4.4|9=376|35=8|34=218|49=ORDERROUTER|52=20170908-12:51:47.527|56=TOMADOR_DE_ORDENES|57=aibarra@100@0075|1=73007305-00|6=0|11=7435486e7440bb5e|14=0|17=1b5a800b5a9e4fd7|21=3|31=0|32=0|37=4db57e35a3214903|38=814|39=0|40=2|44=7100|54=2|55=CAP|58=New Sell CAP 814.0 @ 7100.0|59=0|60=20170908-12:51:47.526|63=3|100=XSGO|150=0|151=814|207=XSGO|453=2|448=LVPOOL|447=D|452=1|448=666|447=D|452=7|10=116|
20170908-12:51:53.924: 8=FIX.4.4|9=272|35=D|34=187|49=TOMADOR_DE_ORDENES|52=20170908-12:51:56|56=ORDERROUTER|50=mfriedli@0164@0164|1=995522004-00|11=73dc204c004bbc70|21=3|38=68186|40=2|44=4869|54=1|55=LIPIGAS|59=0|60=20170908-12:51:56.499|63=3|100=XSGO|207=XSGO|453=2|448=LVPOOL|447=D|452=1|448=666|447=D|452=7|10=038|
20170908-12:51:53.926: 8=FIX.4.4|9=392|35=8|34=219|49=ORDERROUTER|52=20170908-12:51:53.926|56=TOMADOR_DE_ORDENES|57=mfriedli@0164@0164|1=995522004-00|6=0|11=73dc204c004bbc70|14=0|17=3f20ebe1eec24a92|21=3|31=0|32=0|37=78fb82a6125b4330|38=68186|39=A|40=2|44=4869|54=1|55=LIPIGAS|58=New Buy LIPIGAS 68186.0 @ 4869.0|59=0|60=20170908-12:51:53.925|63=3|100=XSGO|150=A|151=68186|207=XSGO|453=2|448=LVPOOL|447=D|452=1|448=666|447=D|452=7|10=116|
20170908-12:51:58.755: 8=FIX.4.4|9=382|35=8|34=220|49=ORDERROUTER|52=20170908-12:51:58.754|56=TOMADOR_DE_ORDENES|57=aibarra@100@0075|1=73007305-00|6=7115|11=7435486e7440bb5e|14=400|17=ex1725143252|21=3|31=7115|32=400|37=4db57e35a3214903|38=814|39=1|40=2|44=7100|54=2|55=CAP|58=New Sell CAP 814.0 @ 7100.0|59=0|60=20170908-12:51:58.753|63=3|100=XSGO|150=F|151=414|207=XSGO|453=2|448=LVPOOL|447=D|452=1|448=666|447=D|452=7|10=218|
20170908-12:51:58.769: 8=FIX.4.4|9=394|35=8|34=221|49=ORDERROUTER|52=20170908-12:51:58.769|56=TOMADOR_DE_ORDENES|57=aibarra@100@0075|1=73007305-00|6=7114.434077079108|11=7435486e7440bb5e|14=493|17=ex1725143254|21=3|31=7112|32=93|37=4db57e35a3214903|38=814|39=1|40=2|44=7100|54=2|55=CAP|58=New Sell CAP 814.0 @ 7100.0|59=0|60=20170908-12:51:58.767|63=3|100=XSGO|150=F|151=321|207=XSGO|453=2|448=LVPOOL|447=D|452=1|448=666|447=D|452=7|10=104|
20170908-12:51:58.774: 8=FIX.4.4|9=393|35=8|34=222|49=ORDERROUTER|52=20170908-12:51:58.774|56=TOMADOR_DE_ORDENES|57=aibarra@100@0075|1=73007305-00|6=7113.474201474201|11=7435486e7440bb5e|14=814|17=ex1725143256|21=3|31=7112|32=321|37=4db57e35a3214903|38=814|39=2|40=2|44=7100|54=2|55=CAP|58=New Sell CAP 814.0 @ 7100.0|59=0|60=20170908-12:51:58.774|63=3|100=XSGO|150=F|151=0|207=XSGO|453=2|448=LVPOOL|447=D|452=1|448=666|447=D|452=7|10=023|
20170908-12:52:16.802: 8=FIX.4.4|9=393|35=8|34=223|49=ORDERROUTER|52=20170908-12:52:16.802|56=TOMADOR_DE_ORDENES|57=mfriedli@0164@0164|1=995522004-00|6=0|11=73dc204c004bbc70|14=0|17=-3c94e6ac985ab866|21=3|31=0|32=0|37=78fb82a6125b4330|38=68186|39=0|40=2|44=4869|54=1|55=LIPIGAS|58=New Buy LIPIGAS 68186.0 @ 4869.0|59=0|60=20170908-12:52:16.801|63=3|100=XSGO|150=0|151=68186|207=XSGO|453=2|448=LVPOOL|447=D|452=1|448=666|447=D|452=7|10=037|
20170908-12:52:25.785: 8=FIX.4.4|9=272|35=D|34=188|49=TOMADOR_DE_ORDENES|52=20170908-12:52:28|56=ORDERROUTER|50=mastaburuaga@0939@0939|1=760687367-00|11=4802f25384442e6|21=3|38=338|40=2|44=29500|54=1|55=SQM-B|59=0|60=20170908-12:52:28.354|63=3|100=XSGO|207=XSGO|453=2|448=LVPOOL|447=D|452=1|448=666|447=D|452=7|10=032|
20170908-12:52:25.788: 8=FIX.4.4|9=387|35=8|34=224|49=ORDERROUTER|52=20170908-12:52:25.788|56=TOMADOR_DE_ORDENES|57=mastaburuaga@0939@0939|1=760687367-00|6=0|11=4802f25384442e6|14=0|17=5757c4e3376244ca|21=3|31=0|32=0|37=3895ba6e3ad240c8|38=338|39=A|40=2|44=29500|54=1|55=SQM-B|58=New Buy SQM-B 338.0 @ 29500.0|59=0|60=20170908-12:52:25.787|63=3|100=XSGO|150=A|151=338|207=XSGO|453=2|448=LVPOOL|447=D|452=1|448=666|447=D|452=7|10=211|
20170908-12:52:38.248: 8=FIX.4.4|9=386|35=8|34=225|49=ORDERROUTER|52=20170908-12:52:38.248|56=TOMADOR_DE_ORDENES|57=mastaburuaga@0939@0939|1=760687367-00|6=0|11=4802f25384442e6|14=0|17=-c40d05990ebdb4|21=3|31=0|32=0|37=3895ba6e3ad240c8|38=338|39=0|40=2|44=29500|54=1|55=SQM-B|58=New Buy SQM-B 338.0 @ 29500.0|59=0|60=20170908-12:52:38.247|63=3|100=XSGO|150=0|151=338|207=XSGO|453=2|448=LVPOOL|447=D|452=1|448=666|447=D|452=7|10=194|
20170908-12:52:51.810: 8=FIX.4.4|9=267|35=D|34=189|49=TOMADOR_DE_ORDENES|52=20170908-12:52:54|56=ORDERROUTER|50=surarte@1237@0965|1=13478740-00|11=7c4e649ccf9a4e58|21=3|38=5639|40=2|44=6900|54=2|55=ENTEL|59=0|60=20170908-12:52:54.360|63=3|100=XSGO|207=XSGO|453=2|448=LVPOOL|447=D|452=1|448=666|447=D|452=7|10=052|
20170908-12:52:51.812: 8=FIX.4.4|9=385|35=8|34=226|49=ORDERROUTER|52=20170908-12:52:51.812|56=TOMADOR_DE_ORDENES|57=surarte@1237@0965|1=13478740-00|6=0|11=7c4e649ccf9a4e58|14=0|17=-4b7795c0fe91bee2|21=3|31=0|32=0|37=24f51f3368464ccb|38=5639|39=A|40=2|44=6900|54=2|55=ENTEL|58=New Sell ENTEL 5639.0 @ 6900.0|59=0|60=20170908-12:52:51.812|63=3|100=XSGO|150=A|151=5639|207=XSGO|453=2|448=LVPOOL|447=D|452=1|448=666|447=D|452=7|10=025|
20170908-12:53:04.979: 8=FIX.4.4|9=383|35=8|34=227|49=ORDERROUTER|52=20170908-12:53:04.979|56=TOMADOR_DE_ORDENES|57=surarte@1237@0965|1=13478740-00|6=0|11=7c4e649ccf9a4e58|14=0|17=5c085569d7b42c7|21=3|31=0|32=0|37=24f51f3368464ccb|38=5639|39=0|40=2|44=6900|54=2|55=ENTEL|58=New Sell ENTEL 5639.0 @ 6900.0|59=0|60=20170908-12:53:04.978|63=3|100=XSGO|150=0|151=5639|207=XSGO|453=2|448=LVPOOL|447=D|452=1|448=666|447=D|452=7|10=032|
20170908-12:53:44.019: 8=FIX.4.4|9=271|35=D|34=190|49=TOMADOR_DE_ORDENES|52=20170908-12:53:46|56=ORDERROUTER|50=marojas@0533@0549|1=150960495-00|11=79081127d68549f7|21=3|38=5400|40=2|44=1100|54=1|55=PACIFICO|59=0|60=20170908-12:53:46.589|63=3|100=XSGO|207=XSGO|453=2|448=LVPOOL|447=D|452=1|448=666|447=D|452=7|10=012|
20170908-12:53:44.022: 8=FIX.4.4|9=391|35=8|34=228|49=ORDERROUTER|52=20170908-12:53:44.022|56=TOMADOR_DE_ORDENES|57=marojas@0533@0549|1=150960495-00|6=0|11=79081127d68549f7|14=0|17=-7a9030d122ccb69e|21=3|31=0|32=0|37=549bfd54ca1044d5|38=5400|39=A|40=2|44=1100|54=1|55=PACIFICO|58=New Buy PACIFICO 5400.0 @ 1100.0|59=0|60=20170908-12:53:44.021|63=3|100=XSGO|150=A|151=5400|207=XSGO|453=2|448=LVPOOL|447=D|452=1|448=666|447=D|452=7|10=012|
20170908-12:53:55.513: 8=FIX.4.4|9=275|35=D|34=191|49=TOMADOR_DE_ORDENES|52=20170908-12:53:58|56=ORDERROUTER|50=jaherrera@0437@0437|1=69784038-00|11=3dfab73ed30eb140|21=3|38=142992|40=2|44=205|54=2|55=MULTIFOODS|59=0|60=20170908-12:53:58.087|63=3|100=XSGO|207=XSGO|453=2|448=LVPOOL|447=D|452=1|448=666|447=D|452=7|10=186|
20170908-12:53:55.515: 8=FIX.4.4|9=400|35=8|34=229|49=ORDERROUTER|52=20170908-12:53:55.515|56=TOMADOR_DE_ORDENES|57=jaherrera@0437@0437|1=69784038-00|6=0|11=3dfab73ed30eb140|14=0|17=13dd4ec0f0024551|21=3|31=0|32=0|37=-2d9278f3d25b6b4|38=142992|39=A|40=2|44=205|54=2|55=MULTIFOODS|58=New Sell MULTIFOODS 142992.0 @ 205.0|59=0|60=20170908-12:53:55.514|63=3|100=XSGO|150=A|151=142992|207=XSGO|453=2|448=LVPOOL|447=D|452=1|448=666|447=D|452=7|10=012|
20170908-12:54:45.597: 8=FIX.4.4|9=282|35=D|34=192|49=TOMADOR_DE_ORDENES|52=20170908-12:54:48|56=ORDERROUTER|50=mmilnes@0772@0358|1=781892505-02|11=5e51e94c79e9b4d4|21=3|38=6000|40=2|44=15300|54=1|55=CFINRENTAS|59=0|60=20170908-12:54:48.163|63=3|100=XSGO|167=CFI|207=XSGO|453=2|448=LVPOOL|447=D|452=1|448=666|447=D|452=7|10=107|
20170908-12:54:45.600: 8=FIX.4.4|9=406|35=8|34=230|49=ORDERROUTER|52=20170908-12:54:45.600|56=TOMADOR_DE_ORDENES|57=mmilnes@0772@0358|1=781892505-02|6=0|11=5e51e94c79e9b4d4|14=0|17=-4d2ba6518d73be1d|21=3|31=0|32=0|37=-54c653a27fe4beed|38=6000|39=A|40=2|44=15300|54=1|55=CFINRENTAS|58=New Buy CFINRENTAS 6000.0 @ 15300.0|59=0|60=20170908-12:54:45.599|63=3|100=XSGO|150=A|151=6000|167=CFI|207=XSGO|453=2|448=LVPOOL|447=D|452=1|448=666|447=D|452=7|10=034|
20170908-12:54:47.187: 8=FIX.4.4|9=268|35=D|34=193|49=TOMADOR_DE_ORDENES|52=20170908-12:54:49|56=ORDERROUTER|50=aibarra@100@0075|1=73007305-00|11=7e625c34fe63b027|21=3|38=140000|40=2|44=20.5|54=2|55=IANSA|59=0|60=20170908-12:54:49.755|63=3|100=XSGO|207=XSGO|453=2|448=LVPOOL|447=D|452=1|448=666|447=D|452=7|10=139|
20170908-12:54:47.188: 8=FIX.4.4|9=389|35=8|34=231|49=ORDERROUTER|52=20170908-12:54:47.188|56=TOMADOR_DE_ORDENES|57=aibarra@100@0075|1=73007305-00|6=0|11=7e625c34fe63b027|14=0|17=-40d430179424b83c|21=3|31=0|32=0|37=-688a11c07457b216|38=140000|39=A|40=2|44=20.5|54=2|55=IANSA|58=New Sell IANSA 140000.0 @ 20.5|59=0|60=20170908-12:54:47.187|63=3|100=XSGO|150=A|151=140000|207=XSGO|453=2|448=LVPOOL|447=D|452=1|448=666|447=D|452=7|10=156|
20170908-12:54:50.760: 8=FIX.4.4|9=273|35=D|34=194|49=TOMADOR_DE_ORDENES|52=20170908-12:54:53|56=ORDERROUTER|50=gjorquer@1200@0061|1=969461501-00|11=769abc3247afb027|21=3|38=85|40=2|44=23000|54=1|55=NUEVAPOLAR|59=0|60=20170908-12:54:53.327|63=3|100=XSGO|207=XSGO|453=2|448=LVPOOL|447=D|452=1|448=666|447=D|452=7|10=183|
20170908-12:54:50.761: 8=FIX.4.4|9=392|35=8|34=232|49=ORDERROUTER|52=20170908-12:54:50.761|56=TOMADOR_DE_ORDENES|57=gjorquer@1200@0061|1=969461501-00|6=0|11=769abc3247afb027|14=0|17=40eaca479deb437a|21=3|31=0|32=0|37=-3f6f111fb2f4b7b3|38=85|39=A|40=2|44=23000|54=1|55=NUEVAPOLAR|58=New Buy NUEVAPOLAR 85.0 @ 23000.0|59=0|60=20170908-12:54:50.761|63=3|100=XSGO|150=A|151=85|207=XSGO|453=2|448=LVPOOL|447=D|452=1|448=666|447=D|452=7|10=148|
20170908-12:55:00.143: 8=FIX.4.4|9=267|35=D|34=195|49=TOMADOR_DE_ORDENES|52=20170908-12:55:02|56=ORDERROUTER|50=ebull@1025@0357|1=69728928-00|11=67df80186ae5bf3d|21=3|38=1500|40=2|44=5300|54=1|55=OXIQUIM|59=0|60=20170908-12:55:02.703|63=3|100=XSGO|207=XSGO|453=2|448=LVPOOL|447=D|452=1|448=666|447=D|452=7|10=208|
20170908-12:55:00.145: 8=FIX.4.4|9=386|35=8|34=233|49=ORDERROUTER|52=20170908-12:55:00.145|56=TOMADOR_DE_ORDENES|57=ebull@1025@0357|1=69728928-00|6=0|11=67df80186ae5bf3d|14=0|17=679bf2236a4b4a72|21=3|31=0|32=0|37=-4df291626edcbe53|38=1500|39=A|40=2|44=5300|54=1|55=OXIQUIM|58=New Buy OXIQUIM 1500.0 @ 5300.0|59=0|60=20170908-12:55:00.144|63=3|100=XSGO|150=A|151=1500|207=XSGO|453=2|448=LVPOOL|447=D|452=1|448=666|447=D|452=7|10=217|
20170908-12:55:11.627: 8=FIX.4.4|9=273|35=D|34=196|49=TOMADOR_DE_ORDENES|52=20170908-12:55:14|56=ORDERROUTER|50=igarreton@0537@0079|1=91233908-00|11=27ce7f7b8e91b839|21=1|38=8000|40=2|44=281|54=2|55=SM-CHILE B|59=0|60=20170908-12:55:14.200|63=3|100=XSGO|207=XSGO|453=2|448=LVPOOL|447=D|452=1|448=666|447=D|452=7|10=147|
20170908-12:55:11.629: 8=FIX.4.4|9=396|35=8|34=234|49=ORDERROUTER|52=20170908-12:55:11.629|56=TOMADOR_DE_ORDENES|57=igarreton@0537@0079|1=91233908-00|6=0|11=27ce7f7b8e91b839|14=0|17=-1e20b9aba187bae9|21=1|31=0|32=0|37=-403142987a7fbd5f|38=8000|39=A|40=2|44=281|54=2|55=SM-CHILE B|58=New Sell SM-CHILE B 8000.0 @ 281.0|59=0|60=20170908-12:55:11.628|63=3|100=XSGO|150=A|151=8000|207=XSGO|453=2|448=LVPOOL|447=D|452=1|448=666|447=D|452=7|10=170|
20170908-12:55:11.661: 8=FIX.4.4|9=391|35=8|34=235|49=ORDERROUTER|52=20170908-12:55:11.660|56=TOMADOR_DE_ORDENES|57=igarreton@0537@0079|1=91233908-00|6=0|11=27ce7f7b8e91b839|14=0|17=ex1725143845|21=1|31=0|32=0|37=-403142987a7fbd5f|38=8000|39=0|40=2|44=281|54=2|55=SM-CHILE B|58=New Sell SM-CHILE B 8000.0 @ 281.0|59=0|60=20170908-12:55:11.660|63=3|100=XSGO|150=0|151=8000|207=XSGO|453=2|448=LVPOOL|447=D|452=1|448=666|447=D|452=7|10=123|
20170908-12:55:20.094: 8=FIX.4.4|9=405|35=8|34=236|49=ORDERROUTER|52=20170908-12:55:20.093|56=TOMADOR_DE_ORDENES|57=mmilnes@0772@0358|1=781892505-02|6=0|11=5e51e94c79e9b4d4|14=0|17=3eb529a17ac946d7|21=3|31=0|32=0|37=-54c653a27fe4beed|38=6000|39=0|40=2|44=15300|54=1|55=CFINRENTAS|58=New Buy CFINRENTAS 6000.0 @ 15300.0|59=0|60=20170908-12:55:20.093|63=3|100=XSGO|150=0|151=6000|167=CFI|207=XSGO|453=2|448=LVPOOL|447=D|452=1|448=666|447=D|452=7|10=161|
20170908-12:55:22.762: 8=FIX.4.4|9=282|35=D|34=197|49=TOMADOR_DE_ORDENES|52=20170908-12:55:25|56=ORDERROUTER|50=mmilnes@0772@0358|1=781892408-02|11=1c686983b096b615|21=3|38=2400|40=2|44=15300|54=1|55=CFINRENTAS|59=0|60=20170908-12:55:25.339|63=3|100=XSGO|167=CFI|207=XSGO|453=2|448=LVPOOL|447=D|452=1|448=666|447=D|452=7|10=217|
20170908-12:55:22.765: 8=FIX.4.4|9=404|35=8|34=237|49=ORDERROUTER|52=20170908-12:55:22.765|56=TOMADOR_DE_ORDENES|57=mmilnes@0772@0358|1=781892408-02|6=0|11=1c686983b096b615|14=0|17=75bc946b3d8a4838|21=3|31=0|32=0|37=74ec6562cc4746bb|38=2400|39=A|40=2|44=15300|54=1|55=CFINRENTAS|58=New Buy CFINRENTAS 2400.0 @ 15300.0|59=0|60=20170908-12:55:22.764|63=3|100=XSGO|150=A|151=2400|167=CFI|207=XSGO|453=2|448=LVPOOL|447=D|452=1|448=666|447=D|452=7|10=139|
20170908-12:55:31.096: 8=FIX.4.4|9=265|35=D|34=198|49=TOMADOR_DE_ORDENES|52=20170908-12:55:33|56=ORDERROUTER|50=vsaavedram@1023@0132|1=198142409-00|11=ab9f776e566b9fd|21=3|38=665|40=1|54=1|55=SALFACORP|59=3|60=20170908-12:55:33.669|63=3|100=XSGO|207=XSGO|453=2|448=LVPOOL|447=D|452=1|448=666|447=D|452=7|10=201|
20170908-12:55:31.099: 8=FIX.4.4|9=384|35=8|34=238|49=ORDERROUTER|52=20170908-12:55:31.099|56=TOMADOR_DE_ORDENES|57=vsaavedram@1023@0132|1=198142409-00|6=0|11=ab9f776e566b9fd|14=0|17=-450ac35e9135be98|21=3|31=0|32=0|37=-cbc1360f893b430|38=665|39=A|40=1|54=1|55=SALFACORP|58=New Buy SALFACORP 665.0 @ MARKET|59=3|60=20170908-12:55:31.098|63=3|100=XSGO|150=A|151=665|207=XSGO|453=2|448=LVPOOL|447=D|452=1|448=666|447=D|452=7|10=047|
20170908-12:55:38.041: 8=FIX.4.4|9=267|35=D|34=199|49=TOMADOR_DE_ORDENES|52=20170908-12:55:40|56=ORDERROUTER|50=ebull@1025@0357|1=69728928-00|11=5230b1c5b8ee4a9d|21=3|38=100000|40=2|44=200|54=1|55=CGEGAS|59=0|60=20170908-12:55:40.611|63=3|100=XSGO|207=XSGO|453=2|448=LVPOOL|447=D|452=1|448=666|447=D|452=7|10=108|
20170908-12:55:38.042: 8=FIX.4.4|9=388|35=8|34=239|49=ORDERROUTER|52=20170908-12:55:38.042|56=TOMADOR_DE_ORDENES|57=ebull@1025@0357|1=69728928-00|6=0|11=5230b1c5b8ee4a9d|14=0|17=18340a6bd3b646a8|21=3|31=0|32=0|37=-63857dc5bd96bb63|38=100000|39=A|40=2|44=200|54=1|55=CGEGAS|58=New Buy CGEGAS 100000.0 @ 200.0|59=0|60=20170908-12:55:38.041|63=3|100=XSGO|150=A|151=100000|207=XSGO|453=2|448=LVPOOL|447=D|452=1|448=666|447=D|452=7|10=086|
20170908-12:55:42.446: 8=FIX.4.4|9=404|35=8|34=240|49=ORDERROUTER|52=20170908-12:55:42.446|56=TOMADOR_DE_ORDENES|57=mmilnes@0772@0358|1=781892408-02|6=0|11=1c686983b096b615|14=0|17=12634b75e28643d8|21=3|31=0|32=0|37=74ec6562cc4746bb|38=2400|39=0|40=2|44=15300|54=1|55=CFINRENTAS|58=New Buy CFINRENTAS 2400.0 @ 15300.0|59=0|60=20170908-12:55:42.445|63=3|100=XSGO|150=0|151=2400|167=CFI|207=XSGO|453=2|448=LVPOOL|447=D|452=1|448=666|447=D|452=7|10=248|
20170908-12:56:03.154: 8=FIX.4.4|9=279|35=D|34=200|49=TOMADOR_DE_ORDENES|52=20170908-12:56:05|56=ORDERROUTER|50=mofuentes@0652@0652|1=63758663-00|11=4e11ac108081bb16|21=3|38=8|40=2|44=95000|54=2|55=PLATA 10*|59=0|60=20170908-12:56:05.728|63=1|100=XSGO|167=MON|207=XSGO|453=2|448=LVPOOL|447=D|452=1|448=666|447=D|452=7|10=117|
20170908-12:56:03.156: 8=FIX.4.4|9=397|35=8|34=241|49=ORDERROUTER|52=20170908-12:56:03.156|56=TOMADOR_DE_ORDENES|57=mofuentes@0652@0652|1=63758663-00|6=0|11=4e11ac108081bb16|14=0|17=-7f83bbb2635ab439|21=3|31=0|32=0|37=-7e29359b078abaf3|38=8|39=A|40=2|44=95000|54=2|55=PLATA 10*|58=New Sell PLATA 10* 8.0 @ 95000.0|59=0|60=20170908-12:56:03.156|63=1|100=XSGO|150=A|151=8|167=MON|207=XSGO|453=2|448=LVPOOL|447=D|452=1|448=666|447=D|452=7|10=035|
20170908-12:56:10.999: 8=FIX.4.4|9=390|35=8|34=242|49=ORDERROUTER|52=20170908-12:56:10.999|56=TOMADOR_DE_ORDENES|57=marojas@0533@0549|1=150960495-00|6=0|11=79081127d68549f7|14=0|17=483cc37e6f384ce6|21=3|31=0|32=0|37=549bfd54ca1044d5|38=5400|39=0|40=2|44=1100|54=1|55=PACIFICO|58=New Buy PACIFICO 5400.0 @ 1100.0|59=0|60=20170908-12:56:10.998|63=3|100=XSGO|150=0|151=5400|207=XSGO|453=2|448=LVPOOL|447=D|452=1|448=666|447=D|452=7|10=242|
20170908-12:56:16.930: 8=FIX.4.4|9=396|35=8|34=243|49=ORDERROUTER|52=20170908-12:56:16.930|56=TOMADOR_DE_ORDENES|57=mofuentes@0652@0652|1=63758663-00|6=0|11=4e11ac108081bb16|14=0|17=306381dc06b74916|21=3|31=0|32=0|37=-7e29359b078abaf3|38=8|39=0|40=2|44=95000|54=2|55=PLATA 10*|58=New Sell PLATA 10* 8.0 @ 95000.0|59=0|60=20170908-12:56:16.929|63=1|100=XSGO|150=0|151=8|167=MON|207=XSGO|453=2|448=LVPOOL|447=D|452=1|448=666|447=D|452=7|10=083|
20170908-12:56:31.220: 8=FIX.4.4|9=389|35=8|34=244|49=ORDERROUTER|52=20170908-12:56:31.220|56=TOMADOR_DE_ORDENES|57=ebull@1025@0357|1=69728928-00|6=0|11=5230b1c5b8ee4a9d|14=0|17=-4d5ed5e8c977b7dd|21=3|31=0|32=0|37=-63857dc5bd96bb63|38=100000|39=0|40=2|44=200|54=1|55=CGEGAS|58=New Buy CGEGAS 100000.0 @ 200.0|59=0|60=20170908-12:56:31.219|63=3|100=XSGO|150=0|151=100000|207=XSGO|453=2|448=LVPOOL|447=D|452=1|448=666|447=D|452=7|10=255|
20170908-12:56:55.983: 8=FIX.4.4|9=393|35=8|34=245|49=ORDERROUTER|52=20170908-12:56:55.983|56=TOMADOR_DE_ORDENES|57=gjorquer@1200@0061|1=969461501-00|6=0|11=769abc3247afb027|14=0|17=-74ea9a3b1013b150|21=3|31=0|32=0|37=-3f6f111fb2f4b7b3|38=85|39=0|40=2|44=23000|54=1|55=NUEVAPOLAR|58=New Buy NUEVAPOLAR 85.0 @ 23000.0|59=0|60=20170908-12:56:55.981|63=3|100=XSGO|150=0|151=85|207=XSGO|453=2|448=LVPOOL|447=D|452=1|448=666|447=D|452=7|10=029|
20170908-12:57:03.154: 8=FIX.4.4|9=70|35=0|56=ORDERROUTER|49=TOMADOR_DE_ORDENES|52=20170908-12:57:05|34=201|10=064|
20170908-12:57:42.115: 8=FIX.4.4|9=417|35=8|34=246|49=ORDERROUTER|52=20170908-12:57:42.115|56=TOMADOR_DE_ORDENES|57=gjorquer@1200@0061|1=969461501-00|6=0|11=-3c3689612203b7e5|14=0|17=-76dcfb3d6988bd84|21=3|31=0|32=0|37=-3f6f111fb2f4b7b3|38=85|39=6|40=2|41=46a02425d62dbbb6|44=23000|54=1|55=NUEVAPOLAR|58=Cancel Buy NUEVAPOLAR 85.0 @ 23000.0|59=0|60=20170908-12:57:42.115|63=3|100=XSGO|150=6|151=85|207=XSGO|453=2|448=LVPOOL|447=D|452=1|448=666|447=D|452=7|10=067|
20170908-12:57:46.342: 8=FIX.4.4|9=415|35=8|34=247|49=ORDERROUTER|52=20170908-12:57:46.342|56=TOMADOR_DE_ORDENES|57=gjorquer@1200@0061|1=969461501-00|6=0|11=-3c3689612203b7e5|14=0|17=2a6291a8b7194ec3|21=3|31=0|32=0|37=-3f6f111fb2f4b7b3|38=85|39=4|40=2|41=46a02425d62dbbb6|44=23000|54=1|55=NUEVAPOLAR|58=Cancel Buy NUEVAPOLAR 85.0 @ 23000.0|59=0|60=20170908-12:57:46.341|63=3|100=XSGO|150=4|151=0|207=XSGO|453=2|448=LVPOOL|447=D|452=1|448=666|447=D|452=7|10=107|
20170908-12:58:03.155: 8=FIX.4.4|9=70|35=0|56=ORDERROUTER|49=TOMADOR_DE_ORDENES|52=20170908-12:58:05|34=202|10=066|
20170908-12:58:15.210: 8=FIX.4.4|9=400|35=8|34=248|49=ORDERROUTER|52=20170908-12:58:15.210|56=TOMADOR_DE_ORDENES|57=mfriedli@0164@0164|1=995522004-00|6=4869|11=73dc204c004bbc70|14=1000|17=ex1725144265|21=3|31=4869|32=1000|37=78fb82a6125b4330|38=68186|39=1|40=2|44=4869|54=1|55=LIPIGAS|58=New Buy LIPIGAS 68186.0 @ 4869.0|59=0|60=20170908-12:58:15.209|63=3|100=XSGO|150=F|151=67186|207=XSGO|453=2|448=LVPOOL|447=D|452=1|448=666|447=D|452=7|10=250|
20170908-12:58:21.768: 8=FIX.4.4|9=401|35=8|34=249|49=ORDERROUTER|52=20170908-12:58:21.768|56=TOMADOR_DE_ORDENES|57=jaherrera@0437@0437|1=69784038-00|6=0|11=3dfab73ed30eb140|14=0|17=-12a12373ad66bef8|21=3|31=0|32=0|37=-2d9278f3d25b6b4|38=142992|39=0|40=2|44=205|54=2|55=MULTIFOODS|58=New Sell MULTIFOODS 142992.0 @ 205.0|59=0|60=20170908-12:58:21.766|63=3|100=XSGO|150=0|151=142992|207=XSGO|453=2|448=LVPOOL|447=D|452=1|448=666|447=D|452=7|10=100|
20170908-12:58:31.912: 8=FIX.4.4|9=389|35=8|34=250|49=ORDERROUTER|52=20170908-12:58:31.912|56=TOMADOR_DE_ORDENES|57=aibarra@100@0075|1=73007305-00|6=0|11=7e625c34fe63b027|14=0|17=-35802d824ae9b693|21=3|31=0|32=0|37=-688a11c07457b216|38=140000|39=0|40=2|44=20.5|54=2|55=IANSA|58=New Sell IANSA 140000.0 @ 20.5|59=0|60=20170908-12:58:31.910|63=3|100=XSGO|150=0|151=140000|207=XSGO|453=2|448=LVPOOL|447=D|452=1|448=666|447=D|452=7|10=167|
20170908-12:58:51.436: 8=FIX.4.4|9=383|35=8|34=251|49=ORDERROUTER|52=20170908-12:58:51.436|56=TOMADOR_DE_ORDENES|57=vsaavedram@1023@0132|1=198142409-00|6=0|11=ab9f776e566b9fd|14=0|17=-321c00cebbdb523|21=3|31=0|32=0|37=-cbc1360f893b430|38=665|39=0|40=1|54=1|55=SALFACORP|58=New Buy SALFACORP 665.0 @ MARKET|59=3|60=20170908-12:58:51.435|63=3|100=XSGO|150=0|151=665|207=XSGO|453=2|448=LVPOOL|447=D|452=1|448=666|447=D|452=7|10=024|
20170908-12:59:03.155: 8=FIX.4.4|9=70|35=0|56=ORDERROUTER|49=TOMADOR_DE_ORDENES|52=20170908-12:59:05|34=203|10=068|
20170908-12:59:03.629: 8=FIX.4.4|9=385|35=8|34=252|49=ORDERROUTER|52=20170908-12:59:03.629|56=TOMADOR_DE_ORDENES|57=vsaavedram@1023@0132|1=198142409-00|6=924|11=ab9f776e566b9fd|14=665|17=ex1725144331|21=3|31=924|32=665|37=-cbc1360f893b430|38=665|39=2|40=1|54=1|55=SALFACORP|58=New Buy SALFACORP 665.0 @ MARKET|59=3|60=20170908-12:59:03.627|63=3|100=XSGO|150=F|151=0|207=XSGO|453=2|448=LVPOOL|447=D|452=1|448=666|447=D|452=7|10=239|
20170908-12:59:08.400: 8=FIX.4.4|9=386|35=8|34=253|49=ORDERROUTER|52=20170908-12:59:08.400|56=TOMADOR_DE_ORDENES|57=ebull@1025@0357|1=69728928-00|6=0|11=67df80186ae5bf3d|14=0|17=312d0a86c7984a03|21=3|31=0|32=0|37=-4df291626edcbe53|38=1500|39=0|40=2|44=5300|54=1|55=OXIQUIM|58=New Buy OXIQUIM 1500.0 @ 5300.0|59=0|60=20170908-12:59:08.399|63=3|100=XSGO|150=0|151=1500|207=XSGO|453=2|448=LVPOOL|447=D|452=1|448=666|447=D|452=7|10=163|
20170908-12:59:20.180: 8=FIX.4.4|9=273|35=D|34=204|49=TOMADOR_DE_ORDENES|52=20170908-12:59:22|56=ORDERROUTER|50=gjorquer@1200@0061|1=969461501-00|11=1529d964508043af|21=3|38=23000|40=2|44=85|54=1|55=NUEVAPOLAR|59=0|60=20170908-12:59:22.747|63=3|100=XSGO|207=XSGO|453=2|448=LVPOOL|447=D|452=1|448=666|447=D|452=7|10=044|
20170908-12:59:20.183: 8=FIX.4.4|9=396|35=8|34=254|49=ORDERROUTER|52=20170908-12:59:20.183|56=TOMADOR_DE_ORDENES|57=gjorquer@1200@0061|1=969461501-00|6=0|11=1529d964508043af|14=0|17=-4439dcbb7396b372|21=3|31=0|32=0|37=-222f3c83d9cbb1d6|38=23000|39=A|40=2|44=85|54=1|55=NUEVAPOLAR|58=New Buy NUEVAPOLAR 23000.0 @ 85.0|59=0|60=20170908-12:59:20.182|63=3|100=XSGO|150=A|151=23000|207=XSGO|453=2|448=LVPOOL|447=D|452=1|448=666|447=D|452=7|10=065|
20170908-12:59:27.612: 8=FIX.4.4|9=395|35=8|34=255|49=ORDERROUTER|52=20170908-12:59:27.612|56=TOMADOR_DE_ORDENES|57=gjorquer@1200@0061|1=969461501-00|6=0|11=1529d964508043af|14=0|17=4522a775bc2c47c9|21=3|31=0|32=0|37=-222f3c83d9cbb1d6|38=23000|39=0|40=2|44=85|54=1|55=NUEVAPOLAR|58=New Buy NUEVAPOLAR 23000.0 @ 85.0|59=0|60=20170908-12:59:27.610|63=3|100=XSGO|150=0|151=23000|207=XSGO|453=2|448=LVPOOL|447=D|452=1|448=666|447=D|452=7|10=245|
20170908-12:59:28.420: 8=FIX.4.4|9=268|35=D|34=205|49=TOMADOR_DE_ORDENES|52=20170908-12:59:31|56=ORDERROUTER|50=ebull@1025@0357|1=69728928-00|11=72bcecccde6b9b4|21=3|38=23193|40=2|44=410|54=1|55=QUILICURA|59=0|60=20170908-12:59:30.984|63=3|100=XSGO|207=XSGO|453=2|448=LVPOOL|447=D|452=1|448=666|447=D|452=7|10=191|
20170908-12:59:28.421: 8=FIX.4.4|9=390|35=8|34=256|49=ORDERROUTER|52=20170908-12:59:28.421|56=TOMADOR_DE_ORDENES|57=ebull@1025@0357|1=69728928-00|6=0|11=72bcecccde6b9b4|14=0|17=-206b3789c6d9bb2b|21=3|31=0|32=0|37=5fc01697bece4a90|38=23193|39=A|40=2|44=410|54=1|55=QUILICURA|58=New Buy QUILICURA 23193.0 @ 410.0|59=0|60=20170908-12:59:28.420|63=3|100=XSGO|150=A|151=23193|207=XSGO|453=2|448=LVPOOL|447=D|452=1|448=666|447=D|452=7|10=201|
20170908-12:59:52.794: 8=FIX.4.4|9=389|35=8|34=257|49=ORDERROUTER|52=20170908-12:59:52.794|56=TOMADOR_DE_ORDENES|57=ebull@1025@0357|1=69728928-00|6=0|11=72bcecccde6b9b4|14=0|17=17f8de86ad3b473f|21=3|31=0|32=0|37=5fc01697bece4a90|38=23193|39=0|40=2|44=410|54=1|55=QUILICURA|58=New Buy QUILICURA 23193.0 @ 410.0|59=0|60=20170908-12:59:52.793|63=3|100=XSGO|150=0|151=23193|207=XSGO|453=2|448=LVPOOL|447=D|452=1|448=666|447=D|452=7|10=207|
20170908-12:59:53.447: 8=FIX.4.4|9=272|35=D|34=206|49=TOMADOR_DE_ORDENES|52=20170908-12:59:56|56=ORDERROUTER|50=mofuentes@0652@0652|1=22295985-00|11=3c2c92b98d724a34|21=3|38=3|40=2|44=173000|54=2|55=COUNTRY-A|59=0|60=20170908-12:59:56.022|63=3|100=XSGO|207=XSGO|453=2|448=LVPOOL|447=D|452=1|448=666|447=D|452=7|10=118|
20170908-12:59:53.449: 8=FIX.4.4|9=389|35=8|34=258|49=ORDERROUTER|52=20170908-12:59:53.449|56=TOMADOR_DE_ORDENES|57=mofuentes@0652@0652|1=22295985-00|6=0|11=3c2c92b98d724a34|14=0|17=320f5c0559124c7d|21=3|31=0|32=0|37=1defb7485fca48ea|38=3|39=A|40=2|44=173000|54=2|55=COUNTRY-A|58=New Sell COUNTRY-A 3.0 @ 173000.0|59=0|60=20170908-12:59:53.448|63=3|100=XSGO|150=A|151=3|207=XSGO|453=2|448=LVPOOL|447=D|452=1|448=666|447=D|452=7|10=186|
20170908-13:00:04.086: 8=FIX.4.4|9=397|35=8|34=259|49=ORDERROUTER|52=20170908-13:00:04.086|56=TOMADOR_DE_ORDENES|57=gjorquer@1200@0061|1=969461501-00|6=85|11=1529d964508043af|14=23000|17=ex1725144579|21=3|31=85|32=23000|37=-222f3c83d9cbb1d6|38=23000|39=2|40=2|44=85|54=1|55=NUEVAPOLAR|58=New Buy NUEVAPOLAR 23000.0 @ 85.0|59=0|60=20170908-13:00:04.084|63=3|100=XSGO|150=F|151=0|207=XSGO|453=2|448=LVPOOL|447=D|452=1|448=666|447=D|452=7|10=240|
20170908-13:00:08.299: 8=FIX.4.4|9=272|35=D|34=207|49=TOMADOR_DE_ORDENES|52=20170908-13:00:10|56=ORDERROUTER|50=mofuentes@0652@0652|1=88202953-00|11=5e4f6df539c4b2db|21=3|38=4|40=2|44=173000|54=2|55=COUNTRY-A|59=0|60=20170908-13:00:10.858|63=3|100=XSGO|207=XSGO|453=2|448=LVPOOL|447=D|452=1|448=666|447=D|452=7|10=234|
20170908-13:00:08.301: 8=FIX.4.4|9=390|35=8|34=260|49=ORDERROUTER|52=20170908-13:00:08.301|56=TOMADOR_DE_ORDENES|57=mofuentes@0652@0652|1=88202953-00|6=0|11=5e4f6df539c4b2db|14=0|17=602192e28fb6491c|21=3|31=0|32=0|37=-45bdd8f1cdc0b1c0|38=4|39=A|40=2|44=173000|54=2|55=COUNTRY-A|58=New Sell COUNTRY-A 4.0 @ 173000.0|59=0|60=20170908-13:00:08.300|63=3|100=XSGO|150=A|151=4|207=XSGO|453=2|448=LVPOOL|447=D|452=1|448=666|447=D|452=7|10=041|
20170908-13:00:11.057: 8=FIX.4.4|9=271|35=D|34=208|49=TOMADOR_DE_ORDENES|52=20170908-13:00:13|56=ORDERROUTER|50=ebull@1025@0357|1=109072966-83|11=76e0ca21bde0bad2|21=3|38=1923077|40=2|44=8|54=2|55=ORO BLANCO|59=0|60=20170908-13:00:13.619|63=3|100=XSGO|207=XSGO|453=2|448=LVPOOL|447=D|452=1|448=666|447=D|452=7|10=222|
20170908-13:00:11.059: 8=FIX.4.4|9=398|35=8|34=261|49=ORDERROUTER|52=20170908-13:00:11.059|56=TOMADOR_DE_ORDENES|57=ebull@1025@0357|1=109072966-83|6=0|11=76e0ca21bde0bad2|14=0|17=-726dbc93bfa6b62c|21=3|31=0|32=0|37=-1da51978f5b0b7ed|38=1923077|39=A|40=2|44=8|54=2|55=ORO BLANCO|58=New Sell ORO BLANCO 1923077.0 @ 8.0|59=0|60=20170908-13:00:11.058|63=3|100=XSGO|150=A|151=1923077|207=XSGO|453=2|448=LVPOOL|447=D|452=1|448=666|447=D|452=7|10=101|
20170908-13:00:14.864: 8=FIX.4.4|9=389|35=8|34=262|49=ORDERROUTER|52=20170908-13:00:14.863|56=TOMADOR_DE_ORDENES|57=mofuentes@0652@0652|1=22295985-00|6=0|11=3c2c92b98d724a34|14=0|17=2dc885f5d02b490d|21=3|31=0|32=0|37=1defb7485fca48ea|38=3|39=0|40=2|44=173000|54=2|55=COUNTRY-A|58=New Sell COUNTRY-A 3.0 @ 173000.0|59=0|60=20170908-13:00:14.862|63=3|100=XSGO|150=0|151=3|207=XSGO|453=2|448=LVPOOL|447=D|452=1|448=666|447=D|452=7|10=218|
