20170804-12:45:11: 8=FIX.4.4|9=90|35=A|34=1|49=TOMADOR_DE_ORDENES|52=20170804-12:45:11.469|56=ORDERROUTER|98=0|108=60|141=Y|10=000|
20170804-12:45:11: 8=FIX.4.4|9=90|35=A|34=1|49=ORDERROUTER|52=20170804-12:45:11.559|56=TOMADOR_DE_ORDENES|98=0|108=60|141=Y|10=000|
20170804-12:46:12: 8=FIX.4.4|9=72|35=0|34=2|49=ORDERROUTER|52=20170804-12:46:12.142|56=TOMADOR_DE_ORDENES|10=157|
20170804-12:46:12: 8=FIX.4.4|9=72|35=0|34=2|49=TOMADOR_DE_ORDENES|52=20170804-12:46:12.108|56=ORDERROUTER|10=159|
20170804-12:47:12: 8=FIX.4.4|9=72|35=0|34=3|49=ORDERROUTER|52=20170804-12:47:12.142|56=TOMADOR_DE_ORDENES|10=159|
20170804-12:47:12: 8=FIX.4.4|9=72|35=0|34=3|49=TOMADOR_DE_ORDENES|52=20170804-12:47:12.418|56=ORDERROUTER|10=165|
20170804-12:48:12: 8=FIX.4.4|9=72|35=0|34=4|49=ORDERROUTER|52=20170804-12:48:12.142|56=TOMADOR_DE_ORDENES|10=161|
20170804-12:48:13: 8=FIX.4.4|9=72|35=0|34=4|49=TOMADOR_DE_ORDENES|52=20170804-12:48:13.415|56=ORDERROUTER|10=165|
20170804-12:49:12: 8=FIX.4.4|9=72|35=0|34=5|49=ORDERROUTER|52=20170804-12:49:12.142|56=TOMADOR_DE_ORDENES|10=163|
20170804-12:49:13: 8=FIX.4.4|9=72|35=0|34=5|49=TOMADOR_DE_ORDENES|52=20170804-12:49:13.429|56=ORDERROUTER|10=172|
20170804-12:50:12: 8=FIX.4.4|9=72|35=0|34=6|49=ORDERROUTER|52=20170804-12:50:12.142|56=TOMADOR_DE_ORDENES|10=156|
20170804-12:50:14: 8=FIX.4.4|9=72|35=0|34=6|49=TOMADOR_DE_ORDENES|52=20170804-12:50:14.426|56=ORDERROUTER|10=163|
20170804-12:51:12: 8=FIX.4.4|9=72|35=0|34=7|49=ORDERROUTER|52=20170804-12:51:12.142|56=TOMADOR_DE_ORDENES|10=158|
20170804-12:51:15: 8=FIX.4.4|9=72|35=0|34=7|49=TOMADOR_DE_ORDENES|52=20170804-12:51:15.423|56=ORDERROUTER|10=163|
20170804-12:52:12: 8=FIX.4.4|9=72|35=0|34=8|49=ORDERROUTER|52=20170804-12:52:12.142|56=TOMADOR_DE_ORDENES|10=160|
20170804-12:52:16: 8=FIX.4.4|9=72|35=0|34=8|49=TOMADOR_DE_ORDENES|52=20170804-12:52:16.419|56=ORDERROUTER|10=171|
20170804-12:53:12: 8=FIX.4.4|9=72|35=0|34=9|49=ORDERROUTER|52=20170804-12:53:12.142|56=TOMADOR_DE_ORDENES|10=162|
20170804-12:53:17: 8=FIX.4.4|9=72|35=0|34=9|49=TOMADOR_DE_ORDENES|52=20170804-12:53:17.432|56=ORDERROUTER|10=169|
20170804-12:53:49: 8=FIX.4.4|9=276|35=D|34=10|49=TOMADOR_DE_ORDENES|50=igarreton@0537@0079|52=20170804-12:53:49.568|56=ORDERROUTER|1=91233908-00|11=275d32b741004dae|21=3|38=500000|40=2|44=6|54=2|55=ORO BLANCO|59=0|60=20170804-12:53:49.553|63=3|100=XSGO|207=XSGO|453=2|448=LVPOOL|447=D|452=1|448=666|447=D|452=7|10=009|
20170804-12:53:49: 8=FIX.4.4|9=395|35=8|34=10|49=ORDERROUTER|52=20170804-12:53:49.614|56=TOMADOR_DE_ORDENES|57=igarreton@0537@0079|1=91233908-00|6=0|11=275d32b741004dae|14=0|17=43b8972b0a714e83|21=3|31=0|32=0|37=7ba31109c5ad4f34|38=500000|39=A|40=2|44=6|54=2|55=ORO BLANCO|58=New Sell ORO BLANCO 500000.0 @ 6.0|59=0|60=20170804-12:53:49.614|63=3|100=XSGO|150=A|151=500000|207=XSGO|453=2|448=LVPOOL|447=D|452=1|448=666|447=D|452=7|10=211|
20170804-12:54:50: 8=FIX.4.4|9=73|35=0|34=11|49=ORDERROUTER|52=20170804-12:54:50.142|56=TOMADOR_DE_ORDENES|10=207|
20170804-12:54:50: 8=FIX.4.4|9=73|35=0|34=11|49=TOMADOR_DE_ORDENES|52=20170804-12:54:50.097|56=ORDERROUTER|10=216|
20170804-12:55:48: 8=FIX.4.4|9=273|35=D|34=12|49=TOMADOR_DE_ORDENES|50=igarreton@0537@0079|52=20170804-12:55:48.348|56=ORDERROUTER|1=49469306-00|11=1ca6b29e66634ebe|21=1|38=12000|40=2|44=146|54=1|55=COLBUN|59=0|60=20170804-12:55:48.333|63=3|100=XSGO|207=XSGO|453=2|448=LVPOOL|447=D|452=1|448=666|447=D|452=7|10=171|
20170804-12:55:48: 8=FIX.4.4|9=389|35=8|34=12|49=ORDERROUTER|52=20170804-12:55:48.389|56=TOMADOR_DE_ORDENES|57=igarreton@0537@0079|1=49469306-00|6=0|11=1ca6b29e66634ebe|14=0|17=-62d95341c11fb6ba|21=1|31=0|32=0|37=-16f6c009bcbcb6a5|38=12000|39=A|40=2|44=146|54=1|55=COLBUN|58=New Buy COLBUN 12000.0 @ 146.0|59=0|60=20170804-12:55:48.389|63=3|100=XSGO|150=A|151=12000|207=XSGO|453=2|448=LVPOOL|447=D|452=1|448=666|447=D|452=7|10=075|
20170804-12:55:48: 8=FIX.4.4|9=377|35=8|34=13|49=ORDERROUTER|52=20170804-12:55:48.596|56=TOMADOR_DE_ORDENES|57=igarreton@0537@0079|1=49469306-00|6=0|11=1ca6b29e66634ebe|14=0|17=ex1721647|21=1|31=0|32=0|37=-16f6c009bcbcb6a5|38=12000|39=8|40=2|44=146|54=1|55=COLBUN|58=(TE2002) FUERA DE HORARIO.|59=0|60=20170804-12:55:48.595|63=3|100=XSGO|150=8|151=12000|207=XSGO|453=2|448=LVPOOL|447=D|452=1|448=666|447=D|452=7|10=255|
20170804-12:56:28: 8=FIX.4.4|9=395|35=8|34=14|49=ORDERROUTER|52=20170804-12:56:28.131|56=TOMADOR_DE_ORDENES|57=igarreton@0537@0079|1=91233908-00|6=0|11=275d32b741004dae|14=0|17=2db06b07639d4ad1|21=3|31=0|32=0|37=7ba31109c5ad4f34|38=500000|39=0|40=2|44=6|54=2|55=ORO BLANCO|58=New Sell ORO BLANCO 500000.0 @ 6.0|59=0|60=20170804-12:56:28.129|63=3|100=XSGO|150=0|151=500000|207=XSGO|453=2|448=LVPOOL|447=D|452=1|448=666|447=D|452=7|10=005|
20170804-12:56:48: 8=FIX.4.4|9=73|35=0|34=13|49=TOMADOR_DE_ORDENES|52=20170804-12:56:48.424|56=ORDERROUTER|10=221|
20170804-12:57:28: 8=FIX.4.4|9=73|35=0|34=15|49=ORDERROUTER|52=20170804-12:57:28.142|56=TOMADOR_DE_ORDENES|10=219|
20170804-12:57:49: 8=FIX.4.4|9=73|35=0|34=14|49=TOMADOR_DE_ORDENES|52=20170804-12:57:49.421|56=ORDERROUTER|10=221|
20170804-12:58:28: 8=FIX.4.4|9=73|35=0|34=16|49=ORDERROUTER|52=20170804-12:58:28.142|56=TOMADOR_DE_ORDENES|10=221|
20170804-12:58:49: 8=FIX.4.4|9=73|35=0|34=15|49=TOMADOR_DE_ORDENES|52=20170804-12:58:49.435|56=ORDERROUTER|10=228|
20170804-12:59:28: 8=FIX.4.4|9=73|35=0|34=17|49=ORDERROUTER|52=20170804-12:59:28.142|56=TOMADOR_DE_ORDENES|10=223|
20170804-12:59:50: 8=FIX.4.4|9=73|35=0|34=16|49=TOMADOR_DE_ORDENES|52=20170804-12:59:50.432|56=ORDERROUTER|10=219|
20170804-13:00:28: 8=FIX.4.4|9=73|35=0|34=18|49=ORDERROUTER|52=20170804-13:00:28.142|56=TOMADOR_DE_ORDENES|10=211|
20170804-13:00:51: 8=FIX.4.4|9=73|35=0|34=17|49=TOMADOR_DE_ORDENES|52=20170804-13:00:51.429|56=ORDERROUTER|10=214|
20170804-13:01:28: 8=FIX.4.4|9=73|35=0|34=19|49=ORDERROUTER|52=20170804-13:01:28.142|56=TOMADOR_DE_ORDENES|10=213|
20170804-13:01:52: 8=FIX.4.4|9=73|35=0|34=18|49=TOMADOR_DE_ORDENES|52=20170804-13:01:52.426|56=ORDERROUTER|10=214|
20170804-13:02:28: 8=FIX.4.4|9=73|35=0|34=20|49=ORDERROUTER|52=20170804-13:02:28.142|56=TOMADOR_DE_ORDENES|10=206|
20170804-13:02:53: 8=FIX.4.4|9=73|35=0|34=19|49=TOMADOR_DE_ORDENES|52=20170804-13:02:53.438|56=ORDERROUTER|10=220|
20170804-13:03:29: 8=FIX.4.4|9=73|35=0|34=21|49=ORDERROUTER|52=20170804-13:03:29.142|56=TOMADOR_DE_ORDENES|10=209|
20170804-13:03:54: 8=FIX.4.4|9=73|35=0|34=20|49=TOMADOR_DE_ORDENES|52=20170804-13:03:54.435|56=ORDERROUTER|10=211|
20170804-13:04:29: 8=FIX.4.4|9=73|35=0|34=22|49=ORDERROUTER|52=20170804-13:04:29.142|56=TOMADOR_DE_ORDENES|10=211|
20170804-13:04:55: 8=FIX.4.4|9=73|35=0|34=21|49=TOMADOR_DE_ORDENES|52=20170804-13:04:55.432|56=ORDERROUTER|10=211|
20170804-13:05:29: 8=FIX.4.4|9=73|35=0|34=23|49=ORDERROUTER|52=20170804-13:05:29.142|56=TOMADOR_DE_ORDENES|10=213|
20170804-13:05:55: 8=FIX.4.4|9=73|35=0|34=22|49=TOMADOR_DE_ORDENES|52=20170804-13:05:55.445|56=ORDERROUTER|10=217|
20170804-13:06:29: 8=FIX.4.4|9=73|35=0|34=24|49=ORDERROUTER|52=20170804-13:06:29.142|56=TOMADOR_DE_ORDENES|10=215|
20170804-13:06:56: 8=FIX.4.4|9=73|35=0|34=23|49=TOMADOR_DE_ORDENES|52=20170804-13:06:56.427|56=ORDERROUTER|10=220|
20170804-13:07:29: 8=FIX.4.4|9=73|35=0|34=25|49=ORDERROUTER|52=20170804-13:07:29.142|56=TOMADOR_DE_ORDENES|10=217|
20170804-13:07:56: 8=FIX.4.4|9=73|35=0|34=24|49=TOMADOR_DE_ORDENES|52=20170804-13:07:56.441|56=ORDERROUTER|10=218|
20170804-13:08:29: 8=FIX.4.4|9=73|35=0|34=26|49=ORDERROUTER|52=20170804-13:08:29.142|56=TOMADOR_DE_ORDENES|10=219|
20170804-13:08:57: 8=FIX.4.4|9=73|35=0|34=25|49=TOMADOR_DE_ORDENES|52=20170804-13:08:57.437|56=ORDERROUTER|10=226|
20170804-13:09:29: 8=FIX.4.4|9=73|35=0|34=27|49=ORDERROUTER|52=20170804-13:09:29.142|56=TOMADOR_DE_ORDENES|10=221|
20170804-13:09:58: 8=FIX.4.4|9=73|35=0|34=26|49=TOMADOR_DE_ORDENES|52=20170804-13:09:58.434|56=ORDERROUTER|10=226|
20170804-13:10:29: 8=FIX.4.4|9=73|35=0|34=28|49=ORDERROUTER|52=20170804-13:10:29.142|56=TOMADOR_DE_ORDENES|10=214|
20170804-13:10:59: 8=FIX.4.4|9=73|35=0|34=27|49=TOMADOR_DE_ORDENES|52=20170804-13:10:59.431|56=ORDERROUTER|10=217|
20170804-13:11:29: 8=FIX.4.4|9=73|35=0|34=29|49=ORDERROUTER|52=20170804-13:11:29.142|56=TOMADOR_DE_ORDENES|10=216|
20170804-13:11:30: 8=FIX.4.4|9=275|35=D|34=28|49=TOMADOR_DE_ORDENES|50=awensioe@0209@0209|52=20170804-13:11:30.413|56=ORDERROUTER|1=90700731-00|11=60c28df545d3b1d0|21=3|38=57996|40=2|44=309|54=2|55=AQUACHILE|59=0|60=20170804-13:11:30.413|63=3|100=XSGO|207=XSGO|453=2|448=LVPOOL|447=D|452=1|448=666|447=D|452=7|10=187|
20170804-13:11:30: 8=FIX.4.4|9=394|35=8|34=30|49=ORDERROUTER|52=20170804-13:11:30.468|56=TOMADOR_DE_ORDENES|57=awensioe@0209@0209|1=90700731-00|6=0|11=60c28df545d3b1d0|14=0|17=4bce8a21d3ef41ab|21=3|31=0|32=0|37=-2a65f9d1ae49b1ec|38=57996|39=A|40=2|44=309|54=2|55=AQUACHILE|58=New Sell AQUACHILE 57996.0 @ 309.0|59=0|60=20170804-13:11:30.467|63=3|100=XSGO|150=A|151=57996|207=XSGO|453=2|448=LVPOOL|447=D|452=1|448=666|447=D|452=7|10=038|
20170804-13:12:29: 8=FIX.4.4|9=394|35=8|34=31|49=ORDERROUTER|52=20170804-13:12:29.905|56=TOMADOR_DE_ORDENES|57=awensioe@0209@0209|1=90700731-00|6=0|11=60c28df545d3b1d0|14=0|17=74e295461e754225|21=3|31=0|32=0|37=-2a65f9d1ae49b1ec|38=57996|39=0|40=2|44=309|54=2|55=AQUACHILE|58=New Sell AQUACHILE 57996.0 @ 309.0|59=0|60=20170804-13:12:29.904|63=3|100=XSGO|150=0|151=57996|207=XSGO|453=2|448=LVPOOL|447=D|452=1|448=666|447=D|452=7|10=212|
20170804-13:12:30: 8=FIX.4.4|9=73|35=0|34=29|49=TOMADOR_DE_ORDENES|52=20170804-13:12:30.443|56=ORDERROUTER|10=213|
20170804-13:13:30: 8=FIX.4.4|9=73|35=0|34=32|49=ORDERROUTER|52=20170804-13:13:30.142|56=TOMADOR_DE_ORDENES|10=204|
20170804-13:13:31: 8=FIX.4.4|9=73|35=0|34=30|49=TOMADOR_DE_ORDENES|52=20170804-13:13:31.439|56=ORDERROUTER|10=212|
20170804-13:14:30: 8=FIX.4.4|9=73|35=0|34=33|49=ORDERROUTER|52=20170804-13:14:30.142|56=TOMADOR_DE_ORDENES|10=206|
20170804-13:14:32: 8=FIX.4.4|9=275|35=D|34=31|49=TOMADOR_DE_ORDENES|50=jpott@0397@0109|52=20170804-13:14:32.374|56=ORDERROUTER|1=796570504-01|11=265b618e01ca4629|21=3|38=448611|40=2|44=1600|54=2|55=EMBONOR-B|59=0|60=20170804-13:14:32.358|63=3|100=XSGO|207=XSGO|453=2|448=LVPOOL|447=D|452=1|448=666|447=D|452=7|10=210|
20170804-13:14:32: 8=FIX.4.4|9=397|35=8|34=34|49=ORDERROUTER|52=20170804-13:14:32.423|56=TOMADOR_DE_ORDENES|57=jpott@0397@0109|1=796570504-01|6=0|11=265b618e01ca4629|14=0|17=-3d6c292fbb30b5ef|21=3|31=0|32=0|37=5cbdc885131444e1|38=448611|39=A|40=2|44=1600|54=2|55=EMBONOR-B|58=New Sell EMBONOR-B 448611.0 @ 1600.0|59=0|60=20170804-13:14:32.422|63=3|100=XSGO|150=A|151=448611|207=XSGO|453=2|448=LVPOOL|447=D|452=1|448=666|447=D|452=7|10=214|
20170804-13:15:32: 8=FIX.4.4|9=73|35=0|34=32|49=TOMADOR_DE_ORDENES|52=20170804-13:15:32.434|56=ORDERROUTER|10=212|
20170804-13:15:32: 8=FIX.4.4|9=73|35=0|34=35|49=ORDERROUTER|52=20170804-13:15:32.480|56=TOMADOR_DE_ORDENES|10=216|
20170804-13:16:29: 8=FIX.4.4|9=271|35=D|34=33|49=TOMADOR_DE_ORDENES|50=jpott@0397@0109|52=20170804-13:16:29.672|56=ORDERROUTER|1=968247301-00|11=788d297a10854b6d|21=3|38=5000|40=2|44=1200|54=2|55=COPEVAL|59=0|60=20170804-13:16:29.672|63=3|100=XSGO|207=XSGO|453=2|448=LVPOOL|447=D|452=1|448=666|447=D|452=7|10=253|
20170804-13:16:29: 8=FIX.4.4|9=388|35=8|34=36|49=ORDERROUTER|52=20170804-13:16:29.748|56=TOMADOR_DE_ORDENES|57=jpott@0397@0109|1=968247301-00|6=0|11=788d297a10854b6d|14=0|17=-4a8d781c040fb10a|21=3|31=0|32=0|37=-5c585bfe07ebbbac|38=5000|39=A|40=2|44=1200|54=2|55=COPEVAL|58=New Sell COPEVAL 5000.0 @ 1200.0|59=0|60=20170804-13:16:29.748|63=3|100=XSGO|150=A|151=5000|207=XSGO|453=2|448=LVPOOL|447=D|452=1|448=666|447=D|452=7|10=108|
20170804-13:17:11: 8=FIX.4.4|9=276|35=D|34=34|49=TOMADOR_DE_ORDENES|50=awensioe@0209@0209|52=20170804-13:17:11.262|56=ORDERROUTER|1=90700731-00|11=71575369b1d7b062|21=3|38=278267|40=2|44=37|54=2|55=CAMANCHACA|59=0|60=20170804-13:17:11.262|63=3|100=XSGO|207=XSGO|453=2|448=LVPOOL|447=D|452=1|448=666|447=D|452=7|10=094|
20170804-13:17:11: 8=FIX.4.4|9=397|35=8|34=37|49=ORDERROUTER|52=20170804-13:17:11.318|56=TOMADOR_DE_ORDENES|57=awensioe@0209@0209|1=90700731-00|6=0|11=71575369b1d7b062|14=0|17=5bc1cef0a34f4488|21=3|31=0|32=0|37=-6cb5a180a8e5bf49|38=278267|39=A|40=2|44=37|54=2|55=CAMANCHACA|58=New Sell CAMANCHACA 278267.0 @ 37.0|59=0|60=20170804-13:17:11.318|63=3|100=XSGO|150=A|151=278267|207=XSGO|453=2|448=LVPOOL|447=D|452=1|448=666|447=D|452=7|10=140|
20170804-13:17:45: 8=FIX.4.4|9=282|35=D|34=35|49=TOMADOR_DE_ORDENES|50=jpott@0397@0109|52=20170804-13:17:45.177|56=ORDERROUTER|1=761285734-00|11=1a81abd590b9b6ee|21=3|38=416|40=2|44=21000|54=2|55=CFIDESIN06|59=0|60=20170804-13:17:45.177|63=3|100=XSGO|167=CFI|207=XSGO|453=2|448=LVPOOL|447=D|452=1|448=666|447=D|452=7|10=008|
20170804-13:17:45: 8=FIX.4.4|9=401|35=8|34=38|49=ORDERROUTER|52=20170804-13:17:45.235|56=TOMADOR_DE_ORDENES|57=jpott@0397@0109|1=761285734-00|6=0|11=1a81abd590b9b6ee|14=0|17=-5d3423e569d8b50c|21=3|31=0|32=0|37=-62e732d9615cb054|38=416|39=A|40=2|44=21000|54=2|55=CFIDESIN06|58=New Sell CFIDESIN06 416.0 @ 21000.0|59=0|60=20170804-13:17:45.231|63=3|100=XSGO|150=A|151=416|167=CFI|207=XSGO|453=2|448=LVPOOL|447=D|452=1|448=666|447=D|452=7|10=147|
20170804-13:18:45: 8=FIX.4.4|9=73|35=0|34=36|49=TOMADOR_DE_ORDENES|52=20170804-13:18:45.440|56=ORDERROUTER|10=220|
20170804-13:18:45: 8=FIX.4.4|9=73|35=0|34=39|49=ORDERROUTER|52=20170804-13:18:45.487|56=TOMADOR_DE_ORDENES|10=234|
20170804-13:19:26: 8=FIX.4.4|9=274|35=D|34=37|49=TOMADOR_DE_ORDENES|50=jpott@0397@0109|52=20170804-13:19:26.391|56=ORDERROUTER|1=796570504-01|11=24dbaf3b491aba03|21=3|38=108636|40=2|44=1845|54=1|55=CENCOSUD|59=0|60=20170804-13:19:26.375|63=3|100=XSGO|207=XSGO|453=2|448=LVPOOL|447=D|452=1|448=666|447=D|452=7|10=114|
20170804-13:19:26: 8=FIX.4.4|9=394|35=8|34=40|49=ORDERROUTER|52=20170804-13:19:26.438|56=TOMADOR_DE_ORDENES|57=jpott@0397@0109|1=796570504-01|6=0|11=24dbaf3b491aba03|14=0|17=-597739e53546b3e2|21=3|31=0|32=0|37=4ab9b32ad4b24285|38=108636|39=A|40=2|44=1845|54=1|55=CENCOSUD|58=New Buy CENCOSUD 108636.0 @ 1845.0|59=0|60=20170804-13:19:26.437|63=3|100=XSGO|150=A|151=108636|207=XSGO|453=2|448=LVPOOL|447=D|452=1|448=666|447=D|452=7|10=069|
20170804-13:20:06: 8=FIX.4.4|9=271|35=D|34=38|49=TOMADOR_DE_ORDENES|50=aguajardo@0569@0569|52=20170804-13:20:06.561|56=ORDERROUTER|1=99038500-00|11=7e80d39b55b7bf33|21=3|38=23800|40=2|44=45|54=2|55=ENJOY|59=0|60=20170804-13:20:06.561|63=3|100=XSGO|207=XSGO|453=2|448=LVPOOL|447=D|452=1|448=666|447=D|452=7|10=238|
20170804-13:20:06: 8=FIX.4.4|9=384|35=8|34=41|49=ORDERROUTER|52=20170804-13:20:06.611|56=TOMADOR_DE_ORDENES|57=aguajardo@0569@0569|1=99038500-00|6=0|11=7e80d39b55b7bf33|14=0|17=7715e2b0721d4eaa|21=3|31=0|32=0|37=36d758f1037b4c48|38=23800|39=A|40=2|44=45|54=2|55=ENJOY|58=New Sell ENJOY 23800.0 @ 45.0|59=0|60=20170804-13:20:06.611|63=3|100=XSGO|150=A|151=23800|207=XSGO|453=2|448=LVPOOL|447=D|452=1|448=666|447=D|452=7|10=101|
20170804-13:20:40: 8=FIX.4.4|9=271|35=D|34=39|49=TOMADOR_DE_ORDENES|50=aguajardo@0569@0569|52=20170804-13:20:40.070|56=ORDERROUTER|1=99038500-00|11=bd52454efbc4efc|21=3|38=2396|40=2|44=564|54=2|55=RIPLEY|59=0|60=20170804-13:20:40.055|63=3|100=XSGO|207=XSGO|453=2|448=LVPOOL|447=D|452=1|448=666|447=D|452=7|10=150|
20170804-13:20:40: 8=FIX.4.4|9=385|35=8|34=42|49=ORDERROUTER|52=20170804-13:20:40.129|56=TOMADOR_DE_ORDENES|57=aguajardo@0569@0569|1=99038500-00|6=0|11=bd52454efbc4efc|14=0|17=-600b9f3154bab120|21=3|31=0|32=0|37=74785cfd87b0492a|38=2396|39=A|40=2|44=564|54=2|55=RIPLEY|58=New Sell RIPLEY 2396.0 @ 564.0|59=0|60=20170804-13:20:40.129|63=3|100=XSGO|150=A|151=2396|207=XSGO|453=2|448=LVPOOL|447=D|452=1|448=666|447=D|452=7|10=122|
20170804-13:20:57: 8=FIX.4.4|9=273|35=D|34=40|49=TOMADOR_DE_ORDENES|50=surarte@1237@0965|52=20170804-13:20:57.823|56=ORDERROUTER|1=761078917-00|11=5c649e10bee0b36d|21=3|38=490533|40=2|44=815|54=2|55=ENLASA|59=0|60=20170804-13:20:57.808|63=3|100=XSGO|207=XSGO|453=2|448=LVPOOL|447=D|452=1|448=666|447=D|452=7|10=075|
20170804-13:20:57: 8=FIX.4.4|9=390|35=8|34=43|49=ORDERROUTER|52=20170804-13:20:57.874|56=TOMADOR_DE_ORDENES|57=surarte@1237@0965|1=761078917-00|6=0|11=5c649e10bee0b36d|14=0|17=9ada3c0e6fd433e|21=3|31=0|32=0|37=-6af0c08c56dbb876|38=490533|39=A|40=2|44=815|54=2|55=ENLASA|58=New Sell ENLASA 490533.0 @ 815.0|59=0|60=20170804-13:20:57.873|63=3|100=XSGO|150=A|151=490533|207=XSGO|453=2|448=LVPOOL|447=D|452=1|448=666|447=D|452=7|10=156|
20170804-13:21:58: 8=FIX.4.4|9=73|35=0|34=44|49=ORDERROUTER|52=20170804-13:21:58.142|56=TOMADOR_DE_ORDENES|10=216|
20170804-13:21:58: 8=FIX.4.4|9=73|35=0|34=41|49=TOMADOR_DE_ORDENES|52=20170804-13:21:58.087|56=ORDERROUTER|10=221|
20170804-13:22:00: 8=FIX.4.4|9=383|35=8|34=45|49=ORDERROUTER|52=20170804-13:22:01.016|56=TOMADOR_DE_ORDENES|57=aguajardo@0569@0569|1=99038500-00|6=0|11=bd52454efbc4efc|14=0|17=c03215029164ae2|21=3|31=0|32=0|37=74785cfd87b0492a|38=2396|39=0|40=2|44=564|54=2|55=RIPLEY|58=New Sell RIPLEY 2396.0 @ 564.0|59=0|60=20170804-13:22:01.015|63=3|100=XSGO|150=0|151=2396|207=XSGO|453=2|448=LVPOOL|447=D|452=1|448=666|447=D|452=7|10=143|
20170804-13:22:04: 8=FIX.4.4|9=387|35=8|34=46|49=ORDERROUTER|52=20170804-13:22:04.909|56=TOMADOR_DE_ORDENES|57=jpott@0397@0109|1=968247301-00|6=0|11=788d297a10854b6d|14=0|17=6c094343828143f8|21=3|31=0|32=0|37=-5c585bfe07ebbbac|38=5000|39=0|40=2|44=1200|54=2|55=COPEVAL|58=New Sell COPEVAL 5000.0 @ 1200.0|59=0|60=20170804-13:22:04.908|63=3|100=XSGO|150=0|151=5000|207=XSGO|453=2|448=LVPOOL|447=D|452=1|448=666|447=D|452=7|10=092|
20170804-13:22:12: 8=FIX.4.4|9=397|35=8|34=47|49=ORDERROUTER|52=20170804-13:22:12.463|56=TOMADOR_DE_ORDENES|57=awensioe@0209@0209|1=90700731-00|6=0|11=71575369b1d7b062|14=0|17=77ab4d714b654ee0|21=3|31=0|32=0|37=-6cb5a180a8e5bf49|38=278267|39=0|40=2|44=37|54=2|55=CAMANCHACA|58=New Sell CAMANCHACA 278267.0 @ 37.0|59=0|60=20170804-13:22:12.463|63=3|100=XSGO|150=0|151=278267|207=XSGO|453=2|448=LVPOOL|447=D|452=1|448=666|447=D|452=7|10=056|
20170804-13:22:20: 8=FIX.4.4|9=384|35=8|34=48|49=ORDERROUTER|52=20170804-13:22:20.637|56=TOMADOR_DE_ORDENES|57=aguajardo@0569@0569|1=99038500-00|6=0|11=7e80d39b55b7bf33|14=0|17=73dfc813d40b4cd1|21=3|31=0|32=0|37=36d758f1037b4c48|38=23800|39=0|40=2|44=45|54=2|55=ENJOY|58=New Sell ENJOY 23800.0 @ 45.0|59=0|60=20170804-13:22:20.635|63=3|100=XSGO|150=0|151=23800|207=XSGO|453=2|448=LVPOOL|447=D|452=1|448=666|447=D|452=7|10=135|
20170804-13:22:30: 8=FIX.4.4|9=391|35=8|34=49|49=ORDERROUTER|52=20170804-13:22:30.276|56=TOMADOR_DE_ORDENES|57=surarte@1237@0965|1=761078917-00|6=0|11=5c649e10bee0b36d|14=0|17=5585b2b22e114414|21=3|31=0|32=0|37=-6af0c08c56dbb876|38=490533|39=0|40=2|44=815|54=2|55=ENLASA|58=New Sell ENLASA 490533.0 @ 815.0|59=0|60=20170804-13:22:30.276|63=3|100=XSGO|150=0|151=490533|207=XSGO|453=2|448=LVPOOL|447=D|452=1|448=666|447=D|452=7|10=168|
20170804-13:22:35: 8=FIX.4.4|9=394|35=8|34=50|49=ORDERROUTER|52=20170804-13:22:35.500|56=TOMADOR_DE_ORDENES|57=jpott@0397@0109|1=796570504-01|6=0|11=24dbaf3b491aba03|14=0|17=-76ddc73e9777bb9a|21=3|31=0|32=0|37=4ab9b32ad4b24285|38=108636|39=0|40=2|44=1845|54=1|55=CENCOSUD|58=New Buy CENCOSUD 108636.0 @ 1845.0|59=0|60=20170804-13:22:35.490|63=3|100=XSGO|150=0|151=108636|207=XSGO|453=2|448=LVPOOL|447=D|452=1|448=666|447=D|452=7|10=208|
20170804-13:22:47: 8=FIX.4.4|9=400|35=8|34=51|49=ORDERROUTER|52=20170804-13:22:47.550|56=TOMADOR_DE_ORDENES|57=jpott@0397@0109|1=761285734-00|6=0|11=1a81abd590b9b6ee|14=0|17=7850d957e43342d9|21=3|31=0|32=0|37=-62e732d9615cb054|38=416|39=0|40=2|44=21000|54=2|55=CFIDESIN06|58=New Sell CFIDESIN06 416.0 @ 21000.0|59=0|60=20170804-13:22:47.549|63=3|100=XSGO|150=0|151=416|167=CFI|207=XSGO|453=2|448=LVPOOL|447=D|452=1|448=666|447=D|452=7|10=241|
20170804-13:22:54: 8=FIX.4.4|9=396|35=8|34=52|49=ORDERROUTER|52=20170804-13:22:54.728|56=TOMADOR_DE_ORDENES|57=jpott@0397@0109|1=796570504-01|6=0|11=265b618e01ca4629|14=0|17=65ada76302ef49b6|21=3|31=0|32=0|37=5cbdc885131444e1|38=448611|39=0|40=2|44=1600|54=2|55=EMBONOR-B|58=New Sell EMBONOR-B 448611.0 @ 1600.0|59=0|60=20170804-13:22:54.727|63=3|100=XSGO|150=0|151=448611|207=XSGO|453=2|448=LVPOOL|447=D|452=1|448=666|447=D|452=7|10=067|
20170804-13:22:58: 8=FIX.4.4|9=73|35=0|34=42|49=TOMADOR_DE_ORDENES|52=20170804-13:22:58.444|56=ORDERROUTER|10=220|
20170804-13:23:40: 8=FIX.4.4|9=281|35=D|34=43|49=TOMADOR_DE_ORDENES|50=jclaude@0089@0501|52=20170804-13:23:40.892|56=ORDERROUTER|1=2231890K-00|11=1515881d258eba01|21=3|38=4|40=2|44=3000000|54=2|55=ORO 500*|59=0|60=20170804-13:23:40.892|63=1|100=XSGO|167=MON|207=XSGO|453=2|448=LVPOOL|447=D|452=1|448=666|447=D|452=7|10=231|
20170804-13:23:40: 8=FIX.4.4|9=395|35=8|34=53|49=ORDERROUTER|52=20170804-13:23:40.955|56=TOMADOR_DE_ORDENES|57=jclaude@0089@0501|1=2231890K-00|6=0|11=1515881d258eba01|14=0|17=512c099ed47e4bdb|21=3|31=0|32=0|37=-1541658a35f2bd4c|38=4|39=A|40=2|44=3000000|54=2|55=ORO 500*|58=New Sell ORO 500* 4.0 @ 3000000.0|59=0|60=20170804-13:23:40.954|63=1|100=XSGO|150=A|151=4|167=MON|207=XSGO|453=2|448=LVPOOL|447=D|452=1|448=666|447=D|452=7|10=157|
20170804-13:24:04: 8=FIX.4.4|9=395|35=8|34=54|49=ORDERROUTER|52=20170804-13:24:04.535|56=TOMADOR_DE_ORDENES|57=jclaude@0089@0501|1=2231890K-00|6=0|11=1515881d258eba01|14=0|17=4487f9961d4f423a|21=3|31=0|32=0|37=-1541658a35f2bd4c|38=4|39=0|40=2|44=3000000|54=2|55=ORO 500*|58=New Sell ORO 500* 4.0 @ 3000000.0|59=0|60=20170804-13:24:04.533|63=1|100=XSGO|150=0|151=4|167=MON|207=XSGO|453=2|448=LVPOOL|447=D|452=1|448=666|447=D|452=7|10=237|
20170804-13:24:41: 8=FIX.4.4|9=73|35=0|34=44|49=TOMADOR_DE_ORDENES|52=20170804-13:24:41.452|56=ORDERROUTER|10=215|
20170804-13:25:05: 8=FIX.4.4|9=73|35=0|34=55|49=ORDERROUTER|52=20170804-13:25:05.142|56=TOMADOR_DE_ORDENES|10=214|
20170804-13:25:42: 8=FIX.4.4|9=73|35=0|34=45|49=TOMADOR_DE_ORDENES|52=20170804-13:25:42.449|56=ORDERROUTER|10=224|
20170804-13:26:05: 8=FIX.4.4|9=73|35=0|34=56|49=ORDERROUTER|52=20170804-13:26:05.142|56=TOMADOR_DE_ORDENES|10=216|
20170804-13:26:43: 8=FIX.4.4|9=73|35=0|34=46|49=TOMADOR_DE_ORDENES|52=20170804-13:26:43.446|56=ORDERROUTER|10=224|
20170804-13:27:05: 8=FIX.4.4|9=73|35=0|34=57|49=ORDERROUTER|52=20170804-13:27:05.142|56=TOMADOR_DE_ORDENES|10=218|
20170804-13:27:43: 8=FIX.4.4|9=73|35=0|34=47|49=TOMADOR_DE_ORDENES|52=20170804-13:27:43.460|56=ORDERROUTER|10=222|
20170804-13:28:05: 8=FIX.4.4|9=73|35=0|34=58|49=ORDERROUTER|52=20170804-13:28:05.142|56=TOMADOR_DE_ORDENES|10=220|
20170804-13:28:36: 8=FIX.4.4|9=285|35=D|34=48|49=TOMADOR_DE_ORDENES|50=vavasquez@0397@0410|52=20170804-13:28:36.267|56=ORDERROUTER|1=591890204-00|11=495bad78ef344321|21=3|38=253|40=2|44=27070|54=1|55=CFIDHS2-A|59=0|60=20170804-13:28:36.267|63=3|100=XSGO|167=CFI|207=XSGO|453=2|448=LVPOOL|447=D|452=1|448=666|447=D|452=7|10=230|
20170804-13:28:36: 8=FIX.4.4|9=399|35=8|34=59|49=ORDERROUTER|52=20170804-13:28:36.325|56=TOMADOR_DE_ORDENES|57=vavasquez@0397@0410|1=591890204-00|6=0|11=495bad78ef344321|14=0|17=45620e6cd004d3c|21=3|31=0|32=0|37=7646883c75f94d01|38=253|39=A|40=2|44=27070|54=1|55=CFIDHS2-A|58=New Buy CFIDHS2-A 253.0 @ 27070.0|59=0|60=20170804-13:28:36.324|63=3|100=XSGO|150=A|151=253|167=CFI|207=XSGO|453=2|448=LVPOOL|447=D|452=1|448=666|447=D|452=7|10=021|
20170804-13:29:08: 8=FIX.4.4|9=286|35=D|34=49|49=TOMADOR_DE_ORDENES|50=vavasquez@0397@0410|52=20170804-13:29:08.543|56=ORDERROUTER|1=126598637-84|11=7ed5bd1d7145b5d5|21=3|38=1292|40=2|44=27070|54=1|55=CFIDHS2-A|59=0|60=20170804-13:29:08.528|63=3|100=XSGO|167=CFI|207=XSGO|453=2|448=LVPOOL|447=D|452=1|448=666|447=D|452=7|10=139|
20170804-13:29:08: 8=FIX.4.4|9=404|35=8|34=60|49=ORDERROUTER|52=20170804-13:29:08.599|56=TOMADOR_DE_ORDENES|57=vavasquez@0397@0410|1=126598637-84|6=0|11=7ed5bd1d7145b5d5|14=0|17=4945f65df7234004|21=3|31=0|32=0|37=-39b09612ee23b26e|38=1292|39=A|40=2|44=27070|54=1|55=CFIDHS2-A|58=New Buy CFIDHS2-A 1292.0 @ 27070.0|59=0|60=20170804-13:29:08.598|63=3|100=XSGO|150=A|151=1292|167=CFI|207=XSGO|453=2|448=LVPOOL|447=D|452=1|448=666|447=D|452=7|10=134|
20170804-13:30:09: 8=FIX.4.4|9=73|35=0|34=61|49=ORDERROUTER|52=20170804-13:30:09.142|56=TOMADOR_DE_ORDENES|10=211|
20170804-13:30:09: 8=FIX.4.4|9=73|35=0|34=50|49=TOMADOR_DE_ORDENES|52=20170804-13:30:09.088|56=ORDERROUTER|10=218|
20170804-13:31:07: 8=FIX.4.4|9=271|35=D|34=51|49=TOMADOR_DE_ORDENES|50=vavasquez@0397@0276|52=20170804-13:31:07.386|56=ORDERROUTER|1=60643326-00|11=26a7b1d56649b320|21=3|38=4426|40=2|44=790|54=2|55=HITES|59=0|60=20170804-13:31:07.386|63=3|100=XSGO|207=XSGO|453=2|448=LVPOOL|447=D|452=1|448=666|447=D|452=7|10=190|
20170804-13:31:07: 8=FIX.4.4|9=383|35=8|34=62|49=ORDERROUTER|52=20170804-13:31:07.448|56=TOMADOR_DE_ORDENES|57=vavasquez@0397@0276|1=60643326-00|6=0|11=26a7b1d56649b320|14=0|17=1dfa510396a942b7|21=3|31=0|32=0|37=56cf2ffe1dd0458b|38=4426|39=A|40=2|44=790|54=2|55=HITES|58=New Sell HITES 4426.0 @ 790.0|59=0|60=20170804-13:31:07.448|63=3|100=XSGO|150=A|151=4426|207=XSGO|453=2|448=LVPOOL|447=D|452=1|448=666|447=D|452=7|10=170|
20170804-13:31:29: 8=FIX.4.4|9=384|35=8|34=63|49=ORDERROUTER|52=20170804-13:31:29.130|56=TOMADOR_DE_ORDENES|57=vavasquez@0397@0276|1=60643326-00|6=0|11=26a7b1d56649b320|14=0|17=-3c9cc8f42396b193|21=3|31=0|32=0|37=56cf2ffe1dd0458b|38=4426|39=0|40=2|44=790|54=2|55=HITES|58=New Sell HITES 4426.0 @ 790.0|59=0|60=20170804-13:31:29.129|63=3|100=XSGO|150=0|151=4426|207=XSGO|453=2|448=LVPOOL|447=D|452=1|448=666|447=D|452=7|10=188|
20170804-13:32:07: 8=FIX.4.4|9=73|35=0|34=52|49=TOMADOR_DE_ORDENES|52=20170804-13:32:07.446|56=ORDERROUTER|10=218|
20170804-13:32:29: 8=FIX.4.4|9=73|35=0|34=64|49=ORDERROUTER|52=20170804-13:32:29.142|56=TOMADOR_DE_ORDENES|10=218|
20170804-13:32:31: 8=FIX.4.4|9=278|35=D|34=53|49=TOMADOR_DE_ORDENES|50=vavasquez@0397@0276|52=20170804-13:32:31.674|56=ORDERROUTER|1=953420007-00|11=2bfd30699cf14d97|21=3|38=8286|40=1|54=2|55=CFILVCOR-A|59=3|60=20170804-13:32:31.658|63=3|100=XSGO|167=CFI|207=XSGO|453=2|448=LVPOOL|447=D|452=1|448=666|447=D|452=7|10=031|
20170804-13:32:31: 8=FIX.4.4|9=396|35=8|34=65|49=ORDERROUTER|52=20170804-13:32:31.728|56=TOMADOR_DE_ORDENES|57=vavasquez@0397@0276|1=953420007-00|6=0|11=2bfd30699cf14d97|14=0|17=4a6f156b0bbb4fbc|21=3|31=0|32=0|37=-ebcba419cb7bc7c|38=8286|39=A|40=1|54=2|55=CFILVCOR-A|58=New Sell CFILVCOR-A 8286.0 @ MARKET|59=3|60=20170804-13:32:31.727|63=3|100=XSGO|150=A|151=8286|167=CFI|207=XSGO|453=2|448=LVPOOL|447=D|452=1|448=666|447=D|452=7|10=046|
20170804-13:33:06: 8=FIX.4.4|9=400|35=8|34=66|49=ORDERROUTER|52=20170804-13:33:06.471|56=TOMADOR_DE_ORDENES|57=vavasquez@0397@0410|1=591890204-00|6=0|11=495bad78ef344321|14=0|17=57b7e2398653472a|21=3|31=0|32=0|37=7646883c75f94d01|38=253|39=0|40=2|44=27070|54=1|55=CFIDHS2-A|58=New Buy CFIDHS2-A 253.0 @ 27070.0|59=0|60=20170804-13:33:06.469|63=3|100=XSGO|150=0|151=253|167=CFI|207=XSGO|453=2|448=LVPOOL|447=D|452=1|448=666|447=D|452=7|10=201|
20170804-13:33:09: 8=FIX.4.4|9=405|35=8|34=67|49=ORDERROUTER|52=20170804-13:33:09.085|56=TOMADOR_DE_ORDENES|57=vavasquez@0397@0410|1=126598637-84|6=0|11=7ed5bd1d7145b5d5|14=0|17=-2b4995e625f4bb0c|21=3|31=0|32=0|37=-39b09612ee23b26e|38=1292|39=0|40=2|44=27070|54=1|55=CFIDHS2-A|58=New Buy CFIDHS2-A 1292.0 @ 27070.0|59=0|60=20170804-13:33:09.084|63=3|100=XSGO|150=0|151=1292|167=CFI|207=XSGO|453=2|448=LVPOOL|447=D|452=1|448=666|447=D|452=7|10=010|
20170804-13:33:11: 8=FIX.4.4|9=396|35=8|34=68|49=ORDERROUTER|52=20170804-13:33:11.337|56=TOMADOR_DE_ORDENES|57=vavasquez@0397@0276|1=953420007-00|6=0|11=2bfd30699cf14d97|14=0|17=-24acae0dcbdb00f|21=3|31=0|32=0|37=-ebcba419cb7bc7c|38=8286|39=0|40=1|54=2|55=CFILVCOR-A|58=New Sell CFILVCOR-A 8286.0 @ MARKET|59=3|60=20170804-13:33:11.336|63=3|100=XSGO|150=0|151=8286|167=CFI|207=XSGO|453=2|448=LVPOOL|447=D|452=1|448=666|447=D|452=7|10=035|
20170804-13:33:16: 8=FIX.4.4|9=273|35=D|34=54|49=TOMADOR_DE_ORDENES|50=igarreton@0537@0079|52=20170804-13:33:16.415|56=ORDERROUTER|1=49469306-00|11=1e793585a1934cd7|21=1|38=12000|40=2|44=146|54=1|55=COLBUN|59=0|60=20170804-13:33:16.399|63=3|100=XSGO|207=XSGO|453=2|448=LVPOOL|447=D|452=1|448=666|447=D|452=7|10=033|
20170804-13:33:16: 8=FIX.4.4|9=388|35=8|34=69|49=ORDERROUTER|52=20170804-13:33:16.468|56=TOMADOR_DE_ORDENES|57=igarreton@0537@0079|1=49469306-00|6=0|11=1e793585a1934cd7|14=0|17=-606cf5ce935cb3c5|21=1|31=0|32=0|37=31bb5565c4404ea2|38=12000|39=A|40=2|44=146|54=1|55=COLBUN|58=New Buy COLBUN 12000.0 @ 146.0|59=0|60=20170804-13:33:16.468|63=3|100=XSGO|150=A|151=12000|207=XSGO|453=2|448=LVPOOL|447=D|452=1|448=666|447=D|452=7|10=054|
20170804-13:33:16: 8=FIX.4.4|9=383|35=8|34=70|49=ORDERROUTER|52=20170804-13:33:16.499|56=TOMADOR_DE_ORDENES|57=igarreton@0537@0079|1=49469306-00|6=0|11=1e793585a1934cd7|14=0|17=ex1721641915|21=1|31=0|32=0|37=31bb5565c4404ea2|38=12000|39=0|40=2|44=146|54=1|55=COLBUN|58=New Buy COLBUN 12000.0 @ 146.0|59=0|60=20170804-13:33:16.498|63=3|100=XSGO|150=0|151=12000|207=XSGO|453=2|448=LVPOOL|447=D|452=1|448=666|447=D|452=7|10=048|
20170804-13:33:20: 8=FIX.4.4|9=273|35=D|34=55|49=TOMADOR_DE_ORDENES|50=aguajardo@0569@0569|52=20170804-13:33:20.923|56=ORDERROUTER|1=13028616K-00|11=6c0a362545ba4f6b|21=3|38=2487|40=2|44=2059|54=2|55=GASCO|59=0|60=20170804-13:33:20.923|63=3|100=XSGO|207=XSGO|453=2|448=LVPOOL|447=D|452=1|448=666|447=D|452=7|10=079|
20170804-13:33:20: 8=FIX.4.4|9=387|35=8|34=71|49=ORDERROUTER|52=20170804-13:33:20.983|56=TOMADOR_DE_ORDENES|57=aguajardo@0569@0569|1=13028616K-00|6=0|11=6c0a362545ba4f6b|14=0|17=4c20979bb28542d6|21=3|31=0|32=0|37=-2685a1892a99b141|38=2487|39=A|40=2|44=2059|54=2|55=GASCO|58=New Sell GASCO 2487.0 @ 2059.0|59=0|60=20170804-13:33:20.982|63=3|100=XSGO|150=A|151=2487|207=XSGO|453=2|448=LVPOOL|447=D|452=1|448=666|447=D|452=7|10=135|
20170804-13:33:52: 8=FIX.4.4|9=275|35=D|34=56|49=TOMADOR_DE_ORDENES|50=vavasquez@0397@0276|52=20170804-13:33:52.467|56=ORDERROUTER|1=6370945K-00|11=faad583cf96466c|21=3|38=1000|40=2|44=6500|54=1|55=CRISTALES|59=0|60=20170804-13:33:52.467|63=3|100=XSGO|207=XSGO|453=2|448=LVPOOL|447=D|452=1|448=666|447=D|452=7|10=157|
20170804-13:33:52: 8=FIX.4.4|9=391|35=8|34=72|49=ORDERROUTER|52=20170804-13:33:52.540|56=TOMADOR_DE_ORDENES|57=vavasquez@0397@0276|1=6370945K-00|6=0|11=faad583cf96466c|14=0|17=59831373c10b4985|21=3|31=0|32=0|37=614f721c84a54ce4|38=1000|39=A|40=2|44=6500|54=1|55=CRISTALES|58=New Buy CRISTALES 1000.0 @ 6500.0|59=0|60=20170804-13:33:52.539|63=3|100=XSGO|150=A|151=1000|207=XSGO|453=2|448=LVPOOL|447=D|452=1|448=666|447=D|452=7|10=059|
20170804-13:34:53: 8=FIX.4.4|9=73|35=0|34=73|49=ORDERROUTER|52=20170804-13:34:53.141|56=TOMADOR_DE_ORDENES|10=216|
20170804-13:34:53: 8=FIX.4.4|9=73|35=0|34=57|49=TOMADOR_DE_ORDENES|52=20170804-13:34:53.089|56=ORDERROUTER|10=229|
20170804-13:35:53: 8=FIX.4.4|9=73|35=0|34=74|49=ORDERROUTER|52=20170804-13:35:53.142|56=TOMADOR_DE_ORDENES|10=219|
20170804-13:35:53: 8=FIX.4.4|9=73|35=0|34=58|49=TOMADOR_DE_ORDENES|52=20170804-13:35:53.447|56=ORDERROUTER|10=229|
20170804-13:36:53: 8=FIX.4.4|9=73|35=0|34=75|49=ORDERROUTER|52=20170804-13:36:53.142|56=TOMADOR_DE_ORDENES|10=221|
20170804-13:36:53: 8=FIX.4.4|9=73|35=0|34=59|49=TOMADOR_DE_ORDENES|52=20170804-13:36:53.461|56=ORDERROUTER|10=227|
20170804-13:37:12: 8=FIX.4.4|9=388|35=8|34=76|49=ORDERROUTER|52=20170804-13:37:12.541|56=TOMADOR_DE_ORDENES|57=aguajardo@0569@0569|1=13028616K-00|6=0|11=6c0a362545ba4f6b|14=0|17=-3ccc55702186b2dc|21=3|31=0|32=0|37=-2685a1892a99b141|38=2487|39=0|40=2|44=2059|54=2|55=GASCO|58=New Sell GASCO 2487.0 @ 2059.0|59=0|60=20170804-13:37:12.540|63=3|100=XSGO|150=0|151=2487|207=XSGO|453=2|448=LVPOOL|447=D|452=1|448=666|447=D|452=7|10=226|
20170804-13:37:31: 8=FIX.4.4|9=391|35=8|34=77|49=ORDERROUTER|52=20170804-13:37:31.477|56=TOMADOR_DE_ORDENES|57=vavasquez@0397@0276|1=6370945K-00|6=0|11=faad583cf96466c|14=0|17=4b6063176afc4eff|21=3|31=0|32=0|37=614f721c84a54ce4|38=1000|39=0|40=2|44=6500|54=1|55=CRISTALES|58=New Buy CRISTALES 1000.0 @ 6500.0|59=0|60=20170804-13:37:31.476|63=3|100=XSGO|150=0|151=1000|207=XSGO|453=2|448=LVPOOL|447=D|452=1|448=666|447=D|452=7|10=020|
20170804-13:37:34: 8=FIX.4.4|9=271|35=D|34=60|49=TOMADOR_DE_ORDENES|50=salcayaga@1036@0180|52=20170804-13:37:34.286|56=ORDERROUTER|1=77082689-00|11=4d7b5385d398bb82|21=3|38=62757|40=2|44=92|54=2|55=CHILE|59=0|60=20170804-13:37:34.271|63=3|100=XSGO|207=XSGO|453=2|448=LVPOOL|447=D|452=1|448=666|447=D|452=7|10=178|
20170804-13:37:34: 8=FIX.4.4|9=384|35=8|34=78|49=ORDERROUTER|52=20170804-13:37:34.342|56=TOMADOR_DE_ORDENES|57=salcayaga@1036@0180|1=77082689-00|6=0|11=4d7b5385d398bb82|14=0|17=5dabde8dc48c4dba|21=3|31=0|32=0|37=7dd41c15aeac4b8c|38=62757|39=A|40=2|44=92|54=2|55=CHILE|58=New Sell CHILE 62757.0 @ 92.0|59=0|60=20170804-13:37:34.342|63=3|100=XSGO|150=A|151=62757|207=XSGO|453=2|448=LVPOOL|447=D|452=1|448=666|447=D|452=7|10=015|
20170804-13:38:05: 8=FIX.4.4|9=384|35=8|34=79|49=ORDERROUTER|52=20170804-13:38:05.455|56=TOMADOR_DE_ORDENES|57=salcayaga@1036@0180|1=77082689-00|6=0|11=4d7b5385d398bb82|14=0|17=101c207c0fcc4c81|21=3|31=0|32=0|37=7dd41c15aeac4b8c|38=62757|39=0|40=2|44=92|54=2|55=CHILE|58=New Sell CHILE 62757.0 @ 92.0|59=0|60=20170804-13:38:05.454|63=3|100=XSGO|150=0|151=62757|207=XSGO|453=2|448=LVPOOL|447=D|452=1|448=666|447=D|452=7|10=244|
20170804-13:38:34: 8=FIX.4.4|9=73|35=0|34=61|49=TOMADOR_DE_ORDENES|52=20170804-13:38:34.456|56=ORDERROUTER|10=225|
20170804-13:38:34: 8=FIX.4.4|9=387|35=8|34=80|49=ORDERROUTER|52=20170804-13:38:34.600|56=TOMADOR_DE_ORDENES|57=aguajardo@0569@0569|1=99038500-00|6=564|11=bd52454efbc4efc|14=2396|17=ex1721643417|21=3|31=564|32=2396|37=74785cfd87b0492a|38=2396|39=2|40=2|44=564|54=2|55=RIPLEY|58=New Sell RIPLEY 2396.0 @ 564.0|59=0|60=20170804-13:38:34.599|63=3|100=XSGO|150=F|151=0|207=XSGO|453=2|448=LVPOOL|447=D|452=1|448=666|447=D|452=7|10=171|
20170804-13:39:26: 8=FIX.4.4|9=283|35=D|34=62|49=TOMADOR_DE_ORDENES|50=jpott@0397@0418|52=20170804-13:39:26.501|56=ORDERROUTER|1=63777579-00|11=7971aa3ef0674826|21=3|38=420|40=2|44=29569.7|54=2|55=CFILVCOR-A|59=0|60=20170804-13:39:26.501|63=1|100=XSGO|167=CFI|207=XSGO|453=2|448=LVPOOL|447=D|452=1|448=666|447=D|452=7|10=185|
20170804-13:39:26: 8=FIX.4.4|9=401|35=8|34=81|49=ORDERROUTER|52=20170804-13:39:26.570|56=TOMADOR_DE_ORDENES|57=jpott@0397@0418|1=63777579-00|6=0|11=7971aa3ef0674826|14=0|17=35bec73f27fc4844|21=3|31=0|32=0|37=-6318d4f66ba4b013|38=420|39=A|40=2|44=29569.7|54=2|55=CFILVCOR-A|58=New Sell CFILVCOR-A 420.0 @ 29569.7|59=0|60=20170804-13:39:26.570|63=1|100=XSGO|150=A|151=420|167=CFI|207=XSGO|453=2|448=LVPOOL|447=D|452=1|448=666|447=D|452=7|10=191|
20170804-13:39:51: 8=FIX.4.4|9=275|35=D|34=63|49=TOMADOR_DE_ORDENES|50=aibarra@100@0068|52=20170804-13:39:51.945|56=ORDERROUTER|1=58232858-00|11=658210311134b112|21=3|38=25350|40=2|44=212.45|54=2|55=AESGENER|59=0|60=20170804-13:39:51.929|63=3|100=XSGO|207=XSGO|453=2|448=LVPOOL|447=D|452=1|448=666|447=D|452=7|10=112|
20170804-13:39:51: 8=FIX.4.4|9=394|35=8|34=82|49=ORDERROUTER|52=20170804-13:39:51.998|56=TOMADOR_DE_ORDENES|57=aibarra@100@0068|1=58232858-00|6=0|11=658210311134b112|14=0|17=-6f7800455036b614|21=3|31=0|32=0|37=5a68c2fa9c0348c2|38=25350|39=A|40=2|44=212.45|54=2|55=AESGENER|58=New Sell AESGENER 25350.0 @ 212.45|59=0|60=20170804-13:39:51.998|63=3|100=XSGO|150=A|151=25350|207=XSGO|453=2|448=LVPOOL|447=D|452=1|448=666|447=D|452=7|10=254|
20170804-13:39:55: 8=FIX.4.4|9=393|35=8|34=83|49=ORDERROUTER|52=20170804-13:39:55.897|56=TOMADOR_DE_ORDENES|57=aibarra@100@0068|1=58232858-00|6=0|11=658210311134b112|14=0|17=473b108b35f64233|21=3|31=0|32=0|37=5a68c2fa9c0348c2|38=25350|39=0|40=2|44=212.45|54=2|55=AESGENER|58=New Sell AESGENER 25350.0 @ 212.45|59=0|60=20170804-13:39:55.897|63=3|100=XSGO|150=0|151=25350|207=XSGO|453=2|448=LVPOOL|447=D|452=1|448=666|447=D|452=7|10=223|
20170804-13:40:16: 8=FIX.4.4|9=403|35=8|34=84|49=ORDERROUTER|52=20170804-13:40:16.644|56=TOMADOR_DE_ORDENES|57=aibarra@100@0068|1=58232858-00|6=212.45|11=658210311134b112|14=25350|17=ex1721643908|21=3|31=212.45|32=25350|37=5a68c2fa9c0348c2|38=25350|39=2|40=2|44=212.45|54=2|55=AESGENER|58=New Sell AESGENER 25350.0 @ 212.45|59=0|60=20170804-13:40:16.643|63=3|100=XSGO|150=F|151=0|207=XSGO|453=2|448=LVPOOL|447=D|452=1|448=666|447=D|452=7|10=167|
20170804-13:40:39: 8=FIX.4.4|9=285|35=D|34=64|49=TOMADOR_DE_ORDENES|50=jpott@0397@0109|52=20170804-13:40:39.885|56=ORDERROUTER|1=760106704-00|11=4dbf0383ee25be75|21=3|38=420|40=2|44=29569.87|54=1|55=CFILVCOR-A|59=0|60=20170804-13:40:39.870|63=1|100=XSGO|167=CFI|207=XSGO|453=2|448=LVPOOL|447=D|452=1|448=666|447=D|452=7|10=166|
20170804-13:40:39: 8=FIX.4.4|9=403|35=8|34=85|49=ORDERROUTER|52=20170804-13:40:39.943|56=TOMADOR_DE_ORDENES|57=jpott@0397@0109|1=760106704-00|6=0|11=4dbf0383ee25be75|14=0|17=-673bd727beeb194|21=3|31=0|32=0|37=-58ab789e97d8bba8|38=420|39=A|40=2|44=29569.87|54=1|55=CFILVCOR-A|58=New Buy CFILVCOR-A 420.0 @ 29569.87|59=0|60=20170804-13:40:39.942|63=1|100=XSGO|150=A|151=420|167=CFI|207=XSGO|453=2|448=LVPOOL|447=D|452=1|448=666|447=D|452=7|10=233|
20170804-13:40:48: 8=FIX.4.4|9=274|35=D|34=65|49=TOMADOR_DE_ORDENES|50=aibarra@100@0068|52=20170804-13:40:48.840|56=ORDERROUTER|1=58232858-00|11=2958a1d6ffa6bce8|21=3|38=30000|40=2|44=212.6|54=2|55=AESGENER|59=0|60=20170804-13:40:48.824|63=3|100=XSGO|207=XSGO|453=2|448=LVPOOL|447=D|452=1|448=666|447=D|452=7|10=146|
20170804-13:40:48: 8=FIX.4.4|9=393|35=8|34=86|49=ORDERROUTER|52=20170804-13:40:48.899|56=TOMADOR_DE_ORDENES|57=aibarra@100@0068|1=58232858-00|6=0|11=2958a1d6ffa6bce8|14=0|17=-579f9a89eea9b71e|21=3|31=0|32=0|37=-4817777e30a4b4e4|38=30000|39=A|40=2|44=212.6|54=2|55=AESGENER|58=New Sell AESGENER 30000.0 @ 212.6|59=0|60=20170804-13:40:48.899|63=3|100=XSGO|150=A|151=30000|207=XSGO|453=2|448=LVPOOL|447=D|452=1|448=666|447=D|452=7|10=191|
20170804-13:41:04: 8=FIX.4.4|9=275|35=D|34=66|49=TOMADOR_DE_ORDENES|50=mcruz@0959@0025|52=20170804-13:41:04.799|56=ORDERROUTER|1=832059005-00|11=2832d065393a479e|21=3|38=54221066|40=2|44=0.03|54=2|55=ESVAL-C|59=0|60=20170804-13:41:04.783|63=3|100=XSGO|207=XSGO|453=2|448=LVPOOL|447=D|452=1|448=666|447=D|452=7|10=122|
20170804-13:41:04: 8=FIX.4.4|9=398|35=8|34=87|49=ORDERROUTER|52=20170804-13:41:04.868|56=TOMADOR_DE_ORDENES|57=mcruz@0959@0025|1=832059005-00|6=0|11=2832d065393a479e|14=0|17=64f01c14168e4339|21=3|31=0|32=0|37=-71f6e3e612a1bfc8|38=54221066|39=A|40=2|44=0.03|54=2|55=ESVAL-C|58=New Sell ESVAL-C 5.4221066E7 @ 0.03|59=0|60=20170804-13:41:04.868|63=3|100=XSGO|150=A|151=54221066|207=XSGO|453=2|448=LVPOOL|447=D|452=1|448=666|447=D|452=7|10=025|
20170804-13:41:06: 8=FIX.4.4|9=273|35=D|34=67|49=TOMADOR_DE_ORDENES|50=mofuentes@0652@0652|52=20170804-13:41:06.406|56=ORDERROUTER|1=774621806-00|11=6a110b384bc8bf60|21=3|38=5155|40=2|44=7140|54=2|55=ENTEL|59=0|60=20170804-13:41:06.390|63=3|100=XSGO|207=XSGO|453=2|448=LVPOOL|447=D|452=1|448=666|447=D|452=7|10=094|
20170804-13:41:06: 8=FIX.4.4|9=387|35=8|34=88|49=ORDERROUTER|52=20170804-13:41:06.470|56=TOMADOR_DE_ORDENES|57=mofuentes@0652@0652|1=774621806-00|6=0|11=6a110b384bc8bf60|14=0|17=4fd14e9198594eff|21=3|31=0|32=0|37=-66e855c84383be77|38=5155|39=A|40=2|44=7140|54=2|55=ENTEL|58=New Sell ENTEL 5155.0 @ 7140.0|59=0|60=20170804-13:41:06.469|63=3|100=XSGO|150=A|151=5155|207=XSGO|453=2|448=LVPOOL|447=D|452=1|448=666|447=D|452=7|10=070|
20170804-13:41:17: 8=FIX.4.4|9=401|35=8|34=89|49=ORDERROUTER|52=20170804-13:41:17.826|56=TOMADOR_DE_ORDENES|57=jpott@0397@0418|1=63777579-00|6=0|11=7971aa3ef0674826|14=0|17=4adcd95fdf4f4faa|21=3|31=0|32=0|37=-6318d4f66ba4b013|38=420|39=0|40=2|44=29569.7|54=2|55=CFILVCOR-A|58=New Sell CFILVCOR-A 420.0 @ 29569.7|59=0|60=20170804-13:41:17.826|63=1|100=XSGO|150=0|151=420|167=CFI|207=XSGO|453=2|448=LVPOOL|447=D|452=1|448=666|447=D|452=7|10=139|
20170804-13:41:21: 8=FIX.4.4|9=403|35=8|34=90|49=ORDERROUTER|52=20170804-13:41:21.398|56=TOMADOR_DE_ORDENES|57=jpott@0397@0109|1=760106704-00|6=0|11=4dbf0383ee25be75|14=0|17=231f05db7fd84e4b|21=3|31=0|32=0|37=-58ab789e97d8bba8|38=420|39=0|40=2|44=29569.87|54=1|55=CFILVCOR-A|58=New Buy CFILVCOR-A 420.0 @ 29569.87|59=0|60=20170804-13:41:21.398|63=1|100=XSGO|150=0|151=420|167=CFI|207=XSGO|453=2|448=LVPOOL|447=D|452=1|448=666|447=D|452=7|10=236|
20170804-13:41:33: 8=FIX.4.4|9=411|35=8|34=91|49=ORDERROUTER|52=20170804-13:41:33.424|56=TOMADOR_DE_ORDENES|57=jpott@0397@0418|1=63777579-00|6=29569.7|11=7971aa3ef0674826|14=420|17=ex1721644371|21=3|31=29569.7|32=420|37=-6318d4f66ba4b013|38=420|39=2|40=2|44=29569.7|54=2|55=CFILVCOR-A|58=New Sell CFILVCOR-A 420.0 @ 29569.7|59=0|60=20170804-13:41:33.424|63=1|100=XSGO|150=F|151=0|167=CFI|207=XSGO|453=2|448=LVPOOL|447=D|452=1|448=666|447=D|452=7|10=008|
20170804-13:41:33: 8=FIX.4.4|9=413|35=8|34=92|49=ORDERROUTER|52=20170804-13:41:33.452|56=TOMADOR_DE_ORDENES|57=jpott@0397@0109|1=760106704-00|6=29569.7|11=4dbf0383ee25be75|14=420|17=ex1721644372|21=3|31=29569.7|32=420|37=-58ab789e97d8bba8|38=420|39=2|40=2|44=29569.87|54=1|55=CFILVCOR-A|58=New Buy CFILVCOR-A 420.0 @ 29569.87|59=0|60=20170804-13:41:33.452|63=1|100=XSGO|150=F|151=0|167=CFI|207=XSGO|453=2|448=LVPOOL|447=D|452=1|448=666|447=D|452=7|10=060|
20170804-13:41:36: 8=FIX.4.4|9=393|35=8|34=93|49=ORDERROUTER|52=20170804-13:41:36.216|56=TOMADOR_DE_ORDENES|57=aibarra@100@0068|1=58232858-00|6=0|11=2958a1d6ffa6bce8|14=0|17=-7e908f856eb2b157|21=3|31=0|32=0|37=-4817777e30a4b4e4|38=30000|39=0|40=2|44=212.6|54=2|55=AESGENER|58=New Sell AESGENER 30000.0 @ 212.6|59=0|60=20170804-13:41:36.215|63=3|100=XSGO|150=0|151=30000|207=XSGO|453=2|448=LVPOOL|447=D|452=1|448=666|447=D|452=7|10=009|
20170804-13:42:06: 8=FIX.4.4|9=73|35=0|34=68|49=TOMADOR_DE_ORDENES|52=20170804-13:42:06.451|56=ORDERROUTER|10=221|
20170804-13:42:06: 8=FIX.4.4|9=399|35=8|34=94|49=ORDERROUTER|52=20170804-13:42:06.722|56=TOMADOR_DE_ORDENES|57=mcruz@0959@0025|1=832059005-00|6=0|11=2832d065393a479e|14=0|17=-2156037f10c2bdcc|21=3|31=0|32=0|37=-71f6e3e612a1bfc8|38=54221066|39=0|40=2|44=0.03|54=2|55=ESVAL-C|58=New Sell ESVAL-C 5.4221066E7 @ 0.03|59=0|60=20170804-13:42:06.721|63=3|100=XSGO|150=0|151=54221066|207=XSGO|453=2|448=LVPOOL|447=D|452=1|448=666|447=D|452=7|10=146|
20170804-13:43:06: 8=FIX.4.4|9=73|35=0|34=69|49=TOMADOR_DE_ORDENES|52=20170804-13:43:06.465|56=ORDERROUTER|10=228|
20170804-13:43:07: 8=FIX.4.4|9=73|35=0|34=95|49=ORDERROUTER|52=20170804-13:43:07.143|56=TOMADOR_DE_ORDENES|10=221|
20170804-13:44:07: 8=FIX.4.4|9=73|35=0|34=70|49=TOMADOR_DE_ORDENES|52=20170804-13:44:07.461|56=ORDERROUTER|10=218|
20170804-13:44:07: 8=FIX.4.4|9=73|35=0|34=96|49=ORDERROUTER|52=20170804-13:44:07.514|56=TOMADOR_DE_ORDENES|10=225|
20170804-13:45:08: 8=FIX.4.4|9=73|35=0|34=97|49=ORDERROUTER|52=20170804-13:45:08.142|56=TOMADOR_DE_ORDENES|10=225|
20170804-13:45:08: 8=FIX.4.4|9=73|35=0|34=71|49=TOMADOR_DE_ORDENES|52=20170804-13:45:08.084|56=ORDERROUTER|10=222|
20170804-13:45:35: 8=FIX.4.4|9=281|35=D|34=72|49=TOMADOR_DE_ORDENES|50=jpott@0397@0418|52=20170804-13:45:35.337|56=ORDERROUTER|1=63777579-00|11=63b067490d2d46d6|21=3|38=420|40=2|44=29720|54=2|55=CFILVCOR-A|59=0|60=20170804-13:45:35.322|63=1|100=XSGO|167=CFI|207=XSGO|453=2|448=LVPOOL|447=D|452=1|448=666|447=D|452=7|10=068|
20170804-13:45:35: 8=FIX.4.4|9=397|35=8|34=98|49=ORDERROUTER|52=20170804-13:45:35.399|56=TOMADOR_DE_ORDENES|57=jpott@0397@0418|1=63777579-00|6=0|11=63b067490d2d46d6|14=0|17=d57b70c7977423d|21=3|31=0|32=0|37=7748cbaeec2b4610|38=420|39=A|40=2|44=29720|54=2|55=CFILVCOR-A|58=New Sell CFILVCOR-A 420.0 @ 29720.0|59=0|60=20170804-13:45:35.399|63=1|100=XSGO|150=A|151=420|167=CFI|207=XSGO|453=2|448=LVPOOL|447=D|452=1|448=666|447=D|452=7|10=254|
20170804-13:46:05: 8=FIX.4.4|9=387|35=8|34=99|49=ORDERROUTER|52=20170804-13:46:05.511|56=TOMADOR_DE_ORDENES|57=mofuentes@0652@0652|1=774621806-00|6=0|11=6a110b384bc8bf60|14=0|17=-23e075cda1dbc7b|21=3|31=0|32=0|37=-66e855c84383be77|38=5155|39=0|40=2|44=7140|54=2|55=ENTEL|58=New Sell ENTEL 5155.0 @ 7140.0|59=0|60=20170804-13:46:05.510|63=3|100=XSGO|150=0|151=5155|207=XSGO|453=2|448=LVPOOL|447=D|452=1|448=666|447=D|452=7|10=085|
20170804-13:46:35: 8=FIX.4.4|9=73|35=0|34=73|49=TOMADOR_DE_ORDENES|52=20170804-13:46:35.461|56=ORDERROUTER|10=224|
20170804-13:46:36: 8=FIX.4.4|9=281|35=D|34=74|49=TOMADOR_DE_ORDENES|50=jpott@0397@0109|52=20170804-13:46:36.724|56=ORDERROUTER|1=760106704-00|11=eeeb2074747b675|21=3|38=420|40=2|44=29720|54=1|55=CFILVCOR-A|59=0|60=20170804-13:46:36.724|63=1|100=XSGO|167=CFI|207=XSGO|453=2|448=LVPOOL|447=D|452=1|448=666|447=D|452=7|10=105|
20170804-13:46:36: 8=FIX.4.4|9=399|35=8|34=100|49=ORDERROUTER|52=20170804-13:46:36.796|56=TOMADOR_DE_ORDENES|57=jpott@0397@0109|1=760106704-00|6=0|11=eeeb2074747b675|14=0|17=7175e796ef234edb|21=3|31=0|32=0|37=-589d32074865b163|38=420|39=A|40=2|44=29720|54=1|55=CFILVCOR-A|58=New Buy CFILVCOR-A 420.0 @ 29720.0|59=0|60=20170804-13:46:36.795|63=1|100=XSGO|150=A|151=420|167=CFI|207=XSGO|453=2|448=LVPOOL|447=D|452=1|448=666|447=D|452=7|10=191|
20170804-13:46:45: 8=FIX.4.4|9=399|35=8|34=101|49=ORDERROUTER|52=20170804-13:46:45.507|56=TOMADOR_DE_ORDENES|57=jpott@0397@0418|1=63777579-00|6=0|11=63b067490d2d46d6|14=0|17=7ffcf9890a9249fc|21=3|31=0|32=0|37=7748cbaeec2b4610|38=420|39=0|40=2|44=29720|54=2|55=CFILVCOR-A|58=New Sell CFILVCOR-A 420.0 @ 29720.0|59=0|60=20170804-13:46:45.506|63=1|100=XSGO|150=0|151=420|167=CFI|207=XSGO|453=2|448=LVPOOL|447=D|452=1|448=666|447=D|452=7|10=193|
20170804-13:46:48: 8=FIX.4.4|9=399|35=8|34=102|49=ORDERROUTER|52=20170804-13:46:49.031|56=TOMADOR_DE_ORDENES|57=jpott@0397@0109|1=760106704-00|6=0|11=eeeb2074747b675|14=0|17=5b198634f3d94531|21=3|31=0|32=0|37=-589d32074865b163|38=420|39=0|40=2|44=29720|54=1|55=CFILVCOR-A|58=New Buy CFILVCOR-A 420.0 @ 29720.0|59=0|60=20170804-13:46:49.030|63=1|100=XSGO|150=0|151=420|167=CFI|207=XSGO|453=2|448=LVPOOL|447=D|452=1|448=666|447=D|452=7|10=238|
20170804-13:47:02: 8=FIX.4.4|9=405|35=8|34=103|49=ORDERROUTER|52=20170804-13:47:02.562|56=TOMADOR_DE_ORDENES|57=jpott@0397@0418|1=63777579-00|6=29720|11=63b067490d2d46d6|14=420|17=ex1721647169|21=3|31=29720|32=420|37=7748cbaeec2b4610|38=420|39=2|40=2|44=29720|54=2|55=CFILVCOR-A|58=New Sell CFILVCOR-A 420.0 @ 29720.0|59=0|60=20170804-13:47:02.561|63=1|100=XSGO|150=F|151=0|167=CFI|207=XSGO|453=2|448=LVPOOL|447=D|452=1|448=666|447=D|452=7|10=020|
20170804-13:47:02: 8=FIX.4.4|9=405|35=8|34=104|49=ORDERROUTER|52=20170804-13:47:02.568|56=TOMADOR_DE_ORDENES|57=jpott@0397@0109|1=760106704-00|6=29720|11=eeeb2074747b675|14=420|17=ex1721647170|21=3|31=29720|32=420|37=-589d32074865b163|38=420|39=2|40=2|44=29720|54=1|55=CFILVCOR-A|58=New Buy CFILVCOR-A 420.0 @ 29720.0|59=0|60=20170804-13:47:02.568|63=1|100=XSGO|150=F|151=0|167=CFI|207=XSGO|453=2|448=LVPOOL|447=D|452=1|448=666|447=D|452=7|10=029|
20170804-13:47:37: 8=FIX.4.4|9=73|35=0|34=75|49=TOMADOR_DE_ORDENES|52=20170804-13:47:37.456|56=ORDERROUTER|10=233|
20170804-13:48:03: 8=FIX.4.4|9=74|35=0|34=105|49=ORDERROUTER|52=20170804-13:48:03.141|56=TOMADOR_DE_ORDENES|10=005|
20170804-13:48:18: 8=FIX.4.4|9=271|35=D|34=76|49=TOMADOR_DE_ORDENES|50=jesilva@1058@0107|52=20170804-13:48:18.359|56=ORDERROUTER|1=41993316-01|11=61dbaac506c2b0c2|21=3|38=286101|40=2|44=45|54=2|55=CAMPOS|59=0|60=20170804-13:48:18.328|63=3|100=XSGO|207=XSGO|453=2|448=LVPOOL|447=D|452=1|448=666|447=D|452=7|10=246|
20170804-13:48:18: 8=FIX.4.4|9=390|35=8|34=106|49=ORDERROUTER|52=20170804-13:48:18.420|56=TOMADOR_DE_ORDENES|57=jesilva@1058@0107|1=41993316-01|6=0|11=61dbaac506c2b0c2|14=0|17=-4db718a53d92b8ad|21=3|31=0|32=0|37=-3c2e49ea6325bebf|38=286101|39=A|40=2|44=45|54=2|55=CAMPOS|58=New Sell CAMPOS 286101.0 @ 45.0|59=0|60=20170804-13:48:18.419|63=3|100=XSGO|150=A|151=286101|207=XSGO|453=2|448=LVPOOL|447=D|452=1|448=666|447=D|452=7|10=141|
20170804-13:49:18: 8=FIX.4.4|9=73|35=0|34=77|49=TOMADOR_DE_ORDENES|52=20170804-13:49:18.467|56=ORDERROUTER|10=238|
20170804-13:49:18: 8=FIX.4.4|9=74|35=0|34=107|49=ORDERROUTER|52=20170804-13:49:18.526|56=TOMADOR_DE_ORDENES|10=021|
20170804-13:49:30: 8=FIX.4.4|9=270|35=D|34=78|49=TOMADOR_DE_ORDENES|50=mofuentes@0652@0652|52=20170804-13:49:30.916|56=ORDERROUTER|1=26345111-00|11=5547ec4f709cb2f6|21=3|38=1000|40=2|44=7835|54=2|55=LTM|59=0|60=20170804-13:49:30.916|63=3|100=XSGO|207=XSGO|453=2|448=LVPOOL|447=D|452=1|448=666|447=D|452=7|10=181|
20170804-13:49:30: 8=FIX.4.4|9=384|35=8|34=108|49=ORDERROUTER|52=20170804-13:49:30.982|56=TOMADOR_DE_ORDENES|57=mofuentes@0652@0652|1=26345111-00|6=0|11=5547ec4f709cb2f6|14=0|17=-76bcd827da57bb3a|21=3|31=0|32=0|37=-268eb47a9178be26|38=1000|39=A|40=2|44=7835|54=2|55=LTM|58=New Sell LTM 1000.0 @ 7835.0|59=0|60=20170804-13:49:30.981|63=3|100=XSGO|150=A|151=1000|207=XSGO|453=2|448=LVPOOL|447=D|452=1|448=666|447=D|452=7|10=192|
20170804-13:49:38: 8=FIX.4.4|9=383|35=8|34=109|49=ORDERROUTER|52=20170804-13:49:38.273|56=TOMADOR_DE_ORDENES|57=mofuentes@0652@0652|1=26345111-00|6=0|11=5547ec4f709cb2f6|14=0|17=4dcd753fae3143e4|21=3|31=0|32=0|37=-268eb47a9178be26|38=1000|39=0|40=2|44=7835|54=2|55=LTM|58=New Sell LTM 1000.0 @ 7835.0|59=0|60=20170804-13:49:38.272|63=3|100=XSGO|150=0|151=1000|207=XSGO|453=2|448=LVPOOL|447=D|452=1|448=666|447=D|452=7|10=065|
20170804-13:49:59: 8=FIX.4.4|9=277|35=D|34=79|49=TOMADOR_DE_ORDENES|50=jcardemil@0258@0258|52=20170804-13:49:59.308|56=ORDERROUTER|1=799903008-00|11=3b0c70f2e30eb72e|21=3|38=10000|40=2|44=1180|54=1|55=FOSFOROS|59=0|60=20170804-13:49:59.308|63=3|100=XSGO|207=XSGO|453=2|448=LVPOOL|447=D|452=1|448=666|447=D|452=7|10=168|
20170804-13:49:59: 8=FIX.4.4|9=397|35=8|34=110|49=ORDERROUTER|52=20170804-13:49:59.381|56=TOMADOR_DE_ORDENES|57=jcardemil@0258@0258|1=799903008-00|6=0|11=3b0c70f2e30eb72e|14=0|17=-3ebc71088672b1f0|21=3|31=0|32=0|37=-49d4feaeaa71b716|38=10000|39=A|40=2|44=1180|54=1|55=FOSFOROS|58=New Buy FOSFOROS 10000.0 @ 1180.0|59=0|60=20170804-13:49:59.380|63=3|100=XSGO|150=A|151=10000|207=XSGO|453=2|448=LVPOOL|447=D|452=1|448=666|447=D|452=7|10=013|
20170804-13:50:15: 8=FIX.4.4|9=402|35=8|34=111|49=ORDERROUTER|52=20170804-13:50:15.668|56=TOMADOR_DE_ORDENES|57=aibarra@100@0068|1=58232858-00|6=212.6|11=2958a1d6ffa6bce8|14=30000|17=ex17216410252|21=3|31=212.6|32=30000|37=-4817777e30a4b4e4|38=30000|39=2|40=2|44=212.6|54=2|55=AESGENER|58=New Sell AESGENER 30000.0 @ 212.6|59=0|60=20170804-13:50:15.667|63=3|100=XSGO|150=F|151=0|207=XSGO|453=2|448=LVPOOL|447=D|452=1|448=666|447=D|452=7|10=069|
20170804-13:50:38: 8=FIX.4.4|9=282|35=D|34=80|49=TOMADOR_DE_ORDENES|50=mofuentes@0652@0652|52=20170804-13:50:38.200|56=ORDERROUTER|1=63758663-00|11=4277686fce654e07|21=3|38=8|40=2|44=95000|54=2|55=PLATA 10*|59=0|60=20170804-13:50:38.200|63=1|100=XSGO|167=MON|207=XSGO|453=2|448=LVPOOL|447=D|452=1|448=666|447=D|452=7|10=227|
20170804-13:50:38: 8=FIX.4.4|9=395|35=8|34=112|49=ORDERROUTER|52=20170804-13:50:38.277|56=TOMADOR_DE_ORDENES|57=mofuentes@0652@0652|1=63758663-00|6=0|11=4277686fce654e07|14=0|17=5f2bbeb843b049ba|21=3|31=0|32=0|37=5141e62fd8bc4bc2|38=8|39=A|40=2|44=95000|54=2|55=PLATA 10*|58=New Sell PLATA 10* 8.0 @ 95000.0|59=0|60=20170804-13:50:38.276|63=1|100=XSGO|150=A|151=8|167=MON|207=XSGO|453=2|448=LVPOOL|447=D|452=1|448=666|447=D|452=7|10=056|
20170804-13:51:00: 8=FIX.4.4|9=390|35=8|34=113|49=ORDERROUTER|52=20170804-13:51:00.271|56=TOMADOR_DE_ORDENES|57=jesilva@1058@0107|1=41993316-01|6=0|11=61dbaac506c2b0c2|14=0|17=-7791e339bab2b5c3|21=3|31=0|32=0|37=-3c2e49ea6325bebf|38=286101|39=0|40=2|44=45|54=2|55=CAMPOS|58=New Sell CAMPOS 286101.0 @ 45.0|59=0|60=20170804-13:51:00.270|63=3|100=XSGO|150=0|151=286101|207=XSGO|453=2|448=LVPOOL|447=D|452=1|448=666|447=D|452=7|10=025|
20170804-13:51:06: 8=FIX.4.4|9=276|35=D|34=81|49=TOMADOR_DE_ORDENES|50=surarte@1237@0965|52=20170804-13:51:06.467|56=ORDERROUTER|1=142713861-83|11=6b6b92895e2ab9e4|21=1|38=26|40=2|44=8940.1|54=1|55=ANTARCHILE|59=0|60=20170804-13:51:06.452|63=3|100=XSGO|207=XSGO|453=2|448=LVPOOL|447=D|452=1|448=666|447=D|452=7|10=023|
20170804-13:51:06: 8=FIX.4.4|9=392|35=8|34=114|49=ORDERROUTER|52=20170804-13:51:06.541|56=TOMADOR_DE_ORDENES|57=surarte@1237@0965|1=142713861-83|6=0|11=6b6b92895e2ab9e4|14=0|17=-3db47a13d44bb313|21=1|31=0|32=0|37=-3dd8cb19ace9bd04|38=26|39=A|40=2|44=8940.1|54=1|55=ANTARCHILE|58=New Buy ANTARCHILE 26.0 @ 8940.1|59=0|60=20170804-13:51:06.540|63=3|100=XSGO|150=A|151=26|207=XSGO|453=2|448=LVPOOL|447=D|452=1|448=666|447=D|452=7|10=046|
20170804-13:51:06: 8=FIX.4.4|9=388|35=8|34=115|49=ORDERROUTER|52=20170804-13:51:06.568|56=TOMADOR_DE_ORDENES|57=surarte@1237@0965|1=142713861-83|6=0|11=6b6b92895e2ab9e4|14=0|17=ex17216410719|21=1|31=0|32=0|37=-3dd8cb19ace9bd04|38=26|39=0|40=2|44=8940.1|54=1|55=ANTARCHILE|58=New Buy ANTARCHILE 26.0 @ 8940.1|59=0|60=20170804-13:51:06.567|63=3|100=XSGO|150=0|151=26|207=XSGO|453=2|448=LVPOOL|447=D|452=1|448=666|447=D|452=7|10=187|
20170804-13:51:15: 8=FIX.4.4|9=396|35=8|34=116|49=ORDERROUTER|52=20170804-13:51:15.129|56=TOMADOR_DE_ORDENES|57=jcardemil@0258@0258|1=799903008-00|6=0|11=3b0c70f2e30eb72e|14=0|17=-2c24099a55eb3f6|21=3|31=0|32=0|37=-49d4feaeaa71b716|38=10000|39=0|40=2|44=1180|54=1|55=FOSFOROS|58=New Buy FOSFOROS 10000.0 @ 1180.0|59=0|60=20170804-13:51:15.129|63=3|100=XSGO|150=0|151=10000|207=XSGO|453=2|448=LVPOOL|447=D|452=1|448=666|447=D|452=7|10=164|
20170804-13:51:19: 8=FIX.4.4|9=396|35=8|34=117|49=ORDERROUTER|52=20170804-13:51:19.348|56=TOMADOR_DE_ORDENES|57=mofuentes@0652@0652|1=63758663-00|6=0|11=4277686fce654e07|14=0|17=-7f75c56157a0b5eb|21=3|31=0|32=0|37=5141e62fd8bc4bc2|38=8|39=0|40=2|44=95000|54=2|55=PLATA 10*|58=New Sell PLATA 10* 8.0 @ 95000.0|59=0|60=20170804-13:51:19.348|63=1|100=XSGO|150=0|151=8|167=MON|207=XSGO|453=2|448=LVPOOL|447=D|452=1|448=666|447=D|452=7|10=242|
20170804-13:52:07: 8=FIX.4.4|9=73|35=0|34=82|49=TOMADOR_DE_ORDENES|52=20170804-13:52:07.464|56=ORDERROUTER|10=223|
20170804-13:52:20: 8=FIX.4.4|9=74|35=0|34=118|49=ORDERROUTER|52=20170804-13:52:20.142|56=TOMADOR_DE_ORDENES|10=004|
20170804-13:53:08: 8=FIX.4.4|9=73|35=0|34=83|49=TOMADOR_DE_ORDENES|52=20170804-13:53:08.461|56=ORDERROUTER|10=223|
20170804-13:53:20: 8=FIX.4.4|9=74|35=0|34=119|49=ORDERROUTER|52=20170804-13:53:20.142|56=TOMADOR_DE_ORDENES|10=006|
20170804-13:54:09: 8=FIX.4.4|9=73|35=0|34=84|49=TOMADOR_DE_ORDENES|52=20170804-13:54:09.458|56=ORDERROUTER|10=232|
20170804-13:54:20: 8=FIX.4.4|9=74|35=0|34=120|49=ORDERROUTER|52=20170804-13:54:20.142|56=TOMADOR_DE_ORDENES|10=255|
20170804-13:55:09: 8=FIX.4.4|9=73|35=0|34=85|49=TOMADOR_DE_ORDENES|52=20170804-13:55:09.472|56=ORDERROUTER|10=230|
20170804-13:55:20: 8=FIX.4.4|9=74|35=0|34=121|49=ORDERROUTER|52=20170804-13:55:20.142|56=TOMADOR_DE_ORDENES|10=001|
20170804-13:55:25: 8=FIX.4.4|9=275|35=D|34=86|49=TOMADOR_DE_ORDENES|50=mofuentes@0652@0652|52=20170804-13:55:25.711|56=ORDERROUTER|1=22295985-00|11=71eab84e2d9cb85a|21=3|38=3|40=2|44=173000|54=2|55=COUNTRY-A|59=0|60=20170804-13:55:25.696|63=3|100=XSGO|207=XSGO|453=2|448=LVPOOL|447=D|452=1|448=666|447=D|452=7|10=160|
20170804-13:55:25: 8=FIX.4.4|9=390|35=8|34=122|49=ORDERROUTER|52=20170804-13:55:25.775|56=TOMADOR_DE_ORDENES|57=mofuentes@0652@0652|1=22295985-00|6=0|11=71eab84e2d9cb85a|14=0|17=-4be5ad0c8316b55b|21=3|31=0|32=0|37=7f5cc18f829c4322|38=3|39=A|40=2|44=173000|54=2|55=COUNTRY-A|58=New Sell COUNTRY-A 3.0 @ 173000.0|59=0|60=20170804-13:55:25.775|63=3|100=XSGO|150=A|151=3|207=XSGO|453=2|448=LVPOOL|447=D|452=1|448=666|447=D|452=7|10=040|
20170804-13:55:31: 8=FIX.4.4|9=272|35=D|34=87|49=TOMADOR_DE_ORDENES|50=aibarra@100@0068|52=20170804-13:55:31.967|56=ORDERROUTER|1=58232858-00|11=238322f037cbb626|21=3|38=30000|40=2|44=216|54=2|55=AESGENER|59=0|60=20170804-13:55:31.967|63=3|100=XSGO|207=XSGO|453=2|448=LVPOOL|447=D|452=1|448=666|447=D|452=7|10=114|
20170804-13:55:31: 8=FIX.4.4|9=392|35=8|34=123|49=ORDERROUTER|52=20170804-13:55:32.039|56=TOMADOR_DE_ORDENES|57=aibarra@100@0068|1=58232858-00|6=0|11=238322f037cbb626|14=0|17=-6261978fc7febf5b|21=3|31=0|32=0|37=-6aa3a32d78fbbbf9|38=30000|39=A|40=2|44=216|54=2|55=AESGENER|58=New Sell AESGENER 30000.0 @ 216.0|59=0|60=20170804-13:55:32.038|63=3|100=XSGO|150=A|151=30000|207=XSGO|453=2|448=LVPOOL|447=D|452=1|448=666|447=D|452=7|10=119|
20170804-13:55:45: 8=FIX.4.4|9=275|35=D|34=88|49=TOMADOR_DE_ORDENES|50=mofuentes@0652@0652|52=20170804-13:55:45.134|56=ORDERROUTER|1=88202953-00|11=4491a32b901ab5d7|21=3|38=4|40=2|44=173000|54=2|55=COUNTRY-A|59=0|60=20170804-13:55:45.118|63=3|100=XSGO|207=XSGO|453=2|448=LVPOOL|447=D|452=1|448=666|447=D|452=7|10=250|
20170804-13:55:45: 8=FIX.4.4|9=391|35=8|34=124|49=ORDERROUTER|52=20170804-13:55:45.200|56=TOMADOR_DE_ORDENES|57=mofuentes@0652@0652|1=88202953-00|6=0|11=4491a32b901ab5d7|14=0|17=-281fbacf5443bbb3|21=3|31=0|32=0|37=-1f744f6bdf5db333|38=4|39=A|40=2|44=173000|54=2|55=COUNTRY-A|58=New Sell COUNTRY-A 4.0 @ 173000.0|59=0|60=20170804-13:55:45.199|63=3|100=XSGO|150=A|151=4|207=XSGO|453=2|448=LVPOOL|447=D|452=1|448=666|447=D|452=7|10=053|
20170804-13:55:50: 8=FIX.4.4|9=392|35=8|34=125|49=ORDERROUTER|52=20170804-13:55:50.733|56=TOMADOR_DE_ORDENES|57=aibarra@100@0068|1=58232858-00|6=0|11=238322f037cbb626|14=0|17=-1c5a79182439b2af|21=3|31=0|32=0|37=-6aa3a32d78fbbbf9|38=30000|39=0|40=2|44=216|54=2|55=AESGENER|58=New Sell AESGENER 30000.0 @ 216.0|59=0|60=20170804-13:55:50.733|63=3|100=XSGO|150=0|151=30000|207=XSGO|453=2|448=LVPOOL|447=D|452=1|448=666|447=D|452=7|10=233|
20170804-13:56:08: 8=FIX.4.4|9=389|35=8|34=126|49=ORDERROUTER|52=20170804-13:56:08.920|56=TOMADOR_DE_ORDENES|57=mofuentes@0652@0652|1=22295985-00|6=0|11=71eab84e2d9cb85a|14=0|17=3591eaecdaa54647|21=3|31=0|32=0|37=7f5cc18f829c4322|38=3|39=0|40=2|44=173000|54=2|55=COUNTRY-A|58=New Sell COUNTRY-A 3.0 @ 173000.0|59=0|60=20170804-13:56:08.920|63=3|100=XSGO|150=0|151=3|207=XSGO|453=2|448=LVPOOL|447=D|452=1|448=666|447=D|452=7|10=225|
20170804-13:56:13: 8=FIX.4.4|9=275|35=D|34=89|49=TOMADOR_DE_ORDENES|50=mofuentes@0652@0652|52=20170804-13:56:13.510|56=ORDERROUTER|1=965025006-00|11=7c5c652ee91b223|21=3|38=1411|40=2|44=1600|54=2|55=TRICAHUE|59=0|60=20170804-13:56:13.510|63=3|100=XSGO|207=XSGO|453=2|448=LVPOOL|447=D|452=1|448=666|447=D|452=7|10=208|
20170804-13:56:13: 8=FIX.4.4|9=393|35=8|34=127|49=ORDERROUTER|52=20170804-13:56:13.581|56=TOMADOR_DE_ORDENES|57=mofuentes@0652@0652|1=965025006-00|6=0|11=7c5c652ee91b223|14=0|17=7bc198f0b1814d0f|21=3|31=0|32=0|37=-2f9a9a7ce46bbd35|38=1411|39=A|40=2|44=1600|54=2|55=TRICAHUE|58=New Sell TRICAHUE 1411.0 @ 1600.0|59=0|60=20170804-13:56:13.580|63=3|100=XSGO|150=A|151=1411|207=XSGO|453=2|448=LVPOOL|447=D|452=1|448=666|447=D|452=7|10=062|
20170804-13:56:15: 8=FIX.4.4|9=391|35=8|34=128|49=ORDERROUTER|52=20170804-13:56:15.722|56=TOMADOR_DE_ORDENES|57=mofuentes@0652@0652|1=88202953-00|6=0|11=4491a32b901ab5d7|14=0|17=-501340c7bf05b0ae|21=3|31=0|32=0|37=-1f744f6bdf5db333|38=4|39=0|40=2|44=173000|54=2|55=COUNTRY-A|58=New Sell COUNTRY-A 4.0 @ 173000.0|59=0|60=20170804-13:56:15.722|63=3|100=XSGO|150=0|151=4|207=XSGO|453=2|448=LVPOOL|447=D|452=1|448=666|447=D|452=7|10=170|
20170804-13:56:30: 8=FIX.4.4|9=398|35=8|34=129|49=ORDERROUTER|52=20170804-13:56:30.635|56=TOMADOR_DE_ORDENES|57=aibarra@100@0068|1=58232858-00|6=216|11=238322f037cbb626|14=8108|17=ex17216415750|21=3|31=216|32=8108|37=-6aa3a32d78fbbbf9|38=30000|39=1|40=2|44=216|54=2|55=AESGENER|58=New Sell AESGENER 30000.0 @ 216.0|59=0|60=20170804-13:56:30.634|63=3|100=XSGO|150=F|151=21892|207=XSGO|453=2|448=LVPOOL|447=D|452=1|448=666|447=D|452=7|10=231|
20170804-13:56:35: 8=FIX.4.4|9=399|35=8|34=130|49=ORDERROUTER|52=20170804-13:56:35.209|56=TOMADOR_DE_ORDENES|57=aibarra@100@0068|1=58232858-00|6=216|11=238322f037cbb626|14=16645|17=ex17216415812|21=3|31=216|32=8537|37=-6aa3a32d78fbbbf9|38=30000|39=1|40=2|44=216|54=2|55=AESGENER|58=New Sell AESGENER 30000.0 @ 216.0|59=0|60=20170804-13:56:35.207|63=3|100=XSGO|150=F|151=13355|207=XSGO|453=2|448=LVPOOL|447=D|452=1|448=666|447=D|452=7|10=024|
20170804-13:56:56: 8=FIX.4.4|9=275|35=D|34=90|49=TOMADOR_DE_ORDENES|50=gledesma@0032@0032|52=20170804-13:56:56.349|56=ORDERROUTER|1=103991064-84|11=46fa0e0a5514bf53|21=3|38=990|40=2|44=6050|54=1|55=FALABELLA|59=0|60=20170804-13:56:56.349|63=3|100=XSGO|207=XSGO|453=2|448=LVPOOL|447=D|452=1|448=666|447=D|452=7|10=169|
20170804-13:56:56: 8=FIX.4.4|9=391|35=8|34=131|49=ORDERROUTER|52=20170804-13:56:56.417|56=TOMADOR_DE_ORDENES|57=gledesma@0032@0032|1=103991064-84|6=0|11=46fa0e0a5514bf53|14=0|17=-5bf420c04d8bbe26|21=3|31=0|32=0|37=7daf39f25a35445d|38=990|39=A|40=2|44=6050|54=1|55=FALABELLA|58=New Buy FALABELLA 990.0 @ 6050.0|59=0|60=20170804-13:56:56.416|63=3|100=XSGO|150=A|151=990|207=XSGO|453=2|448=LVPOOL|447=D|452=1|448=666|447=D|452=7|10=066|
20170804-13:57:01: 8=FIX.4.4|9=275|35=D|34=91|49=TOMADOR_DE_ORDENES|50=mofuentes@0652@0652|52=20170804-13:57:01.575|56=ORDERROUTER|1=33167113-00|11=6e7f3f81b9f44efa|21=3|38=3395|40=2|44=1250|54=2|55=ENELDXCH|59=0|60=20170804-13:57:01.575|63=3|100=XSGO|207=XSGO|453=2|448=LVPOOL|447=D|452=1|448=666|447=D|452=7|10=122|
20170804-13:57:01: 8=FIX.4.4|9=394|35=8|34=132|49=ORDERROUTER|52=20170804-13:57:01.648|56=TOMADOR_DE_ORDENES|57=mofuentes@0652@0652|1=33167113-00|6=0|11=6e7f3f81b9f44efa|14=0|17=-118f51cf5146b173|21=3|31=0|32=0|37=-35496e314a21b7cd|38=3395|39=A|40=2|44=1250|54=2|55=ENELDXCH|58=New Sell ENELDXCH 3395.0 @ 1250.0|59=0|60=20170804-13:57:01.647|63=3|100=XSGO|150=A|151=3395|207=XSGO|453=2|448=LVPOOL|447=D|452=1|448=666|447=D|452=7|10=033|
20170804-13:57:05: 8=FIX.4.4|9=394|35=8|34=133|49=ORDERROUTER|52=20170804-13:57:05.656|56=TOMADOR_DE_ORDENES|57=mofuentes@0652@0652|1=965025006-00|6=0|11=7c5c652ee91b223|14=0|17=-3cb80d12580eb28d|21=3|31=0|32=0|37=-2f9a9a7ce46bbd35|38=1411|39=0|40=2|44=1600|54=2|55=TRICAHUE|58=New Sell TRICAHUE 1411.0 @ 1600.0|59=0|60=20170804-13:57:05.655|63=3|100=XSGO|150=0|151=1411|207=XSGO|453=2|448=LVPOOL|447=D|452=1|448=666|447=D|452=7|10=076|
20170804-13:57:27: 8=FIX.4.4|9=275|35=D|34=92|49=TOMADOR_DE_ORDENES|50=abecker@0104@0079|52=20170804-13:57:27.019|56=ORDERROUTER|1=86997819-00|11=6157c3ec093c440b|21=3|38=231707|40=2|44=82|54=1|55=NUEVAPOLAR|59=0|60=20170804-13:57:27.019|63=3|100=XSGO|207=XSGO|453=2|448=LVPOOL|447=D|452=1|448=666|447=D|452=7|10=157|
20170804-13:57:27: 8=FIX.4.4|9=395|35=8|34=134|49=ORDERROUTER|52=20170804-13:57:27.092|56=TOMADOR_DE_ORDENES|57=abecker@0104@0079|1=86997819-00|6=0|11=6157c3ec093c440b|14=0|17=6894941668640b6|21=3|31=0|32=0|37=-78c5d07e92a8bbc2|38=231707|39=A|40=2|44=82|54=1|55=NUEVAPOLAR|58=New Buy NUEVAPOLAR 231707.0 @ 82.0|59=0|60=20170804-13:57:27.092|63=3|100=XSGO|150=A|151=231707|207=XSGO|453=2|448=LVPOOL|447=D|452=1|448=666|447=D|452=7|10=137|
20170804-13:57:33: 8=FIX.4.4|9=394|35=8|34=135|49=ORDERROUTER|52=20170804-13:57:33.904|56=TOMADOR_DE_ORDENES|57=mofuentes@0652@0652|1=33167113-00|6=0|11=6e7f3f81b9f44efa|14=0|17=-3c30e345c230bbc4|21=3|31=0|32=0|37=-35496e314a21b7cd|38=3395|39=0|40=2|44=1250|54=2|55=ENELDXCH|58=New Sell ENELDXCH 3395.0 @ 1250.0|59=0|60=20170804-13:57:33.903|63=3|100=XSGO|150=0|151=3395|207=XSGO|453=2|448=LVPOOL|447=D|452=1|448=666|447=D|452=7|10=083|
20170804-13:57:39: 8=FIX.4.4|9=390|35=8|34=136|49=ORDERROUTER|52=20170804-13:57:39.857|56=TOMADOR_DE_ORDENES|57=gledesma@0032@0032|1=103991064-84|6=0|11=46fa0e0a5514bf53|14=0|17=-e514b89f3a5bcf6|21=3|31=0|32=0|37=7daf39f25a35445d|38=990|39=0|40=2|44=6050|54=1|55=FALABELLA|58=New Buy FALABELLA 990.0 @ 6050.0|59=0|60=20170804-13:57:39.856|63=3|100=XSGO|150=0|151=990|207=XSGO|453=2|448=LVPOOL|447=D|452=1|448=666|447=D|452=7|10=019|
20170804-13:57:40: 8=FIX.4.4|9=396|35=8|34=137|49=ORDERROUTER|52=20170804-13:57:40.178|56=TOMADOR_DE_ORDENES|57=abecker@0104@0079|1=86997819-00|6=0|11=6157c3ec093c440b|14=0|17=222e7357a7724875|21=3|31=0|32=0|37=-78c5d07e92a8bbc2|38=231707|39=0|40=2|44=82|54=1|55=NUEVAPOLAR|58=New Buy NUEVAPOLAR 231707.0 @ 82.0|59=0|60=20170804-13:57:40.177|63=3|100=XSGO|150=0|151=231707|207=XSGO|453=2|448=LVPOOL|447=D|452=1|448=666|447=D|452=7|10=197|
20170804-13:57:51: 8=FIX.4.4|9=276|35=D|34=93|49=TOMADOR_DE_ORDENES|50=gjorquer@1200@0061|52=20170804-13:57:51.573|56=ORDERROUTER|1=969461501-00|11=591c7a0e3ceabb85|21=3|38=7315|40=2|44=203|54=1|55=MULTIFOODS|59=0|60=20170804-13:57:51.573|63=3|100=XSGO|207=XSGO|453=2|448=LVPOOL|447=D|452=1|448=666|447=D|452=7|10=188|
20170804-13:57:51: 8=FIX.4.4|9=393|35=8|34=138|49=ORDERROUTER|52=20170804-13:57:51.652|56=TOMADOR_DE_ORDENES|57=gjorquer@1200@0061|1=969461501-00|6=0|11=591c7a0e3ceabb85|14=0|17=603588dce994063|21=3|31=0|32=0|37=-45997a06f65ebc58|38=7315|39=A|40=2|44=203|54=1|55=MULTIFOODS|58=New Buy MULTIFOODS 7315.0 @ 203.0|59=0|60=20170804-13:57:51.651|63=3|100=XSGO|150=A|151=7315|207=XSGO|453=2|448=LVPOOL|447=D|452=1|448=666|447=D|452=7|10=020|
20170804-13:58:43: 8=FIX.4.4|9=273|35=D|34=94|49=TOMADOR_DE_ORDENES|50=apalavecino@0476@0476|52=20170804-13:58:43.069|56=ORDERROUTER|1=77546855-00|11=2863296b7339bf75|21=1|38=105130|40=1|54=1|55=BSANTANDER|59=3|60=20170804-13:58:43.054|63=3|100=XSGO|207=XSGO|453=2|448=LVPOOL|447=D|452=1|448=666|447=D|452=7|10=217|
20170804-13:58:43: 8=FIX.4.4|9=397|35=8|34=139|49=ORDERROUTER|52=20170804-13:58:43.137|56=TOMADOR_DE_ORDENES|57=apalavecino@0476@0476|1=77546855-00|6=0|11=2863296b7339bf75|14=0|17=-1136e31838a8b630|21=1|31=0|32=0|37=-58888eec5b51bbd8|38=105130|39=A|40=1|54=1|55=BSANTANDER|58=New Buy BSANTANDER 105130.0 @ MARKET|59=3|60=20170804-13:58:43.137|63=3|100=XSGO|150=A|151=105130|207=XSGO|453=2|448=LVPOOL|447=D|452=1|448=666|447=D|452=7|10=073|
20170804-13:58:43: 8=FIX.4.4|9=393|35=8|34=140|49=ORDERROUTER|52=20170804-13:58:43.173|56=TOMADOR_DE_ORDENES|57=apalavecino@0476@0476|1=77546855-00|6=0|11=2863296b7339bf75|14=0|17=ex17216416950|21=1|31=0|32=0|37=-58888eec5b51bbd8|38=105130|39=0|40=1|54=1|55=BSANTANDER|58=New Buy BSANTANDER 105130.0 @ MARKET|59=3|60=20170804-13:58:43.172|63=3|100=XSGO|150=0|151=105130|207=XSGO|453=2|448=LVPOOL|447=D|452=1|448=666|447=D|452=7|10=057|
20170804-13:58:43: 8=FIX.4.4|9=411|35=8|34=141|49=ORDERROUTER|52=20170804-13:58:43.183|56=TOMADOR_DE_ORDENES|57=apalavecino@0476@0476|1=77546855-00|6=47.65|11=2863296b7339bf75|14=105130|17=ex17216416952|21=1|31=47.65|32=105130|37=-58888eec5b51bbd8|38=105130|39=2|40=1|44=0|54=1|55=BSANTANDER|58=New Buy BSANTANDER 105130.0 @ MARKET|59=3|60=20170804-13:58:43.182|63=3|100=XSGO|150=F|151=0|207=XSGO|453=2|448=LVPOOL|447=D|452=1|448=666|447=D|452=7|10=197|
20170804-13:59:03: 8=FIX.4.4|9=395|35=8|34=142|49=ORDERROUTER|52=20170804-13:59:04.010|56=TOMADOR_DE_ORDENES|57=gjorquer@1200@0061|1=969461501-00|6=0|11=591c7a0e3ceabb85|14=0|17=-7b9fa4f1bab9b27a|21=3|31=0|32=0|37=-45997a06f65ebc58|38=7315|39=0|40=2|44=203|54=1|55=MULTIFOODS|58=New Buy MULTIFOODS 7315.0 @ 203.0|59=0|60=20170804-13:59:04.009|63=3|100=XSGO|150=0|151=7315|207=XSGO|453=2|448=LVPOOL|447=D|452=1|448=666|447=D|452=7|10=082|
20170804-13:59:41: 8=FIX.4.4|9=276|35=D|34=95|49=TOMADOR_DE_ORDENES|50=gledesma@0032@0032|52=20170804-13:59:41.289|56=ORDERROUTER|1=103991064-00|11=372f5cddfb01b5cb|21=3|38=316000|40=2|44=70|54=2|55=ENELCHILE|59=0|60=20170804-13:59:41.274|63=3|100=XSGO|207=XSGO|453=2|448=LVPOOL|447=D|452=1|448=666|447=D|452=7|10=104|
20170804-13:59:41: 8=FIX.4.4|9=396|35=8|34=143|49=ORDERROUTER|52=20170804-13:59:41.356|56=TOMADOR_DE_ORDENES|57=gledesma@0032@0032|1=103991064-00|6=0|11=372f5cddfb01b5cb|14=0|17=4da71111050b426a|21=3|31=0|32=0|37=53a6c2f93de842f6|38=316000|39=A|40=2|44=70|54=2|55=ENELCHILE|58=New Sell ENELCHILE 316000.0 @ 70.0|59=0|60=20170804-13:59:41.355|63=3|100=XSGO|150=A|151=316000|207=XSGO|453=2|448=LVPOOL|447=D|452=1|448=666|447=D|452=7|10=096|
20170804-13:59:50: 8=FIX.4.4|9=398|35=8|34=144|49=ORDERROUTER|52=20170804-13:59:50.121|56=TOMADOR_DE_ORDENES|57=gjorquer@1200@0061|1=969461501-00|6=201|11=591c7a0e3ceabb85|14=7315|17=ex17216417401|21=3|31=201|32=7315|37=-45997a06f65ebc58|38=7315|39=2|40=2|44=203|54=1|55=MULTIFOODS|58=New Buy MULTIFOODS 7315.0 @ 203.0|59=0|60=20170804-13:59:50.120|63=3|100=XSGO|150=F|151=0|207=XSGO|453=2|448=LVPOOL|447=D|452=1|448=666|447=D|452=7|10=200|
20170804-14:00:20: 8=FIX.4.4|9=276|35=D|34=96|49=TOMADOR_DE_ORDENES|50=jvarleta@0216@0148|52=20170804-14:00:20.103|56=ORDERROUTER|1=120709984-00|11=2d3ee5d66d6f42c6|21=3|38=21108|40=2|44=1895|54=1|55=CENCOSUD|59=0|60=20170804-14:00:20.103|63=3|100=XSGO|207=XSGO|453=2|448=LVPOOL|447=D|452=1|448=666|447=D|452=7|10=023|
20170804-14:00:20: 8=FIX.4.4|9=394|35=8|34=145|49=ORDERROUTER|52=20170804-14:00:20.181|56=TOMADOR_DE_ORDENES|57=jvarleta@0216@0148|1=120709984-00|6=0|11=2d3ee5d66d6f42c6|14=0|17=6cda4601796c41d5|21=3|31=0|32=0|37=2233236f03384480|38=21108|39=A|40=2|44=1895|54=1|55=CENCOSUD|58=New Buy CENCOSUD 21108.0 @ 1895.0|59=0|60=20170804-14:00:20.180|63=3|100=XSGO|150=A|151=21108|207=XSGO|453=2|448=LVPOOL|447=D|452=1|448=666|447=D|452=7|10=229|
20170804-14:00:43: 8=FIX.4.4|9=272|35=D|34=97|49=TOMADOR_DE_ORDENES|50=apalavecino@0476@0476|52=20170804-14:00:43.597|56=ORDERROUTER|1=77546855-00|11=266f3f2c70f4b981|21=3|38=4500|40=2|44=1128|54=2|55=IAM|59=0|60=20170804-14:00:43.597|63=3|100=XSGO|207=XSGO|453=2|448=LVPOOL|447=D|452=1|448=666|447=D|452=7|10=051|
20170804-14:00:43: 8=FIX.4.4|9=385|35=8|34=146|49=ORDERROUTER|52=20170804-14:00:43.669|56=TOMADOR_DE_ORDENES|57=apalavecino@0476@0476|1=77546855-00|6=0|11=266f3f2c70f4b981|14=0|17=67179f108cf74d5b|21=3|31=0|32=0|37=-15e414d75cabb0ef|38=4500|39=A|40=2|44=1128|54=2|55=IAM|58=New Sell IAM 4500.0 @ 1128.0|59=0|60=20170804-14:00:43.668|63=3|100=XSGO|150=A|151=4500|207=XSGO|453=2|448=LVPOOL|447=D|452=1|448=666|447=D|452=7|10=242|
20170804-14:01:22: 8=FIX.4.4|9=394|35=8|34=147|49=ORDERROUTER|52=20170804-14:01:22.668|56=TOMADOR_DE_ORDENES|57=aguajardo@0569@0569|1=13028616K-00|6=2059|11=6c0a362545ba4f6b|14=2487|17=ex17216418709|21=3|31=2059|32=2487|37=-2685a1892a99b141|38=2487|39=2|40=2|44=2059|54=2|55=GASCO|58=New Sell GASCO 2487.0 @ 2059.0|59=0|60=20170804-14:01:22.667|63=3|100=XSGO|150=F|151=0|207=XSGO|453=2|448=LVPOOL|447=D|452=1|448=666|447=D|452=7|10=166|
20170804-14:01:24: 8=FIX.4.4|9=396|35=8|34=148|49=ORDERROUTER|52=20170804-14:01:24.614|56=TOMADOR_DE_ORDENES|57=gledesma@0032@0032|1=103991064-00|6=0|11=372f5cddfb01b5cb|14=0|17=4863f1b1a68c42c9|21=3|31=0|32=0|37=53a6c2f93de842f6|38=316000|39=0|40=2|44=70|54=2|55=ENELCHILE|58=New Sell ENELCHILE 316000.0 @ 70.0|59=0|60=20170804-14:01:24.614|63=3|100=XSGO|150=0|151=316000|207=XSGO|453=2|448=LVPOOL|447=D|452=1|448=666|447=D|452=7|10=115|
20170804-14:01:29: 8=FIX.4.4|9=403|35=8|34=149|49=ORDERROUTER|52=20170804-14:01:29.476|56=TOMADOR_DE_ORDENES|57=gledesma@0032@0032|1=103991064-00|6=70|11=372f5cddfb01b5cb|14=34881|17=ex17216418890|21=3|31=70|32=34881|37=53a6c2f93de842f6|38=316000|39=1|40=2|44=70|54=2|55=ENELCHILE|58=New Sell ENELCHILE 316000.0 @ 70.0|59=0|60=20170804-14:01:29.475|63=3|100=XSGO|150=F|151=281119|207=XSGO|453=2|448=LVPOOL|447=D|452=1|448=666|447=D|452=7|10=168|
20170804-14:01:29: 8=FIX.4.4|9=403|35=8|34=150|49=ORDERROUTER|52=20170804-14:01:29.485|56=TOMADOR_DE_ORDENES|57=gledesma@0032@0032|1=103991064-00|6=70|11=372f5cddfb01b5cb|14=63908|17=ex17216418892|21=3|31=70|32=29027|37=53a6c2f93de842f6|38=316000|39=1|40=2|44=70|54=2|55=ENELCHILE|58=New Sell ENELCHILE 316000.0 @ 70.0|59=0|60=20170804-14:01:29.485|63=3|100=XSGO|150=F|151=252092|207=XSGO|453=2|448=LVPOOL|447=D|452=1|448=666|447=D|452=7|10=159|
20170804-14:01:29: 8=FIX.4.4|9=404|35=8|34=151|49=ORDERROUTER|52=20170804-14:01:29.501|56=TOMADOR_DE_ORDENES|57=gledesma@0032@0032|1=103991064-00|6=70|11=372f5cddfb01b5cb|14=290811|17=ex17216418894|21=3|31=70|32=226903|37=53a6c2f93de842f6|38=316000|39=1|40=2|44=70|54=2|55=ENELCHILE|58=New Sell ENELCHILE 316000.0 @ 70.0|59=0|60=20170804-14:01:29.500|63=3|100=XSGO|150=F|151=25189|207=XSGO|453=2|448=LVPOOL|447=D|452=1|448=666|447=D|452=7|10=190|
20170804-14:01:29: 8=FIX.4.4|9=402|35=8|34=152|49=ORDERROUTER|52=20170804-14:01:29.511|56=TOMADOR_DE_ORDENES|57=gledesma@0032@0032|1=103991064-00|6=70|11=372f5cddfb01b5cb|14=314829|17=ex17216418896|21=3|31=70|32=24018|37=53a6c2f93de842f6|38=316000|39=1|40=2|44=70|54=2|55=ENELCHILE|58=New Sell ENELCHILE 316000.0 @ 70.0|59=0|60=20170804-14:01:29.511|63=3|100=XSGO|150=F|151=1171|207=XSGO|453=2|448=LVPOOL|447=D|452=1|448=666|447=D|452=7|10=082|
20170804-14:01:29: 8=FIX.4.4|9=398|35=8|34=153|49=ORDERROUTER|52=20170804-14:01:29.531|56=TOMADOR_DE_ORDENES|57=gledesma@0032@0032|1=103991064-00|6=70|11=372f5cddfb01b5cb|14=316000|17=ex17216418899|21=3|31=70|32=1171|37=53a6c2f93de842f6|38=316000|39=2|40=2|44=70|54=2|55=ENELCHILE|58=New Sell ENELCHILE 316000.0 @ 70.0|59=0|60=20170804-14:01:29.531|63=3|100=XSGO|150=F|151=0|207=XSGO|453=2|448=LVPOOL|447=D|452=1|448=666|447=D|452=7|10=137|
20170804-14:01:44: 8=FIX.4.4|9=73|35=0|34=98|49=TOMADOR_DE_ORDENES|52=20170804-14:01:44.469|56=ORDERROUTER|10=231|
20170804-14:01:59: 8=FIX.4.4|9=277|35=D|34=99|49=TOMADOR_DE_ORDENES|50=gledesma@0032@0032|52=20170804-14:01:59.741|56=ORDERROUTER|1=103991064-00|11=5f42665b06a644f6|21=3|38=168000|40=2|44=129.85|54=1|55=ENELAM|59=0|60=20170804-14:01:59.741|63=3|100=XSGO|207=XSGO|453=2|448=LVPOOL|447=D|452=1|448=666|447=D|452=7|10=122|
20170804-14:01:59: 8=FIX.4.4|9=396|35=8|34=154|49=ORDERROUTER|52=20170804-14:01:59.811|56=TOMADOR_DE_ORDENES|57=gledesma@0032@0032|1=103991064-00|6=0|11=5f42665b06a644f6|14=0|17=-23ad34b82becb2b8|21=3|31=0|32=0|37=17ba36ebe6544246|38=168000|39=A|40=2|44=129.85|54=1|55=ENELAM|58=New Buy ENELAM 168000.0 @ 129.85|59=0|60=20170804-14:01:59.810|63=3|100=XSGO|150=A|151=168000|207=XSGO|453=2|448=LVPOOL|447=D|452=1|448=666|447=D|452=7|10=116|
20170804-14:02:03: 8=FIX.4.4|9=395|35=8|34=155|49=ORDERROUTER|52=20170804-14:02:03.245|56=TOMADOR_DE_ORDENES|57=jvarleta@0216@0148|1=120709984-00|6=0|11=2d3ee5d66d6f42c6|14=0|17=-1d30cb1ad5fbb489|21=3|31=0|32=0|37=2233236f03384480|38=21108|39=0|40=2|44=1895|54=1|55=CENCOSUD|58=New Buy CENCOSUD 21108.0 @ 1895.0|59=0|60=20170804-14:02:03.245|63=3|100=XSGO|150=0|151=21108|207=XSGO|453=2|448=LVPOOL|447=D|452=1|448=666|447=D|452=7|10=130|
20170804-14:02:08: 8=FIX.4.4|9=278|35=D|34=100|49=TOMADOR_DE_ORDENES|50=mvaldivia@0152@0152|52=20170804-14:02:08.758|56=ORDERROUTER|1=87340538-83|11=4bcfc2a668bdb50c|21=3|38=2|40=2|44=1700000|54=1|55=UNION GOLF|59=0|60=20170804-14:02:08.758|63=3|100=XSGO|207=XSGO|453=2|448=LVPOOL|447=D|452=1|448=666|447=D|452=7|10=040|
20170804-14:02:08: 8=FIX.4.4|9=394|35=8|34=156|49=ORDERROUTER|52=20170804-14:02:08.830|56=TOMADOR_DE_ORDENES|57=mvaldivia@0152@0152|1=87340538-83|6=0|11=4bcfc2a668bdb50c|14=0|17=-53f8f4eb5553b7dc|21=3|31=0|32=0|37=-18515e8534d6bdac|38=2|39=A|40=2|44=1700000|54=1|55=UNION GOLF|58=New Buy UNION GOLF 2.0 @ 1700000.0|59=0|60=20170804-14:02:08.829|63=3|100=XSGO|150=A|151=2|207=XSGO|453=2|448=LVPOOL|447=D|452=1|448=666|447=D|452=7|10=228|
20170804-14:02:12: 8=FIX.4.4|9=385|35=8|34=157|49=ORDERROUTER|52=20170804-14:02:12.436|56=TOMADOR_DE_ORDENES|57=apalavecino@0476@0476|1=77546855-00|6=0|11=266f3f2c70f4b981|14=0|17=70959b5317c146ec|21=3|31=0|32=0|37=-15e414d75cabb0ef|38=4500|39=0|40=2|44=1128|54=2|55=IAM|58=New Sell IAM 4500.0 @ 1128.0|59=0|60=20170804-14:02:12.435|63=3|100=XSGO|150=0|151=4500|207=XSGO|453=2|448=LVPOOL|447=D|452=1|448=666|447=D|452=7|10=136|
20170804-14:02:25: 8=FIX.4.4|9=393|35=8|34=158|49=ORDERROUTER|52=20170804-14:02:26.017|56=TOMADOR_DE_ORDENES|57=mvaldivia@0152@0152|1=87340538-83|6=0|11=4bcfc2a668bdb50c|14=0|17=2924c2f096c04a20|21=3|31=0|32=0|37=-18515e8534d6bdac|38=2|39=0|40=2|44=1700000|54=1|55=UNION GOLF|58=New Buy UNION GOLF 2.0 @ 1700000.0|59=0|60=20170804-14:02:26.016|63=3|100=XSGO|150=0|151=2|207=XSGO|453=2|448=LVPOOL|447=D|452=1|448=666|447=D|452=7|10=227|
20170804-14:02:32: 8=FIX.4.4|9=395|35=8|34=159|49=ORDERROUTER|52=20170804-14:02:32.215|56=TOMADOR_DE_ORDENES|57=gledesma@0032@0032|1=103991064-00|6=0|11=5f42665b06a644f6|14=0|17=6609dd4a593d4c29|21=3|31=0|32=0|37=17ba36ebe6544246|38=168000|39=0|40=2|44=129.85|54=1|55=ENELAM|58=New Buy ENELAM 168000.0 @ 129.85|59=0|60=20170804-14:02:32.213|63=3|100=XSGO|150=0|151=168000|207=XSGO|453=2|448=LVPOOL|447=D|452=1|448=666|447=D|452=7|10=152|
20170804-14:02:34: 8=FIX.4.4|9=281|35=D|34=101|49=TOMADOR_DE_ORDENES|50=jvarleta@0216@0148|52=20170804-14:02:34.888|56=ORDERROUTER|1=120709984-00|11=5b2132fe5d4db151|21=3|38=1739130|40=2|44=5.75|54=1|55=ORO BLANCO|59=0|60=20170804-14:02:34.873|63=3|100=XSGO|207=XSGO|453=2|448=LVPOOL|447=D|452=1|448=666|447=D|452=7|10=242|
20170804-14:02:34: 8=FIX.4.4|9=402|35=8|34=160|49=ORDERROUTER|52=20170804-14:02:34.957|56=TOMADOR_DE_ORDENES|57=jvarleta@0216@0148|1=120709984-00|6=0|11=5b2132fe5d4db151|14=0|17=639e93c0cbe348fb|21=3|31=0|32=0|37=6a93b09b29b94e96|38=1739130|39=A|40=2|44=5.75|54=1|55=ORO BLANCO|58=New Buy ORO BLANCO 1739130.0 @ 5.75|59=0|60=20170804-14:02:34.956|63=3|100=XSGO|150=A|151=1739130|207=XSGO|453=2|448=LVPOOL|447=D|452=1|448=666|447=D|452=7|10=161|
20170804-14:02:49: 8=FIX.4.4|9=403|35=8|34=161|49=ORDERROUTER|52=20170804-14:02:49.754|56=TOMADOR_DE_ORDENES|57=jvarleta@0216@0148|1=120709984-00|6=0|11=5b2132fe5d4db151|14=0|17=-11ab90888d74b31a|21=3|31=0|32=0|37=6a93b09b29b94e96|38=1739130|39=0|40=2|44=5.75|54=1|55=ORO BLANCO|58=New Buy ORO BLANCO 1739130.0 @ 5.75|59=0|60=20170804-14:02:49.753|63=3|100=XSGO|150=0|151=1739130|207=XSGO|453=2|448=LVPOOL|447=D|452=1|448=666|447=D|452=7|10=069|
20170804-14:02:52: 8=FIX.4.4|9=275|35=D|34=102|49=TOMADOR_DE_ORDENES|50=mvaldivia@0152@0152|52=20170804-14:02:52.985|56=ORDERROUTER|1=73003210-00|11=61977c6e97f1b28a|21=3|38=1350|40=2|44=1540|54=1|55=SOFRUCO|59=0|60=20170804-14:02:52.985|63=3|100=XSGO|207=XSGO|453=2|448=LVPOOL|447=D|452=1|448=666|447=D|452=7|10=184|
20170804-14:02:53: 8=FIX.4.4|9=390|35=8|34=162|49=ORDERROUTER|52=20170804-14:02:53.058|56=TOMADOR_DE_ORDENES|57=mvaldivia@0152@0152|1=73003210-00|6=0|11=61977c6e97f1b28a|14=0|17=24c01536fd7e43ce|21=3|31=0|32=0|37=-2550d0a2dd21b325|38=1350|39=A|40=2|44=1540|54=1|55=SOFRUCO|58=New Buy SOFRUCO 1350.0 @ 1540.0|59=0|60=20170804-14:02:53.057|63=3|100=XSGO|150=A|151=1350|207=XSGO|453=2|448=LVPOOL|447=D|452=1|448=666|447=D|452=7|10=167|
20170804-14:03:20: 8=FIX.4.4|9=407|35=8|34=163|49=ORDERROUTER|52=20170804-14:03:20.420|56=TOMADOR_DE_ORDENES|57=gledesma@0032@0032|1=103991064-00|6=129.85|11=5f42665b06a644f6|14=168000|17=ex17216420248|21=3|31=129.85|32=168000|37=17ba36ebe6544246|38=168000|39=2|40=2|44=129.85|54=1|55=ENELAM|58=New Buy ENELAM 168000.0 @ 129.85|59=0|60=20170804-14:03:20.419|63=3|100=XSGO|150=F|151=0|207=XSGO|453=2|448=LVPOOL|447=D|452=1|448=666|447=D|452=7|10=141|
20170804-14:03:30: 8=FIX.4.4|9=400|35=8|34=164|49=ORDERROUTER|52=20170804-14:03:30.259|56=TOMADOR_DE_ORDENES|57=abecker@0104@0079|1=86997819-00|6=82|11=6157c3ec093c440b|14=231707|17=ex17216420383|21=3|31=82|32=231707|37=-78c5d07e92a8bbc2|38=231707|39=2|40=2|44=82|54=1|55=NUEVAPOLAR|58=New Buy NUEVAPOLAR 231707.0 @ 82.0|59=0|60=20170804-14:03:30.258|63=3|100=XSGO|150=F|151=0|207=XSGO|453=2|448=LVPOOL|447=D|452=1|448=666|447=D|452=7|10=157|
20170804-14:03:30: 8=FIX.4.4|9=278|35=D|34=103|49=TOMADOR_DE_ORDENES|50=jvarleta@0216@0148|52=20170804-14:03:30.269|56=ORDERROUTER|1=120709984-00|11=4118559e4ffabdbe|21=3|38=1286173|40=2|44=31.1|54=1|55=VAPORES|59=0|60=20170804-14:03:30.269|63=3|100=XSGO|207=XSGO|453=2|448=LVPOOL|447=D|452=1|448=666|447=D|452=7|10=181|
20170804-14:03:30: 8=FIX.4.4|9=397|35=8|34=165|49=ORDERROUTER|52=20170804-14:03:30.339|56=TOMADOR_DE_ORDENES|57=jvarleta@0216@0148|1=120709984-00|6=0|11=4118559e4ffabdbe|14=0|17=-83885a6853cb464|21=3|31=0|32=0|37=-46dcb01fb284bfbc|38=1286173|39=A|40=2|44=31.1|54=1|55=VAPORES|58=New Buy VAPORES 1286173.0 @ 31.1|59=0|60=20170804-14:03:30.339|63=3|100=XSGO|150=A|151=1286173|207=XSGO|453=2|448=LVPOOL|447=D|452=1|448=666|447=D|452=7|10=222|
20170804-14:03:39: 8=FIX.4.4|9=390|35=8|34=166|49=ORDERROUTER|52=20170804-14:03:39.629|56=TOMADOR_DE_ORDENES|57=mvaldivia@0152@0152|1=73003210-00|6=0|11=61977c6e97f1b28a|14=0|17=1fefc5d4757a4964|21=3|31=0|32=0|37=-2550d0a2dd21b325|38=1350|39=0|40=2|44=1540|54=1|55=SOFRUCO|58=New Buy SOFRUCO 1350.0 @ 1540.0|59=0|60=20170804-14:03:39.628|63=3|100=XSGO|150=0|151=1350|207=XSGO|453=2|448=LVPOOL|447=D|452=1|448=666|447=D|452=7|10=171|
20170804-14:04:07: 8=FIX.4.4|9=397|35=8|34=167|49=ORDERROUTER|52=20170804-14:04:07.463|56=TOMADOR_DE_ORDENES|57=jvarleta@0216@0148|1=120709984-00|6=0|11=4118559e4ffabdbe|14=0|17=-3ecd8289b58b9c1|21=3|31=0|32=0|37=-46dcb01fb284bfbc|38=1286173|39=0|40=2|44=31.1|54=1|55=VAPORES|58=New Buy VAPORES 1286173.0 @ 31.1|59=0|60=20170804-14:04:07.462|63=3|100=XSGO|150=0|151=1286173|207=XSGO|453=2|448=LVPOOL|447=D|452=1|448=666|447=D|452=7|10=081|
20170804-14:04:30: 8=FIX.4.4|9=74|35=0|34=104|49=TOMADOR_DE_ORDENES|52=20170804-14:04:30.470|56=ORDERROUTER|10=002|
20170804-14:04:42: 8=FIX.4.4|9=273|35=D|34=105|49=TOMADOR_DE_ORDENES|50=igarreton@0537@0734|52=20170804-14:04:42.857|56=ORDERROUTER|1=766729908-00|11=44dd64b516b64df9|21=3|38=10432|40=2|44=6800|54=2|55=CAP|59=0|60=20170804-14:04:42.857|63=3|100=XSGO|207=XSGO|453=2|448=LVPOOL|447=D|452=1|448=666|447=D|452=7|10=056|
20170804-14:04:42: 8=FIX.4.4|9=386|35=8|34=168|49=ORDERROUTER|52=20170804-14:04:42.931|56=TOMADOR_DE_ORDENES|57=igarreton@0537@0734|1=766729908-00|6=0|11=44dd64b516b64df9|14=0|17=f0f25c8e34b4661|21=3|31=0|32=0|37=-6e267172cadfb9de|38=10432|39=A|40=2|44=6800|54=2|55=CAP|58=New Sell CAP 10432.0 @ 6800.0|59=0|60=20170804-14:04:42.931|63=3|100=XSGO|150=A|151=10432|207=XSGO|453=2|448=LVPOOL|447=D|452=1|448=666|447=D|452=7|10=249|
20170804-14:04:55: 8=FIX.4.4|9=388|35=8|34=169|49=ORDERROUTER|52=20170804-14:04:55.774|56=TOMADOR_DE_ORDENES|57=igarreton@0537@0734|1=766729908-00|6=0|11=44dd64b516b64df9|14=0|17=-21d13fa5d6a1b1ac|21=3|31=0|32=0|37=-6e267172cadfb9de|38=10432|39=0|40=2|44=6800|54=2|55=CAP|58=New Sell CAP 10432.0 @ 6800.0|59=0|60=20170804-14:04:55.774|63=3|100=XSGO|150=0|151=10432|207=XSGO|453=2|448=LVPOOL|447=D|452=1|448=666|447=D|452=7|10=198|
20170804-14:05:03: 8=FIX.4.4|9=392|35=8|34=170|49=ORDERROUTER|52=20170804-14:05:03.842|56=TOMADOR_DE_ORDENES|57=salcayaga@1036@0180|1=77082689-00|6=92.9|11=4d7b5385d398bb82|14=62757|17=ex17216421464|21=3|31=92.9|32=62757|37=7dd41c15aeac4b8c|38=62757|39=2|40=2|44=92|54=2|55=CHILE|58=New Sell CHILE 62757.0 @ 92.0|59=0|60=20170804-14:05:03.842|63=3|100=XSGO|150=F|151=0|207=XSGO|453=2|448=LVPOOL|447=D|452=1|448=666|447=D|452=7|10=011|
20170804-14:05:43: 8=FIX.4.4|9=74|35=0|34=106|49=TOMADOR_DE_ORDENES|52=20170804-14:05:43.479|56=ORDERROUTER|10=018|
20170804-14:06:04: 8=FIX.4.4|9=74|35=0|34=171|49=ORDERROUTER|52=20170804-14:06:04.142|56=TOMADOR_DE_ORDENES|10=005|
20170804-14:06:44: 8=FIX.4.4|9=74|35=0|34=107|49=TOMADOR_DE_ORDENES|52=20170804-14:06:44.476|56=ORDERROUTER|10=018|
20170804-14:06:51: 8=FIX.4.4|9=397|35=8|34=172|49=ORDERROUTER|52=20170804-14:06:51.401|56=TOMADOR_DE_ORDENES|57=mofuentes@0652@0652|1=774621806-00|6=7140|11=6a110b384bc8bf60|14=2000|17=ex17216423418|21=3|31=7140|32=2000|37=-66e855c84383be77|38=5155|39=1|40=2|44=7140|54=2|55=ENTEL|58=New Sell ENTEL 5155.0 @ 7140.0|59=0|60=20170804-14:06:51.400|63=3|100=XSGO|150=F|151=3155|207=XSGO|453=2|448=LVPOOL|447=D|452=1|448=666|447=D|452=7|10=077|
20170804-14:07:11: 8=FIX.4.4|9=271|35=D|34=108|49=TOMADOR_DE_ORDENES|50=salcayaga@1036@0180|52=20170804-14:07:11.761|56=ORDERROUTER|1=57315466-00|11=639334b28ba7498c|21=3|38=1200|40=2|44=8700|54=2|55=CCU|59=0|60=20170804-14:07:11.761|63=3|100=XSGO|207=XSGO|453=2|448=LVPOOL|447=D|452=1|448=666|447=D|452=7|10=047|
20170804-14:07:11: 8=FIX.4.4|9=382|35=8|34=173|49=ORDERROUTER|52=20170804-14:07:11.841|56=TOMADOR_DE_ORDENES|57=salcayaga@1036@0180|1=57315466-00|6=0|11=639334b28ba7498c|14=0|17=15612dc043284fb4|21=3|31=0|32=0|37=1f3a851512774f2e|38=1200|39=A|40=2|44=8700|54=2|55=CCU|58=New Sell CCU 1200.0 @ 8700.0|59=0|60=20170804-14:07:11.840|63=3|100=XSGO|150=A|151=1200|207=XSGO|453=2|448=LVPOOL|447=D|452=1|448=666|447=D|452=7|10=147|
20170804-14:07:59: 8=FIX.4.4|9=283|35=D|34=109|49=TOMADOR_DE_ORDENES|50=ageisse@0049@0790|52=20170804-14:07:58.983|56=ORDERROUTER|1=764357892-00|11=2f2dba4c0c94b16c|21=3|38=10|40=2|44=445000|54=1|55=ORO 100*|59=0|60=20170804-14:07:58.983|63=1|100=XSGO|167=MON|207=XSGO|453=2|448=LVPOOL|447=D|452=1|448=666|447=D|452=7|10=049|
20170804-14:07:59: 8=FIX.4.4|9=395|35=8|34=174|49=ORDERROUTER|52=20170804-14:07:59.111|56=TOMADOR_DE_ORDENES|57=ageisse@0049@0790|1=764357892-00|6=0|11=2f2dba4c0c94b16c|14=0|17=52bf56e6f22d44d2|21=3|31=0|32=0|37=5f5a418736d44ef|38=10|39=A|40=2|44=445000|54=1|55=ORO 100*|58=New Buy ORO 100* 10.0 @ 445000.0|59=0|60=20170804-14:07:59.111|63=1|100=XSGO|150=A|151=10|167=MON|207=XSGO|453=2|448=LVPOOL|447=D|452=1|448=666|447=D|452=7|10=018|
20170804-14:08:07: 8=FIX.4.4|9=383|35=8|34=175|49=ORDERROUTER|52=20170804-14:08:07.727|56=TOMADOR_DE_ORDENES|57=salcayaga@1036@0180|1=57315466-00|6=0|11=639334b28ba7498c|14=0|17=-5e749a20b1d7b802|21=3|31=0|32=0|37=1f3a851512774f2e|38=1200|39=0|40=2|44=8700|54=2|55=CCU|58=New Sell CCU 1200.0 @ 8700.0|59=0|60=20170804-14:08:07.726|63=3|100=XSGO|150=0|151=1200|207=XSGO|453=2|448=LVPOOL|447=D|452=1|448=666|447=D|452=7|10=231|
20170804-14:08:58: 8=FIX.4.4|9=346|35=G|34=110|49=TOMADOR_DE_ORDENES|50=igarreton@0537@0734|52=20170804-14:08:58.919|56=ORDERROUTER|1=766729908-00|11=a7eceae77f2b406|21=3|37=-6e267172cadfb9de|38=10432|40=2|41=44dd64b516b64df9|44=6790|54=2|55=CAP|58=New Sell CAP 10432.0 @ 6800.0|59=0|60=20170804-14:08:58.919|63=3|100=XSGO|207=XSGO|453=2|448=LVPOOL|447=D|452=1|448=666|447=D|452=7|10=188|
20170804-14:08:58: 8=FIX.4.4|9=426|35=8|34=176|49=ORDERROUTER|52=20170804-14:08:58.994|56=TOMADOR_DE_ORDENES|57=igarreton@0537@0734|1=766729908-00|6=0|11=a7eceae77f2b406|14=0|17=-45247e2dc5eebd15|21=3|31=0|32=0|37=-6e267172cadfb9de|38=10432|39=E|40=2|41=a7eceae77f2b406|44=6790|54=2|55=CAP|58=Replace from 10432.0 @ 6800.0 To 10432.0 @ 6790.0|59=0|60=20170804-14:08:58.994|63=3|100=XSGO|150=E|151=10432|207=XSGO|453=2|448=LVPOOL|447=D|452=1|448=666|447=D|452=7|10=017|
20170804-14:09:34: 8=FIX.4.4|9=425|35=8|34=177|49=ORDERROUTER|52=20170804-14:09:34.891|56=TOMADOR_DE_ORDENES|57=igarreton@0537@0734|1=766729908-00|6=0|11=a7eceae77f2b406|14=0|17=61c98d0fdfdf46a4|21=3|31=0|32=0|37=-6e267172cadfb9de|38=10432|39=0|40=2|41=a7eceae77f2b406|44=6790|54=2|55=CAP|58=Replace from 10432.0 @ 6800.0 To 10432.0 @ 6790.0|59=0|60=20170804-14:09:34.890|63=3|100=XSGO|150=5|151=10432|207=XSGO|453=2|448=LVPOOL|447=D|452=1|448=666|447=D|452=7|10=229|
20170804-14:09:49: 8=FIX.4.4|9=276|35=D|34=111|49=TOMADOR_DE_ORDENES|50=ltejos@1044@0574|52=20170804-14:09:49.666|56=ORDERROUTER|1=60722625-00|11=49c2f0141104bf11|21=1|38=429|40=2|44=8940.1|54=2|55=ANTARCHILE|59=0|60=20170804-14:09:49.666|63=3|100=XSGO|207=XSGO|453=2|448=LVPOOL|447=D|452=1|448=666|447=D|452=7|10=092|
20170804-14:09:49: 8=FIX.4.4|9=391|35=8|34=178|49=ORDERROUTER|52=20170804-14:09:49.738|56=TOMADOR_DE_ORDENES|57=ltejos@1044@0574|1=60722625-00|6=0|11=49c2f0141104bf11|14=0|17=fda0fce04654a50|21=1|31=0|32=0|37=3347eb97f3a541ae|38=429|39=A|40=2|44=8940.1|54=2|55=ANTARCHILE|58=New Sell ANTARCHILE 429.0 @ 8940.1|59=0|60=20170804-14:09:49.738|63=3|100=XSGO|150=A|151=429|207=XSGO|453=2|448=LVPOOL|447=D|452=1|448=666|447=D|452=7|10=069|
20170804-14:09:49: 8=FIX.4.4|9=389|35=8|34=179|49=ORDERROUTER|52=20170804-14:09:49.795|56=TOMADOR_DE_ORDENES|57=ltejos@1044@0574|1=60722625-00|6=0|11=49c2f0141104bf11|14=0|17=ex17216425360|21=1|31=0|32=0|37=3347eb97f3a541ae|38=429|39=0|40=2|44=8940.1|54=2|55=ANTARCHILE|58=New Sell ANTARCHILE 429.0 @ 8940.1|59=0|60=20170804-14:09:49.794|63=3|100=XSGO|150=0|151=429|207=XSGO|453=2|448=LVPOOL|447=D|452=1|448=666|447=D|452=7|10=240|
20170804-14:09:49: 8=FIX.4.4|9=399|35=8|34=180|49=ORDERROUTER|52=20170804-14:09:49.802|56=TOMADOR_DE_ORDENES|57=surarte@1237@0965|1=142713861-83|6=8940.1|11=6b6b92895e2ab9e4|14=26|17=ex17216425361|21=1|31=8940.1|32=26|37=-3dd8cb19ace9bd04|38=26|39=2|40=2|44=8940.1|54=1|55=ANTARCHILE|58=New Buy ANTARCHILE 26.0 @ 8940.1|59=0|60=20170804-14:09:49.802|63=3|100=XSGO|150=F|151=0|207=XSGO|453=2|448=LVPOOL|447=D|452=1|448=666|447=D|452=7|10=027|
20170804-14:09:49: 8=FIX.4.4|9=401|35=8|34=181|49=ORDERROUTER|52=20170804-14:09:49.808|56=TOMADOR_DE_ORDENES|57=ltejos@1044@0574|1=60722625-00|6=8940.1|11=49c2f0141104bf11|14=26|17=ex17216425362|21=1|31=8940.1|32=26|37=3347eb97f3a541ae|38=429|39=1|40=2|44=8940.1|54=2|55=ANTARCHILE|58=New Sell ANTARCHILE 429.0 @ 8940.1|59=0|60=20170804-14:09:49.808|63=3|100=XSGO|150=F|151=403|207=XSGO|453=2|448=LVPOOL|447=D|452=1|448=666|447=D|452=7|10=090|
20170804-14:10:14: 8=FIX.4.4|9=286|35=D|34=112|49=TOMADOR_DE_ORDENES|50=ntassara@0579@0418|52=20170804-14:10:14.892|56=ORDERROUTER|1=764192532-00|11=7189a8bc5b59bc90|21=3|38=935|40=2|44=29000|54=1|55=CFILVPARI1|59=0|60=20170804-14:10:14.876|63=3|100=XSGO|167=CFI|207=XSGO|453=2|448=LVPOOL|447=D|452=1|448=666|447=D|452=7|10=059|
20170804-14:10:14: 8=FIX.4.4|9=403|35=8|34=182|49=ORDERROUTER|52=20170804-14:10:14.963|56=TOMADOR_DE_ORDENES|57=ntassara@0579@0418|1=764192532-00|6=0|11=7189a8bc5b59bc90|14=0|17=5ac3511911284537|21=3|31=0|32=0|37=-3ceddbd6d426b2ef|38=935|39=A|40=2|44=29000|54=1|55=CFILVPARI1|58=New Buy CFILVPARI1 935.0 @ 29000.0|59=0|60=20170804-14:10:14.963|63=3|100=XSGO|150=A|151=935|167=CFI|207=XSGO|453=2|448=LVPOOL|447=D|452=1|448=666|447=D|452=7|10=004|
20170804-14:10:24: 8=FIX.4.4|9=273|35=D|34=113|49=TOMADOR_DE_ORDENES|50=awensioe@0209@0209|52=20170804-14:10:24.501|56=ORDERROUTER|1=135503460-00|11=716dcb75231fb5d5|21=3|38=9270|40=2|44=255|54=2|55=EPERVA|59=0|60=20170804-14:10:24.501|63=3|100=XSGO|207=XSGO|453=2|448=LVPOOL|447=D|452=1|448=666|447=D|452=7|10=016|
20170804-14:10:24: 8=FIX.4.4|9=388|35=8|34=183|49=ORDERROUTER|52=20170804-14:10:24.580|56=TOMADOR_DE_ORDENES|57=awensioe@0209@0209|1=135503460-00|6=0|11=716dcb75231fb5d5|14=0|17=-69e41d5029d9bea0|21=3|31=0|32=0|37=-45f0585bcae5ba82|38=9270|39=A|40=2|44=255|54=2|55=EPERVA|58=New Sell EPERVA 9270.0 @ 255.0|59=0|60=20170804-14:10:24.579|63=3|100=XSGO|150=A|151=9270|207=XSGO|453=2|448=LVPOOL|447=D|452=1|448=666|447=D|452=7|10=188|
20170804-14:10:37: 8=FIX.4.4|9=395|35=8|34=184|49=ORDERROUTER|52=20170804-14:10:37.778|56=TOMADOR_DE_ORDENES|57=ageisse@0049@0790|1=764357892-00|6=0|11=2f2dba4c0c94b16c|14=0|17=64659aec0faf4382|21=3|31=0|32=0|37=5f5a418736d44ef|38=10|39=0|40=2|44=445000|54=1|55=ORO 100*|58=New Buy ORO 100* 10.0 @ 445000.0|59=0|60=20170804-14:10:37.777|63=1|100=XSGO|150=0|151=10|167=MON|207=XSGO|453=2|448=LVPOOL|447=D|452=1|448=666|447=D|452=7|10=006|
20170804-14:10:42: 8=FIX.4.4|9=276|35=D|34=114|49=TOMADOR_DE_ORDENES|50=ltejos@1044@0574|52=20170804-14:10:42.988|56=ORDERROUTER|1=60722625-00|11=55ee5f6dda63b69c|21=3|38=2467|40=2|44=1597.9|54=2|55=BANMEDICA|59=0|60=20170804-14:10:42.988|63=3|100=XSGO|207=XSGO|453=2|448=LVPOOL|447=D|452=1|448=666|447=D|452=7|10=005|
20170804-14:10:42: 8=FIX.4.4|9=392|35=8|34=185|49=ORDERROUTER|52=20170804-14:10:43.061|56=TOMADOR_DE_ORDENES|57=ltejos@1044@0574|1=60722625-00|6=0|11=55ee5f6dda63b69c|14=0|17=e7a8d37602e499d|21=3|31=0|32=0|37=224e3169285d4b77|38=2467|39=A|40=2|44=1597.9|54=2|55=BANMEDICA|58=New Sell BANMEDICA 2467.0 @ 1597.9|59=0|60=20170804-14:10:43.061|63=3|100=XSGO|150=A|151=2467|207=XSGO|453=2|448=LVPOOL|447=D|452=1|448=666|447=D|452=7|10=255|
20170804-14:10:49: 8=FIX.4.4|9=403|35=8|34=186|49=ORDERROUTER|52=20170804-14:10:49.239|56=TOMADOR_DE_ORDENES|57=ntassara@0579@0418|1=764192532-00|6=0|11=7189a8bc5b59bc90|14=0|17=39f50f0a6a004848|21=3|31=0|32=0|37=-3ceddbd6d426b2ef|38=935|39=0|40=2|44=29000|54=1|55=CFILVPARI1|58=New Buy CFILVPARI1 935.0 @ 29000.0|59=0|60=20170804-14:10:49.238|63=3|100=XSGO|150=0|151=935|167=CFI|207=XSGO|453=2|448=LVPOOL|447=D|452=1|448=666|447=D|452=7|10=079|
20170804-14:11:00: 8=FIX.4.4|9=388|35=8|34=187|49=ORDERROUTER|52=20170804-14:11:00.722|56=TOMADOR_DE_ORDENES|57=awensioe@0209@0209|1=135503460-00|6=0|11=716dcb75231fb5d5|14=0|17=-3fb752f9cae8b1bc|21=3|31=0|32=0|37=-45f0585bcae5ba82|38=9270|39=0|40=2|44=255|54=2|55=EPERVA|58=New Sell EPERVA 9270.0 @ 255.0|59=0|60=20170804-14:11:00.721|63=3|100=XSGO|150=0|151=9270|207=XSGO|453=2|448=LVPOOL|447=D|452=1|448=666|447=D|452=7|10=022|
20170804-14:11:32: 8=FIX.4.4|9=393|35=8|34=188|49=ORDERROUTER|52=20170804-14:11:32.121|56=TOMADOR_DE_ORDENES|57=ltejos@1044@0574|1=60722625-00|6=0|11=55ee5f6dda63b69c|14=0|17=3e0e1ab58bbc4f3b|21=3|31=0|32=0|37=224e3169285d4b77|38=2467|39=0|40=2|44=1597.9|54=2|55=BANMEDICA|58=New Sell BANMEDICA 2467.0 @ 1597.9|59=0|60=20170804-14:11:32.120|63=3|100=XSGO|150=0|151=2467|207=XSGO|453=2|448=LVPOOL|447=D|452=1|448=666|447=D|452=7|10=178|
20170804-14:11:35: 8=FIX.4.4|9=285|35=D|34=115|49=TOMADOR_DE_ORDENES|50=ltejos@1044@0574|52=20170804-14:11:35.061|56=ORDERROUTER|1=60722625-00|11=7d64de4ff845be9c|21=3|38=719|40=2|44=15449.9|54=2|55=CFINRENTAS|59=0|60=20170804-14:11:35.061|63=3|100=XSGO|167=CFI|207=XSGO|453=2|448=LVPOOL|447=D|452=1|448=666|447=D|452=7|10=021|
20170804-14:11:35: 8=FIX.4.4|9=401|35=8|34=189|49=ORDERROUTER|52=20170804-14:11:35.130|56=TOMADOR_DE_ORDENES|57=ltejos@1044@0574|1=60722625-00|6=0|11=7d64de4ff845be9c|14=0|17=a5741538d4c40ce|21=3|31=0|32=0|37=25dfce2181e149ef|38=719|39=A|40=2|44=15449.9|54=2|55=CFINRENTAS|58=New Sell CFINRENTAS 719.0 @ 15449.9|59=0|60=20170804-14:11:35.129|63=3|100=XSGO|150=A|151=719|167=CFI|207=XSGO|453=2|448=LVPOOL|447=D|452=1|448=666|447=D|452=7|10=030|
20170804-14:12:35: 8=FIX.4.4|9=74|35=0|34=190|49=ORDERROUTER|52=20170804-14:12:35.142|56=TOMADOR_DE_ORDENES|10=007|
20170804-14:12:35: 8=FIX.4.4|9=74|35=0|34=116|49=TOMADOR_DE_ORDENES|52=20170804-14:12:35.075|56=ORDERROUTER|10=010|
20170804-14:13:21: 8=FIX.4.4|9=274|35=D|34=117|49=TOMADOR_DE_ORDENES|50=aibarra@100@0068|52=20170804-14:13:21.704|56=ORDERROUTER|1=58232858-00|11=16774ec103eb304|21=3|38=30000|40=2|44=212.5|54=2|55=AESGENER|59=0|60=20170804-14:13:21.688|63=3|100=XSGO|207=XSGO|453=2|448=LVPOOL|447=D|452=1|448=666|447=D|452=7|10=176|
20170804-14:13:21: 8=FIX.4.4|9=392|35=8|34=191|49=ORDERROUTER|52=20170804-14:13:21.773|56=TOMADOR_DE_ORDENES|57=aibarra@100@0068|1=58232858-00|6=0|11=16774ec103eb304|14=0|17=-61f1b4169328b7ea|21=3|31=0|32=0|37=6b2c2be7f6534dfc|38=30000|39=A|40=2|44=212.5|54=2|55=AESGENER|58=New Sell AESGENER 30000.0 @ 212.5|59=0|60=20170804-14:13:21.772|63=3|100=XSGO|150=A|151=30000|207=XSGO|453=2|448=LVPOOL|447=D|452=1|448=666|447=D|452=7|10=215|
20170804-14:13:34: 8=FIX.4.4|9=277|35=D|34=118|49=TOMADOR_DE_ORDENES|50=ageisse@0049@0049|52=20170804-14:13:34.137|56=ORDERROUTER|1=5540108K-01|11=7a701507f7b74993|21=3|38=197619|40=2|44=281|54=1|55=SM-CHILE B|59=0|60=20170804-14:13:34.137|63=3|100=XSGO|207=XSGO|453=2|448=LVPOOL|447=D|452=1|448=666|447=D|452=7|10=087|
20170804-14:13:34: 8=FIX.4.4|9=396|35=8|34=192|49=ORDERROUTER|52=20170804-14:13:34.208|56=TOMADOR_DE_ORDENES|57=ageisse@0049@0049|1=5540108K-01|6=0|11=7a701507f7b74993|14=0|17=6204260e661d4af6|21=3|31=0|32=0|37=a8e0c29c2044649|38=197619|39=A|40=2|44=281|54=1|55=SM-CHILE B|58=New Buy SM-CHILE B 197619.0 @ 281.0|59=0|60=20170804-14:13:34.208|63=3|100=XSGO|150=A|151=197619|207=XSGO|453=2|448=LVPOOL|447=D|452=1|448=666|447=D|452=7|10=172|
20170804-14:13:41: 8=FIX.4.4|9=391|35=8|34=193|49=ORDERROUTER|52=20170804-14:13:41.177|56=TOMADOR_DE_ORDENES|57=aibarra@100@0068|1=58232858-00|6=0|11=16774ec103eb304|14=0|17=567ebe14b6a74ad8|21=3|31=0|32=0|37=6b2c2be7f6534dfc|38=30000|39=0|40=2|44=212.5|54=2|55=AESGENER|58=New Sell AESGENER 30000.0 @ 212.5|59=0|60=20170804-14:13:41.175|63=3|100=XSGO|150=0|151=30000|207=XSGO|453=2|448=LVPOOL|447=D|452=1|448=666|447=D|452=7|10=236|
20170804-14:14:18: 8=FIX.4.4|9=397|35=8|34=194|49=ORDERROUTER|52=20170804-14:14:18.834|56=TOMADOR_DE_ORDENES|57=ageisse@0049@0049|1=5540108K-01|6=0|11=7a701507f7b74993|14=0|17=-33cfeff4568cb676|21=3|31=0|32=0|37=a8e0c29c2044649|38=197619|39=0|40=2|44=281|54=1|55=SM-CHILE B|58=New Buy SM-CHILE B 197619.0 @ 281.0|59=0|60=20170804-14:14:18.833|63=3|100=XSGO|150=0|151=197619|207=XSGO|453=2|448=LVPOOL|447=D|452=1|448=666|447=D|452=7|10=109|
20170804-14:14:34: 8=FIX.4.4|9=74|35=0|34=119|49=TOMADOR_DE_ORDENES|52=20170804-14:14:34.479|56=ORDERROUTER|10=022|
20170804-14:15:19: 8=FIX.4.4|9=74|35=0|34=195|49=ORDERROUTER|52=20170804-14:15:19.142|56=TOMADOR_DE_ORDENES|10=017|
20170804-14:15:35: 8=FIX.4.4|9=74|35=0|34=120|49=TOMADOR_DE_ORDENES|52=20170804-14:15:35.476|56=ORDERROUTER|10=013|
20170804-14:16:19: 8=FIX.4.4|9=74|35=0|34=196|49=ORDERROUTER|52=20170804-14:16:19.142|56=TOMADOR_DE_ORDENES|10=019|
20170804-14:16:36: 8=FIX.4.4|9=74|35=0|34=121|49=TOMADOR_DE_ORDENES|52=20170804-14:16:36.472|56=ORDERROUTER|10=012|
20170804-14:17:19: 8=FIX.4.4|9=74|35=0|34=197|49=ORDERROUTER|52=20170804-14:17:19.142|56=TOMADOR_DE_ORDENES|10=021|
20170804-14:17:36: 8=FIX.4.4|9=74|35=0|34=122|49=TOMADOR_DE_ORDENES|52=20170804-14:17:36.486|56=ORDERROUTER|10=019|
20170804-14:18:07: 8=FIX.4.4|9=402|35=8|34=198|49=ORDERROUTER|52=20170804-14:18:07.714|56=TOMADOR_DE_ORDENES|57=ltejos@1044@0574|1=60722625-00|6=0|11=7d64de4ff845be9c|14=0|17=4ad175040fb84517|21=3|31=0|32=0|37=25dfce2181e149ef|38=719|39=0|40=2|44=15449.9|54=2|55=CFINRENTAS|58=New Sell CFINRENTAS 719.0 @ 15449.9|59=0|60=20170804-14:18:07.713|63=3|100=XSGO|150=0|151=719|167=CFI|207=XSGO|453=2|448=LVPOOL|447=D|452=1|448=666|447=D|452=7|10=018|
20170804-14:18:31: 8=FIX.4.4|9=284|35=D|34=123|49=TOMADOR_DE_ORDENES|50=gpolak@0599@0426|52=20170804-14:18:31.571|56=ORDERROUTER|1=58174831-00|11=4f4fc33b143b4412|21=3|38=3939|40=2|44=29350|54=2|55=CFILVPARI1|59=0|60=20170804-14:18:31.555|63=3|100=XSGO|167=CFI|207=XSGO|453=2|448=LVPOOL|447=D|452=1|448=666|447=D|452=7|10=039|
20170804-14:18:31: 8=FIX.4.4|9=403|35=8|34=199|49=ORDERROUTER|52=20170804-14:18:31.640|56=TOMADOR_DE_ORDENES|57=gpolak@0599@0426|1=58174831-00|6=0|11=4f4fc33b143b4412|14=0|17=-a833d97d011b5de|21=3|31=0|32=0|37=4be669ca7e414fb3|38=3939|39=A|40=2|44=29350|54=2|55=CFILVPARI1|58=New Sell CFILVPARI1 3939.0 @ 29350.0|59=0|60=20170804-14:18:31.640|63=3|100=XSGO|150=A|151=3939|167=CFI|207=XSGO|453=2|448=LVPOOL|447=D|452=1|448=666|447=D|452=7|10=206|
20170804-14:19:07: 8=FIX.4.4|9=403|35=8|34=200|49=ORDERROUTER|52=20170804-14:19:07.477|56=TOMADOR_DE_ORDENES|57=gpolak@0599@0426|1=58174831-00|6=0|11=4f4fc33b143b4412|14=0|17=3818899f40c04e75|21=3|31=0|32=0|37=4be669ca7e414fb3|38=3939|39=0|40=2|44=29350|54=2|55=CFILVPARI1|58=New Sell CFILVPARI1 3939.0 @ 29350.0|59=0|60=20170804-14:19:07.476|63=3|100=XSGO|150=0|151=3939|167=CFI|207=XSGO|453=2|448=LVPOOL|447=D|452=1|448=666|447=D|452=7|10=060|
20170804-14:19:19: 8=FIX.4.4|9=396|35=8|34=201|49=ORDERROUTER|52=20170804-14:19:19.767|56=TOMADOR_DE_ORDENES|57=mofuentes@0652@0652|1=774621806-00|6=7140|11=6a110b384bc8bf60|14=2172|17=ex17216431453|21=3|31=7140|32=172|37=-66e855c84383be77|38=5155|39=1|40=2|44=7140|54=2|55=ENTEL|58=New Sell ENTEL 5155.0 @ 7140.0|59=0|60=20170804-14:19:19.766|63=3|100=XSGO|150=F|151=2983|207=XSGO|453=2|448=LVPOOL|447=D|452=1|448=666|447=D|452=7|10=091|
20170804-14:19:19: 8=FIX.4.4|9=395|35=8|34=202|49=ORDERROUTER|52=20170804-14:19:19.776|56=TOMADOR_DE_ORDENES|57=mofuentes@0652@0652|1=774621806-00|6=7140|11=6a110b384bc8bf60|14=2228|17=ex17216431456|21=3|31=7140|32=56|37=-66e855c84383be77|38=5155|39=1|40=2|44=7140|54=2|55=ENTEL|58=New Sell ENTEL 5155.0 @ 7140.0|59=0|60=20170804-14:19:19.775|63=3|100=XSGO|150=F|151=2927|207=XSGO|453=2|448=LVPOOL|447=D|452=1|448=666|447=D|452=7|10=047|
20170804-14:19:32: 8=FIX.4.4|9=74|35=0|34=124|49=TOMADOR_DE_ORDENES|52=20170804-14:19:32.490|56=ORDERROUTER|10=014|
20170804-14:20:20: 8=FIX.4.4|9=74|35=0|34=203|49=ORDERROUTER|52=20170804-14:20:20.142|56=TOMADOR_DE_ORDENES|10=251|
20170804-14:20:33: 8=FIX.4.4|9=74|35=0|34=125|49=TOMADOR_DE_ORDENES|52=20170804-14:20:33.486|56=ORDERROUTER|10=013|
20170804-14:20:46: 8=FIX.4.4|9=278|35=D|34=126|49=TOMADOR_DE_ORDENES|50=salcayaga@1036@0632|52=20170804-14:20:46.216|56=ORDERROUTER|1=65947811-01|11=42dc32d1e252b2ee|21=3|38=179033|40=2|44=93|54=2|55=SM-CHILE B|59=0|60=20170804-14:20:46.216|63=3|100=XSGO|207=XSGO|453=2|448=LVPOOL|447=D|452=1|448=666|447=D|452=7|10=124|
20170804-14:20:46: 8=FIX.4.4|9=400|35=8|34=204|49=ORDERROUTER|52=20170804-14:20:46.297|56=TOMADOR_DE_ORDENES|57=salcayaga@1036@0632|1=65947811-01|6=0|11=42dc32d1e252b2ee|14=0|17=-2f84b14fd993b414|21=3|31=0|32=0|37=-40b1cd476edbbf7a|38=179033|39=A|40=2|44=93|54=2|55=SM-CHILE B|58=New Sell SM-CHILE B 179033.0 @ 93.0|59=0|60=20170804-14:20:46.296|63=3|100=XSGO|150=A|151=179033|207=XSGO|453=2|448=LVPOOL|447=D|452=1|448=666|447=D|452=7|10=159|
20170804-14:21:46: 8=FIX.4.4|9=74|35=0|34=127|49=TOMADOR_DE_ORDENES|52=20170804-14:21:46.480|56=ORDERROUTER|10=014|
20170804-14:21:46: 8=FIX.4.4|9=74|35=0|34=205|49=ORDERROUTER|52=20170804-14:21:46.550|56=TOMADOR_DE_ORDENES|10=009|
20170804-14:22:40: 8=FIX.4.4|9=274|35=D|34=128|49=TOMADOR_DE_ORDENES|50=eeyzagui@0019@0019|52=20170804-14:22:40.378|56=ORDERROUTER|1=106086591-00|11=1f95f332e00b7d3|21=3|38=1977|40=2|44=330|54=2|55=SOCOVESA|59=0|60=20170804-14:22:40.363|63=3|100=XSGO|207=XSGO|453=2|448=LVPOOL|447=D|452=1|448=666|447=D|452=7|10=115|
