20170809-12:14:11: 8=FIX.4.4|9=90|35=A|34=1|49=TOMADOR_DE_ORDENES|52=20170809-12:14:11.995|56=ORDERROUTER|98=0|108=60|141=Y|10=005|
20170809-12:14:12: 8=FIX.4.4|9=90|35=A|34=1|49=ORDERROUTER|52=20170809-12:14:13.228|56=TOMADOR_DE_ORDENES|98=0|108=60|141=Y|10=252|
20170809-12:15:12: 8=FIX.4.4|9=72|35=0|34=2|49=ORDERROUTER|52=20170809-12:15:13.705|56=TOMADOR_DE_ORDENES|10=164|
20170809-12:15:12: 8=FIX.4.4|9=72|35=0|34=2|49=TOMADOR_DE_ORDENES|52=20170809-12:15:12.524|56=ORDERROUTER|10=162|
20170809-12:16:12: 8=FIX.4.4|9=72|35=0|34=3|49=ORDERROUTER|52=20170809-12:16:13.706|56=TOMADOR_DE_ORDENES|10=167|
20170809-12:16:12: 8=FIX.4.4|9=72|35=0|34=3|49=TOMADOR_DE_ORDENES|52=20170809-12:16:12.819|56=ORDERROUTER|10=171|
20170809-12:17:13: 8=FIX.4.4|9=72|35=0|34=4|49=ORDERROUTER|52=20170809-12:17:14.706|56=TOMADOR_DE_ORDENES|10=170|
20170809-12:17:13: 8=FIX.4.4|9=72|35=0|34=4|49=TOMADOR_DE_ORDENES|52=20170809-12:17:13.519|56=ORDERROUTER|10=171|
20170809-12:18:13: 8=FIX.4.4|9=72|35=0|34=5|49=ORDERROUTER|52=20170809-12:18:14.706|56=TOMADOR_DE_ORDENES|10=172|
20170809-12:18:13: 8=FIX.4.4|9=72|35=0|34=5|49=TOMADOR_DE_ORDENES|52=20170809-12:18:13.814|56=ORDERROUTER|10=171|
20170809-12:19:13: 8=FIX.4.4|9=72|35=0|34=6|49=ORDERROUTER|52=20170809-12:19:14.706|56=TOMADOR_DE_ORDENES|10=174|
20170809-12:19:13: 8=FIX.4.4|9=72|35=0|34=6|49=TOMADOR_DE_ORDENES|52=20170809-12:19:13.828|56=ORDERROUTER|10=178|
20170809-12:20:13: 8=FIX.4.4|9=72|35=0|34=7|49=ORDERROUTER|52=20170809-12:20:14.706|56=TOMADOR_DE_ORDENES|10=167|
20170809-12:20:14: 8=FIX.4.4|9=72|35=0|34=7|49=TOMADOR_DE_ORDENES|52=20170809-12:20:14.825|56=ORDERROUTER|10=169|
20170809-12:21:13: 8=FIX.4.4|9=72|35=0|34=8|49=ORDERROUTER|52=20170809-12:21:14.706|56=TOMADOR_DE_ORDENES|10=169|
20170809-12:21:15: 8=FIX.4.4|9=72|35=0|34=8|49=TOMADOR_DE_ORDENES|52=20170809-12:21:15.821|56=ORDERROUTER|10=168|
20170809-12:22:13: 8=FIX.4.4|9=72|35=0|34=9|49=ORDERROUTER|52=20170809-12:22:14.706|56=TOMADOR_DE_ORDENES|10=171|
20170809-12:22:16: 8=FIX.4.4|9=72|35=0|34=9|49=TOMADOR_DE_ORDENES|52=20170809-12:22:16.818|56=ORDERROUTER|10=177|
20170809-12:23:14: 8=FIX.4.4|9=73|35=0|34=10|49=ORDERROUTER|52=20170809-12:23:15.706|56=TOMADOR_DE_ORDENES|10=214|
20170809-12:23:17: 8=FIX.4.4|9=73|35=0|34=10|49=TOMADOR_DE_ORDENES|52=20170809-12:23:17.830|56=ORDERROUTER|10=214|
20170809-12:24:14: 8=FIX.4.4|9=73|35=0|34=11|49=ORDERROUTER|52=20170809-12:24:15.706|56=TOMADOR_DE_ORDENES|10=216|
20170809-12:24:18: 8=FIX.4.4|9=73|35=0|34=11|49=TOMADOR_DE_ORDENES|52=20170809-12:24:18.827|56=ORDERROUTER|10=223|
20170809-12:25:14: 8=FIX.4.4|9=73|35=0|34=12|49=ORDERROUTER|52=20170809-12:25:15.706|56=TOMADOR_DE_ORDENES|10=218|
20170809-12:25:19: 8=FIX.4.4|9=73|35=0|34=12|49=TOMADOR_DE_ORDENES|52=20170809-12:25:19.824|56=ORDERROUTER|10=223|
20170809-12:26:14: 8=FIX.4.4|9=73|35=0|34=13|49=ORDERROUTER|52=20170809-12:26:15.706|56=TOMADOR_DE_ORDENES|10=220|
20170809-12:26:20: 8=FIX.4.4|9=73|35=0|34=13|49=TOMADOR_DE_ORDENES|52=20170809-12:26:20.821|56=ORDERROUTER|10=214|
20170809-12:27:14: 8=FIX.4.4|9=73|35=0|34=14|49=ORDERROUTER|52=20170809-12:27:15.706|56=TOMADOR_DE_ORDENES|10=222|
20170809-12:27:21: 8=FIX.4.4|9=73|35=0|34=14|49=TOMADOR_DE_ORDENES|52=20170809-12:27:21.833|56=ORDERROUTER|10=220|
20170809-12:28:14: 8=FIX.4.4|9=73|35=0|34=15|49=ORDERROUTER|52=20170809-12:28:15.706|56=TOMADOR_DE_ORDENES|10=224|
20170809-12:28:22: 8=FIX.4.4|9=73|35=0|34=15|49=TOMADOR_DE_ORDENES|52=20170809-12:28:22.830|56=ORDERROUTER|10=220|
20170809-12:29:15: 8=FIX.4.4|9=73|35=0|34=16|49=ORDERROUTER|52=20170809-12:29:16.706|56=TOMADOR_DE_ORDENES|10=227|
20170809-12:29:23: 8=FIX.4.4|9=73|35=0|34=16|49=TOMADOR_DE_ORDENES|52=20170809-12:29:23.827|56=ORDERROUTER|10=229|
20170809-12:30:15: 8=FIX.4.4|9=73|35=0|34=17|49=ORDERROUTER|52=20170809-12:30:16.706|56=TOMADOR_DE_ORDENES|10=220|
20170809-12:30:24: 8=FIX.4.4|9=73|35=0|34=17|49=TOMADOR_DE_ORDENES|52=20170809-12:30:24.824|56=ORDERROUTER|10=220|
20170809-12:31:16: 8=FIX.4.4|9=73|35=0|34=18|49=ORDERROUTER|52=20170809-12:31:17.705|56=TOMADOR_DE_ORDENES|10=222|
20170809-12:31:25: 8=FIX.4.4|9=73|35=0|34=18|49=TOMADOR_DE_ORDENES|52=20170809-12:31:25.836|56=ORDERROUTER|10=226|
20170809-12:32:16: 8=FIX.4.4|9=73|35=0|34=19|49=ORDERROUTER|52=20170809-12:32:17.706|56=TOMADOR_DE_ORDENES|10=225|
20170809-12:32:26: 8=FIX.4.4|9=73|35=0|34=19|49=TOMADOR_DE_ORDENES|52=20170809-12:32:26.833|56=ORDERROUTER|10=226|
20170809-12:33:16: 8=FIX.4.4|9=73|35=0|34=20|49=ORDERROUTER|52=20170809-12:33:17.706|56=TOMADOR_DE_ORDENES|10=218|
20170809-12:33:27: 8=FIX.4.4|9=73|35=0|34=20|49=TOMADOR_DE_ORDENES|52=20170809-12:33:27.829|56=ORDERROUTER|10=225|
20170809-12:34:16: 8=FIX.4.4|9=73|35=0|34=21|49=ORDERROUTER|52=20170809-12:34:17.706|56=TOMADOR_DE_ORDENES|10=220|
20170809-12:34:28: 8=FIX.4.4|9=73|35=0|34=21|49=TOMADOR_DE_ORDENES|52=20170809-12:34:28.826|56=ORDERROUTER|10=225|
20170809-12:35:16: 8=FIX.4.4|9=73|35=0|34=22|49=ORDERROUTER|52=20170809-12:35:17.706|56=TOMADOR_DE_ORDENES|10=222|
20170809-12:35:28: 8=FIX.4.4|9=73|35=0|34=22|49=TOMADOR_DE_ORDENES|52=20170809-12:35:28.840|56=ORDERROUTER|10=223|
20170809-12:36:16: 8=FIX.4.4|9=73|35=0|34=23|49=ORDERROUTER|52=20170809-12:36:17.706|56=TOMADOR_DE_ORDENES|10=224|
20170809-12:36:29: 8=FIX.4.4|9=73|35=0|34=23|49=TOMADOR_DE_ORDENES|52=20170809-12:36:29.837|56=ORDERROUTER|10=232|
20170809-12:37:16: 8=FIX.4.4|9=73|35=0|34=24|49=ORDERROUTER|52=20170809-12:37:17.706|56=TOMADOR_DE_ORDENES|10=226|
20170809-12:37:30: 8=FIX.4.4|9=73|35=0|34=24|49=TOMADOR_DE_ORDENES|52=20170809-12:37:30.834|56=ORDERROUTER|10=223|
20170809-12:38:16: 8=FIX.4.4|9=73|35=0|34=25|49=ORDERROUTER|52=20170809-12:38:17.706|56=TOMADOR_DE_ORDENES|10=228|
20170809-12:38:31: 8=FIX.4.4|9=73|35=0|34=25|49=TOMADOR_DE_ORDENES|52=20170809-12:38:31.831|56=ORDERROUTER|10=223|
20170809-12:39:17: 8=FIX.4.4|9=73|35=0|34=26|49=ORDERROUTER|52=20170809-12:39:18.706|56=TOMADOR_DE_ORDENES|10=231|
20170809-12:39:32: 8=FIX.4.4|9=73|35=0|34=26|49=TOMADOR_DE_ORDENES|52=20170809-12:39:32.827|56=ORDERROUTER|10=231|
20170809-12:40:17: 8=FIX.4.4|9=73|35=0|34=27|49=ORDERROUTER|52=20170809-12:40:18.706|56=TOMADOR_DE_ORDENES|10=224|
20170809-12:40:32: 8=FIX.4.4|9=73|35=0|34=27|49=TOMADOR_DE_ORDENES|52=20170809-12:40:32.841|56=ORDERROUTER|10=220|
20170809-12:41:17: 8=FIX.4.4|9=73|35=0|34=28|49=ORDERROUTER|52=20170809-12:41:18.706|56=TOMADOR_DE_ORDENES|10=226|
20170809-12:41:33: 8=FIX.4.4|9=73|35=0|34=28|49=TOMADOR_DE_ORDENES|52=20170809-12:41:33.838|56=ORDERROUTER|10=229|
20170809-12:42:17: 8=FIX.4.4|9=73|35=0|34=29|49=ORDERROUTER|52=20170809-12:42:18.706|56=TOMADOR_DE_ORDENES|10=228|
20170809-12:42:33: 8=FIX.4.4|9=73|35=0|34=29|49=TOMADOR_DE_ORDENES|52=20170809-12:42:33.899|56=ORDERROUTER|10=238|
20170809-12:43:18: 8=FIX.4.4|9=73|35=0|34=30|49=ORDERROUTER|52=20170809-12:43:19.705|56=TOMADOR_DE_ORDENES|10=221|
20170809-12:43:34: 8=FIX.4.4|9=73|35=0|34=30|49=TOMADOR_DE_ORDENES|52=20170809-12:43:34.833|56=ORDERROUTER|10=220|
20170809-12:44:18: 8=FIX.4.4|9=73|35=0|34=31|49=ORDERROUTER|52=20170809-12:44:19.705|56=TOMADOR_DE_ORDENES|10=223|
20170809-12:44:35: 8=FIX.4.4|9=73|35=0|34=31|49=TOMADOR_DE_ORDENES|52=20170809-12:44:35.830|56=ORDERROUTER|10=220|
20170809-12:45:18: 8=FIX.4.4|9=73|35=0|34=32|49=ORDERROUTER|52=20170809-12:45:19.706|56=TOMADOR_DE_ORDENES|10=226|
20170809-12:45:35: 8=FIX.4.4|9=73|35=0|34=32|49=TOMADOR_DE_ORDENES|52=20170809-12:45:35.844|56=ORDERROUTER|10=227|
20170809-12:46:18: 8=FIX.4.4|9=73|35=0|34=33|49=ORDERROUTER|52=20170809-12:46:19.706|56=TOMADOR_DE_ORDENES|10=228|
20170809-12:46:36: 8=FIX.4.4|9=73|35=0|34=33|49=TOMADOR_DE_ORDENES|52=20170809-12:46:36.841|56=ORDERROUTER|10=227|
20170809-12:47:18: 8=FIX.4.4|9=73|35=0|34=34|49=ORDERROUTER|52=20170809-12:47:19.706|56=TOMADOR_DE_ORDENES|10=230|
20170809-12:47:37: 8=FIX.4.4|9=73|35=0|34=34|49=TOMADOR_DE_ORDENES|52=20170809-12:47:37.838|56=ORDERROUTER|10=236|
20170809-12:48:18: 8=FIX.4.4|9=73|35=0|34=35|49=ORDERROUTER|52=20170809-12:48:19.706|56=TOMADOR_DE_ORDENES|10=232|
20170809-12:48:38: 8=FIX.4.4|9=73|35=0|34=35|49=TOMADOR_DE_ORDENES|52=20170809-12:48:38.834|56=ORDERROUTER|10=235|
20170809-12:49:18: 8=FIX.4.4|9=73|35=0|34=36|49=ORDERROUTER|52=20170809-12:49:19.706|56=TOMADOR_DE_ORDENES|10=234|
20170809-12:49:38: 8=FIX.4.4|9=73|35=0|34=36|49=TOMADOR_DE_ORDENES|52=20170809-12:49:38.848|56=ORDERROUTER|10=242|
20170809-12:50:18: 8=FIX.4.4|9=73|35=0|34=37|49=ORDERROUTER|52=20170809-12:50:19.706|56=TOMADOR_DE_ORDENES|10=227|
20170809-12:50:39: 8=FIX.4.4|9=73|35=0|34=37|49=TOMADOR_DE_ORDENES|52=20170809-12:50:39.845|56=ORDERROUTER|10=233|
20170809-12:51:18: 8=FIX.4.4|9=73|35=0|34=38|49=ORDERROUTER|52=20170809-12:51:19.706|56=TOMADOR_DE_ORDENES|10=229|
20170809-12:51:40: 8=FIX.4.4|9=73|35=0|34=38|49=TOMADOR_DE_ORDENES|52=20170809-12:51:40.842|56=ORDERROUTER|10=224|
20170809-12:52:18: 8=FIX.4.4|9=73|35=0|34=39|49=ORDERROUTER|52=20170809-12:52:19.706|56=TOMADOR_DE_ORDENES|10=231|
20170809-12:52:41: 8=FIX.4.4|9=73|35=0|34=39|49=TOMADOR_DE_ORDENES|52=20170809-12:52:41.839|56=ORDERROUTER|10=233|
20170809-12:53:18: 8=FIX.4.4|9=73|35=0|34=40|49=ORDERROUTER|52=20170809-12:53:19.706|56=TOMADOR_DE_ORDENES|10=224|
20170809-12:53:42: 8=FIX.4.4|9=73|35=0|34=40|49=TOMADOR_DE_ORDENES|52=20170809-12:53:42.851|56=ORDERROUTER|10=221|
20170809-12:54:18: 8=FIX.4.4|9=73|35=0|34=41|49=ORDERROUTER|52=20170809-12:54:19.706|56=TOMADOR_DE_ORDENES|10=226|
20170809-12:54:43: 8=FIX.4.4|9=73|35=0|34=41|49=TOMADOR_DE_ORDENES|52=20170809-12:54:43.848|56=ORDERROUTER|10=230|
20170809-12:55:18: 8=FIX.4.4|9=73|35=0|34=42|49=ORDERROUTER|52=20170809-12:55:19.706|56=TOMADOR_DE_ORDENES|10=228|
20170809-12:55:44: 8=FIX.4.4|9=73|35=0|34=42|49=TOMADOR_DE_ORDENES|52=20170809-12:55:44.845|56=ORDERROUTER|10=230|
20170809-12:56:18: 8=FIX.4.4|9=73|35=0|34=43|49=ORDERROUTER|52=20170809-12:56:19.706|56=TOMADOR_DE_ORDENES|10=230|
20170809-12:56:45: 8=FIX.4.4|9=73|35=0|34=43|49=TOMADOR_DE_ORDENES|52=20170809-12:56:45.841|56=ORDERROUTER|10=229|
20170809-12:57:19: 8=FIX.4.4|9=73|35=0|34=44|49=ORDERROUTER|52=20170809-12:57:20.705|56=TOMADOR_DE_ORDENES|10=223|
20170809-12:57:46: 8=FIX.4.4|9=73|35=0|34=44|49=TOMADOR_DE_ORDENES|52=20170809-12:57:46.854|56=ORDERROUTER|10=236|
20170809-12:58:19: 8=FIX.4.4|9=73|35=0|34=45|49=ORDERROUTER|52=20170809-12:58:20.706|56=TOMADOR_DE_ORDENES|10=226|
20170809-12:58:47: 8=FIX.4.4|9=73|35=0|34=45|49=TOMADOR_DE_ORDENES|52=20170809-12:58:47.851|56=ORDERROUTER|10=236|
20170809-12:59:19: 8=FIX.4.4|9=73|35=0|34=46|49=ORDERROUTER|52=20170809-12:59:20.706|56=TOMADOR_DE_ORDENES|10=228|
20170809-12:59:48: 8=FIX.4.4|9=73|35=0|34=46|49=TOMADOR_DE_ORDENES|52=20170809-12:59:48.847|56=ORDERROUTER|10=244|
20170809-13:00:20: 8=FIX.4.4|9=73|35=0|34=47|49=ORDERROUTER|52=20170809-13:00:21.706|56=TOMADOR_DE_ORDENES|10=217|
20170809-13:00:49: 8=FIX.4.4|9=73|35=0|34=47|49=TOMADOR_DE_ORDENES|52=20170809-13:00:49.844|56=ORDERROUTER|10=230|
20170809-13:01:20: 8=FIX.4.4|9=73|35=0|34=48|49=ORDERROUTER|52=20170809-13:01:21.706|56=TOMADOR_DE_ORDENES|10=219|
20170809-13:01:48: 8=FIX.4.4|9=279|35=D|34=48|49=TOMADOR_DE_ORDENES|50=gjorquer@1200@0062|52=20170809-13:01:48.594|56=ORDERROUTER|1=4898889K-00|11=66b4355dd4c6b362|21=3|38=3508137|40=2|44=5.75|54=2|55=ORO BLANCO|59=0|60=20170809-13:01:48.579|63=3|100=XSGO|207=XSGO|453=2|448=LVPOOL|447=D|452=1|448=666|447=D|452=7|10=197|
20170809-13:01:48: 8=FIX.4.4|9=401|35=8|34=49|49=ORDERROUTER|52=20170809-13:01:49.803|56=TOMADOR_DE_ORDENES|57=gjorquer@1200@0062|1=4898889K-00|6=0|11=66b4355dd4c6b362|14=0|17=7f0101220ac2406c|21=3|31=0|32=0|37=7cf36cfe3dea4833|38=3508137|39=A|40=2|44=5.75|54=2|55=ORO BLANCO|58=New Sell ORO BLANCO 3508137.0 @ 5.75|59=0|60=20170809-13:01:49.802|63=3|100=XSGO|150=A|151=3508137|207=XSGO|453=2|448=LVPOOL|447=D|452=1|448=666|447=D|452=7|10=150|
20170809-13:02:48: 8=FIX.4.4|9=73|35=0|34=49|49=TOMADOR_DE_ORDENES|52=20170809-13:02:48.842|56=ORDERROUTER|10=231|
20170809-13:02:48: 8=FIX.4.4|9=73|35=0|34=50|49=ORDERROUTER|52=20170809-13:02:50.045|56=TOMADOR_DE_ORDENES|10=211|
20170809-13:03:48: 8=FIX.4.4|9=73|35=0|34=50|49=TOMADOR_DE_ORDENES|52=20170809-13:03:48.856|56=ORDERROUTER|10=229|
20170809-13:03:48: 8=FIX.4.4|9=73|35=0|34=51|49=ORDERROUTER|52=20170809-13:03:50.061|56=TOMADOR_DE_ORDENES|10=211|
20170809-13:04:49: 8=FIX.4.4|9=73|35=0|34=52|49=ORDERROUTER|52=20170809-13:04:50.705|56=TOMADOR_DE_ORDENES|10=218|
20170809-13:04:49: 8=FIX.4.4|9=73|35=0|34=51|49=TOMADOR_DE_ORDENES|52=20170809-13:04:49.494|56=ORDERROUTER|10=230|
20170809-13:05:49: 8=FIX.4.4|9=73|35=0|34=53|49=ORDERROUTER|52=20170809-13:05:50.705|56=TOMADOR_DE_ORDENES|10=220|
20170809-13:05:49: 8=FIX.4.4|9=73|35=0|34=52|49=TOMADOR_DE_ORDENES|52=20170809-13:05:49.852|56=ORDERROUTER|10=230|
20170809-13:06:49: 8=FIX.4.4|9=73|35=0|34=54|49=ORDERROUTER|52=20170809-13:06:50.706|56=TOMADOR_DE_ORDENES|10=223|
20170809-13:06:50: 8=FIX.4.4|9=73|35=0|34=53|49=TOMADOR_DE_ORDENES|52=20170809-13:06:50.848|56=ORDERROUTER|10=229|
20170809-13:07:49: 8=FIX.4.4|9=73|35=0|34=55|49=ORDERROUTER|52=20170809-13:07:50.706|56=TOMADOR_DE_ORDENES|10=225|
20170809-13:07:51: 8=FIX.4.4|9=73|35=0|34=54|49=TOMADOR_DE_ORDENES|52=20170809-13:07:51.861|56=ORDERROUTER|10=227|
20170809-13:08:50: 8=FIX.4.4|9=73|35=0|34=56|49=ORDERROUTER|52=20170809-13:08:51.705|56=TOMADOR_DE_ORDENES|10=227|
20170809-13:08:52: 8=FIX.4.4|9=73|35=0|34=55|49=TOMADOR_DE_ORDENES|52=20170809-13:08:52.858|56=ORDERROUTER|10=236|
20170809-13:09:02: 8=FIX.4.4|9=401|35=8|34=57|49=ORDERROUTER|52=20170809-13:09:03.690|56=TOMADOR_DE_ORDENES|57=gjorquer@1200@0062|1=4898889K-00|6=0|11=66b4355dd4c6b362|14=0|17=1fea637586fb4f82|21=3|31=0|32=0|37=7cf36cfe3dea4833|38=3508137|39=0|40=2|44=5.75|54=2|55=ORO BLANCO|58=New Sell ORO BLANCO 3508137.0 @ 5.75|59=0|60=20170809-13:09:03.689|63=3|100=XSGO|150=0|151=3508137|207=XSGO|453=2|448=LVPOOL|447=D|452=1|448=666|447=D|452=7|10=006|
20170809-13:09:53: 8=FIX.4.4|9=73|35=0|34=56|49=TOMADOR_DE_ORDENES|52=20170809-13:09:53.854|56=ORDERROUTER|10=235|
20170809-13:10:02: 8=FIX.4.4|9=73|35=0|34=58|49=ORDERROUTER|52=20170809-13:10:03.706|56=TOMADOR_DE_ORDENES|10=220|
20170809-13:10:54: 8=FIX.4.4|9=73|35=0|34=57|49=TOMADOR_DE_ORDENES|52=20170809-13:10:54.851|56=ORDERROUTER|10=226|
20170809-13:11:02: 8=FIX.4.4|9=73|35=0|34=59|49=ORDERROUTER|52=20170809-13:11:03.706|56=TOMADOR_DE_ORDENES|10=222|
20170809-13:11:55: 8=FIX.4.4|9=73|35=0|34=58|49=TOMADOR_DE_ORDENES|52=20170809-13:11:55.863|56=ORDERROUTER|10=232|
20170809-13:12:03: 8=FIX.4.4|9=73|35=0|34=60|49=ORDERROUTER|52=20170809-13:12:04.706|56=TOMADOR_DE_ORDENES|10=216|
20170809-13:12:56: 8=FIX.4.4|9=73|35=0|34=59|49=TOMADOR_DE_ORDENES|52=20170809-13:12:56.860|56=ORDERROUTER|10=232|
20170809-13:13:03: 8=FIX.4.4|9=73|35=0|34=61|49=ORDERROUTER|52=20170809-13:13:04.706|56=TOMADOR_DE_ORDENES|10=218|
20170809-13:13:57: 8=FIX.4.4|9=73|35=0|34=60|49=TOMADOR_DE_ORDENES|52=20170809-13:13:57.857|56=ORDERROUTER|10=232|
20170809-13:14:04: 8=FIX.4.4|9=73|35=0|34=62|49=ORDERROUTER|52=20170809-13:14:05.706|56=TOMADOR_DE_ORDENES|10=221|
20170809-13:14:58: 8=FIX.4.4|9=73|35=0|34=61|49=TOMADOR_DE_ORDENES|52=20170809-13:14:58.854|56=ORDERROUTER|10=232|
20170809-13:15:05: 8=FIX.4.4|9=73|35=0|34=63|49=ORDERROUTER|52=20170809-13:15:06.706|56=TOMADOR_DE_ORDENES|10=224|
20170809-13:15:59: 8=FIX.4.4|9=73|35=0|34=62|49=TOMADOR_DE_ORDENES|52=20170809-13:15:59.866|56=ORDERROUTER|10=238|
20170809-13:16:05: 8=FIX.4.4|9=73|35=0|34=64|49=ORDERROUTER|52=20170809-13:16:06.706|56=TOMADOR_DE_ORDENES|10=226|
20170809-13:17:00: 8=FIX.4.4|9=73|35=0|34=63|49=TOMADOR_DE_ORDENES|52=20170809-13:17:00.863|56=ORDERROUTER|10=224|
20170809-13:17:05: 8=FIX.4.4|9=73|35=0|34=65|49=ORDERROUTER|52=20170809-13:17:06.706|56=TOMADOR_DE_ORDENES|10=228|
20170809-13:18:01: 8=FIX.4.4|9=73|35=0|34=64|49=TOMADOR_DE_ORDENES|52=20170809-13:18:01.860|56=ORDERROUTER|10=224|
20170809-13:18:06: 8=FIX.4.4|9=73|35=0|34=66|49=ORDERROUTER|52=20170809-13:18:07.706|56=TOMADOR_DE_ORDENES|10=231|
20170809-13:19:02: 8=FIX.4.4|9=73|35=0|34=65|49=TOMADOR_DE_ORDENES|52=20170809-13:19:02.857|56=ORDERROUTER|10=233|
20170809-13:19:06: 8=FIX.4.4|9=73|35=0|34=67|49=ORDERROUTER|52=20170809-13:19:07.706|56=TOMADOR_DE_ORDENES|10=233|
20170809-13:20:03: 8=FIX.4.4|9=73|35=0|34=66|49=TOMADOR_DE_ORDENES|52=20170809-13:20:03.853|56=ORDERROUTER|10=223|
20170809-13:20:06: 8=FIX.4.4|9=73|35=0|34=68|49=ORDERROUTER|52=20170809-13:20:07.706|56=TOMADOR_DE_ORDENES|10=226|
20170809-13:20:37: 8=FIX.4.4|9=275|35=D|34=67|49=TOMADOR_DE_ORDENES|50=gjorquer@1200@0062|52=20170809-13:20:37.799|56=ORDERROUTER|1=787666906-00|11=2582835a19b34e6d|21=3|38=300|40=2|44=9600|54=2|55=ELECMETAL|59=0|60=20170809-13:20:37.753|63=3|100=XSGO|207=XSGO|453=2|448=LVPOOL|447=D|452=1|448=666|447=D|452=7|10=159|
20170809-13:20:37: 8=FIX.4.4|9=390|35=8|34=69|49=ORDERROUTER|52=20170809-13:20:39.019|56=TOMADOR_DE_ORDENES|57=gjorquer@1200@0062|1=787666906-00|6=0|11=2582835a19b34e6d|14=0|17=45c550ad5a8e41bc|21=3|31=0|32=0|37=588fc22bb7e4472c|38=300|39=A|40=2|44=9600|54=2|55=ELECMETAL|58=New Sell ELECMETAL 300.0 @ 9600.0|59=0|60=20170809-13:20:39.018|63=3|100=XSGO|150=A|151=300|207=XSGO|453=2|448=LVPOOL|447=D|452=1|448=666|447=D|452=7|10=056|
20170809-13:20:58: 8=FIX.4.4|9=391|35=8|34=70|49=ORDERROUTER|52=20170809-13:20:59.475|56=TOMADOR_DE_ORDENES|57=gjorquer@1200@0062|1=787666906-00|6=0|11=2582835a19b34e6d|14=0|17=-37828aae528fbce1|21=3|31=0|32=0|37=588fc22bb7e4472c|38=300|39=0|40=2|44=9600|54=2|55=ELECMETAL|58=New Sell ELECMETAL 300.0 @ 9600.0|59=0|60=20170809-13:20:59.474|63=3|100=XSGO|150=0|151=300|207=XSGO|453=2|448=LVPOOL|447=D|452=1|448=666|447=D|452=7|10=087|
20170809-13:21:37: 8=FIX.4.4|9=73|35=0|34=68|49=TOMADOR_DE_ORDENES|52=20170809-13:21:37.860|56=ORDERROUTER|10=231|
20170809-13:21:58: 8=FIX.4.4|9=73|35=0|34=71|49=ORDERROUTER|52=20170809-13:21:59.706|56=TOMADOR_DE_ORDENES|10=228|
20170809-13:22:38: 8=FIX.4.4|9=73|35=0|34=69|49=TOMADOR_DE_ORDENES|52=20170809-13:22:38.857|56=ORDERROUTER|10=240|
20170809-13:22:58: 8=FIX.4.4|9=73|35=0|34=72|49=ORDERROUTER|52=20170809-13:22:59.706|56=TOMADOR_DE_ORDENES|10=230|
20170809-13:23:38: 8=FIX.4.4|9=73|35=0|34=70|49=TOMADOR_DE_ORDENES|52=20170809-13:23:38.871|56=ORDERROUTER|10=229|
20170809-13:23:58: 8=FIX.4.4|9=73|35=0|34=73|49=ORDERROUTER|52=20170809-13:23:59.706|56=TOMADOR_DE_ORDENES|10=232|
20170809-13:24:39: 8=FIX.4.4|9=73|35=0|34=71|49=TOMADOR_DE_ORDENES|52=20170809-13:24:39.868|56=ORDERROUTER|10=238|
20170809-13:24:58: 8=FIX.4.4|9=73|35=0|34=74|49=ORDERROUTER|52=20170809-13:24:59.706|56=TOMADOR_DE_ORDENES|10=234|
20170809-13:25:40: 8=FIX.4.4|9=73|35=0|34=72|49=TOMADOR_DE_ORDENES|52=20170809-13:25:40.864|56=ORDERROUTER|10=228|
20170809-13:25:59: 8=FIX.4.4|9=73|35=0|34=75|49=ORDERROUTER|52=20170809-13:26:00.706|56=TOMADOR_DE_ORDENES|10=223|
20170809-13:26:41: 8=FIX.4.4|9=73|35=0|34=73|49=TOMADOR_DE_ORDENES|52=20170809-13:26:41.861|56=ORDERROUTER|10=228|
20170809-13:26:59: 8=FIX.4.4|9=73|35=0|34=76|49=ORDERROUTER|52=20170809-13:27:00.706|56=TOMADOR_DE_ORDENES|10=225|
20170809-13:27:42: 8=FIX.4.4|9=73|35=0|34=74|49=TOMADOR_DE_ORDENES|52=20170809-13:27:42.874|56=ORDERROUTER|10=235|
20170809-13:28:00: 8=FIX.4.4|9=73|35=0|34=77|49=ORDERROUTER|52=20170809-13:28:01.706|56=TOMADOR_DE_ORDENES|10=228|
20170809-13:28:43: 8=FIX.4.4|9=73|35=0|34=75|49=TOMADOR_DE_ORDENES|52=20170809-13:28:43.870|56=ORDERROUTER|10=234|
20170809-13:29:00: 8=FIX.4.4|9=73|35=0|34=78|49=ORDERROUTER|52=20170809-13:29:01.706|56=TOMADOR_DE_ORDENES|10=230|
20170809-13:29:09: 8=FIX.4.4|9=276|35=D|34=76|49=TOMADOR_DE_ORDENES|50=surarte@1237@0965|52=20170809-13:29:09.236|56=ORDERROUTER|1=13478740-00|11=596247abc19fbb04|21=3|38=272210|40=2|44=285|54=2|55=SM-CHILE B|59=0|60=20170809-13:29:09.236|63=3|100=XSGO|207=XSGO|453=2|448=LVPOOL|447=D|452=1|448=666|447=D|452=7|10=212|
20170809-13:29:09: 8=FIX.4.4|9=399|35=8|34=79|49=ORDERROUTER|52=20170809-13:29:10.461|56=TOMADOR_DE_ORDENES|57=surarte@1237@0965|1=13478740-00|6=0|11=596247abc19fbb04|14=0|17=-15dde1c53bcfb5ca|21=3|31=0|32=0|37=-7f385e4616aabf86|38=272210|39=A|40=2|44=285|54=2|55=SM-CHILE B|58=New Sell SM-CHILE B 272210.0 @ 285.0|59=0|60=20170809-13:29:10.460|63=3|100=XSGO|150=A|151=272210|207=XSGO|453=2|448=LVPOOL|447=D|452=1|448=666|447=D|452=7|10=112|
20170809-13:29:15: 8=FIX.4.4|9=275|35=D|34=77|49=TOMADOR_DE_ORDENES|50=gjorquer@1200@0061|52=20170809-13:29:15.430|56=ORDERROUTER|1=966971304-00|11=e0f67e643c24316|21=3|38=30000|40=2|44=58|54=1|55=SECURI-OSA|59=0|60=20170809-13:29:15.430|63=3|100=XSGO|207=XSGO|453=2|448=LVPOOL|447=D|452=1|448=666|447=D|452=7|10=154|
20170809-13:29:15: 8=FIX.4.4|9=392|35=8|34=80|49=ORDERROUTER|52=20170809-13:29:16.657|56=TOMADOR_DE_ORDENES|57=gjorquer@1200@0061|1=966971304-00|6=0|11=e0f67e643c24316|14=0|17=77655b5f60ea4d47|21=3|31=0|32=0|37=624fdfd039e446c6|38=30000|39=A|40=2|44=58|54=1|55=SECURI-OSA|58=New Buy SECURI-OSA 30000.0 @ 58.0|59=0|60=20170809-13:29:16.656|63=3|100=XSGO|150=A|151=30000|207=XSGO|453=2|448=LVPOOL|447=D|452=1|448=666|447=D|452=7|10=086|
20170809-13:29:23: 8=FIX.4.4|9=272|35=D|34=78|49=TOMADOR_DE_ORDENES|50=jpott@0397@0276|52=20170809-13:29:23.198|56=ORDERROUTER|1=6370945K-00|11=4d9fa87e596db9ce|21=3|38=1000|40=2|44=6500|54=1|55=CRISTALES|59=0|60=20170809-13:29:23.183|63=3|100=XSGO|207=XSGO|453=2|448=LVPOOL|447=D|452=1|448=666|447=D|452=7|10=101|
20170809-13:29:23: 8=FIX.4.4|9=386|35=8|34=81|49=ORDERROUTER|52=20170809-13:29:24.438|56=TOMADOR_DE_ORDENES|57=jpott@0397@0276|1=6370945K-00|6=0|11=4d9fa87e596db9ce|14=0|17=402bee5e4c904658|21=3|31=0|32=0|37=555d70ddc84061|38=1000|39=A|40=2|44=6500|54=1|55=CRISTALES|58=New Buy CRISTALES 1000.0 @ 6500.0|59=0|60=20170809-13:29:24.437|63=3|100=XSGO|150=A|151=1000|207=XSGO|453=2|448=LVPOOL|447=D|452=1|448=666|447=D|452=7|10=003|
20170809-13:30:01: 8=FIX.4.4|9=267|35=D|34=79|49=TOMADOR_DE_ORDENES|50=jpott@0397@0276|52=20170809-13:30:01.403|56=ORDERROUTER|1=60643326-00|11=52d23e31bce1bf59|21=3|38=4426|40=2|44=790|54=2|55=HITES|59=0|60=20170809-13:30:01.388|63=3|100=XSGO|207=XSGO|453=2|448=LVPOOL|447=D|452=1|448=666|447=D|452=7|10=154|
20170809-13:30:01: 8=FIX.4.4|9=379|35=8|34=82|49=ORDERROUTER|52=20170809-13:30:02.627|56=TOMADOR_DE_ORDENES|57=jpott@0397@0276|1=60643326-00|6=0|11=52d23e31bce1bf59|14=0|17=4342f87d12c346cb|21=3|31=0|32=0|37=6785e057cbf043a2|38=4426|39=A|40=2|44=790|54=2|55=HITES|58=New Sell HITES 4426.0 @ 790.0|59=0|60=20170809-13:30:02.626|63=3|100=XSGO|150=A|151=4426|207=XSGO|453=2|448=LVPOOL|447=D|452=1|448=666|447=D|452=7|10=243|
20170809-13:30:10: 8=FIX.4.4|9=270|35=D|34=80|49=TOMADOR_DE_ORDENES|50=surarte@1237@0965|52=20170809-13:30:10.810|56=ORDERROUTER|1=13478740-00|11=2b131a9309714a86|21=3|38=5639|40=2|44=6900|54=2|55=ENTEL|59=0|60=20170809-13:30:10.795|63=3|100=XSGO|207=XSGO|453=2|448=LVPOOL|447=D|452=1|448=666|447=D|452=7|10=217|
20170809-13:30:10: 8=FIX.4.4|9=384|35=8|34=83|49=ORDERROUTER|52=20170809-13:30:12.035|56=TOMADOR_DE_ORDENES|57=surarte@1237@0965|1=13478740-00|6=0|11=2b131a9309714a86|14=0|17=2d7324f9e58f4c1c|21=3|31=0|32=0|37=-642b2e365850ba0d|38=5639|39=A|40=2|44=6900|54=2|55=ENTEL|58=New Sell ENTEL 5639.0 @ 6900.0|59=0|60=20170809-13:30:12.034|63=3|100=XSGO|150=A|151=5639|207=XSGO|453=2|448=LVPOOL|447=D|452=1|448=666|447=D|452=7|10=195|
20170809-13:30:22: 8=FIX.4.4|9=273|35=D|34=81|49=TOMADOR_DE_ORDENES|50=mnieto@0555@0555|52=20170809-13:30:22.183|56=ORDERROUTER|1=48233716-00|11=4a9445376d64017|21=3|38=940680|40=2|44=6.03|54=2|55=ITAUCORP|59=0|60=20170809-13:30:22.183|63=3|100=XSGO|207=XSGO|453=2|448=LVPOOL|447=D|452=1|448=666|447=D|452=7|10=082|
20170809-13:30:22: 8=FIX.4.4|9=393|35=8|34=84|49=ORDERROUTER|52=20170809-13:30:23.423|56=TOMADOR_DE_ORDENES|57=mnieto@0555@0555|1=48233716-00|6=0|11=4a9445376d64017|14=0|17=-43e58170c996b14a|21=3|31=0|32=0|37=-204d1350d877b619|38=940680|39=A|40=2|44=6.03|54=2|55=ITAUCORP|58=New Sell ITAUCORP 940680.0 @ 6.03|59=0|60=20170809-13:30:23.422|63=3|100=XSGO|150=A|151=940680|207=XSGO|453=2|448=LVPOOL|447=D|452=1|448=666|447=D|452=7|10=001|
20170809-13:30:30: 8=FIX.4.4|9=385|35=8|34=85|49=ORDERROUTER|52=20170809-13:30:31.448|56=TOMADOR_DE_ORDENES|57=surarte@1237@0965|1=13478740-00|6=0|11=2b131a9309714a86|14=0|17=-5ef216f8d790b398|21=3|31=0|32=0|37=-642b2e365850ba0d|38=5639|39=0|40=2|44=6900|54=2|55=ENTEL|58=New Sell ENTEL 5639.0 @ 6900.0|59=0|60=20170809-13:30:31.447|63=3|100=XSGO|150=0|151=5639|207=XSGO|453=2|448=LVPOOL|447=D|452=1|448=666|447=D|452=7|10=188|
20170809-13:30:39: 8=FIX.4.4|9=392|35=8|34=86|49=ORDERROUTER|52=20170809-13:30:41.131|56=TOMADOR_DE_ORDENES|57=mnieto@0555@0555|1=48233716-00|6=0|11=4a9445376d64017|14=0|17=62304e57f190426b|21=3|31=0|32=0|37=-204d1350d877b619|38=940680|39=0|40=2|44=6.03|54=2|55=ITAUCORP|58=New Sell ITAUCORP 940680.0 @ 6.03|59=0|60=20170809-13:30:41.131|63=3|100=XSGO|150=0|151=940680|207=XSGO|453=2|448=LVPOOL|447=D|452=1|448=666|447=D|452=7|10=118|
20170809-13:30:43: 8=FIX.4.4|9=404|35=8|34=87|49=ORDERROUTER|52=20170809-13:30:44.560|56=TOMADOR_DE_ORDENES|57=mnieto@0555@0555|1=48233716-00|6=6.03|11=4a9445376d64017|14=328462|17=ex1722141097|21=3|31=6.03|32=328462|37=-204d1350d877b619|38=940680|39=1|40=2|44=6.03|54=2|55=ITAUCORP|58=New Sell ITAUCORP 940680.0 @ 6.03|59=0|60=20170809-13:30:44.559|63=3|100=XSGO|150=F|151=612218|207=XSGO|453=2|448=LVPOOL|447=D|452=1|448=666|447=D|452=7|10=236|
20170809-13:30:43: 8=FIX.4.4|9=399|35=8|34=88|49=ORDERROUTER|52=20170809-13:30:44.567|56=TOMADOR_DE_ORDENES|57=mnieto@0555@0555|1=48233716-00|6=6.03|11=4a9445376d64017|14=940680|17=ex1722141099|21=3|31=6.03|32=612218|37=-204d1350d877b619|38=940680|39=2|40=2|44=6.03|54=2|55=ITAUCORP|58=New Sell ITAUCORP 940680.0 @ 6.03|59=0|60=20170809-13:30:44.567|63=3|100=XSGO|150=F|151=0|207=XSGO|453=2|448=LVPOOL|447=D|452=1|448=666|447=D|452=7|10=252|
20170809-13:30:49: 8=FIX.4.4|9=278|35=D|34=82|49=TOMADOR_DE_ORDENES|50=gledesma@0032@0032|52=20170809-13:30:49.791|56=ORDERROUTER|1=9399485K-00|11=4dcdce4ce5274867|21=3|38=730000|40=2|44=82.5|54=2|55=NUEVAPOLAR|59=0|60=20170809-13:30:49.775|63=3|100=XSGO|207=XSGO|453=2|448=LVPOOL|447=D|452=1|448=666|447=D|452=7|10=244|
20170809-13:30:49: 8=FIX.4.4|9=398|35=8|34=89|49=ORDERROUTER|52=20170809-13:30:51.022|56=TOMADOR_DE_ORDENES|57=gledesma@0032@0032|1=9399485K-00|6=0|11=4dcdce4ce5274867|14=0|17=4d71e43182a04827|21=3|31=0|32=0|37=6bba563e38124855|38=730000|39=A|40=2|44=82.5|54=2|55=NUEVAPOLAR|58=New Sell NUEVAPOLAR 730000.0 @ 82.5|59=0|60=20170809-13:30:51.022|63=3|100=XSGO|150=A|151=730000|207=XSGO|453=2|448=LVPOOL|447=D|452=1|448=666|447=D|452=7|10=158|
20170809-13:31:11: 8=FIX.4.4|9=277|35=D|34=83|49=TOMADOR_DE_ORDENES|50=gledesma@0032@0032|52=20170809-13:31:11.725|56=ORDERROUTER|1=9399485K-01|11=53a35afd1355b220|21=3|38=75500|40=2|44=82.5|54=2|55=NUEVAPOLAR|59=0|60=20170809-13:31:11.725|63=3|100=XSGO|207=XSGO|453=2|448=LVPOOL|447=D|452=1|448=666|447=D|452=7|10=054|
20170809-13:31:11: 8=FIX.4.4|9=396|35=8|34=90|49=ORDERROUTER|52=20170809-13:31:12.958|56=TOMADOR_DE_ORDENES|57=gledesma@0032@0032|1=9399485K-01|6=0|11=53a35afd1355b220|14=0|17=-1884416480ddbed4|21=3|31=0|32=0|37=7579ce2ffc0d413d|38=75500|39=A|40=2|44=82.5|54=2|55=NUEVAPOLAR|58=New Sell NUEVAPOLAR 75500.0 @ 82.5|59=0|60=20170809-13:31:12.957|63=3|100=XSGO|150=A|151=75500|207=XSGO|453=2|448=LVPOOL|447=D|452=1|448=666|447=D|452=7|10=229|
20170809-13:32:03: 8=FIX.4.4|9=275|35=D|34=84|49=TOMADOR_DE_ORDENES|50=jpott@0397@0948|52=20170809-13:32:03.174|56=ORDERROUTER|1=763769828-00|11=4a20d44691fa4848|21=3|38=230000|40=2|44=282|54=2|55=SM-CHILE B|59=0|60=20170809-13:32:03.159|63=3|100=XSGO|207=XSGO|453=2|448=LVPOOL|447=D|452=1|448=666|447=D|452=7|10=206|
20170809-13:32:03: 8=FIX.4.4|9=398|35=8|34=91|49=ORDERROUTER|52=20170809-13:32:04.395|56=TOMADOR_DE_ORDENES|57=jpott@0397@0948|1=763769828-00|6=0|11=4a20d44691fa4848|14=0|17=-352529cf36e2b9fb|21=3|31=0|32=0|37=-55e2af25d72ebe80|38=230000|39=A|40=2|44=282|54=2|55=SM-CHILE B|58=New Sell SM-CHILE B 230000.0 @ 282.0|59=0|60=20170809-13:32:04.395|63=3|100=XSGO|150=A|151=230000|207=XSGO|453=2|448=LVPOOL|447=D|452=1|448=666|447=D|452=7|10=224|
20170809-13:32:22: 8=FIX.4.4|9=277|35=D|34=85|49=TOMADOR_DE_ORDENES|50=gledesma@0032@0032|52=20170809-13:32:22.331|56=ORDERROUTER|1=9399485K-00|11=7fc042069d4bb875|21=3|38=1200000|40=2|44=6.02|54=2|55=ITAUCORP|59=0|60=20170809-13:32:22.316|63=3|100=XSGO|207=XSGO|453=2|448=LVPOOL|447=D|452=1|448=666|447=D|452=7|10=252|
20170809-13:32:22: 8=FIX.4.4|9=397|35=8|34=92|49=ORDERROUTER|52=20170809-13:32:23.550|56=TOMADOR_DE_ORDENES|57=gledesma@0032@0032|1=9399485K-00|6=0|11=7fc042069d4bb875|14=0|17=5279a1fd341f41b0|21=3|31=0|32=0|37=-158f336cd44b2c5|38=1200000|39=A|40=2|44=6.02|54=2|55=ITAUCORP|58=New Sell ITAUCORP 1200000.0 @ 6.02|59=0|60=20170809-13:32:23.549|63=3|100=XSGO|150=A|151=1200000|207=XSGO|453=2|448=LVPOOL|447=D|452=1|448=666|447=D|452=7|10=010|
20170809-13:32:52: 8=FIX.4.4|9=398|35=8|34=93|49=ORDERROUTER|52=20170809-13:32:53.671|56=TOMADOR_DE_ORDENES|57=surarte@1237@0965|1=13478740-00|6=0|11=596247abc19fbb04|14=0|17=4b8e5afd7ce1445b|21=3|31=0|32=0|37=-7f385e4616aabf86|38=272210|39=0|40=2|44=285|54=2|55=SM-CHILE B|58=New Sell SM-CHILE B 272210.0 @ 285.0|59=0|60=20170809-13:32:53.671|63=3|100=XSGO|150=0|151=272210|207=XSGO|453=2|448=LVPOOL|447=D|452=1|448=666|447=D|452=7|10=210|
20170809-13:33:01: 8=FIX.4.4|9=386|35=8|34=94|49=ORDERROUTER|52=20170809-13:33:02.502|56=TOMADOR_DE_ORDENES|57=jpott@0397@0276|1=6370945K-00|6=0|11=4d9fa87e596db9ce|14=0|17=7372da07e3b14ddb|21=3|31=0|32=0|37=555d70ddc84061|38=1000|39=0|40=2|44=6500|54=1|55=CRISTALES|58=New Buy CRISTALES 1000.0 @ 6500.0|59=0|60=20170809-13:33:02.501|63=3|100=XSGO|150=0|151=1000|207=XSGO|453=2|448=LVPOOL|447=D|452=1|448=666|447=D|452=7|10=024|
20170809-13:33:05: 8=FIX.4.4|9=379|35=8|34=95|49=ORDERROUTER|52=20170809-13:33:06.679|56=TOMADOR_DE_ORDENES|57=jpott@0397@0276|1=60643326-00|6=0|11=52d23e31bce1bf59|14=0|17=-a717a2f71f3b3af|21=3|31=0|32=0|37=6785e057cbf043a2|38=4426|39=0|40=2|44=790|54=2|55=HITES|58=New Sell HITES 4426.0 @ 790.0|59=0|60=20170809-13:33:06.678|63=3|100=XSGO|150=0|151=4426|207=XSGO|453=2|448=LVPOOL|447=D|452=1|448=666|447=D|452=7|10=070|
20170809-13:33:09: 8=FIX.4.4|9=275|35=D|34=86|49=TOMADOR_DE_ORDENES|50=gledesma@0032@0032|52=20170809-13:33:09.959|56=ORDERROUTER|1=9399485K-00|11=55efbc503cd6ba76|21=3|38=280000|40=2|44=126.5|54=2|55=ENELAM|59=0|60=20170809-13:33:09.959|63=3|100=XSGO|207=XSGO|453=2|448=LVPOOL|447=D|452=1|448=666|447=D|452=7|10=006|
20170809-13:33:09: 8=FIX.4.4|9=392|35=8|34=96|49=ORDERROUTER|52=20170809-13:33:11.193|56=TOMADOR_DE_ORDENES|57=gledesma@0032@0032|1=9399485K-00|6=0|11=55efbc503cd6ba76|14=0|17=49a65d03c2d14737|21=3|31=0|32=0|37=3db558e3bad44964|38=280000|39=A|40=2|44=126.5|54=2|55=ENELAM|58=New Sell ENELAM 280000.0 @ 126.5|59=0|60=20170809-13:33:11.193|63=3|100=XSGO|150=A|151=280000|207=XSGO|453=2|448=LVPOOL|447=D|452=1|448=666|447=D|452=7|10=040|
20170809-13:33:17: 8=FIX.4.4|9=398|35=8|34=97|49=ORDERROUTER|52=20170809-13:33:18.801|56=TOMADOR_DE_ORDENES|57=jpott@0397@0948|1=763769828-00|6=0|11=4a20d44691fa4848|14=0|17=-73b25bb692adb477|21=3|31=0|32=0|37=-55e2af25d72ebe80|38=230000|39=0|40=2|44=282|54=2|55=SM-CHILE B|58=New Sell SM-CHILE B 230000.0 @ 282.0|59=0|60=20170809-13:33:18.800|63=3|100=XSGO|150=0|151=230000|207=XSGO|453=2|448=LVPOOL|447=D|452=1|448=666|447=D|452=7|10=186|
20170809-13:33:24: 8=FIX.4.4|9=398|35=8|34=98|49=ORDERROUTER|52=20170809-13:33:25.846|56=TOMADOR_DE_ORDENES|57=gledesma@0032@0032|1=9399485K-00|6=0|11=7fc042069d4bb875|14=0|17=-1688ef1fc51ebdd8|21=3|31=0|32=0|37=-158f336cd44b2c5|38=1200000|39=0|40=2|44=6.02|54=2|55=ITAUCORP|58=New Sell ITAUCORP 1200000.0 @ 6.02|59=0|60=20170809-13:33:25.844|63=3|100=XSGO|150=0|151=1200000|207=XSGO|453=2|448=LVPOOL|447=D|452=1|448=666|447=D|452=7|10=201|
20170809-13:33:30: 8=FIX.4.4|9=407|35=8|34=99|49=ORDERROUTER|52=20170809-13:33:32.178|56=TOMADOR_DE_ORDENES|57=gledesma@0032@0032|1=9399485K-00|6=6.03|11=7fc042069d4bb875|14=98030|17=ex1722142216|21=3|31=6.03|32=98030|37=-158f336cd44b2c5|38=1200000|39=1|40=2|44=6.02|54=2|55=ITAUCORP|58=New Sell ITAUCORP 1200000.0 @ 6.02|59=0|60=20170809-13:33:32.178|63=3|100=XSGO|150=F|151=1101970|207=XSGO|453=2|448=LVPOOL|447=D|452=1|448=666|447=D|452=7|10=155|
20170809-13:33:31: 8=FIX.4.4|9=421|35=8|34=100|49=ORDERROUTER|52=20170809-13:33:32.185|56=TOMADOR_DE_ORDENES|57=gledesma@0032@0032|1=9399485K-00|6=6.02229088087793|11=7fc042069d4bb875|14=427914|17=ex1722142218|21=3|31=6.02|32=329884|37=-158f336cd44b2c5|38=1200000|39=1|40=2|44=6.02|54=2|55=ITAUCORP|58=New Sell ITAUCORP 1200000.0 @ 6.02|59=0|60=20170809-13:33:32.185|63=3|100=XSGO|150=F|151=772086|207=XSGO|453=2|448=LVPOOL|447=D|452=1|448=666|447=D|452=7|10=129|
20170809-13:33:31: 8=FIX.4.4|9=417|35=8|34=101|49=ORDERROUTER|52=20170809-13:33:32.194|56=TOMADOR_DE_ORDENES|57=gledesma@0032@0032|1=9399485K-00|6=6.02081691666667|11=7fc042069d4bb875|14=1200000|17=ex1722142220|21=3|31=6.02|32=772086|37=-158f336cd44b2c5|38=1200000|39=2|40=2|44=6.02|54=2|55=ITAUCORP|58=New Sell ITAUCORP 1200000.0 @ 6.02|59=0|60=20170809-13:33:32.194|63=3|100=XSGO|150=F|151=0|207=XSGO|453=2|448=LVPOOL|447=D|452=1|448=666|447=D|452=7|10=134|
20170809-13:33:38: 8=FIX.4.4|9=393|35=8|34=102|49=ORDERROUTER|52=20170809-13:33:39.891|56=TOMADOR_DE_ORDENES|57=gledesma@0032@0032|1=9399485K-00|6=0|11=55efbc503cd6ba76|14=0|17=-46fc5fc13c7bc09|21=3|31=0|32=0|37=3db558e3bad44964|38=280000|39=0|40=2|44=126.5|54=2|55=ENELAM|58=New Sell ENELAM 280000.0 @ 126.5|59=0|60=20170809-13:33:39.890|63=3|100=XSGO|150=0|151=280000|207=XSGO|453=2|448=LVPOOL|447=D|452=1|448=666|447=D|452=7|10=211|
20170809-13:33:58: 8=FIX.4.4|9=396|35=8|34=103|49=ORDERROUTER|52=20170809-13:33:59.520|56=TOMADOR_DE_ORDENES|57=gledesma@0032@0032|1=9399485K-01|6=0|11=53a35afd1355b220|14=0|17=590ebb993a894519|21=3|31=0|32=0|37=7579ce2ffc0d413d|38=75500|39=0|40=2|44=82.5|54=2|55=NUEVAPOLAR|58=New Sell NUEVAPOLAR 75500.0 @ 82.5|59=0|60=20170809-13:33:59.519|63=3|100=XSGO|150=0|151=75500|207=XSGO|453=2|448=LVPOOL|447=D|452=1|448=666|447=D|452=7|10=164|
20170809-13:34:06: 8=FIX.4.4|9=399|35=8|34=104|49=ORDERROUTER|52=20170809-13:34:08.091|56=TOMADOR_DE_ORDENES|57=gledesma@0032@0032|1=9399485K-00|6=0|11=4dcdce4ce5274867|14=0|17=37db5104622243fc|21=3|31=0|32=0|37=6bba563e38124855|38=730000|39=0|40=2|44=82.5|54=2|55=NUEVAPOLAR|58=New Sell NUEVAPOLAR 730000.0 @ 82.5|59=0|60=20170809-13:34:08.090|63=3|100=XSGO|150=0|151=730000|207=XSGO|453=2|448=LVPOOL|447=D|452=1|448=666|447=D|452=7|10=225|
20170809-13:34:10: 8=FIX.4.4|9=73|35=0|34=87|49=TOMADOR_DE_ORDENES|52=20170809-13:34:10.878|56=ORDERROUTER|10=236|
20170809-13:34:31: 8=FIX.4.4|9=274|35=D|34=88|49=TOMADOR_DE_ORDENES|50=gledesma@0032@0794|52=20170809-13:34:31.579|56=ORDERROUTER|1=160812834-00|11=4f88a85d44cc4db7|21=3|38=5225|40=2|44=337|54=2|55=SOCOVESA|59=0|60=20170809-13:34:31.579|63=3|100=XSGO|207=XSGO|453=2|448=LVPOOL|447=D|452=1|448=666|447=D|452=7|10=227|
20170809-13:34:31: 8=FIX.4.4|9=392|35=8|34=105|49=ORDERROUTER|52=20170809-13:34:32.816|56=TOMADOR_DE_ORDENES|57=gledesma@0032@0794|1=160812834-00|6=0|11=4f88a85d44cc4db7|14=0|17=-42ca577cae79b643|21=3|31=0|32=0|37=-4c462dd83c2cbea5|38=5225|39=A|40=2|44=337|54=2|55=SOCOVESA|58=New Sell SOCOVESA 5225.0 @ 337.0|59=0|60=20170809-13:34:32.816|63=3|100=XSGO|150=A|151=5225|207=XSGO|453=2|448=LVPOOL|447=D|452=1|448=666|447=D|452=7|10=081|
20170809-13:34:45: 8=FIX.4.4|9=274|35=D|34=89|49=TOMADOR_DE_ORDENES|50=gledesma@0032@0794|52=20170809-13:34:45.791|56=ORDERROUTER|1=160812842-00|11=7dcd9668a9124be2|21=3|38=1452|40=2|44=337|54=2|55=SOCOVESA|59=0|60=20170809-13:34:45.775|63=3|100=XSGO|207=XSGO|453=2|448=LVPOOL|447=D|452=1|448=666|447=D|452=7|10=179|
20170809-13:34:45: 8=FIX.4.4|9=392|35=8|34=106|49=ORDERROUTER|52=20170809-13:34:47.014|56=TOMADOR_DE_ORDENES|57=gledesma@0032@0794|1=160812842-00|6=0|11=7dcd9668a9124be2|14=0|17=-4e3853016437b688|21=3|31=0|32=0|37=-392edf25f6a1b554|38=1452|39=A|40=2|44=337|54=2|55=SOCOVESA|58=New Sell SOCOVESA 1452.0 @ 337.0|59=0|60=20170809-13:34:47.013|63=3|100=XSGO|150=A|151=1452|207=XSGO|453=2|448=LVPOOL|447=D|452=1|448=666|447=D|452=7|10=251|
20170809-13:35:05: 8=FIX.4.4|9=393|35=8|34=107|49=ORDERROUTER|52=20170809-13:35:06.435|56=TOMADOR_DE_ORDENES|57=gjorquer@1200@0061|1=966971304-00|6=0|11=e0f67e643c24316|14=0|17=63b7164cd6234b3d|21=3|31=0|32=0|37=624fdfd039e446c6|38=30000|39=0|40=2|44=58|54=1|55=SECURI-OSA|58=New Buy SECURI-OSA 30000.0 @ 58.0|59=0|60=20170809-13:35:06.434|63=3|100=XSGO|150=0|151=30000|207=XSGO|453=2|448=LVPOOL|447=D|452=1|448=666|447=D|452=7|10=067|
20170809-13:35:09: 8=FIX.4.4|9=407|35=8|34=108|49=ORDERROUTER|52=20170809-13:35:10.745|56=TOMADOR_DE_ORDENES|57=gledesma@0032@0032|1=9399485K-00|6=126.5|11=55efbc503cd6ba76|14=100000|17=ex1722143030|21=3|31=126.5|32=100000|37=3db558e3bad44964|38=280000|39=1|40=2|44=126.5|54=2|55=ENELAM|58=New Sell ENELAM 280000.0 @ 126.5|59=0|60=20170809-13:35:10.744|63=3|100=XSGO|150=F|151=180000|207=XSGO|453=2|448=LVPOOL|447=D|452=1|448=666|447=D|452=7|10=153|
20170809-13:35:21: 8=FIX.4.4|9=406|35=8|34=109|49=ORDERROUTER|52=20170809-13:35:22.488|56=TOMADOR_DE_ORDENES|57=gledesma@0032@0032|1=9399485K-00|6=126.5|11=55efbc503cd6ba76|14=200000|17=ex1722143153|21=3|31=126.5|32=100000|37=3db558e3bad44964|38=280000|39=1|40=2|44=126.5|54=2|55=ENELAM|58=New Sell ENELAM 280000.0 @ 126.5|59=0|60=20170809-13:35:22.472|63=3|100=XSGO|150=F|151=80000|207=XSGO|453=2|448=LVPOOL|447=D|452=1|448=666|447=D|452=7|10=119|
20170809-13:35:21: 8=FIX.4.4|9=401|35=8|34=110|49=ORDERROUTER|52=20170809-13:35:22.780|56=TOMADOR_DE_ORDENES|57=gledesma@0032@0032|1=9399485K-00|6=126.5|11=55efbc503cd6ba76|14=280000|17=ex1722143156|21=3|31=126.5|32=80000|37=3db558e3bad44964|38=280000|39=2|40=2|44=126.5|54=2|55=ENELAM|58=New Sell ENELAM 280000.0 @ 126.5|59=0|60=20170809-13:35:22.779|63=3|100=XSGO|150=F|151=0|207=XSGO|453=2|448=LVPOOL|447=D|452=1|448=666|447=D|452=7|10=138|
20170809-13:35:45: 8=FIX.4.4|9=73|35=0|34=90|49=TOMADOR_DE_ORDENES|52=20170809-13:35:45.867|56=ORDERROUTER|10=237|
20170809-13:35:47: 8=FIX.4.4|9=392|35=8|34=111|49=ORDERROUTER|52=20170809-13:35:48.959|56=TOMADOR_DE_ORDENES|57=gledesma@0032@0794|1=160812834-00|6=0|11=4f88a85d44cc4db7|14=0|17=-23f432aadf44bc23|21=3|31=0|32=0|37=-4c462dd83c2cbea5|38=5225|39=0|40=2|44=337|54=2|55=SOCOVESA|58=New Sell SOCOVESA 5225.0 @ 337.0|59=0|60=20170809-13:35:48.957|63=3|100=XSGO|150=0|151=5225|207=XSGO|453=2|448=LVPOOL|447=D|452=1|448=666|447=D|452=7|10=103|
20170809-13:35:51: 8=FIX.4.4|9=391|35=8|34=112|49=ORDERROUTER|52=20170809-13:35:53.033|56=TOMADOR_DE_ORDENES|57=gledesma@0032@0794|1=160812842-00|6=0|11=7dcd9668a9124be2|14=0|17=4de68d578c024cca|21=3|31=0|32=0|37=-392edf25f6a1b554|38=1452|39=0|40=2|44=337|54=2|55=SOCOVESA|58=New Sell SOCOVESA 1452.0 @ 337.0|59=0|60=20170809-13:35:53.032|63=3|100=XSGO|150=0|151=1452|207=XSGO|453=2|448=LVPOOL|447=D|452=1|448=666|447=D|452=7|10=144|
20170809-13:36:46: 8=FIX.4.4|9=73|35=0|34=91|49=TOMADOR_DE_ORDENES|52=20170809-13:36:46.880|56=ORDERROUTER|10=235|
20170809-13:36:52: 8=FIX.4.4|9=74|35=0|34=113|49=ORDERROUTER|52=20170809-13:36:53.706|56=TOMADOR_DE_ORDENES|10=018|
20170809-13:37:47: 8=FIX.4.4|9=73|35=0|34=92|49=TOMADOR_DE_ORDENES|52=20170809-13:37:47.876|56=ORDERROUTER|10=243|
20170809-13:37:52: 8=FIX.4.4|9=74|35=0|34=114|49=ORDERROUTER|52=20170809-13:37:53.706|56=TOMADOR_DE_ORDENES|10=020|
20170809-13:38:48: 8=FIX.4.4|9=73|35=0|34=93|49=TOMADOR_DE_ORDENES|52=20170809-13:38:48.873|56=ORDERROUTER|10=243|
20170809-13:38:52: 8=FIX.4.4|9=74|35=0|34=115|49=ORDERROUTER|52=20170809-13:38:53.706|56=TOMADOR_DE_ORDENES|10=022|
20170809-13:39:49: 8=FIX.4.4|9=73|35=0|34=94|49=TOMADOR_DE_ORDENES|52=20170809-13:39:49.870|56=ORDERROUTER|10=243|
20170809-13:39:53: 8=FIX.4.4|9=74|35=0|34=116|49=ORDERROUTER|52=20170809-13:39:54.706|56=TOMADOR_DE_ORDENES|10=025|
20170809-13:40:50: 8=FIX.4.4|9=73|35=0|34=95|49=TOMADOR_DE_ORDENES|52=20170809-13:40:50.882|56=ORDERROUTER|10=231|
20170809-13:40:53: 8=FIX.4.4|9=74|35=0|34=117|49=ORDERROUTER|52=20170809-13:40:54.706|56=TOMADOR_DE_ORDENES|10=018|
20170809-13:41:17: 8=FIX.4.4|9=404|35=8|34=118|49=ORDERROUTER|52=20170809-13:41:18.430|56=TOMADOR_DE_ORDENES|57=jpott@0397@0948|1=763769828-00|6=282|11=4a20d44691fa4848|14=5782|17=ex1722147108|21=3|31=282|32=5782|37=-55e2af25d72ebe80|38=230000|39=1|40=2|44=282|54=2|55=SM-CHILE B|58=New Sell SM-CHILE B 230000.0 @ 282.0|59=0|60=20170809-13:41:18.429|63=3|100=XSGO|150=F|151=224218|207=XSGO|453=2|448=LVPOOL|447=D|452=1|448=666|447=D|452=7|10=116|
20170809-13:41:18: 8=FIX.4.4|9=406|35=8|34=119|49=ORDERROUTER|52=20170809-13:41:19.861|56=TOMADOR_DE_ORDENES|57=jpott@0397@0948|1=763769828-00|6=282|11=4a20d44691fa4848|14=35782|17=ex1722147127|21=3|31=282|32=30000|37=-55e2af25d72ebe80|38=230000|39=1|40=2|44=282|54=2|55=SM-CHILE B|58=New Sell SM-CHILE B 230000.0 @ 282.0|59=0|60=20170809-13:41:19.861|63=3|100=XSGO|150=F|151=194218|207=XSGO|453=2|448=LVPOOL|447=D|452=1|448=666|447=D|452=7|10=216|
20170809-13:41:51: 8=FIX.4.4|9=73|35=0|34=96|49=TOMADOR_DE_ORDENES|52=20170809-13:41:51.879|56=ORDERROUTER|10=240|
20170809-13:42:19: 8=FIX.4.4|9=74|35=0|34=120|49=ORDERROUTER|52=20170809-13:42:20.706|56=TOMADOR_DE_ORDENES|10=007|
20170809-13:42:52: 8=FIX.4.4|9=73|35=0|34=97|49=TOMADOR_DE_ORDENES|52=20170809-13:42:52.876|56=ORDERROUTER|10=240|
20170809-13:43:19: 8=FIX.4.4|9=74|35=0|34=121|49=ORDERROUTER|52=20170809-13:43:20.706|56=TOMADOR_DE_ORDENES|10=009|
20170809-13:43:39: 8=FIX.4.4|9=309|35=F|34=98|49=TOMADOR_DE_ORDENES|50=gledesma@0032@0032|52=20170809-13:43:39.817|56=ORDERROUTER|1=9399485K-01|11=7c4002dba46ab3b7|37=7579ce2ffc0d413d|38=75500|41=53a35afd1355b220|54=2|55=NUEVAPOLAR|58=New Sell NUEVAPOLAR 75500.0 @ 82.5|60=20170809-13:43:39.817|453=2|448=LVPOOL|447=D|452=1|448=666|447=D|452=7|10=045|
20170809-13:43:39: 8=FIX.4.4|9=419|35=8|34=122|49=ORDERROUTER|52=20170809-13:43:41.051|56=TOMADOR_DE_ORDENES|57=gledesma@0032@0032|1=9399485K-01|6=0|11=7c4002dba46ab3b7|14=0|17=704d3af0c90642fc|21=3|31=0|32=0|37=7579ce2ffc0d413d|38=75500|39=6|40=2|41=7c4002dba46ab3b7|44=82.5|54=2|55=NUEVAPOLAR|58=Cancel Sell NUEVAPOLAR 75500.0 @ 82.5|59=0|60=20170809-13:43:41.051|63=3|100=XSGO|150=6|151=75500|207=XSGO|453=2|448=LVPOOL|447=D|452=1|448=666|447=D|452=7|10=123|
20170809-13:43:40: 8=FIX.4.4|9=286|35=D|34=99|49=TOMADOR_DE_ORDENES|50=vavasquez@0397@0410|52=20170809-13:43:40.534|56=ORDERROUTER|1=126598637-84|11=2fea1b5b86394781|21=3|38=1289|40=2|44=27075|54=1|55=CFIDHS2-A|59=0|60=20170809-13:43:40.534|63=3|100=XSGO|167=CFI|207=XSGO|453=2|448=LVPOOL|447=D|452=1|448=666|447=D|452=7|10=055|
20170809-13:43:40: 8=FIX.4.4|9=404|35=8|34=123|49=ORDERROUTER|52=20170809-13:43:41.766|56=TOMADOR_DE_ORDENES|57=vavasquez@0397@0410|1=126598637-84|6=0|11=2fea1b5b86394781|14=0|17=760b1a0d18da43d4|21=3|31=0|32=0|37=2dc19bfe7cf545a3|38=1289|39=A|40=2|44=27075|54=1|55=CFIDHS2-A|58=New Buy CFIDHS2-A 1289.0 @ 27075.0|59=0|60=20170809-13:43:41.762|63=3|100=XSGO|150=A|151=1289|167=CFI|207=XSGO|453=2|448=LVPOOL|447=D|452=1|448=666|447=D|452=7|10=076|
20170809-13:43:45: 8=FIX.4.4|9=312|35=F|34=100|49=TOMADOR_DE_ORDENES|50=gledesma@0032@0032|52=20170809-13:43:45.199|56=ORDERROUTER|1=9399485K-00|11=7078585783d6bbbd|37=6bba563e38124855|38=730000|41=4dcdce4ce5274867|54=2|55=NUEVAPOLAR|58=New Sell NUEVAPOLAR 730000.0 @ 82.5|60=20170809-13:43:45.199|453=2|448=LVPOOL|447=D|452=1|448=666|447=D|452=7|10=061|
20170809-13:43:45: 8=FIX.4.4|9=421|35=8|34=124|49=ORDERROUTER|52=20170809-13:43:46.436|56=TOMADOR_DE_ORDENES|57=gledesma@0032@0032|1=9399485K-00|6=0|11=7078585783d6bbbd|14=0|17=92c0dcb47a94b6f|21=3|31=0|32=0|37=6bba563e38124855|38=730000|39=6|40=2|41=7078585783d6bbbd|44=82.5|54=2|55=NUEVAPOLAR|58=Cancel Sell NUEVAPOLAR 730000.0 @ 82.5|59=0|60=20170809-13:43:46.435|63=3|100=XSGO|150=6|151=730000|207=XSGO|453=2|448=LVPOOL|447=D|452=1|448=666|447=D|452=7|10=244|
20170809-13:44:21: 8=FIX.4.4|9=285|35=D|34=101|49=TOMADOR_DE_ORDENES|50=vavasquez@0397@0410|52=20170809-13:44:21.594|56=ORDERROUTER|1=591890204-00|11=b1c3becdc6abc93|21=3|38=250|40=2|44=27075|54=1|55=CFIDHS2-A|59=0|60=20170809-13:44:21.594|63=3|100=XSGO|167=CFI|207=XSGO|453=2|448=LVPOOL|447=D|452=1|448=666|447=D|452=7|10=188|
20170809-13:44:21: 8=FIX.4.4|9=399|35=8|34=125|49=ORDERROUTER|52=20170809-13:44:22.827|56=TOMADOR_DE_ORDENES|57=vavasquez@0397@0410|1=591890204-00|6=0|11=b1c3becdc6abc93|14=0|17=9e3c084624e492e|21=3|31=0|32=0|37=42c98320331a4006|38=250|39=A|40=2|44=27075|54=1|55=CFIDHS2-A|58=New Buy CFIDHS2-A 250.0 @ 27075.0|59=0|60=20170809-13:44:22.827|63=3|100=XSGO|150=A|151=250|167=CFI|207=XSGO|453=2|448=LVPOOL|447=D|452=1|448=666|447=D|452=7|10=141|
20170809-13:45:21: 8=FIX.4.4|9=74|35=0|34=102|49=TOMADOR_DE_ORDENES|52=20170809-13:45:21.873|56=ORDERROUTER|10=016|
20170809-13:45:21: 8=FIX.4.4|9=74|35=0|34=126|49=ORDERROUTER|52=20170809-13:45:23.095|56=TOMADOR_DE_ORDENES|10=020|
20170809-13:45:26: 8=FIX.4.4|9=280|35=D|34=103|49=TOMADOR_DE_ORDENES|50=vavasquez@0397@0109|52=20170809-13:45:26.023|56=ORDERROUTER|1=796570504-01|11=70502716e2b4be10|21=3|38=300164|40=2|44=1600|54=2|55=EMBONOR-B|59=0|60=20170809-13:45:26.023|63=3|100=XSGO|207=XSGO|453=2|448=LVPOOL|447=D|452=1|448=666|447=D|452=7|10=161|
20170809-13:45:26: 8=FIX.4.4|9=401|35=8|34=127|49=ORDERROUTER|52=20170809-13:45:27.258|56=TOMADOR_DE_ORDENES|57=vavasquez@0397@0109|1=796570504-01|6=0|11=70502716e2b4be10|14=0|17=15c47550e35c430f|21=3|31=0|32=0|37=356c9e5dc3bf4397|38=300164|39=A|40=2|44=1600|54=2|55=EMBONOR-B|58=New Sell EMBONOR-B 300164.0 @ 1600.0|59=0|60=20170809-13:45:27.258|63=3|100=XSGO|150=A|151=300164|207=XSGO|453=2|448=LVPOOL|447=D|452=1|448=666|447=D|452=7|10=255|
20170809-13:46:00: 8=FIX.4.4|9=276|35=D|34=104|49=TOMADOR_DE_ORDENES|50=vavasquez@0397@0109|52=20170809-13:46:00.562|56=ORDERROUTER|1=968247301-00|11=66b6ec6a5a6940e0|21=3|38=5000|40=2|44=1200|54=2|55=COPEVAL|59=0|60=20170809-13:46:00.562|63=3|100=XSGO|207=XSGO|453=2|448=LVPOOL|447=D|452=1|448=666|447=D|452=7|10=049|
20170809-13:46:00: 8=FIX.4.4|9=391|35=8|34=128|49=ORDERROUTER|52=20170809-13:46:01.797|56=TOMADOR_DE_ORDENES|57=vavasquez@0397@0109|1=968247301-00|6=0|11=66b6ec6a5a6940e0|14=0|17=a451f881b9f4b3c|21=3|31=0|32=0|37=-467541b99d16bcf8|38=5000|39=A|40=2|44=1200|54=2|55=COPEVAL|58=New Sell COPEVAL 5000.0 @ 1200.0|59=0|60=20170809-13:46:01.796|63=3|100=XSGO|150=A|151=5000|207=XSGO|453=2|448=LVPOOL|447=D|452=1|448=666|447=D|452=7|10=117|
20170809-13:46:19: 8=FIX.4.4|9=404|35=8|34=129|49=ORDERROUTER|52=20170809-13:46:20.695|56=TOMADOR_DE_ORDENES|57=vavasquez@0397@0410|1=126598637-84|6=0|11=2fea1b5b86394781|14=0|17=76c0a88f70d34e2d|21=3|31=0|32=0|37=2dc19bfe7cf545a3|38=1289|39=0|40=2|44=27075|54=1|55=CFIDHS2-A|58=New Buy CFIDHS2-A 1289.0 @ 27075.0|59=0|60=20170809-13:46:20.694|63=3|100=XSGO|150=0|151=1289|167=CFI|207=XSGO|453=2|448=LVPOOL|447=D|452=1|448=666|447=D|452=7|10=071|
20170809-13:46:28: 8=FIX.4.4|9=287|35=D|34=105|49=TOMADOR_DE_ORDENES|50=vavasquez@0397@0109|52=20170809-13:46:28.424|56=ORDERROUTER|1=761285734-00|11=7ff044197eceba53|21=3|38=416|40=2|44=21000|54=2|55=CFIDESIN06|59=0|60=20170809-13:46:28.424|63=3|100=XSGO|167=CFI|207=XSGO|453=2|448=LVPOOL|447=D|452=1|448=666|447=D|452=7|10=205|
20170809-13:46:28: 8=FIX.4.4|9=405|35=8|34=130|49=ORDERROUTER|52=20170809-13:46:29.652|56=TOMADOR_DE_ORDENES|57=vavasquez@0397@0109|1=761285734-00|6=0|11=7ff044197eceba53|14=0|17=-448d14b75632bd0c|21=3|31=0|32=0|37=1508594465664b65|38=416|39=A|40=2|44=21000|54=2|55=CFIDESIN06|58=New Sell CFIDESIN06 416.0 @ 21000.0|59=0|60=20170809-13:46:29.651|63=3|100=XSGO|150=A|151=416|167=CFI|207=XSGO|453=2|448=LVPOOL|447=D|452=1|448=666|447=D|452=7|10=173|
20170809-13:46:32: 8=FIX.4.4|9=405|35=8|34=131|49=ORDERROUTER|52=20170809-13:46:34.211|56=TOMADOR_DE_ORDENES|57=vavasquez@0397@0109|1=761285734-00|6=0|11=7ff044197eceba53|14=0|17=-67fe70a7fa72bf2d|21=3|31=0|32=0|37=1508594465664b65|38=416|39=0|40=2|44=21000|54=2|55=CFIDESIN06|58=New Sell CFIDESIN06 416.0 @ 21000.0|59=0|60=20170809-13:46:34.210|63=3|100=XSGO|150=0|151=416|167=CFI|207=XSGO|453=2|448=LVPOOL|447=D|452=1|448=666|447=D|452=7|10=012|
20170809-13:46:43: 8=FIX.4.4|9=400|35=8|34=132|49=ORDERROUTER|52=20170809-13:46:44.617|56=TOMADOR_DE_ORDENES|57=vavasquez@0397@0410|1=591890204-00|6=0|11=b1c3becdc6abc93|14=0|17=4e7b2527a9244d78|21=3|31=0|32=0|37=42c98320331a4006|38=250|39=0|40=2|44=27075|54=1|55=CFIDHS2-A|58=New Buy CFIDHS2-A 250.0 @ 27075.0|59=0|60=20170809-13:46:44.616|63=3|100=XSGO|150=0|151=250|167=CFI|207=XSGO|453=2|448=LVPOOL|447=D|452=1|448=666|447=D|452=7|10=145|
20170809-13:46:48: 8=FIX.4.4|9=275|35=D|34=106|49=TOMADOR_DE_ORDENES|50=jzarhi@0423@0423|52=20170809-13:46:48.439|56=ORDERROUTER|1=787714005-00|11=62133c31b45e460c|21=1|38=386|40=2|44=9400|54=2|55=ANTARCHILE|59=0|60=20170809-13:46:48.423|63=3|100=XSGO|207=XSGO|453=2|448=LVPOOL|447=D|452=1|448=666|447=D|452=7|10=038|
20170809-13:46:48: 8=FIX.4.4|9=391|35=8|34=133|49=ORDERROUTER|52=20170809-13:46:49.673|56=TOMADOR_DE_ORDENES|57=jzarhi@0423@0423|1=787714005-00|6=0|11=62133c31b45e460c|14=0|17=c61ed4c7d0a4147|21=1|31=0|32=0|37=-3a472b41d8e4baae|38=386|39=A|40=2|44=9400|54=2|55=ANTARCHILE|58=New Sell ANTARCHILE 386.0 @ 9400.0|59=0|60=20170809-13:46:49.672|63=3|100=XSGO|150=A|151=386|207=XSGO|453=2|448=LVPOOL|447=D|452=1|448=666|447=D|452=7|10=091|
20170809-13:46:48: 8=FIX.4.4|9=389|35=8|34=134|49=ORDERROUTER|52=20170809-13:46:49.702|56=TOMADOR_DE_ORDENES|57=jzarhi@0423@0423|1=787714005-00|6=0|11=62133c31b45e460c|14=0|17=ex17221411269|21=1|31=0|32=0|37=-3a472b41d8e4baae|38=386|39=0|40=2|44=9400|54=2|55=ANTARCHILE|58=New Sell ANTARCHILE 386.0 @ 9400.0|59=0|60=20170809-13:46:49.701|63=3|100=XSGO|150=0|151=386|207=XSGO|453=2|448=LVPOOL|447=D|452=1|448=666|447=D|452=7|10=030|
20170809-13:46:54: 8=FIX.4.4|9=274|35=D|34=107|49=TOMADOR_DE_ORDENES|50=efreidzon@1172@0964|52=20170809-13:46:54.336|56=ORDERROUTER|1=122448576-00|11=1fa214a73a40ba90|21=3|38=12383|40=2|44=1615|54=1|55=CMPC|59=0|60=20170809-13:46:54.320|63=3|100=XSGO|207=XSGO|453=2|448=LVPOOL|447=D|452=1|448=666|447=D|452=7|10=099|
20170809-13:46:54: 8=FIX.4.4|9=388|35=8|34=135|49=ORDERROUTER|52=20170809-13:46:55.562|56=TOMADOR_DE_ORDENES|57=efreidzon@1172@0964|1=122448576-00|6=0|11=1fa214a73a40ba90|14=0|17=-7c375dc83463b4dc|21=3|31=0|32=0|37=7561a88e7bf94a02|38=12383|39=A|40=2|44=1615|54=1|55=CMPC|58=New Buy CMPC 12383.0 @ 1615.0|59=0|60=20170809-13:46:55.562|63=3|100=XSGO|150=A|151=12383|207=XSGO|453=2|448=LVPOOL|447=D|452=1|448=666|447=D|452=7|10=012|
20170809-13:47:22: 8=FIX.4.4|9=388|35=8|34=136|49=ORDERROUTER|52=20170809-13:47:24.112|56=TOMADOR_DE_ORDENES|57=efreidzon@1172@0964|1=122448576-00|6=0|11=1fa214a73a40ba90|14=0|17=-427b24c9b530bab7|21=3|31=0|32=0|37=7561a88e7bf94a02|38=12383|39=0|40=2|44=1615|54=1|55=CMPC|58=New Buy CMPC 12383.0 @ 1615.0|59=0|60=20170809-13:47:24.111|63=3|100=XSGO|150=0|151=12383|207=XSGO|453=2|448=LVPOOL|447=D|452=1|448=666|447=D|452=7|10=196|
20170809-13:47:32: 8=FIX.4.4|9=401|35=8|34=137|49=ORDERROUTER|52=20170809-13:47:33.697|56=TOMADOR_DE_ORDENES|57=vavasquez@0397@0109|1=796570504-01|6=0|11=70502716e2b4be10|14=0|17=-2da1b1eb2bdbd16|21=3|31=0|32=0|37=356c9e5dc3bf4397|38=300164|39=0|40=2|44=1600|54=2|55=EMBONOR-B|58=New Sell EMBONOR-B 300164.0 @ 1600.0|59=0|60=20170809-13:47:33.697|63=3|100=XSGO|150=0|151=300164|207=XSGO|453=2|448=LVPOOL|447=D|452=1|448=666|447=D|452=7|10=195|
20170809-13:47:45: 8=FIX.4.4|9=268|35=D|34=108|49=TOMADOR_DE_ORDENES|50=jzarhi@0423@0423|52=20170809-13:47:45.426|56=ORDERROUTER|1=787714005-00|11=47adb767a586b3ce|21=1|38=89|40=2|44=40900|54=2|55=BCI|59=0|60=20170809-13:47:45.411|63=3|100=XSGO|207=XSGO|453=2|448=LVPOOL|447=D|452=1|448=666|447=D|452=7|10=182|
20170809-13:47:45: 8=FIX.4.4|9=377|35=8|34=138|49=ORDERROUTER|52=20170809-13:47:46.651|56=TOMADOR_DE_ORDENES|57=jzarhi@0423@0423|1=787714005-00|6=0|11=47adb767a586b3ce|14=0|17=286254f46a5c426d|21=1|31=0|32=0|37=-7deb0a8809d4b5c5|38=89|39=A|40=2|44=40900|54=2|55=BCI|58=New Sell BCI 89.0 @ 40900.0|59=0|60=20170809-13:47:46.650|63=3|100=XSGO|150=A|151=89|207=XSGO|453=2|448=LVPOOL|447=D|452=1|448=666|447=D|452=7|10=109|
20170809-13:47:45: 8=FIX.4.4|9=374|35=8|34=139|49=ORDERROUTER|52=20170809-13:47:46.676|56=TOMADOR_DE_ORDENES|57=jzarhi@0423@0423|1=787714005-00|6=0|11=47adb767a586b3ce|14=0|17=ex17221412057|21=1|31=0|32=0|37=-7deb0a8809d4b5c5|38=89|39=0|40=2|44=40900|54=2|55=BCI|58=New Sell BCI 89.0 @ 40900.0|59=0|60=20170809-13:47:46.675|63=3|100=XSGO|150=0|151=89|207=XSGO|453=2|448=LVPOOL|447=D|452=1|448=666|447=D|452=7|10=096|
20170809-13:48:10: 8=FIX.4.4|9=416|35=8|34=140|49=ORDERROUTER|52=20170809-13:48:12.139|56=TOMADOR_DE_ORDENES|57=gledesma@0032@0032|1=9399485K-01|6=0|11=7c4002dba46ab3b7|14=0|17=-283252f854b1be9f|21=3|31=0|32=0|37=7579ce2ffc0d413d|38=75500|39=4|40=2|41=7c4002dba46ab3b7|44=82.5|54=2|55=NUEVAPOLAR|58=Cancel Sell NUEVAPOLAR 75500.0 @ 82.5|59=0|60=20170809-13:48:12.138|63=3|100=XSGO|150=4|151=0|207=XSGO|453=2|448=LVPOOL|447=D|452=1|448=666|447=D|452=7|10=191|
20170809-13:48:16: 8=FIX.4.4|9=418|35=8|34=141|49=ORDERROUTER|52=20170809-13:48:17.626|56=TOMADOR_DE_ORDENES|57=gledesma@0032@0032|1=9399485K-00|6=0|11=7078585783d6bbbd|14=0|17=-7c6e7aeaf711b7ca|21=3|31=0|32=0|37=6bba563e38124855|38=730000|39=4|40=2|41=7078585783d6bbbd|44=82.5|54=2|55=NUEVAPOLAR|58=Cancel Sell NUEVAPOLAR 730000.0 @ 82.5|59=0|60=20170809-13:48:17.625|63=3|100=XSGO|150=4|151=0|207=XSGO|453=2|448=LVPOOL|447=D|452=1|448=666|447=D|452=7|10=193|
20170809-13:48:24: 8=FIX.4.4|9=268|35=D|34=109|49=TOMADOR_DE_ORDENES|50=jzarhi@0423@0423|52=20170809-13:48:24.536|56=ORDERROUTER|1=787714005-00|11=2e23fe1cedf6b3d1|21=1|38=737|40=2|44=93|54=2|55=CHILE|59=0|60=20170809-13:48:24.536|63=3|100=XSGO|207=XSGO|453=2|448=LVPOOL|447=D|452=1|448=666|447=D|452=7|10=070|
20170809-13:48:24: 8=FIX.4.4|9=377|35=8|34=142|49=ORDERROUTER|52=20170809-13:48:25.769|56=TOMADOR_DE_ORDENES|57=jzarhi@0423@0423|1=787714005-00|6=0|11=2e23fe1cedf6b3d1|14=0|17=c2af80ccd4a4611|21=1|31=0|32=0|37=-425ed1cd2539bce5|38=737|39=A|40=2|44=93|54=2|55=CHILE|58=New Sell CHILE 737.0 @ 93.0|59=0|60=20170809-13:48:25.768|63=3|100=XSGO|150=A|151=737|207=XSGO|453=2|448=LVPOOL|447=D|452=1|448=666|447=D|452=7|10=173|
20170809-13:48:24: 8=FIX.4.4|9=375|35=8|34=143|49=ORDERROUTER|52=20170809-13:48:25.796|56=TOMADOR_DE_ORDENES|57=jzarhi@0423@0423|1=787714005-00|6=0|11=2e23fe1cedf6b3d1|14=0|17=ex17221412351|21=1|31=0|32=0|37=-425ed1cd2539bce5|38=737|39=0|40=2|44=93|54=2|55=CHILE|58=New Sell CHILE 737.0 @ 93.0|59=0|60=20170809-13:48:25.795|63=3|100=XSGO|150=0|151=737|207=XSGO|453=2|448=LVPOOL|447=D|452=1|448=666|447=D|452=7|10=069|
20170809-13:48:33: 8=FIX.4.4|9=381|35=8|34=144|49=ORDERROUTER|52=20170809-13:48:34.624|56=TOMADOR_DE_ORDENES|57=jzarhi@0423@0423|1=787714005-00|6=93|11=2e23fe1cedf6b3d1|14=214|17=ex17221412439|21=1|31=93|32=214|37=-425ed1cd2539bce5|38=737|39=1|40=2|44=93|54=2|55=CHILE|58=New Sell CHILE 737.0 @ 93.0|59=0|60=20170809-13:48:34.623|63=3|100=XSGO|150=F|151=523|207=XSGO|453=2|448=LVPOOL|447=D|452=1|448=666|447=D|452=7|10=140|
20170809-13:48:55: 8=FIX.4.4|9=393|35=8|34=145|49=ORDERROUTER|52=20170809-13:48:56.838|56=TOMADOR_DE_ORDENES|57=vavasquez@0397@0109|1=968247301-00|6=0|11=66b6ec6a5a6940e0|14=0|17=-681b7616a702b34b|21=3|31=0|32=0|37=-467541b99d16bcf8|38=5000|39=0|40=2|44=1200|54=2|55=COPEVAL|58=New Sell COPEVAL 5000.0 @ 1200.0|59=0|60=20170809-13:48:56.837|63=3|100=XSGO|150=0|151=5000|207=XSGO|453=2|448=LVPOOL|447=D|452=1|448=666|447=D|452=7|10=092|
20170809-13:49:04: 8=FIX.4.4|9=270|35=D|34=110|49=TOMADOR_DE_ORDENES|50=jzarhi@0423@0423|52=20170809-13:49:04.005|56=ORDERROUTER|1=787714005-00|11=5ec3619c805db2d2|21=1|38=2047|40=2|44=1628|54=2|55=CMPC|59=0|60=20170809-13:49:03.989|63=3|100=XSGO|207=XSGO|453=2|448=LVPOOL|447=D|452=1|448=666|447=D|452=7|10=250|
20170809-13:49:04: 8=FIX.4.4|9=383|35=8|34=146|49=ORDERROUTER|52=20170809-13:49:05.229|56=TOMADOR_DE_ORDENES|57=jzarhi@0423@0423|1=787714005-00|6=0|11=5ec3619c805db2d2|14=0|17=3552a73a46b54ccc|21=1|31=0|32=0|37=-79e434fe6908b114|38=2047|39=A|40=2|44=1628|54=2|55=CMPC|58=New Sell CMPC 2047.0 @ 1628.0|59=0|60=20170809-13:49:05.228|63=3|100=XSGO|150=A|151=2047|207=XSGO|453=2|448=LVPOOL|447=D|452=1|448=666|447=D|452=7|10=094|
20170809-13:49:04: 8=FIX.4.4|9=380|35=8|34=147|49=ORDERROUTER|52=20170809-13:49:05.252|56=TOMADOR_DE_ORDENES|57=jzarhi@0423@0423|1=787714005-00|6=0|11=5ec3619c805db2d2|14=0|17=ex17221412734|21=1|31=0|32=0|37=-79e434fe6908b114|38=2047|39=0|40=2|44=1628|54=2|55=CMPC|58=New Sell CMPC 2047.0 @ 1628.0|59=0|60=20170809-13:49:05.252|63=3|100=XSGO|150=0|151=2047|207=XSGO|453=2|448=LVPOOL|447=D|452=1|448=666|447=D|452=7|10=233|
20170809-13:49:19: 8=FIX.4.4|9=279|35=D|34=111|49=TOMADOR_DE_ORDENES|50=vavasquez@0397@0109|52=20170809-13:49:19.043|56=ORDERROUTER|1=796570504-01|11=1ca12ebe8dd6b281|21=3|38=105263|40=2|44=1900|54=1|55=CENCOSUD|59=0|60=20170809-13:49:19.043|63=3|100=XSGO|207=XSGO|453=2|448=LVPOOL|447=D|452=1|448=666|447=D|452=7|10=086|
20170809-13:49:19: 8=FIX.4.4|9=399|35=8|34=148|49=ORDERROUTER|52=20170809-13:49:20.273|56=TOMADOR_DE_ORDENES|57=vavasquez@0397@0109|1=796570504-01|6=0|11=1ca12ebe8dd6b281|14=0|17=-1261d863ac20b0c3|21=3|31=0|32=0|37=319e5d5ffbd84175|38=105263|39=A|40=2|44=1900|54=1|55=CENCOSUD|58=New Buy CENCOSUD 105263.0 @ 1900.0|59=0|60=20170809-13:49:20.272|63=3|100=XSGO|150=A|151=105263|207=XSGO|453=2|448=LVPOOL|447=D|452=1|448=666|447=D|452=7|10=108|
20170809-13:49:22: 8=FIX.4.4|9=397|35=8|34=149|49=ORDERROUTER|52=20170809-13:49:23.734|56=TOMADOR_DE_ORDENES|57=jzarhi@0423@0423|1=787714005-00|6=9400|11=62133c31b45e460c|14=386|17=ex17221412899|21=1|31=9400|32=386|37=-3a472b41d8e4baae|38=386|39=2|40=2|44=9400|54=2|55=ANTARCHILE|58=New Sell ANTARCHILE 386.0 @ 9400.0|59=0|60=20170809-13:49:23.733|63=3|100=XSGO|150=F|151=0|207=XSGO|453=2|448=LVPOOL|447=D|452=1|448=666|447=D|452=7|10=240|
20170809-13:50:13: 8=FIX.4.4|9=399|35=8|34=150|49=ORDERROUTER|52=20170809-13:50:14.661|56=TOMADOR_DE_ORDENES|57=vavasquez@0397@0109|1=796570504-01|6=0|11=1ca12ebe8dd6b281|14=0|17=-6d9a89544eefbab3|21=3|31=0|32=0|37=319e5d5ffbd84175|38=105263|39=0|40=2|44=1900|54=1|55=CENCOSUD|58=New Buy CENCOSUD 105263.0 @ 1900.0|59=0|60=20170809-13:50:14.660|63=3|100=XSGO|150=0|151=105263|207=XSGO|453=2|448=LVPOOL|447=D|452=1|448=666|447=D|452=7|10=232|
20170809-13:50:13: 8=FIX.4.4|9=270|35=D|34=112|49=TOMADOR_DE_ORDENES|50=jzarhi@0423@0423|52=20170809-13:50:13.738|56=ORDERROUTER|1=787714005-00|11=76f1669a74e1b7fd|21=1|38=451|40=2|44=8070|54=2|55=COPEC|59=0|60=20170809-13:50:13.738|63=3|100=XSGO|207=XSGO|453=2|448=LVPOOL|447=D|452=1|448=666|447=D|452=7|10=020|
20170809-13:50:13: 8=FIX.4.4|9=382|35=8|34=151|49=ORDERROUTER|52=20170809-13:50:14.975|56=TOMADOR_DE_ORDENES|57=jzarhi@0423@0423|1=787714005-00|6=0|11=76f1669a74e1b7fd|14=0|17=-51b336735880bc48|21=1|31=0|32=0|37=6787a3c155bb437e|38=451|39=A|40=2|44=8070|54=2|55=COPEC|58=New Sell COPEC 451.0 @ 8070.0|59=0|60=20170809-13:50:14.974|63=3|100=XSGO|150=A|151=451|207=XSGO|453=2|448=LVPOOL|447=D|452=1|448=666|447=D|452=7|10=000|
20170809-13:50:13: 8=FIX.4.4|9=378|35=8|34=152|49=ORDERROUTER|52=20170809-13:50:15.006|56=TOMADOR_DE_ORDENES|57=jzarhi@0423@0423|1=787714005-00|6=0|11=76f1669a74e1b7fd|14=0|17=ex17221413601|21=1|31=0|32=0|37=6787a3c155bb437e|38=451|39=0|40=2|44=8070|54=2|55=COPEC|58=New Sell COPEC 451.0 @ 8070.0|59=0|60=20170809-13:50:15.005|63=3|100=XSGO|150=0|151=451|207=XSGO|453=2|448=LVPOOL|447=D|452=1|448=666|447=D|452=7|10=208|
20170809-13:50:20: 8=FIX.4.4|9=407|35=8|34=153|49=ORDERROUTER|52=20170809-13:50:21.748|56=TOMADOR_DE_ORDENES|57=vavasquez@0397@0109|1=796570504-01|6=1900|11=1ca12ebe8dd6b281|14=1607|17=ex17221413646|21=3|31=1900|32=1607|37=319e5d5ffbd84175|38=105263|39=1|40=2|44=1900|54=1|55=CENCOSUD|58=New Buy CENCOSUD 105263.0 @ 1900.0|59=0|60=20170809-13:50:21.747|63=3|100=XSGO|150=F|151=103656|207=XSGO|453=2|448=LVPOOL|447=D|452=1|448=666|447=D|452=7|10=143|
20170809-13:50:20: 8=FIX.4.4|9=406|35=8|34=154|49=ORDERROUTER|52=20170809-13:50:21.756|56=TOMADOR_DE_ORDENES|57=vavasquez@0397@0109|1=796570504-01|6=1900|11=1ca12ebe8dd6b281|14=5394|17=ex17221413649|21=3|31=1900|32=3787|37=319e5d5ffbd84175|38=105263|39=1|40=2|44=1900|54=1|55=CENCOSUD|58=New Buy CENCOSUD 105263.0 @ 1900.0|59=0|60=20170809-13:50:21.756|63=3|100=XSGO|150=F|151=99869|207=XSGO|453=2|448=LVPOOL|447=D|452=1|448=666|447=D|452=7|10=135|
20170809-13:50:20: 8=FIX.4.4|9=406|35=8|34=155|49=ORDERROUTER|52=20170809-13:50:21.764|56=TOMADOR_DE_ORDENES|57=vavasquez@0397@0109|1=796570504-01|6=1900|11=1ca12ebe8dd6b281|14=9331|17=ex17221413651|21=3|31=1900|32=3937|37=319e5d5ffbd84175|38=105263|39=1|40=2|44=1900|54=1|55=CENCOSUD|58=New Buy CENCOSUD 105263.0 @ 1900.0|59=0|60=20170809-13:50:21.764|63=3|100=XSGO|150=F|151=95932|207=XSGO|453=2|448=LVPOOL|447=D|452=1|448=666|447=D|452=7|10=106|
20170809-13:51:10: 8=FIX.4.4|9=400|35=8|34=156|49=ORDERROUTER|52=20170809-13:51:11.442|56=TOMADOR_DE_ORDENES|57=gjorquer@1200@0061|1=966971304-00|6=55|11=e0f67e643c24316|14=13204|17=ex17221414248|21=3|31=55|32=13204|37=624fdfd039e446c6|38=30000|39=1|40=2|44=58|54=1|55=SECURI-OSA|58=New Buy SECURI-OSA 30000.0 @ 58.0|59=0|60=20170809-13:51:11.440|63=3|100=XSGO|150=F|151=16796|207=XSGO|453=2|448=LVPOOL|447=D|452=1|448=666|447=D|452=7|10=073|
20170809-13:51:13: 8=FIX.4.4|9=74|35=0|34=113|49=TOMADOR_DE_ORDENES|52=20170809-13:51:13.876|56=ORDERROUTER|10=019|
20170809-13:51:17: 8=FIX.4.4|9=269|35=D|34=114|49=TOMADOR_DE_ORDENES|50=jzarhi@0423@0423|52=20170809-13:51:17.340|56=ORDERROUTER|1=787714005-00|11=32858a01ce39b57a|21=3|38=2731|40=2|44=1340|54=2|55=ECL|59=0|60=20170809-13:51:17.340|63=3|100=XSGO|207=XSGO|453=2|448=LVPOOL|447=D|452=1|448=666|447=D|452=7|10=107|
20170809-13:51:17: 8=FIX.4.4|9=380|35=8|34=157|49=ORDERROUTER|52=20170809-13:51:18.574|56=TOMADOR_DE_ORDENES|57=jzarhi@0423@0423|1=787714005-00|6=0|11=32858a01ce39b57a|14=0|17=-404b1406474ab8c4|21=3|31=0|32=0|37=5dbc4e3997c4512|38=2731|39=A|40=2|44=1340|54=2|55=ECL|58=New Sell ECL 2731.0 @ 1340.0|59=0|60=20170809-13:51:18.574|63=3|100=XSGO|150=A|151=2731|207=XSGO|453=2|448=LVPOOL|447=D|452=1|448=666|447=D|452=7|10=022|
20170809-13:51:24: 8=FIX.4.4|9=381|35=8|34=158|49=ORDERROUTER|52=20170809-13:51:25.565|56=TOMADOR_DE_ORDENES|57=jzarhi@0423@0423|1=787714005-00|6=93|11=2e23fe1cedf6b3d1|14=516|17=ex17221414319|21=1|31=93|32=302|37=-425ed1cd2539bce5|38=737|39=1|40=2|44=93|54=2|55=CHILE|58=New Sell CHILE 737.0 @ 93.0|59=0|60=20170809-13:51:25.564|63=3|100=XSGO|150=F|151=221|207=XSGO|453=2|448=LVPOOL|447=D|452=1|448=666|447=D|452=7|10=138|
20170809-13:51:25: 8=FIX.4.4|9=379|35=8|34=159|49=ORDERROUTER|52=20170809-13:51:26.313|56=TOMADOR_DE_ORDENES|57=jzarhi@0423@0423|1=787714005-00|6=93|11=2e23fe1cedf6b3d1|14=737|17=ex17221414323|21=1|31=93|32=221|37=-425ed1cd2539bce5|38=737|39=2|40=2|44=93|54=2|55=CHILE|58=New Sell CHILE 737.0 @ 93.0|59=0|60=20170809-13:51:26.312|63=3|100=XSGO|150=F|151=0|207=XSGO|453=2|448=LVPOOL|447=D|452=1|448=666|447=D|452=7|10=030|
20170809-13:52:16: 8=FIX.4.4|9=274|35=D|34=115|49=TOMADOR_DE_ORDENES|50=jzarhi@0423@0423|52=20170809-13:52:16.589|56=ORDERROUTER|1=787714005-00|11=15788c357342b8ad|21=1|38=617|40=2|44=6119|54=2|55=FALABELLA|59=0|60=20170809-13:52:16.558|63=3|100=XSGO|207=XSGO|453=2|448=LVPOOL|447=D|452=1|448=666|447=D|452=7|10=210|
20170809-13:52:16: 8=FIX.4.4|9=389|35=8|34=160|49=ORDERROUTER|52=20170809-13:52:17.821|56=TOMADOR_DE_ORDENES|57=jzarhi@0423@0423|1=787714005-00|6=0|11=15788c357342b8ad|14=0|17=2b2817f178624987|21=1|31=0|32=0|37=-2d9b41c878ebc73|38=617|39=A|40=2|44=6119|54=2|55=FALABELLA|58=New Sell FALABELLA 617.0 @ 6119.0|59=0|60=20170809-13:52:17.820|63=3|100=XSGO|150=A|151=617|207=XSGO|453=2|448=LVPOOL|447=D|452=1|448=666|447=D|452=7|10=149|
20170809-13:52:16: 8=FIX.4.4|9=386|35=8|34=161|49=ORDERROUTER|52=20170809-13:52:17.848|56=TOMADOR_DE_ORDENES|57=jzarhi@0423@0423|1=787714005-00|6=0|11=15788c357342b8ad|14=0|17=ex17221414843|21=1|31=0|32=0|37=-2d9b41c878ebc73|38=617|39=0|40=2|44=6119|54=2|55=FALABELLA|58=New Sell FALABELLA 617.0 @ 6119.0|59=0|60=20170809-13:52:17.847|63=3|100=XSGO|150=0|151=617|207=XSGO|453=2|448=LVPOOL|447=D|452=1|448=666|447=D|452=7|10=229|
20170809-13:52:51: 8=FIX.4.4|9=276|35=D|34=116|49=TOMADOR_DE_ORDENES|50=jzarhi@0423@0423|52=20170809-13:52:51.300|56=ORDERROUTER|1=787714005-00|11=54637dd9dcc2b49a|21=1|38=13869|40=2|44=282|54=2|55=SM-CHILE B|59=0|60=20170809-13:52:51.284|63=3|100=XSGO|207=XSGO|453=2|448=LVPOOL|447=D|452=1|448=666|447=D|452=7|10=163|
20170809-13:52:51: 8=FIX.4.4|9=396|35=8|34=162|49=ORDERROUTER|52=20170809-13:52:52.528|56=TOMADOR_DE_ORDENES|57=jzarhi@0423@0423|1=787714005-00|6=0|11=54637dd9dcc2b49a|14=0|17=4d94ddc1e1a6465b|21=1|31=0|32=0|37=-3abd08270fedb237|38=13869|39=A|40=2|44=282|54=2|55=SM-CHILE B|58=New Sell SM-CHILE B 13869.0 @ 282.0|59=0|60=20170809-13:52:52.528|63=3|100=XSGO|150=A|151=13869|207=XSGO|453=2|448=LVPOOL|447=D|452=1|448=666|447=D|452=7|10=123|
20170809-13:52:51: 8=FIX.4.4|9=393|35=8|34=163|49=ORDERROUTER|52=20170809-13:52:52.557|56=TOMADOR_DE_ORDENES|57=jzarhi@0423@0423|1=787714005-00|6=0|11=54637dd9dcc2b49a|14=0|17=ex17221415151|21=1|31=0|32=0|37=-3abd08270fedb237|38=13869|39=0|40=2|44=282|54=2|55=SM-CHILE B|58=New Sell SM-CHILE B 13869.0 @ 282.0|59=0|60=20170809-13:52:52.556|63=3|100=XSGO|150=0|151=13869|207=XSGO|453=2|448=LVPOOL|447=D|452=1|448=666|447=D|452=7|10=214|
20170809-13:53:11: 8=FIX.4.4|9=407|35=8|34=164|49=ORDERROUTER|52=20170809-13:53:12.370|56=TOMADOR_DE_ORDENES|57=vavasquez@0397@0109|1=796570504-01|6=1900|11=1ca12ebe8dd6b281|14=10762|17=ex17221415297|21=3|31=1900|32=1431|37=319e5d5ffbd84175|38=105263|39=1|40=2|44=1900|54=1|55=CENCOSUD|58=New Buy CENCOSUD 105263.0 @ 1900.0|59=0|60=20170809-13:53:12.369|63=3|100=XSGO|150=F|151=94501|207=XSGO|453=2|448=LVPOOL|447=D|452=1|448=666|447=D|452=7|10=141|
20170809-13:53:11: 8=FIX.4.4|9=405|35=8|34=165|49=ORDERROUTER|52=20170809-13:53:12.798|56=TOMADOR_DE_ORDENES|57=vavasquez@0397@0109|1=796570504-01|6=1900|11=1ca12ebe8dd6b281|14=10808|17=ex17221415303|21=3|31=1900|32=46|37=319e5d5ffbd84175|38=105263|39=1|40=2|44=1900|54=1|55=CENCOSUD|58=New Buy CENCOSUD 105263.0 @ 1900.0|59=0|60=20170809-13:53:12.798|63=3|100=XSGO|150=F|151=94455|207=XSGO|453=2|448=LVPOOL|447=D|452=1|448=666|447=D|452=7|10=062|
20170809-13:53:11: 8=FIX.4.4|9=405|35=8|34=166|49=ORDERROUTER|52=20170809-13:53:12.807|56=TOMADOR_DE_ORDENES|57=vavasquez@0397@0109|1=796570504-01|6=1900|11=1ca12ebe8dd6b281|14=10854|17=ex17221415306|21=3|31=1900|32=46|37=319e5d5ffbd84175|38=105263|39=1|40=2|44=1900|54=1|55=CENCOSUD|58=New Buy CENCOSUD 105263.0 @ 1900.0|59=0|60=20170809-13:53:12.806|63=3|100=XSGO|150=F|151=94409|207=XSGO|453=2|448=LVPOOL|447=D|452=1|448=666|447=D|452=7|10=047|
20170809-13:53:11: 8=FIX.4.4|9=405|35=8|34=167|49=ORDERROUTER|52=20170809-13:53:12.814|56=TOMADOR_DE_ORDENES|57=vavasquez@0397@0109|1=796570504-01|6=1900|11=1ca12ebe8dd6b281|14=10867|17=ex17221415309|21=3|31=1900|32=13|37=319e5d5ffbd84175|38=105263|39=1|40=2|44=1900|54=1|55=CENCOSUD|58=New Buy CENCOSUD 105263.0 @ 1900.0|59=0|60=20170809-13:53:12.814|63=3|100=XSGO|150=F|151=94396|207=XSGO|453=2|448=LVPOOL|447=D|452=1|448=666|447=D|452=7|10=051|
20170809-13:53:38: 8=FIX.4.4|9=379|35=8|34=168|49=ORDERROUTER|52=20170809-13:53:39.415|56=TOMADOR_DE_ORDENES|57=jzarhi@0423@0423|1=787714005-00|6=0|11=32858a01ce39b57a|14=0|17=302c179e82bd4312|21=3|31=0|32=0|37=5dbc4e3997c4512|38=2731|39=0|40=2|44=1340|54=2|55=ECL|58=New Sell ECL 2731.0 @ 1340.0|59=0|60=20170809-13:53:39.415|63=3|100=XSGO|150=0|151=2731|207=XSGO|453=2|448=LVPOOL|447=D|452=1|448=666|447=D|452=7|10=209|
20170809-13:53:39: 8=FIX.4.4|9=271|35=D|34=117|49=TOMADOR_DE_ORDENES|50=jzarhi@0423@0423|52=20170809-13:53:39.738|56=ORDERROUTER|1=787714005-00|11=2a8de00f6846b3f4|21=3|38=54260|40=2|44=69|54=2|55=SMSAAM|59=0|60=20170809-13:53:39.738|63=3|100=XSGO|207=XSGO|453=2|448=LVPOOL|447=D|452=1|448=666|447=D|452=7|10=132|
20170809-13:53:39: 8=FIX.4.4|9=385|35=8|34=169|49=ORDERROUTER|52=20170809-13:53:40.979|56=TOMADOR_DE_ORDENES|57=jzarhi@0423@0423|1=787714005-00|6=0|11=2a8de00f6846b3f4|14=0|17=6d76d7a438bd4814|21=3|31=0|32=0|37=1ecd8bb841fe4c93|38=54260|39=A|40=2|44=69|54=2|55=SMSAAM|58=New Sell SMSAAM 54260.0 @ 69.0|59=0|60=20170809-13:53:40.978|63=3|100=XSGO|150=A|151=54260|207=XSGO|453=2|448=LVPOOL|447=D|452=1|448=666|447=D|452=7|10=249|
20170809-13:53:50: 8=FIX.4.4|9=386|35=8|34=170|49=ORDERROUTER|52=20170809-13:53:51.338|56=TOMADOR_DE_ORDENES|57=jzarhi@0423@0423|1=787714005-00|6=0|11=2a8de00f6846b3f4|14=0|17=-3fee49a4d226bf66|21=3|31=0|32=0|37=1ecd8bb841fe4c93|38=54260|39=0|40=2|44=69|54=2|55=SMSAAM|58=New Sell SMSAAM 54260.0 @ 69.0|59=0|60=20170809-13:53:51.338|63=3|100=XSGO|150=0|151=54260|207=XSGO|453=2|448=LVPOOL|447=D|452=1|448=666|447=D|452=7|10=074|
20170809-13:54:23: 8=FIX.4.4|9=280|35=D|34=118|49=TOMADOR_DE_ORDENES|50=pvasquez@0770@0429|52=20170809-13:54:23.466|56=ORDERROUTER|1=54714068-00|11=72901e6bb5d1b7b4|21=1|38=10713|40=2|44=280.02|54=1|55=SM-CHILE B|59=0|60=20170809-13:54:23.466|63=3|100=XSGO|207=XSGO|453=2|448=LVPOOL|447=D|452=1|448=666|447=D|452=7|10=194|
20170809-13:54:23: 8=FIX.4.4|9=401|35=8|34=171|49=ORDERROUTER|52=20170809-13:54:24.698|56=TOMADOR_DE_ORDENES|57=pvasquez@0770@0429|1=54714068-00|6=0|11=72901e6bb5d1b7b4|14=0|17=-3c09195e01edbc5d|21=1|31=0|32=0|37=-3ee7efef2d4ab6fa|38=10713|39=A|40=2|44=280.02|54=1|55=SM-CHILE B|58=New Buy SM-CHILE B 10713.0 @ 280.02|59=0|60=20170809-13:54:24.697|63=3|100=XSGO|150=A|151=10713|207=XSGO|453=2|448=LVPOOL|447=D|452=1|448=666|447=D|452=7|10=055|
20170809-13:54:23: 8=FIX.4.4|9=397|35=8|34=172|49=ORDERROUTER|52=20170809-13:54:24.753|56=TOMADOR_DE_ORDENES|57=pvasquez@0770@0429|1=54714068-00|6=0|11=72901e6bb5d1b7b4|14=0|17=ex17221416379|21=1|31=0|32=0|37=-3ee7efef2d4ab6fa|38=10713|39=0|40=2|44=280.02|54=1|55=SM-CHILE B|58=New Buy SM-CHILE B 10713.0 @ 280.02|59=0|60=20170809-13:54:24.753|63=3|100=XSGO|150=0|151=10713|207=XSGO|453=2|448=LVPOOL|447=D|452=1|448=666|447=D|452=7|10=117|
20170809-13:54:26: 8=FIX.4.4|9=271|35=D|34=119|49=TOMADOR_DE_ORDENES|50=jzarhi@0423@0423|52=20170809-13:54:26.710|56=ORDERROUTER|1=787714005-00|11=3c18ad091d684234|21=1|38=143|40=2|44=27250|54=2|55=SQM-B|59=0|60=20170809-13:54:26.695|63=3|100=XSGO|207=XSGO|453=2|448=LVPOOL|447=D|452=1|448=666|447=D|452=7|10=216|
20170809-13:54:26: 8=FIX.4.4|9=383|35=8|34=173|49=ORDERROUTER|52=20170809-13:54:27.939|56=TOMADOR_DE_ORDENES|57=jzarhi@0423@0423|1=787714005-00|6=0|11=3c18ad091d684234|14=0|17=51e5d100c4824bee|21=1|31=0|32=0|37=39de44a493fa41a9|38=143|39=A|40=2|44=27250|54=2|55=SQM-B|58=New Sell SQM-B 143.0 @ 27250.0|59=0|60=20170809-13:54:27.939|63=3|100=XSGO|150=A|151=143|207=XSGO|453=2|448=LVPOOL|447=D|452=1|448=666|447=D|452=7|10=113|
20170809-13:54:26: 8=FIX.4.4|9=380|35=8|34=174|49=ORDERROUTER|52=20170809-13:54:27.978|56=TOMADOR_DE_ORDENES|57=jzarhi@0423@0423|1=787714005-00|6=0|11=3c18ad091d684234|14=0|17=ex17221416439|21=1|31=0|32=0|37=39de44a493fa41a9|38=143|39=0|40=2|44=27250|54=2|55=SQM-B|58=New Sell SQM-B 143.0 @ 27250.0|59=0|60=20170809-13:54:27.978|63=3|100=XSGO|150=0|151=143|207=XSGO|453=2|448=LVPOOL|447=D|452=1|448=666|447=D|452=7|10=018|
20170809-13:54:39: 8=FIX.4.4|9=390|35=8|34=175|49=ORDERROUTER|52=20170809-13:54:40.520|56=TOMADOR_DE_ORDENES|57=jzarhi@0423@0423|1=787714005-00|6=27250|11=3c18ad091d684234|14=143|17=ex17221416506|21=1|31=27250|32=143|37=39de44a493fa41a9|38=143|39=2|40=2|44=27250|54=2|55=SQM-B|58=New Sell SQM-B 143.0 @ 27250.0|59=0|60=20170809-13:54:40.519|63=3|100=XSGO|150=F|151=0|207=XSGO|453=2|448=LVPOOL|447=D|452=1|448=666|447=D|452=7|10=011|
20170809-13:55:26: 8=FIX.4.4|9=74|35=0|34=120|49=TOMADOR_DE_ORDENES|52=20170809-13:55:26.880|56=ORDERROUTER|10=020|
20170809-13:55:30: 8=FIX.4.4|9=406|35=8|34=176|49=ORDERROUTER|52=20170809-13:55:31.900|56=TOMADOR_DE_ORDENES|57=vavasquez@0397@0109|1=796570504-01|6=1900|11=1ca12ebe8dd6b281|14=11276|17=ex17221416804|21=3|31=1900|32=409|37=319e5d5ffbd84175|38=105263|39=1|40=2|44=1900|54=1|55=CENCOSUD|58=New Buy CENCOSUD 105263.0 @ 1900.0|59=0|60=20170809-13:55:31.899|63=3|100=XSGO|150=F|151=93987|207=XSGO|453=2|448=LVPOOL|447=D|452=1|448=666|447=D|452=7|10=125|
20170809-13:55:33: 8=FIX.4.4|9=278|35=D|34=121|49=TOMADOR_DE_ORDENES|50=ranguita@0387@0387|52=20170809-13:55:33.776|56=ORDERROUTER|1=57985690-00|11=6c57ffd122df4ba2|21=3|38=72254|40=2|44=81.5|54=2|55=NUEVAPOLAR|59=0|60=20170809-13:55:33.760|63=3|100=XSGO|207=XSGO|453=2|448=LVPOOL|447=D|452=1|448=666|447=D|452=7|10=049|
20170809-13:55:33: 8=FIX.4.4|9=396|35=8|34=177|49=ORDERROUTER|52=20170809-13:55:35.006|56=TOMADOR_DE_ORDENES|57=ranguita@0387@0387|1=57985690-00|6=0|11=6c57ffd122df4ba2|14=0|17=-4422bedac9abfb3|21=3|31=0|32=0|37=45c4e7f816a94d4b|38=72254|39=A|40=2|44=81.5|54=2|55=NUEVAPOLAR|58=New Sell NUEVAPOLAR 72254.0 @ 81.5|59=0|60=20170809-13:55:35.006|63=3|100=XSGO|150=A|151=72254|207=XSGO|453=2|448=LVPOOL|447=D|452=1|448=666|447=D|452=7|10=034|
20170809-13:56:02: 8=FIX.4.4|9=397|35=8|34=178|49=ORDERROUTER|52=20170809-13:56:03.243|56=TOMADOR_DE_ORDENES|57=ranguita@0387@0387|1=57985690-00|6=0|11=6c57ffd122df4ba2|14=0|17=-3f932d4cddfabfc2|21=3|31=0|32=0|37=45c4e7f816a94d4b|38=72254|39=0|40=2|44=81.5|54=2|55=NUEVAPOLAR|58=New Sell NUEVAPOLAR 72254.0 @ 81.5|59=0|60=20170809-13:56:03.242|63=3|100=XSGO|150=0|151=72254|207=XSGO|453=2|448=LVPOOL|447=D|452=1|448=666|447=D|452=7|10=107|
20170809-13:56:15: 8=FIX.4.4|9=407|35=8|34=179|49=ORDERROUTER|52=20170809-13:56:17.058|56=TOMADOR_DE_ORDENES|57=ranguita@0387@0387|1=57985690-00|6=81.5|11=6c57ffd122df4ba2|14=12724|17=ex17221416983|21=3|31=81.5|32=12724|37=45c4e7f816a94d4b|38=72254|39=1|40=2|44=81.5|54=2|55=NUEVAPOLAR|58=New Sell NUEVAPOLAR 72254.0 @ 81.5|59=0|60=20170809-13:56:17.057|63=3|100=XSGO|150=F|151=59530|207=XSGO|453=2|448=LVPOOL|447=D|452=1|448=666|447=D|452=7|10=053|
20170809-13:56:24: 8=FIX.4.4|9=283|35=D|34=122|49=TOMADOR_DE_ORDENES|50=mofuentes@0652@0652|52=20170809-13:56:24.024|56=ORDERROUTER|1=63758663-00|11=6dcc2acd11dd4216|21=3|38=2|40=2|44=450000|54=1|55=ORO 100*|59=0|60=20170809-13:56:24.008|63=1|100=XSGO|167=MON|207=XSGO|453=2|448=LVPOOL|447=D|452=1|448=666|447=D|452=7|10=153|
20170809-13:56:24: 8=FIX.4.4|9=395|35=8|34=180|49=ORDERROUTER|52=20170809-13:56:25.264|56=TOMADOR_DE_ORDENES|57=mofuentes@0652@0652|1=63758663-00|6=0|11=6dcc2acd11dd4216|14=0|17=2c721571e2c5414a|21=3|31=0|32=0|37=-3fdad295672cb0de|38=2|39=A|40=2|44=450000|54=1|55=ORO 100*|58=New Buy ORO 100* 2.0 @ 450000.0|59=0|60=20170809-13:56:25.263|63=1|100=XSGO|150=A|151=2|167=MON|207=XSGO|453=2|448=LVPOOL|447=D|452=1|448=666|447=D|452=7|10=192|
20170809-13:57:02: 8=FIX.4.4|9=407|35=8|34=181|49=ORDERROUTER|52=20170809-13:57:04.027|56=TOMADOR_DE_ORDENES|57=jpott@0397@0948|1=763769828-00|6=282|11=4a20d44691fa4848|14=135086|17=ex17221417264|21=3|31=282|32=99304|37=-55e2af25d72ebe80|38=230000|39=1|40=2|44=282|54=2|55=SM-CHILE B|58=New Sell SM-CHILE B 230000.0 @ 282.0|59=0|60=20170809-13:57:04.026|63=3|100=XSGO|150=F|151=94914|207=XSGO|453=2|448=LVPOOL|447=D|452=1|448=666|447=D|452=7|10=022|
20170809-13:57:02: 8=FIX.4.4|9=403|35=8|34=182|49=ORDERROUTER|52=20170809-13:57:04.036|56=TOMADOR_DE_ORDENES|57=jpott@0397@0948|1=763769828-00|6=282|11=4a20d44691fa4848|14=230000|17=ex17221417267|21=3|31=282|32=94914|37=-55e2af25d72ebe80|38=230000|39=2|40=2|44=282|54=2|55=SM-CHILE B|58=New Sell SM-CHILE B 230000.0 @ 282.0|59=0|60=20170809-13:57:04.035|63=3|100=XSGO|150=F|151=0|207=XSGO|453=2|448=LVPOOL|447=D|452=1|448=666|447=D|452=7|10=044|
20170809-13:57:02: 8=FIX.4.4|9=402|35=8|34=183|49=ORDERROUTER|52=20170809-13:57:04.045|56=TOMADOR_DE_ORDENES|57=jzarhi@0423@0423|1=787714005-00|6=282|11=54637dd9dcc2b49a|14=5086|17=ex17221417269|21=1|31=282|32=5086|37=-3abd08270fedb237|38=13869|39=1|40=2|44=282|54=2|55=SM-CHILE B|58=New Sell SM-CHILE B 13869.0 @ 282.0|59=0|60=20170809-13:57:04.044|63=3|100=XSGO|150=F|151=8783|207=XSGO|453=2|448=LVPOOL|447=D|452=1|448=666|447=D|452=7|10=211|
20170809-13:57:02: 8=FIX.4.4|9=400|35=8|34=184|49=ORDERROUTER|52=20170809-13:57:04.052|56=TOMADOR_DE_ORDENES|57=jzarhi@0423@0423|1=787714005-00|6=282|11=54637dd9dcc2b49a|14=13869|17=ex17221417272|21=1|31=282|32=8783|37=-3abd08270fedb237|38=13869|39=2|40=2|44=282|54=2|55=SM-CHILE B|58=New Sell SM-CHILE B 13869.0 @ 282.0|59=0|60=20170809-13:57:04.052|63=3|100=XSGO|150=F|151=0|207=XSGO|453=2|448=LVPOOL|447=D|452=1|448=666|447=D|452=7|10=095|
20170809-13:57:03: 8=FIX.4.4|9=283|35=D|34=123|49=TOMADOR_DE_ORDENES|50=mofuentes@0652@0652|52=20170809-13:57:03.243|56=ORDERROUTER|1=63758663-00|11=4f39a9f0317b4433|21=3|38=8|40=2|44=95000|54=2|55=PLATA 10*|59=0|60=20170809-13:57:03.227|63=1|100=XSGO|167=MON|207=XSGO|453=2|448=LVPOOL|447=D|452=1|448=666|447=D|452=7|10=026|
20170809-13:57:03: 8=FIX.4.4|9=395|35=8|34=185|49=ORDERROUTER|52=20170809-13:57:04.472|56=TOMADOR_DE_ORDENES|57=mofuentes@0652@0652|1=63758663-00|6=0|11=4f39a9f0317b4433|14=0|17=42a32a299d7843f6|21=3|31=0|32=0|37=1cc4545aab904c46|38=8|39=A|40=2|44=95000|54=2|55=PLATA 10*|58=New Sell PLATA 10* 8.0 @ 95000.0|59=0|60=20170809-13:57:04.471|63=1|100=XSGO|150=A|151=8|167=MON|207=XSGO|453=2|448=LVPOOL|447=D|452=1|448=666|447=D|452=7|10=081|
20170809-13:57:13: 8=FIX.4.4|9=393|35=8|34=186|49=ORDERROUTER|52=20170809-13:57:14.475|56=TOMADOR_DE_ORDENES|57=mofuentes@0652@0652|1=63758663-00|6=0|11=6dcc2acd11dd4216|14=0|17=824441e30e4da7|21=3|31=0|32=0|37=-3fdad295672cb0de|38=2|39=0|40=2|44=450000|54=1|55=ORO 100*|58=New Buy ORO 100* 2.0 @ 450000.0|59=0|60=20170809-13:57:14.474|63=1|100=XSGO|150=0|151=2|167=MON|207=XSGO|453=2|448=LVPOOL|447=D|452=1|448=666|447=D|452=7|10=071|
20170809-13:57:20: 8=FIX.4.4|9=396|35=8|34=187|49=ORDERROUTER|52=20170809-13:57:21.335|56=TOMADOR_DE_ORDENES|57=mofuentes@0652@0652|1=63758663-00|6=0|11=4f39a9f0317b4433|14=0|17=-5a2b160d8ad9b98f|21=3|31=0|32=0|37=1cc4545aab904c46|38=8|39=0|40=2|44=95000|54=2|55=PLATA 10*|58=New Sell PLATA 10* 8.0 @ 95000.0|59=0|60=20170809-13:57:21.334|63=1|100=XSGO|150=0|151=8|167=MON|207=XSGO|453=2|448=LVPOOL|447=D|452=1|448=666|447=D|452=7|10=230|
20170809-13:57:38: 8=FIX.4.4|9=276|35=D|34=124|49=TOMADOR_DE_ORDENES|50=mofuentes@0652@0652|52=20170809-13:57:38.078|56=ORDERROUTER|1=22295985-00|11=13d26d8243d9bbfd|21=3|38=3|40=2|44=173000|54=2|55=COUNTRY-A|59=0|60=20170809-13:57:38.062|63=3|100=XSGO|207=XSGO|453=2|448=LVPOOL|447=D|452=1|448=666|447=D|452=7|10=166|
20170809-13:57:38: 8=FIX.4.4|9=389|35=8|34=188|49=ORDERROUTER|52=20170809-13:57:39.308|56=TOMADOR_DE_ORDENES|57=mofuentes@0652@0652|1=22295985-00|6=0|11=13d26d8243d9bbfd|14=0|17=-6e78759b838b48d|21=3|31=0|32=0|37=-46cf51f550cb6c7|38=3|39=A|40=2|44=173000|54=2|55=COUNTRY-A|58=New Sell COUNTRY-A 3.0 @ 173000.0|59=0|60=20170809-13:57:39.307|63=3|100=XSGO|150=A|151=3|207=XSGO|453=2|448=LVPOOL|447=D|452=1|448=666|447=D|452=7|10=145|
20170809-13:57:56: 8=FIX.4.4|9=276|35=D|34=125|49=TOMADOR_DE_ORDENES|50=mofuentes@0652@0652|52=20170809-13:57:56.705|56=ORDERROUTER|1=88202953-00|11=1f52daa3cf3f4709|21=3|38=4|40=2|44=173000|54=2|55=COUNTRY-A|59=0|60=20170809-13:57:56.705|63=3|100=XSGO|207=XSGO|453=2|448=LVPOOL|447=D|452=1|448=666|447=D|452=7|10=161|
20170809-13:57:56: 8=FIX.4.4|9=390|35=8|34=189|49=ORDERROUTER|52=20170809-13:57:57.942|56=TOMADOR_DE_ORDENES|57=mofuentes@0652@0652|1=88202953-00|6=0|11=1f52daa3cf3f4709|14=0|17=7961c8102d70452a|21=3|31=0|32=0|37=-6f165274e816b39b|38=4|39=A|40=2|44=173000|54=2|55=COUNTRY-A|58=New Sell COUNTRY-A 4.0 @ 173000.0|59=0|60=20170809-13:57:57.941|63=3|100=XSGO|150=A|151=4|207=XSGO|453=2|448=LVPOOL|447=D|452=1|448=666|447=D|452=7|10=033|
20170809-13:58:27: 8=FIX.4.4|9=277|35=D|34=126|49=TOMADOR_DE_ORDENES|50=mofuentes@0652@0652|52=20170809-13:58:27.406|56=ORDERROUTER|1=965025006-00|11=22989df66bb1b90e|21=3|38=1411|40=2|44=1600|54=2|55=TRICAHUE|59=0|60=20170809-13:58:27.390|63=3|100=XSGO|207=XSGO|453=2|448=LVPOOL|447=D|452=1|448=666|447=D|452=7|10=137|
20170809-13:58:27: 8=FIX.4.4|9=395|35=8|34=190|49=ORDERROUTER|52=20170809-13:58:28.634|56=TOMADOR_DE_ORDENES|57=mofuentes@0652@0652|1=965025006-00|6=0|11=22989df66bb1b90e|14=0|17=-1f988d95ad82be5b|21=3|31=0|32=0|37=-17e90672203cb376|38=1411|39=A|40=2|44=1600|54=2|55=TRICAHUE|58=New Sell TRICAHUE 1411.0 @ 1600.0|59=0|60=20170809-13:58:28.633|63=3|100=XSGO|150=A|151=1411|207=XSGO|453=2|448=LVPOOL|447=D|452=1|448=666|447=D|452=7|10=061|
20170809-13:58:30: 8=FIX.4.4|9=386|35=8|34=191|49=ORDERROUTER|52=20170809-13:58:31.567|56=TOMADOR_DE_ORDENES|57=jzarhi@0423@0423|1=787714005-00|6=8070|11=76f1669a74e1b7fd|14=451|17=ex17221418434|21=1|31=8070|32=451|37=6787a3c155bb437e|38=451|39=2|40=2|44=8070|54=2|55=COPEC|58=New Sell COPEC 451.0 @ 8070.0|59=0|60=20170809-13:58:31.566|63=3|100=XSGO|150=F|151=0|207=XSGO|453=2|448=LVPOOL|447=D|452=1|448=666|447=D|452=7|10=191|
20170809-13:58:43: 8=FIX.4.4|9=276|35=D|34=127|49=TOMADOR_DE_ORDENES|50=gledesma@0032@0032|52=20170809-13:58:43.911|56=ORDERROUTER|1=9399485K-01|11=5b33dcd74dc74bbc|21=3|38=75500|40=2|44=81|54=2|55=NUEVAPOLAR|59=0|60=20170809-13:58:43.895|63=3|100=XSGO|207=XSGO|453=2|448=LVPOOL|447=D|452=1|448=666|447=D|452=7|10=237|
20170809-13:58:43: 8=FIX.4.4|9=395|35=8|34=192|49=ORDERROUTER|52=20170809-13:58:45.141|56=TOMADOR_DE_ORDENES|57=gledesma@0032@0032|1=9399485K-01|6=0|11=5b33dcd74dc74bbc|14=0|17=-3798f4032489b12e|21=3|31=0|32=0|37=-5af8f0506ffbd15|38=75500|39=A|40=2|44=81|54=2|55=NUEVAPOLAR|58=New Sell NUEVAPOLAR 75500.0 @ 81.0|59=0|60=20170809-13:58:45.140|63=3|100=XSGO|150=A|151=75500|207=XSGO|453=2|448=LVPOOL|447=D|452=1|448=666|447=D|452=7|10=018|
20170809-13:59:11: 8=FIX.4.4|9=276|35=D|34=128|49=TOMADOR_DE_ORDENES|50=mofuentes@0652@0652|52=20170809-13:59:11.352|56=ORDERROUTER|1=33167113-00|11=7dc48a3803764bd7|21=3|38=2349|40=2|44=1250|54=2|55=ENELDXCH|59=0|60=20170809-13:59:11.336|63=3|100=XSGO|207=XSGO|453=2|448=LVPOOL|447=D|452=1|448=666|447=D|452=7|10=022|
20170809-13:59:11: 8=FIX.4.4|9=393|35=8|34=193|49=ORDERROUTER|52=20170809-13:59:12.587|56=TOMADOR_DE_ORDENES|57=mofuentes@0652@0652|1=33167113-00|6=0|11=7dc48a3803764bd7|14=0|17=-3fd5245da2a8b964|21=3|31=0|32=0|37=3f41129fde784ffe|38=2349|39=A|40=2|44=1250|54=2|55=ENELDXCH|58=New Sell ENELDXCH 2349.0 @ 1250.0|59=0|60=20170809-13:59:12.586|63=3|100=XSGO|150=A|151=2349|207=XSGO|453=2|448=LVPOOL|447=D|452=1|448=666|447=D|452=7|10=073|
20170809-13:59:17: 8=FIX.4.4|9=393|35=8|34=194|49=ORDERROUTER|52=20170809-13:59:18.397|56=TOMADOR_DE_ORDENES|57=mofuentes@0652@0652|1=33167113-00|6=0|11=7dc48a3803764bd7|14=0|17=-69c0d26f9d75bdf8|21=3|31=0|32=0|37=3f41129fde784ffe|38=2349|39=0|40=2|44=1250|54=2|55=ENELDXCH|58=New Sell ENELDXCH 2349.0 @ 1250.0|59=0|60=20170809-13:59:18.396|63=3|100=XSGO|150=0|151=2349|207=XSGO|453=2|448=LVPOOL|447=D|452=1|448=666|447=D|452=7|10=113|
20170809-13:59:48: 8=FIX.4.4|9=340|35=G|34=129|49=TOMADOR_DE_ORDENES|50=jzarhi@0423@0423|52=20170809-13:59:48.761|56=ORDERROUTER|1=787714005-00|11=6b82dec4fa42b11c|21=1|37=-7deb0a8809d4b5c5|38=89|40=2|41=47adb767a586b3ce|44=40575|54=2|55=BCI|58=New Sell BCI 89.0 @ 40900.0|59=0|60=20170809-13:59:48.745|63=3|100=XSGO|207=XSGO|453=2|448=LVPOOL|447=D|452=1|448=666|447=D|452=7|10=209|
20170809-13:59:48: 8=FIX.4.4|9=415|35=8|34=195|49=ORDERROUTER|52=20170809-13:59:50.019|56=TOMADOR_DE_ORDENES|57=jzarhi@0423@0423|1=787714005-00|6=0|11=6b82dec4fa42b11c|14=0|17=1127d25c61a1475f|21=1|31=0|32=0|37=-7deb0a8809d4b5c5|38=89|39=E|40=2|41=6b82dec4fa42b11c|44=40575|54=2|55=BCI|58=Replace from 89.0 @ 40900.0 To 89.0 @ 40575.0|59=0|60=20170809-13:59:50.019|63=3|100=XSGO|150=E|151=89|207=XSGO|453=2|448=LVPOOL|447=D|452=1|448=666|447=D|452=7|10=091|
20170809-13:59:48: 8=FIX.4.4|9=412|35=8|34=196|49=ORDERROUTER|52=20170809-13:59:50.049|56=TOMADOR_DE_ORDENES|57=jzarhi@0423@0423|1=787714005-00|6=0|11=6b82dec4fa42b11c|14=0|17=ex17221419339|21=1|31=0|32=0|37=-7deb0a8809d4b5c5|38=89|39=0|40=2|41=6b82dec4fa42b11c|44=40575|54=2|55=BCI|58=Replace from 89.0 @ 40900.0 To 89.0 @ 40575.0|59=0|60=20170809-13:59:50.049|63=3|100=XSGO|150=5|151=89|207=XSGO|453=2|448=LVPOOL|447=D|452=1|448=666|447=D|452=7|10=089|
20170809-14:00:00: 8=FIX.4.4|9=421|35=8|34=197|49=ORDERROUTER|52=20170809-14:00:01.703|56=TOMADOR_DE_ORDENES|57=jzarhi@0423@0423|1=787714005-00|6=40575|11=6b82dec4fa42b11c|14=87|17=ex17221419465|21=1|31=40575|32=87|37=-7deb0a8809d4b5c5|38=89|39=1|40=2|41=6b82dec4fa42b11c|44=40575|54=2|55=BCI|58=Replace from 89.0 @ 40900.0 To 89.0 @ 40575.0|59=0|60=20170809-14:00:01.702|63=3|100=XSGO|150=F|151=2|207=XSGO|453=2|448=LVPOOL|447=D|452=1|448=666|447=D|452=7|10=044|
20170809-14:00:01: 8=FIX.4.4|9=278|35=D|34=130|49=TOMADOR_DE_ORDENES|50=mofuentes@0652@0652|52=20170809-14:00:01.428|56=ORDERROUTER|1=21273236-00|11=6c1c405933a54682|21=3|38=5000|40=2|44=9600|54=2|55=ANTARCHILE|59=0|60=20170809-14:00:01.428|63=3|100=XSGO|207=XSGO|453=2|448=LVPOOL|447=D|452=1|448=666|447=D|452=7|10=030|
20170809-14:00:01: 8=FIX.4.4|9=397|35=8|34=198|49=ORDERROUTER|52=20170809-14:00:02.667|56=TOMADOR_DE_ORDENES|57=mofuentes@0652@0652|1=21273236-00|6=0|11=6c1c405933a54682|14=0|17=-3ea018f9d3a3b820|21=3|31=0|32=0|37=2016eea570b24ba8|38=5000|39=A|40=2|44=9600|54=2|55=ANTARCHILE|58=New Sell ANTARCHILE 5000.0 @ 9600.0|59=0|60=20170809-14:00:02.666|63=3|100=XSGO|150=A|151=5000|207=XSGO|453=2|448=LVPOOL|447=D|452=1|448=666|447=D|452=7|10=128|
20170809-14:00:13: 8=FIX.4.4|9=271|35=D|34=131|49=TOMADOR_DE_ORDENES|50=eletelier@0567@0708|52=20170809-14:00:13.019|56=ORDERROUTER|1=40642722-01|11=4aad3911336b4019|21=1|38=256|40=2|44=1625|54=2|55=CMPC|59=0|60=20170809-14:00:13.004|63=3|100=XSGO|207=XSGO|453=2|448=LVPOOL|447=D|452=1|448=666|447=D|452=7|10=064|
20170809-14:00:13: 8=FIX.4.4|9=380|35=8|34=199|49=ORDERROUTER|52=20170809-14:00:14.253|56=TOMADOR_DE_ORDENES|57=eletelier@0567@0708|1=40642722-01|6=0|11=4aad3911336b4019|14=0|17=110ed1d3bae548a5|21=1|31=0|32=0|37=37e41e41d2841fc|38=256|39=A|40=2|44=1625|54=2|55=CMPC|58=New Sell CMPC 256.0 @ 1625.0|59=0|60=20170809-14:00:14.252|63=3|100=XSGO|150=A|151=256|207=XSGO|453=2|448=LVPOOL|447=D|452=1|448=666|447=D|452=7|10=056|
20170809-14:00:13: 8=FIX.4.4|9=377|35=8|34=200|49=ORDERROUTER|52=20170809-14:00:14.280|56=TOMADOR_DE_ORDENES|57=eletelier@0567@0708|1=40642722-01|6=0|11=4aad3911336b4019|14=0|17=ex17221419574|21=1|31=0|32=0|37=37e41e41d2841fc|38=256|39=0|40=2|44=1625|54=2|55=CMPC|58=New Sell CMPC 256.0 @ 1625.0|59=0|60=20170809-14:00:14.279|63=3|100=XSGO|150=0|151=256|207=XSGO|453=2|448=LVPOOL|447=D|452=1|448=666|447=D|452=7|10=170|
20170809-14:00:40: 8=FIX.4.4|9=277|35=D|34=132|49=TOMADOR_DE_ORDENES|50=mvaldivia@0152@0152|52=20170809-14:00:40.429|56=ORDERROUTER|1=87340538-83|11=aabf3a95c104905|21=3|38=2|40=2|44=1700000|54=1|55=UNION GOLF|59=0|60=20170809-14:00:40.429|63=3|100=XSGO|207=XSGO|453=2|448=LVPOOL|447=D|452=1|448=666|447=D|452=7|10=089|
20170809-14:00:40: 8=FIX.4.4|9=392|35=8|34=201|49=ORDERROUTER|52=20170809-14:00:41.666|56=TOMADOR_DE_ORDENES|57=mvaldivia@0152@0152|1=87340538-83|6=0|11=aabf3a95c104905|14=0|17=-58069a4a7449bbd0|21=3|31=0|32=0|37=47f3646ccdc94d7a|38=2|39=A|40=2|44=1700000|54=1|55=UNION GOLF|58=New Buy UNION GOLF 2.0 @ 1700000.0|59=0|60=20170809-14:00:41.666|63=3|100=XSGO|150=A|151=2|207=XSGO|453=2|448=LVPOOL|447=D|452=1|448=666|447=D|452=7|10=189|
20170809-14:01:16: 8=FIX.4.4|9=351|35=G|34=133|49=TOMADOR_DE_ORDENES|50=jzarhi@0423@0423|52=20170809-14:01:16.216|56=ORDERROUTER|1=787714005-00|11=2b1933a6660cb91f|21=1|37=-2d9b41c878ebc73|38=617|40=2|41=15788c357342b8ad|44=6111|54=2|55=FALABELLA|58=New Sell FALABELLA 617.0 @ 6119.0|59=0|60=20170809-14:01:16.216|63=3|100=XSGO|207=XSGO|453=2|448=LVPOOL|447=D|452=1|448=666|447=D|452=7|10=101|
20170809-14:01:16: 8=FIX.4.4|9=422|35=8|34=202|49=ORDERROUTER|52=20170809-14:01:17.445|56=TOMADOR_DE_ORDENES|57=jzarhi@0423@0423|1=787714005-00|6=0|11=2b1933a6660cb91f|14=0|17=-23b8d7fb100db37d|21=1|31=0|32=0|37=-2d9b41c878ebc73|38=617|39=E|40=2|41=2b1933a6660cb91f|44=6111|54=2|55=FALABELLA|58=Replace from 617.0 @ 6119.0 To 617.0 @ 6111.0|59=0|60=20170809-14:01:17.445|63=3|100=XSGO|150=E|151=617|207=XSGO|453=2|448=LVPOOL|447=D|452=1|448=666|447=D|452=7|10=065|
20170809-14:01:16: 8=FIX.4.4|9=418|35=8|34=203|49=ORDERROUTER|52=20170809-14:01:17.472|56=TOMADOR_DE_ORDENES|57=jzarhi@0423@0423|1=787714005-00|6=0|11=2b1933a6660cb91f|14=0|17=ex17221420304|21=1|31=0|32=0|37=-2d9b41c878ebc73|38=617|39=0|40=2|41=2b1933a6660cb91f|44=6111|54=2|55=FALABELLA|58=Replace from 617.0 @ 6119.0 To 617.0 @ 6111.0|59=0|60=20170809-14:01:17.471|63=3|100=XSGO|150=5|151=617|207=XSGO|453=2|448=LVPOOL|447=D|452=1|448=666|447=D|452=7|10=116|
20170809-14:01:16: 8=FIX.4.4|9=426|35=8|34=204|49=ORDERROUTER|52=20170809-14:01:17.479|56=TOMADOR_DE_ORDENES|57=jzarhi@0423@0423|1=787714005-00|6=6112|11=2b1933a6660cb91f|14=617|17=ex17221420306|21=1|31=6112|32=617|37=-2d9b41c878ebc73|38=617|39=2|40=2|41=2b1933a6660cb91f|44=6111|54=2|55=FALABELLA|58=Replace from 617.0 @ 6119.0 To 617.0 @ 6111.0|59=0|60=20170809-14:01:17.479|63=3|100=XSGO|150=F|151=0|207=XSGO|453=2|448=LVPOOL|447=D|452=1|448=666|447=D|452=7|10=058|
20170809-14:01:20: 8=FIX.4.4|9=420|35=8|34=205|49=ORDERROUTER|52=20170809-14:01:21.781|56=TOMADOR_DE_ORDENES|57=jzarhi@0423@0423|1=787714005-00|6=40575|11=6b82dec4fa42b11c|14=89|17=ex17221420341|21=1|31=40575|32=2|37=-7deb0a8809d4b5c5|38=89|39=2|40=2|41=6b82dec4fa42b11c|44=40575|54=2|55=BCI|58=Replace from 89.0 @ 40900.0 To 89.0 @ 40575.0|59=0|60=20170809-14:01:21.780|63=3|100=XSGO|150=F|151=0|207=XSGO|453=2|448=LVPOOL|447=D|452=1|448=666|447=D|452=7|10=232|
20170809-14:01:52: 8=FIX.4.4|9=275|35=D|34=134|49=TOMADOR_DE_ORDENES|50=mvaldivia@0152@0152|52=20170809-14:01:52.346|56=ORDERROUTER|1=73003210-00|11=491e93a8d933b68c|21=3|38=1350|40=2|44=1540|54=1|55=SOFRUCO|59=0|60=20170809-14:01:52.346|63=3|100=XSGO|207=XSGO|453=2|448=LVPOOL|447=D|452=1|448=666|447=D|452=7|10=177|
20170809-14:01:52: 8=FIX.4.4|9=391|35=8|34=206|49=ORDERROUTER|52=20170809-14:01:53.586|56=TOMADOR_DE_ORDENES|57=mvaldivia@0152@0152|1=73003210-00|6=0|11=491e93a8d933b68c|14=0|17=-39c86fee49b0b9c2|21=3|31=0|32=0|37=-70da0e5952ddb6ac|38=1350|39=A|40=2|44=1540|54=1|55=SOFRUCO|58=New Buy SOFRUCO 1350.0 @ 1540.0|59=0|60=20170809-14:01:53.586|63=3|100=XSGO|150=A|151=1350|207=XSGO|453=2|448=LVPOOL|447=D|452=1|448=666|447=D|452=7|10=198|
20170809-14:01:56: 8=FIX.4.4|9=396|35=8|34=207|49=ORDERROUTER|52=20170809-14:01:57.817|56=TOMADOR_DE_ORDENES|57=mofuentes@0652@0652|1=21273236-00|6=0|11=6c1c405933a54682|14=0|17=-439651f4df9b8ac|21=3|31=0|32=0|37=2016eea570b24ba8|38=5000|39=0|40=2|44=9600|54=2|55=ANTARCHILE|58=New Sell ANTARCHILE 5000.0 @ 9600.0|59=0|60=20170809-14:01:57.815|63=3|100=XSGO|150=0|151=5000|207=XSGO|453=2|448=LVPOOL|447=D|452=1|448=666|447=D|452=7|10=066|
20170809-14:01:57: 8=FIX.4.4|9=276|35=D|34=135|49=TOMADOR_DE_ORDENES|50=eletelier@0567@0708|52=20170809-14:01:57.369|56=ORDERROUTER|1=40642722-01|11=9fff7f9fcf44310|21=3|38=1000|40=2|44=6112|54=2|55=FALABELLA|59=0|60=20170809-14:01:57.369|63=3|100=XSGO|207=XSGO|453=2|448=LVPOOL|447=D|452=1|448=666|447=D|452=7|10=092|
20170809-14:01:57: 8=FIX.4.4|9=394|35=8|34=208|49=ORDERROUTER|52=20170809-14:01:58.610|56=TOMADOR_DE_ORDENES|57=eletelier@0567@0708|1=40642722-01|6=0|11=9fff7f9fcf44310|14=0|17=778b1a413d2f4fd3|21=3|31=0|32=0|37=-43599131671db2c4|38=1000|39=A|40=2|44=6112|54=2|55=FALABELLA|58=New Sell FALABELLA 1000.0 @ 6112.0|59=0|60=20170809-14:01:58.609|63=3|100=XSGO|150=A|151=1000|207=XSGO|453=2|448=LVPOOL|447=D|452=1|448=666|447=D|452=7|10=169|
20170809-14:02:03: 8=FIX.4.4|9=395|35=8|34=209|49=ORDERROUTER|52=20170809-14:02:04.892|56=TOMADOR_DE_ORDENES|57=mofuentes@0652@0652|1=965025006-00|6=0|11=22989df66bb1b90e|14=0|17=-3770ccb29be9bdc0|21=3|31=0|32=0|37=-17e90672203cb376|38=1411|39=0|40=2|44=1600|54=2|55=TRICAHUE|58=New Sell TRICAHUE 1411.0 @ 1600.0|59=0|60=20170809-14:02:04.891|63=3|100=XSGO|150=0|151=1411|207=XSGO|453=2|448=LVPOOL|447=D|452=1|448=666|447=D|452=7|10=038|
20170809-14:02:09: 8=FIX.4.4|9=277|35=D|34=136|49=TOMADOR_DE_ORDENES|50=gledesma@0032@0032|52=20170809-14:02:09.849|56=ORDERROUTER|1=9399485K-00|11=7ff4a8bf107bb963|21=3|38=730000|40=2|44=80|54=2|55=NUEVAPOLAR|59=0|60=20170809-14:02:09.849|63=3|100=XSGO|207=XSGO|453=2|448=LVPOOL|447=D|452=1|448=666|447=D|452=7|10=184|
20170809-14:02:09: 8=FIX.4.4|9=398|35=8|34=210|49=ORDERROUTER|52=20170809-14:02:11.089|56=TOMADOR_DE_ORDENES|57=gledesma@0032@0032|1=9399485K-00|6=0|11=7ff4a8bf107bb963|14=0|17=2af288636f7448d6|21=3|31=0|32=0|37=-5698738cb7cabd44|38=730000|39=A|40=2|44=80|54=2|55=NUEVAPOLAR|58=New Sell NUEVAPOLAR 730000.0 @ 80.0|59=0|60=20170809-14:02:11.089|63=3|100=XSGO|150=A|151=730000|207=XSGO|453=2|448=LVPOOL|447=D|452=1|448=666|447=D|452=7|10=061|
20170809-14:02:19: 8=FIX.4.4|9=390|35=8|34=211|49=ORDERROUTER|52=20170809-14:02:20.741|56=TOMADOR_DE_ORDENES|57=mvaldivia@0152@0152|1=73003210-00|6=0|11=491e93a8d933b68c|14=0|17=594eb6f92b694837|21=3|31=0|32=0|37=-70da0e5952ddb6ac|38=1350|39=0|40=2|44=1540|54=1|55=SOFRUCO|58=New Buy SOFRUCO 1350.0 @ 1540.0|59=0|60=20170809-14:02:20.739|63=3|100=XSGO|150=0|151=1350|207=XSGO|453=2|448=LVPOOL|447=D|452=1|448=666|447=D|452=7|10=220|
20170809-14:02:24: 8=FIX.4.4|9=395|35=8|34=212|49=ORDERROUTER|52=20170809-14:02:25.759|56=TOMADOR_DE_ORDENES|57=eletelier@0567@0708|1=40642722-01|6=0|11=9fff7f9fcf44310|14=0|17=-2b2013cd1e41b4a9|21=3|31=0|32=0|37=-43599131671db2c4|38=1000|39=0|40=2|44=6112|54=2|55=FALABELLA|58=New Sell FALABELLA 1000.0 @ 6112.0|59=0|60=20170809-14:02:25.758|63=3|100=XSGO|150=0|151=1000|207=XSGO|453=2|448=LVPOOL|447=D|452=1|448=666|447=D|452=7|10=166|
20170809-14:02:24: 8=FIX.4.4|9=392|35=8|34=213|49=ORDERROUTER|52=20170809-14:02:26.213|56=TOMADOR_DE_ORDENES|57=mvaldivia@0152@0152|1=87340538-83|6=0|11=aabf3a95c104905|14=0|17=-1c1ac3e6819db491|21=3|31=0|32=0|37=47f3646ccdc94d7a|38=2|39=0|40=2|44=1700000|54=1|55=UNION GOLF|58=New Buy UNION GOLF 2.0 @ 1700000.0|59=0|60=20170809-14:02:26.213|63=3|100=XSGO|150=0|151=2|207=XSGO|453=2|448=LVPOOL|447=D|452=1|448=666|447=D|452=7|10=187|
20170809-14:02:27: 8=FIX.4.4|9=399|35=8|34=214|49=ORDERROUTER|52=20170809-14:02:29.086|56=TOMADOR_DE_ORDENES|57=eletelier@0567@0708|1=40642722-01|6=6112|11=9fff7f9fcf44310|14=989|17=ex17221421298|21=3|31=6112|32=989|37=-43599131671db2c4|38=1000|39=1|40=2|44=6112|54=2|55=FALABELLA|58=New Sell FALABELLA 1000.0 @ 6112.0|59=0|60=20170809-14:02:29.085|63=3|100=XSGO|150=F|151=11|207=XSGO|453=2|448=LVPOOL|447=D|452=1|448=666|447=D|452=7|10=033|
20170809-14:02:36: 8=FIX.4.4|9=269|35=D|34=137|49=TOMADOR_DE_ORDENES|50=jclaude@0089@0569|52=20170809-14:02:36.837|56=ORDERROUTER|1=150799171-00|11=2cbfd756fc02b2e4|21=3|38=428|40=2|44=1120|54=2|55=IAM|59=0|60=20170809-14:02:36.837|63=3|100=XSGO|207=XSGO|453=2|448=LVPOOL|447=D|452=1|448=666|447=D|452=7|10=066|
20170809-14:02:36: 8=FIX.4.4|9=380|35=8|34=215|49=ORDERROUTER|52=20170809-14:02:38.073|56=TOMADOR_DE_ORDENES|57=jclaude@0089@0569|1=150799171-00|6=0|11=2cbfd756fc02b2e4|14=0|17=-12c12b579e48b909|21=3|31=0|32=0|37=-23d71fe3b985b733|38=428|39=A|40=2|44=1120|54=2|55=IAM|58=New Sell IAM 428.0 @ 1120.0|59=0|60=20170809-14:02:38.073|63=3|100=XSGO|150=A|151=428|207=XSGO|453=2|448=LVPOOL|447=D|452=1|448=666|447=D|452=7|10=212|
20170809-14:02:44: 8=FIX.4.4|9=395|35=8|34=216|49=ORDERROUTER|52=20170809-14:02:45.574|56=TOMADOR_DE_ORDENES|57=gledesma@0032@0032|1=9399485K-01|6=0|11=5b33dcd74dc74bbc|14=0|17=-4d918fefd73ab94a|21=3|31=0|32=0|37=-5af8f0506ffbd15|38=75500|39=0|40=2|44=81|54=2|55=NUEVAPOLAR|58=New Sell NUEVAPOLAR 75500.0 @ 81.0|59=0|60=20170809-14:02:45.574|63=3|100=XSGO|150=0|151=75500|207=XSGO|453=2|448=LVPOOL|447=D|452=1|448=666|447=D|452=7|10=223|
20170809-14:02:52: 8=FIX.4.4|9=379|35=8|34=217|49=ORDERROUTER|52=20170809-14:02:54.228|56=TOMADOR_DE_ORDENES|57=jclaude@0089@0569|1=150799171-00|6=0|11=2cbfd756fc02b2e4|14=0|17=7cce502550dc4601|21=3|31=0|32=0|37=-23d71fe3b985b733|38=428|39=0|40=2|44=1120|54=2|55=IAM|58=New Sell IAM 428.0 @ 1120.0|59=0|60=20170809-14:02:54.227|63=3|100=XSGO|150=0|151=428|207=XSGO|453=2|448=LVPOOL|447=D|452=1|448=666|447=D|452=7|10=174|
20170809-14:03:06: 8=FIX.4.4|9=399|35=8|34=218|49=ORDERROUTER|52=20170809-14:03:07.296|56=TOMADOR_DE_ORDENES|57=gledesma@0032@0032|1=9399485K-00|6=0|11=7ff4a8bf107bb963|14=0|17=-79983ffd80a3bbff|21=3|31=0|32=0|37=-5698738cb7cabd44|38=730000|39=0|40=2|44=80|54=2|55=NUEVAPOLAR|58=New Sell NUEVAPOLAR 730000.0 @ 80.0|59=0|60=20170809-14:03:07.294|63=3|100=XSGO|150=0|151=730000|207=XSGO|453=2|448=LVPOOL|447=D|452=1|448=666|447=D|452=7|10=026|
20170809-14:03:18: 8=FIX.4.4|9=411|35=8|34=219|49=ORDERROUTER|52=20170809-14:03:19.283|56=TOMADOR_DE_ORDENES|57=gledesma@0032@0032|1=9399485K-00|6=80.62|11=7ff4a8bf107bb963|14=10000|17=ex17221421786|21=3|31=80.62|32=10000|37=-5698738cb7cabd44|38=730000|39=1|40=2|44=80|54=2|55=NUEVAPOLAR|58=New Sell NUEVAPOLAR 730000.0 @ 80.0|59=0|60=20170809-14:03:19.282|63=3|100=XSGO|150=F|151=720000|207=XSGO|453=2|448=LVPOOL|447=D|452=1|448=666|447=D|452=7|10=088|
20170809-14:03:18: 8=FIX.4.4|9=411|35=8|34=220|49=ORDERROUTER|52=20170809-14:03:19.292|56=TOMADOR_DE_ORDENES|57=gledesma@0032@0032|1=9399485K-00|6=80.62|11=7ff4a8bf107bb963|14=20000|17=ex17221421789|21=3|31=80.62|32=10000|37=-5698738cb7cabd44|38=730000|39=1|40=2|44=80|54=2|55=NUEVAPOLAR|58=New Sell NUEVAPOLAR 730000.0 @ 80.0|59=0|60=20170809-14:03:19.291|63=3|100=XSGO|150=F|151=710000|207=XSGO|453=2|448=LVPOOL|447=D|452=1|448=666|447=D|452=7|10=083|
20170809-14:03:18: 8=FIX.4.4|9=411|35=8|34=221|49=ORDERROUTER|52=20170809-14:03:19.301|56=TOMADOR_DE_ORDENES|57=gledesma@0032@0032|1=9399485K-00|6=80.62|11=7ff4a8bf107bb963|14=30000|17=ex17221421792|21=3|31=80.62|32=10000|37=-5698738cb7cabd44|38=730000|39=1|40=2|44=80|54=2|55=NUEVAPOLAR|58=New Sell NUEVAPOLAR 730000.0 @ 80.0|59=0|60=20170809-14:03:19.300|63=3|100=XSGO|150=F|151=700000|207=XSGO|453=2|448=LVPOOL|447=D|452=1|448=666|447=D|452=7|10=060|
20170809-14:03:18: 8=FIX.4.4|9=411|35=8|34=222|49=ORDERROUTER|52=20170809-14:03:19.309|56=TOMADOR_DE_ORDENES|57=gledesma@0032@0032|1=9399485K-00|6=80.62|11=7ff4a8bf107bb963|14=40000|17=ex17221421795|21=3|31=80.62|32=10000|37=-5698738cb7cabd44|38=730000|39=1|40=2|44=80|54=2|55=NUEVAPOLAR|58=New Sell NUEVAPOLAR 730000.0 @ 80.0|59=0|60=20170809-14:03:19.309|63=3|100=XSGO|150=F|151=690000|207=XSGO|453=2|448=LVPOOL|447=D|452=1|448=666|447=D|452=7|10=090|
20170809-14:03:18: 8=FIX.4.4|9=411|35=8|34=223|49=ORDERROUTER|52=20170809-14:03:19.319|56=TOMADOR_DE_ORDENES|57=gledesma@0032@0032|1=9399485K-00|6=80.62|11=7ff4a8bf107bb963|14=50000|17=ex17221421798|21=3|31=80.62|32=10000|37=-5698738cb7cabd44|38=730000|39=1|40=2|44=80|54=2|55=NUEVAPOLAR|58=New Sell NUEVAPOLAR 730000.0 @ 80.0|59=0|60=20170809-14:03:19.318|63=3|100=XSGO|150=F|151=680000|207=XSGO|453=2|448=LVPOOL|447=D|452=1|448=666|447=D|452=7|10=095|
20170809-14:03:18: 8=FIX.4.4|9=411|35=8|34=224|49=ORDERROUTER|52=20170809-14:03:19.327|56=TOMADOR_DE_ORDENES|57=gledesma@0032@0032|1=9399485K-00|6=80.62|11=7ff4a8bf107bb963|14=60000|17=ex17221421801|21=3|31=80.62|32=10000|37=-5698738cb7cabd44|38=730000|39=1|40=2|44=80|54=2|55=NUEVAPOLAR|58=New Sell NUEVAPOLAR 730000.0 @ 80.0|59=0|60=20170809-14:03:19.327|63=3|100=XSGO|150=F|151=670000|207=XSGO|453=2|448=LVPOOL|447=D|452=1|448=666|447=D|452=7|10=080|
20170809-14:03:18: 8=FIX.4.4|9=411|35=8|34=225|49=ORDERROUTER|52=20170809-14:03:19.337|56=TOMADOR_DE_ORDENES|57=gledesma@0032@0032|1=9399485K-00|6=80.62|11=7ff4a8bf107bb963|14=70000|17=ex17221421804|21=3|31=80.62|32=10000|37=-5698738cb7cabd44|38=730000|39=1|40=2|44=80|54=2|55=NUEVAPOLAR|58=New Sell NUEVAPOLAR 730000.0 @ 80.0|59=0|60=20170809-14:03:19.336|63=3|100=XSGO|150=F|151=660000|207=XSGO|453=2|448=LVPOOL|447=D|452=1|448=666|447=D|452=7|10=085|
20170809-14:03:18: 8=FIX.4.4|9=411|35=8|34=226|49=ORDERROUTER|52=20170809-14:03:19.346|56=TOMADOR_DE_ORDENES|57=gledesma@0032@0032|1=9399485K-00|6=80.62|11=7ff4a8bf107bb963|14=80000|17=ex17221421807|21=3|31=80.62|32=10000|37=-5698738cb7cabd44|38=730000|39=1|40=2|44=80|54=2|55=NUEVAPOLAR|58=New Sell NUEVAPOLAR 730000.0 @ 80.0|59=0|60=20170809-14:03:19.346|63=3|100=XSGO|150=F|151=650000|207=XSGO|453=2|448=LVPOOL|447=D|452=1|448=666|447=D|452=7|10=090|
20170809-14:03:18: 8=FIX.4.4|9=409|35=8|34=227|49=ORDERROUTER|52=20170809-14:03:19.357|56=TOMADOR_DE_ORDENES|57=gledesma@0032@0032|1=9399485K-00|6=80.62|11=7ff4a8bf107bb963|14=80420|17=ex17221421810|21=3|31=80.62|32=420|37=-5698738cb7cabd44|38=730000|39=1|40=2|44=80|54=2|55=NUEVAPOLAR|58=New Sell NUEVAPOLAR 730000.0 @ 80.0|59=0|60=20170809-14:03:19.357|63=3|100=XSGO|150=F|151=649580|207=XSGO|453=2|448=LVPOOL|447=D|452=1|448=666|447=D|452=7|10=032|
